:020000040800F2
:10000000485A002085020008892100089F1E000828
:1000100061210008250500083932000800000000B1
:10002000000000000000000000000000C501000802
:10003000D90500080000000021020008032C000878
:100040009F0200089F0200089F0200089F0200080C
:100050009F0200089F0200089F0200089F020008FC
:100060009F0200089F0200089F0200089F020008EC
:100070009F0200089F0200089F0200089F020008DC
:100080009F0200089F0200089F0200089F020008CC
:100090009F0200089F0200089F0200089F020008BC
:1000A0009F0200089F0200089F0200089F020008AC
:1000B0009F0200089F0200089F0200089F0200089C
:1000C0009F0200089F0200089F0200089F0200088C
:1000D0009F020008213200089F0200089F020008CA
:1000E0009F0200089F0200089F0200089F0200086C
:1000F0009F0200089F0200089F0200089F0200085C
:100100009F0200089F0200089F0200089F0200084B
:100110009F0200089F020008CD2C00089F020008E3
:100120009F0200089F020008290500089F0200089E
:100130009F0200089F0200089F0200089F0200081B
:100140009F0200089F0200089F0200089F0200080B
:100150009F0200089F0200089F0200089F020008FB
:100160009F0200089F0200089F0200089F020008EB
:100170009F0200089F0200089F0200080000000084
:100180009F0200089F0200089F0200089F020008CB
:100190009F0200089F0200089F0200089F020008BB
:1001A00000000000000000009F020008DFF810D0EF
:1001B00000F012F9004800477D370008AFF30080D7
:1001C000485A00202C4B19680868B0E8F04F80F3BB
:1001D0000988BFF36F8F4FF0000080F311887047DC
:1001E0000000000008480068006880F308884FF0AD
:1001F000000080F3148862B661B6BFF34F8FBFF37F
:100200006F8F00DF00BF00BF08ED00E0DFF80C00DB
:10021000016841F470010160704700BF88ED00E0A3
:10022000EFF30980BFF36F8F134B1A681EF0100FA6
:1002300008BF20ED108A20E9F04F106009B44FF09C
:10024000500080F31188BFF34F8FBFF36F8F04F01E
:10025000ABF94FF0000080F3118809BC19680868F9
:10026000B0E8F04F1EF0100F08BFB0EC108A80F31A
:100270000988BFF36F8F70470C000020EFF30580F3
:10028000704700000648804706480047FEE7FEE743
:10029000FEE7FEE7FEE7FEE7FEE7FEE7FEE7FEE736
:1002A000BD2C0008AD0100082DE9F05F05460020D7
:1002B00092469B4688460646814640241BE02846D7
:1002C00041464746224600F076F853465A46C01A41
:1002D000914110D311461846224600F05DF82D1AC0
:1002E00067EB01084F4622460120002100F054F838
:1002F00017EB00094E41201EA4F10104DFDC484643
:1003000031462A464346BDE8F09F40EA01039B0779
:1003100003D009E008C9121F08C0042AFAD203E07A
:1003200011F8013B00F8013B521EF9D27047D2B2DE
:1003300001E000F8012B491EFBD270470022F6E7CE
:1003400010B513460A4604461946FFF7F0FF20464B
:1003500010BD30B504460020034600E05B1C93420C
:1003600003D2E05CCD5C401BF8D030BD30B50B460D
:10037000014600202022012409E021FA02F59D42D5
:1003800005D303FA02F5491B04FA02F52844151EA9
:10039000A2F10102F1DC30BD202A04DB203A00FA90
:1003A00002F1002070479140C2F1200320FA03F3CC
:1003B000194390407047202A04DB203A21FA02F0CA
:1003C0000021704721FA02F3D040C2F1200291408F
:1003D0000843194670470000064C074D06E0E068E8
:1003E00040F0010394E8070098471034AC42F6D37C
:1003F000FFF7E0FED4510008F4510008464910B55B
:100400004A6822F440324A604A6843681A434A60A4
:1004100001684A6822F480724A6001684A68036988
:1004200042EA03224A6001684A6822F040724A6048
:1004300001684A6883681A434A6001688A6822F43E
:1004400000628A6001688A68C3681A438A60816AA8
:100450006FF07062D14201688A6822F070628A602F
:1004600001688A680CD0836A1A438A6001688A68C6
:1004700022F040528A6001688A68C36A1A4301E028
:1004800022F040528A6001688A6822F002028A6083
:1004900001688A68037E42EA43028A6090F820106D
:1004A000002901684A680FD042F400624A6001687E
:1004B0004A6822F460424A6001684A68174C436AFD
:1004C00004EB43331A4301E022F400624A600168FE
:1004D000CA6A22F47002CA620168CA6A838B104C2D
:1004E00004EB03531A43CA6201688A6822F400725B
:1004F0008A6001688A6890F8303042EA43228A6054
:1005000001688A6822F480628A6001688A684069AA
:1005100042EA8020886010BD0023014000E0FFFF18
:100520000000F0FFFEE70000014800F091BA000073
:10053000FC01002001681823CAB2103AB2FBF3F2A2
:10054000054B6FF30901032A9B5CC36500D9091DA4
:1005500081650846704700005451000810B50146F7
:1005600000208B698A6A4FF0C07453B1B3F5005F05
:1005700015D072B1012A0CD0022A0AD0032A09D15F
:1005800004E01AB1012A06D0022A03D1C96AC901BE
:1005900000D5012010BDC96AA142FAD010BD002AC1
:1005A000F7D0012AF2D0022AF3D0032AF3D010BDEB
:1005B00030B50468256825F48025256004686360EB
:1005C0008368402B036803D099600068C26030BD27
:1005D0009A600068C16030BD704772B6FEE70000E7
:1005E00078B50024009490F83C20012A19D001220B
:1005F00080F83C200A6807230568092A13D9EE68A9
:100600000A3A02EB420293409E43EE600B788A68FE
:100610000A3B03EB43039A400368DD682A43DA6030
:1006200010E0022078BD2E6902EB420293409E4307
:100630002E610B788A6803EB43039A4003681D69B7
:100640002A431A614A681F23072A13D205686E6B72
:10065000521E02EB820293409E436E630A8893B25D
:100660000A79521E02EB820293400268556B2B43BB
:10067000536327E005680D2A12D22E6BD21F02EBBE
:10068000820293409E432E630B790A88DB1F92B24D
:1006900003EB83039A4003681D6B2A431A6311E03E
:1006A000EE6A0D3A02EB820293409E43EE620B79B2
:1006B0000A880D3B92B203EB83039A400368DD6A1C
:1006C0002A43DA621B4B0568194A9D420AD10D681C
:1006D000122D07D1556825F400055560556845F47D
:1006E0008005556005689D421DD1134D0B68AB42D6
:1006F00001D0112B17D1536823F480035360536842
:1007000043F4000353600968A9420CD10B490C4A19
:100710000968B1FBF2F101EB8101490000E0491EDB
:1007200000910029FBD180F83C40002078BD0000FA
:10073000002301400020014012000010A80000200A
:1007400040420F0070B504004FF0000503D0206C4C
:10075000002610B107E0012070BD204600F01CF813
:10076000666484F83C60206CC00610D4206C20F4D1
:10077000885040F0020020642046FFF73FFE666488
:10078000206C20F0020040F00100206400E0012510
:1007900084F83C60284670BD10B586B0044614212C
:1007A0006846FFF7CBFD174B2268002116489A4296
:1007B00009D1016841F480710160006800F4807023
:1007C000059006B010BD114B9A42FAD1026842F46E
:1007D00080620260006800F4806005900A48143866
:1007E000026842F020020260006800F020000590DC
:1007F000102000900320CDE901016946044800F073
:1008000099FADEE70020014044380240002201400E
:100810000014024070B5040003D094F8200010B119
:1008200004E0012070BD204600F082F820680168D5
:1008300041F00101016000F0A5FB0546052604E03A
:1008400000F0A0FB401B0A2811D820684068C007B0
:10085000F6D02068016821F00201016000F092FBEF
:1008600005460BE000F08EFB401B0A2806D9606AA3
:1008700040F40030606284F82060D2E7206840686D
:100880008007EFD4207E0128206801683DD021F048
:1008900080010160607E01282068016838D021F065
:1008A00040010160A07E01282068016833D021F05A
:1008B00020010160E07E0128206801682ED041F00F
:1008C00010010160207F01282068016829D021F0F3
:1008D00008010160607F01282068016824D021F0B0
:1008E00004010160D4E902010843D4E90412114370
:1008F00008436168491E08432168C861002060629E
:10090000012084F82000002070BD41F08001C0E784
:1009100041F04001C5E741F02001CAE721F0100194
:10092000CFE741F00801D4E741F00401D9E7000026
:1009300010B586B0044614216846FFF7FFFC134942
:10094000206888421FD112480021026842F00072DC
:100950000260006800F0007005900D4810380268D1
:1009600042F0080202600068022200F008000590D0
:100970000320CDE90210CDE9000209200490694668
:10098000044800F0D7F906B010BD00000064004034
:1009900040380240000C02402DE9F0410446876DCA
:1009A00000F0F0FA064694F835000025022806D03B
:1009B0008020606584F834500120BDE8F081206813
:1009C000016821F0160101602068416921F0800171
:1009D0004161206C08B9A06C20B12068016821F049
:1009E000080101602068016821F0010101600CE04C
:1009F00000F0C8FA801B052807D920206065032075
:100A000084F8350084F83450D7E720680068C007C0
:100A1000EED194F85C103F208840B860012084F843
:100A2000350084F834500020C7E790F835100229CB
:100A300003D08021416501207047052180F83510E1
:100A40000068016821F0010101600020704700008A
:100A50002DE9F84304464FF00009CDF800906348B3
:100A60004FF41651A56D0068B0FBF1F72E6894F8AD
:100A70005C10082000FA01F131420FD021680A68A9
:100A800052070BD50A6822F004020A6094F85C1041
:100A90008840A860606D40F00100606594F85C10CB
:100AA0004FF0010808FA01F0304208D02168496986
:100AB000090604D5A860606D40F00200606594F8F6
:100AC0005C1004208840304208D0216809688907FA
:100AD00004D5A860606D40F00400606594F85C1077
:100AE00010208840304218D021680968090714D5C1
:100AF000A86020680168490304D50068000308D590
:100B0000A16C07E00168C90503D4016821F0080160
:100B10000160216C09B12046884794F85C102020C0
:100B20008840304231D021680968C9062DD5A860B7
:100B300094F8350005282068016806D0490347D598
:100B4000006800031DD4616C1CE021F016010160F7
:100B50002068416921F080014161206C08B9A06CD6
:100B600020B12068016821F00801016094F85C1050
:100B70003F208840A86084F8358084F83490216D47
:100B80001FE0E16B09B120468847606D00282BD03B
:100B9000606DC00714D0052084F835002068016816
:100BA00021F0010101600098401C0090B84203D878
:100BB00020680068C007F6D184F8358084F8349046
:100BC000E16C002910D001B02046BDE8F043084791
:100BD0000168C905D5D4016821F01001016084F8CD
:100BE000358084F83490CCE7BDE8F883A800002075
:100BF0002DE9F041044600F0C5F906465CB102203B
:100C000084F83500002584F834502068016821F00C
:100C1000010101600DE00120BDE8F08100F0B2F9B2
:100C2000801B052805D920206065032084F8350045
:100C3000F2E720680068C007F0D1226811682048F8
:100C40000140D4E901031843D4E903363343184380
:100C500063691843A3691843E3691843236A184377
:100C60000843616A042903D1D4E90B1319430843EB
:100C7000106020684069666A20F0070130460E4324
:100C8000012704280CD1A06A0643E06A40B120463F
:100C9000FFF764FC20B14020606584F83570BAE746
:100CA000206846612046FFF745FC94F85C203F2110
:100CB00091408160656584F835700020ACE70000E4
:100CC0003F8010F02DE9F0410446866D90F8340025
:100CD000002501280DD0012084F8340094F83570E7
:100CE0000020012F07D084F8340002252846BDE8F3
:100CF000F0810220FBE7022784F83570606520460A
:100D0000FFF756FC94F85C103F208840B0602068E4
:100D1000016841F016010160206C20B12068016873
:100D200041F0080101602068016841F001010160A3
:100D3000DCE700002DE9F84FDFF8F8A100220124DC
:100D400003254FF00F090AF1040BAAF1040E00BFAE
:100D50000B6804FA02F63340B34270D10F7907F002
:100D60000307012F01D0022F16D187684FEA4208EE
:100D700005FA08FC27EA0C07D1F80CC00CFA08FCAD
:100D80004CEA070CC0F808C04768B7430E79C6F3B1
:100D9000001696403E4346600E79F643B6070AD0E9
:100DA000C7684FEA420C05FA0CF6B7438E6806FA9C
:100DB0000CF63E43C6600E7906F00306022E10D1F3
:100DC000D60800EB8608D8F8206057074FEAD76CA2
:100DD00009FA0CF7BE430F6907FA0CF73743C8F856
:100DE000207006684FEA420C05FA0CF7BE430F79F3
:100DF00007F0030707FA0CF7374307604E6816F44D
:100E0000403F1CD04C4E376847F480473760366807
:100E100022F0030706F480460096484E07EB060CC6
:100E2000DCF8086897073F0F09FA07F826EA080672
:100E3000DFF80C81404503D14FF0000841E072E03B
:100E4000DFF80081404502D14FF0010839E0DFF8BA
:100E5000F880404502D14FF0020832E0DFF8EC8024
:100E6000404502D14FF003082BE0DFF8E480404515
:100E700002D14FF0040824E0DFF8D880404502D1C9
:100E80004FF005081DE0DFF8D080404502D14FF05B
:100E9000060816E0DFF8C480404502D14FF007088D
:100EA0000FE0DFF8BC80404502D14FF0080808E0B1
:100EB000DFF8B080404502D14FF0090801E04FF063
:100EC0000A0808FA07F848EA0608CCF80888DAF8A9
:100ED00000605746D1F804C09E435FEACC2C00D591
:100EE0001E433E60DBF800605F46D1F804C09E43BD
:100EF0005FEA8C2C00D51E433E60DEF8006077462A
:100F0000D1F804C09E435FEA8C3C00D51E433E608E
:100F1000084F083F3E68D1F804C09E435FEACC3CCE
:100F200000D51E433E60521C102AFFF411AFBDE8ED
:100F3000F88F0000083C0140443802400030014076
:100F4000000002400004024000080240000C024081
:100F5000001002400014024000180240001C024031
:100F60000020024000240240426921EA02030A40B4
:100F700043EA0241816170470AB181617047090407
:100F8000FBE7000001488068704700009C000020DB
:100F90000248816802781144816070479C000020FB
:100FA0000B4810B5016841F400710160016841F41B
:100FB00080610160016841F480710160032000F0EC
:100FC0009FF80F2000F006F800F050F8002010BD48
:100FD000003C024030B505461F4887B00024016838
:100FE00041F010010160006806A900F010000090B7
:100FF00001A800F069F90498A8B100F085F9400053
:101000001649174AB0FBF1F11648491E026040F23A
:10101000E732C0E90324C0E90114846100F07EFBDB
:10102000040003D015E000F06FF9E9E70D4800F087
:10103000A3FB04000DD1362000F034F8102D07D2A8
:1010400000222946362000F03BF80748056000E002
:10105000012407B0204630BD4038024040420F0016
:10106000001000405C020020A00000200C4882B06C
:10107000016841F480410160006800F48040009004
:101080000748001F016841F080510160006800229C
:1010900000F0805000900F21901E02B000F010B8B8
:1010A00044380240002809DB00F01F020121914072
:1010B0004009800000F1E020C0F8001170470000F6
:1010C000F0B40E4B1B680C46C3F30223C3F10705B3
:1010D000042D00D90425191D072901D2002300E0A1
:1010E000DB1E012606FA05F1491E214099409E406B
:1010F000761E16403143F0BC02F012BA0CED00E04F
:10110000064900F0070208684FF6FF03184040EA5E
:101110000220034A10430860704700000CED00E015
:101120000000FA052DE9F8431748016841F08051A5
:1011300001600068154F00F08050012600903E6469
:10114000FFF720FF05464FF47A78114C05E000BF09
:10115000FFF718FF401B40450DD86068C003F7D566
:101160007E64FFF70FFF0546464607E0FFF70AFFDC
:10117000401BB04202D90320BDE8F88360688003B9
:10118000F4D50020F8E700004038024000000E428D
:10119000007000402DE9F0470E46050065D0DFF8ED
:1011A0001481D8F80000F7B200F00F00B04207D267
:1011B00088F80070D8F8000000F00F00B04254D159
:1011C00028683D4C810712D5400703D5206840F4BC
:1011D000E05020602878000703D5206840F4604084
:1011E00020602068A96820F0F0000843206028787B
:1011F000C0072DD0304968680839012812D002286C
:1012000013D0032811D00968890700292DDA216835
:1012100021F0030101432160FFF7B4FE814641F252
:10122000883A0EE009688903EFE709688901ECE76D
:10123000FFF7A8FEA0EB0901514502D90320BDE844
:10124000F0872068696800F00C00B0EB810FEFD1E7
:10125000D8F80010404601F00F01B14207D90770DD
:10126000006800F00F00B04201D00120E7E72878C5
:10127000400705D52068E96820F4E0500843206065
:101280002878000706D52068296920F4604040EAE4
:10129000C100206000F058F82168084AC1F303112A
:1012A000515CC8400649086006480068FFF792FE96
:1012B0000020C4E7003C0240083802405C510008AE
:1012C000A8000020A00000200F2202600C4A136832
:1012D00003F003034360136803F0F00383601368B3
:1012E00003F4E053C36012684FF4E05303EAD20200
:1012F00002610448006800F00F00086070470000B9
:1013000008380240003C024004480549006809686A
:10131000044AC1F38221515CC8407047A8000020F4
:10132000083802406C510008044805490068096803
:10133000044AC1F34231515CC8407047A800002004
:10134000083802406C510008154810B5006810F0CC
:101350000C02144813D01449042A0FD0082A0ED1C5
:101360000F4C241F2268236802F03F025B0207D55E
:101370002068C0F38810A0FB010106E0084610BDFC
:101380002168C1F38811A1FB00010023FEF78CFF47
:101390002168C1F30141491C4900B0FBF1F010BDC7
:1013A000083802400024F400001BB7002DE9F84F74
:1013B00004006ED02078DFF84C93C007A9F1040533
:1013C0004AD009F104000168C1F38101012908D064
:1013D0000068C0F3810002280AD1D9F80000400259
:1013E00006D52868800337D560680028E1D033E04F
:1013F0006068B0F5803F10D0B0F5A02F286810D0FD
:1014000020F480302860286820F4802028606068FC
:10141000A8B1FFF7B7FD06460DE0286840F480301C
:10142000F4E740F480202860F7E700BFFFF7AAFD4B
:10143000801B642873D828688003F7D50CE0FFF779
:10144000A1FD064605E000BFFFF79CFD801B642858
:10145000F0D828688003F7D42078DFF8AC828007C2
:101460004FF0000A3ED5A748001D016811F00C0F8F
:1014700008D00068C0F3810002280BD1D9F8000021
:10148000400207D42868800716D5E068012800D1FB
:1014900012E033E1E068B8B10120C8F80000FFF7BE
:1014A00071FD064605E000BFFFF76CFD801B0228BA
:1014B000C0D828688007F7D52868216920F0F8008F
:1014C00040EAC10028600DE0C8F800A0FFF75AFD0F
:1014D000064604E0FFF756FD801B02281FD8286847
:1014E0008007F7D42078000722D5864F87486169A6
:1014F000703771B101210160FFF744FD064604E039
:10150000FFF740FD801B022809D838688007F7D50F
:101510000EE0C0F800A0FFF735FD064605E082E0CA
:10152000FFF730FD801B02287DD838688007F7D48C
:101530002078400768D5DFF8CCB100270BF13C0BD1
:10154000DBF80000C0000BD4DBF8001041F0805144
:10155000CBF80010DBF80000012700F0805000906D
:101560006B4E3068C00510D4306840F48070306035
:10157000FFF708FD009005E0FFF704FD0099401A11
:10158000022850D83068C005F6D55E4EA0686C368B
:1015900001280FD00528306810D020F001003060FD
:1015A000306820F004003060A068B8B1FFF7EAFCB2
:1015B00000900FE0306840F00100F4E740F00400D4
:1015C0003060F7E7FFF7DEFC0099411A41F28830FE
:1015D000814266D830688007F4D50EE0FFF7D2FC70
:1015E000009007E0FFF7CEFC0099411A41F28830E5
:1015F000814256D830688007F4D42FB1DBF8001050
:1016000021F08051CBF80010A069C8B33D49091DF5
:101610000968C1F3810102294AD00228504607D047
:10162000C8F8600000E03CE0FFF7ACFC04463BE09B
:101630004746C8F86000FFF7A5FC064605E000BF76
:10164000FFF7A0FC801B02282BD828688001F7D464
:10165000D4E907010843A16A2E4A490802EB014177
:10166000626A41EA8211084394F82C1040EA016151
:10167000C9F8001001203866FFF784FC044606E034
:101680003EE000BFFFF77EFC001B022809D8286857
:101690008001F7D534E000BFFFF774FC001B02287F
:1016A00002D90320BDE8F88F28688001F4D427E030
:1016B0000128F7D0D9F80000E26900F480019142D6
:1016C0001CD1226A00F03F01914217D147F6C07148
:1016D000626A0140B1EB821F10D1A26A4FF0FF3362
:1016E00000F4403103EB5202B1EB024F06D194F803
:1016F0002C1000F07060B0EB016F01D00120D1E739
:101700000020CFE70438024000004742800E4742E5
:10171000007000400000FFFF7047704710B50400E4
:1017200003D094F83D0010B107E0012010BD002067
:1017300084F83C00204600F01EF8022084F83D00AA
:10174000211D206801F0C8FA012084F8460084F8C1
:101750003E0084F83F0084F8400084F8410084F89B
:10176000420084F8430084F8440084F8450084F87B
:101770003D00002010BD704790F83D10012901D0B8
:1017800001207047022180F83D100168CA6842F0CC
:101790000102CA6000681149884214D0B0F1804F3C
:1017A00011D00F4988420ED00E4988420BD00E4905
:1017B000884208D00D49884205D00D49884202D0A0
:1017C0000C49884204D1816801F00701062903D041
:1017D000016841F0010101600020704700000140F4
:1017E0000004004000080040000C004000040140DC
:1017F000004001400018004070472DE9F0410446C8
:101800000068C66805694FF00007A90713D5B1073E
:1018100011D5F91E016101202077206880698007B9
:10182000204602D0FFF7E8FF04E000F07EF82046F3
:1018300000F07CF82777680716D5700714D5216863
:101840006FF004000861022020772068806910F49E
:10185000407F204602D0FFF7CFFF04E000F065F89C
:10186000204600F063F82777280715D5300713D5F1
:1018700021686FF008000861042020772068C069A3
:101880008007204602D0FFF7B7FF04E000F04DF8D4
:10189000204600F04BF82777E80616D5F00614D559
:1018A00021686FF010000861082020772068C06967
:1018B00010F4407F204602D0FFF79EFF04E000F0C6
:1018C00034F8204600F032F82777E80708D0F00710
:1018D00006D021686FF001000861204600F028F86A
:1018E000280608D5300606D521686FF0800008610B
:1018F0002046FFF711FF680608D5700606D5216857
:101900006FF040000861204600F01CF8A8060AD5D8
:10191000B00608D521686FF0200008612046BDE8B8
:10192000F041FFF7FABEBDE8F08170477047000054
:1019300000680349884201D1FFF72ABB70470000C5
:10194000001000407047704710B5044600684069B9
:1019500094F84110C0F3C010212911D180B1206842
:10196000143050E8001F21F0800140E80012002AE6
:10197000F5D1A06B08B1FFF70FF8204601F0D8FAB7
:101980002068406994F84210C0F38010222911D1D8
:1019900080B12068143050E8001F21F0400140E879
:1019A0000012002AF5D1E06B08B1FEF7F5FF2046E2
:1019B00001F097FA002010BD70470000F8B50168EB
:1019C00004460868CA684B6910F00F0F4FF0000515
:1019D00059D003F0010602F49077374365D0C10770
:1019E00005D0D10503D5616C41F001016164410767
:1019F00005D5D90703D0616C41F00201616481070C
:101A000005D5D90703D0616C41F004016164010779
:101A100007D502F02001314303D0616C41F0080189
:101A20006164616C00293AD0800604D5900602D525
:101A3000204601F08BFA20684069616CC0F3801089
:101A4000090700D460B3204601F04BFA20684069D2
:101A5000400621D52068143050E8001F21F04001D5
:101A600040E80012002AF5D1E06BA8B16E4901658B
:101A7000E06BFEF7DAFF002811D0E06B016D01B0DA
:101A8000BDE8F040084783060FD593060DD52046E4
:101A9000BDE8F84001F05ABA2046FFF78DFFF8BDC7
:101AA0002046FFF789FF6564F8BD266B2023012ED1
:101AB0007DD1C6067BD5D60679D5086848680090E2
:101AC00048694FF00206400641D5E16B086840685E
:101AD0000004000CE8D0A28D8242E5D9E085C869F7
:101AE000B0F5807F2DD020680C3050E8001F21F425
:101AF000807140E80012002AF5D12068143050E8C7
:101B0000001F21F0010140E80012002AF5D12068F1
:101B1000143050E8001F21F0400140E80012002A74
:101B2000F5D184F84230256320680C3050E8001F5E
:101B300021F0100140E80012002AF5D1E06BFEF719
:101B40002BFF6663A08DE18D401A81B22AE0A08D43
:101B5000E18D401A81B2E08D0028A5D00029A3D0E4
:101B600022680C3252E8000F20F4907042E800071F
:101B7000002FF5D12068143050E8002F22F0010228
:101B800040E80027002FF5D184F842302563206813
:101B90000C3050E8002F22F0100240E80023002B08
:101BA000F5D166632046FFF7CEFEF8BDFFE70506D8
:101BB0002BD5150629D594F841002128F5D1A06828
:101BC000B0F5805F01D12069B0B1206A411C21626B
:101BD000216800784860E08C401E0004000CE0841E
:101BE000E3D12068C16821F08001C1602068C1682C
:101BF00041F04001C160D8E7206A0088C0F30800C6
:101C00004860206A801C2062E5E74006CDD550067A
:101C1000CBD5CA68204622F04002CA6084F8413021
:101C200000F03CF9C1E70000E52D000838B5104888
:101C300000680168C943C90619D40168406800906A
:101C40000B48FFF781FE0B4C20684068192804D12F
:101C5000094800F0ABFA0949087021683220486051
:101C6000BDE8384002460449014800F0B7B838BD25
:101C70006C010020FC010020DC550020AC0000209D
:101C800070B5040004D094F84100002510B106E0BE
:101C9000012070BD84F84050204600F023F8242035
:101CA00084F841002068C16821F40051C1602046D9
:101CB00001F0AEF92068016921F4904101612068CA
:101CC000416921F02A0141612068C16841F4005155
:101CD000C1606564202084F8410084F84200656397
:101CE000002070BDF0B587B0064614216846FEF7A7
:101CF00025FB3449324F346800253248143902221A
:101D00000323BC423DD1046844F010040460006821
:101D100000F010000590086840F0020008600868B4
:101D2000694600F002000590C0208DE825000720DC
:101D3000CDE903302448FEF7FDFF254C2348206001
:101D40004FF00060C4E901054014C4E9035080105D
:101D50006561C4E906504FF44030C4E908052046E7
:101D6000FEF746FF08B1FEF738FCF46300220521B8
:101D70002520A663FFF7A4F92520FFF793F907B004
:101D8000F0BD144EB442FAD1046844F0200404605B
:101D9000006800F020000590086840F040000860EE
:101DA0000868694600F0400005904FF484408DE8D3
:101DB00025000820CDE903300748FEF7BBFFDEE72A
:101DC00000100140443802400004024040640240D8
:101DD000FC010020001401400018024090F842303D
:101DE000202B01D00220704721B11AB100230363D8
:101DF00001F094B901207047704770472DE9F8430E
:101E0000044690F84100984616460D46202802D018
:101E10000220BDE8F88385B17EB1002060642120F6
:101E200084F84100FFF7AEF8A6848146E684A068F6
:101E30002027B0F5805F02D003E00120E9E72069A8
:101E400010B12E4600250EE000260CE08021204631
:101E500001F0ACF9A8B9C6B116F8010B21684860C9
:101E6000E08C401EE084E08C4B464FF00002CDF841
:101E700000800028EAD14FF04001204601F096F999
:101E800040B184F841700320C3E735F8020BC0F37A
:101E90000800E3E784F841700020BAE77047FEE7E6
:101EA000064D4FF400644FF47A7621462846FFF73A
:101EB0005BF8304601F07BFCF7E7000000100240C1
:101EC0007FB50024154800940194029412490394AC
:101ED00001604FF48031C0E901140461047680F898
:101EE00020400F49C0E90A140125C561C46080F88B
:101EF00030404561FEF726FC08B1FEF76EFB11206D
:101F0000CDE90005694602940448FEF769FB002804
:101F100001D0FEF762FB7FBD00200140B40000202D
:101F20000100000F7FB5002415480094019402942D
:101F30001249039401604FF48031C0E90114046137
:101F4000047680F820400F49C0E90A140125C561D4
:101F5000C46080F830404561FEF7F4FB08B1FEF73D
:101F60003CFB0E20CDE90005694602940448FEF7CB
:101F700037FB002801D0FEF730FB7FBD0022014077
:101F8000FC0000200100000F0F4810B50D49016052
:101F90000321416000214FF410228160C0E9031247
:101FA0004FF440124261017641768176C176017725
:101FB0004177FEF72FFC002803D0BDE81040FEF764
:101FC0000CBB10BD0064004044010020094808B566
:101FD000016841F4800101600068002200F4800083
:101FE000009005213A20FFF76BF8BDE808403A2041
:101FF000FFF758B8303802402DE9F04186B014217F
:102000006846FEF79BF933480024016841F040011F
:102010000160016801F040010591016841F0010192
:102020000160016801F001010591016841F00201C0
:102030000160016801F002010591016841F00801A9
:102040000160016801F008010591016841F080011B
:102050000160016801F080010591016841F02001F3
:102060000160016801F020010591016841F0100153
:1020700001600068012200F01000174FD5020590A2
:1020800029463846FEF778FF0122DFF85080960394
:1020900031464046FEF770FF0420CDE900040220DF
:1020A000029069460E48FEF745FE00950125CDE9F0
:1020B0000154694638460394FEF73CFE0096CDE98C
:1020C0000154694640460394FEF734FE06B0BDE86D
:1020D000F08100003038024000100240001402403D
:1020E000000402400E4810B50C4901600D494160E2
:1020F0004FF48051816000214FF48062C0E90312E7
:102100000C22C0E90521C161FFF7BAFD002803D008
:10211000BDE81040FEF761BA10BD0000001001409C
:102120006C010020A08601000C4810B50A4901602E
:102130004FF4E1314160002181600C22C160C0E9AF
:1021400004128161C161FFF79BFD002803D0BDE847
:102150001040FEF742BA10BD00140140B401002047
:10216000FEE7000000F012F8044C05A0E18E01F03B
:10217000C7F90A2001F01BFBF7E70000F655002025
:102180004348333A25640A00FEE70000054800682A
:10219000C16841F01001C160322203490148FFF7D4
:1021A0001DBE00006C010020DC55002048490022C3
:1021B000835C21F81230521CD2B2192AF8D3C27DA6
:1021C0000AB100207047B0F80120C2F30A0221F8DA
:1021D000322F8278C378D20842EA4312C2F30A024D
:1021E0004A80C2780379920942EA8302437942EA3B
:1021F0008322C2F30A028A8042798379520842EA32
:10220000C312C2F30A02CA808279C379120942EA70
:102210000312C2F30A020A81C279037AD20942EA9E
:102220004302437A42EA4322C2F30A024A81427AD3
:10223000837A920842EA8312C2F30A028A81827A7E
:10224000C37A520942EAC302CA818289C2F30A02EE
:102250000A82427B837BD20842EA4312C2F30A021B
:102260004A82827BC37B920942EA8302037C42EA70
:102270008322C2F30A028A82027C437C520842EA29
:10228000C312C2F30A02CA82427C837C120942EA68
:102290000312C2F30A020A83827CC37CD20942EA97
:1022A0004302037D42EA4322C2F30A024A83027DCB
:1022B000437D920842EA8312C2F30A028A83427D76
:1022C000807D520942EAC000C883012070470000A7
:1022D000F65500202DE9F041074617481C461546E3
:1022E00000780E4608B900F0A9FFEFF31182202014
:1022F00080F311881049002000EB400301EBC30379
:10230000DB691BB10B69401C8342F5DC0B6983421E
:102310000BDD00EB400301EBC3018F61CE610D6269
:1023200000238B624B62CC6201E04FF0FF30D1B2F0
:1023300081F31188BDE8F081784B00202DE9F04150
:1023400004461448DDF818801D46007816460F46EE
:1023500008B900F073FF0F48032C18D2EFF3118176
:10236000202282F3118804EB440200EBC2006030AB
:102370002CB107604660856000220261C260C0F82F
:102380001480C8B280F311880020BDE8F0814FF0BE
:10239000FF30FAE7784B00202DE9F04705461C484E
:1023A00016460C46007808B900F048FF184905EBBE
:1023B000450001EBC007A046D7E91B950024603714
:1023C0004D4511D9B868441BB44200D334467868EF
:1023D000224641194046FDF798FFB868361B254450
:1023E000A044A84200D10025A9EB0500B04200D2CC
:1023F00006463EB17868324641194046FDF785FFF2
:102400003444354404B13D612046BDE8F087000006
:10241000784B00202DE9F0410F46194900EB4000B0
:1024200001EBC0041646A16A656AE06918342844C5
:10243000A94217D8A268521B531EB34201D3324699
:1024400014E01944B14219D315463946FDF75DFF32
:102450002A46761B04D0B91832466068FDF755FF4E
:10246000E66008E0491B491EB14207D33946FDF733
:102470004CFFA819E0600120BDE8F0810020FBE7D7
:10248000784B0020084810B50168054B054A0846FE
:1024900000F04CF8BDE810404FF0805000F0CABA90
:1024A0007D3500084C510008A800002070B5EFF3FE
:1024B0001185202080F311881B48A0F12F040146CC
:1024C000626804E042F0800301F8013BD2097F2AF0
:1024D000F8D801F8012BA26805E000BF42F08003A4
:1024E00001F8013BD2097F2AF8D801F8012B2269B3
:1024F00005E000BF42F0800301F8013BD2097F2ACA
:10250000F8D801F8012B002201F8012B182200F065
:1025100025FFE8B280F31188606A002802D0BDE888
:102520007040004770BD00005F5400202DE9F84363
:102530001E4617468846814600234FF480620D49A7
:102540000DA0FFF7C7FE0E4CC0B2002560702076CC
:1025500008230C4A08A10095FFF7F0FE0A48256100
:102560004068C4F80490C4E90280C4E90876257084
:10257000BDE8F883305000205379735669657700C1
:102580003054002090000020001000E010B5EFF360
:102590001184202080F3118804481122014600F0A4
:1025A000DDFEE0B280F3118810BD00005F54002012
:1025B00010B50146EFF31184202080F311880B48F9
:1025C000A0F12F0212698A1A014604E042F080034A
:1025D00001F8013BD2097F2AF8D801F8012B082223
:1025E00000F0BCFEE0B280F3118810BD5F54002003
:1025F00010B50146EFF31184202080F311880B48B9
:10260000A0F12F0212698A1A014604E042F0800309
:1026100001F8013BD2097F2AF8D801F8012B0422E6
:1026200000F09CFEE0B280F3118810BD5F540020E2
:1026300010B50146EFF31184202080F311880B4878
:10264000A0F12F0212698A1A014604E042F08003C9
:1026500001F8013BD2097F2AF8D801F8012B0622A4
:1026600000F07CFEE0B280F3118810BD5F540020C2
:102670000A4810B5006A48B1006838B180470A4678
:102680000146BDE810400D2000F02AB8044841681A
:10269000BDE810400C2000F005B8000030540020C8
:1026A000001000E070B50246EFF31184202080F3A3
:1026B00011880A48034604E041F0800500F8015BF8
:1026C000C9097F29F8D800F8011B0146184600F017
:1026D00045FEE0B280F3118870BD00005F54002019
:1026E00070B50546EFF31184202080F311880F4860
:1026F000034604E041F0800600F8016BC9097F2918
:10270000F8D800F8011B04E042F0800100F8011B3A
:10271000D2097F2AF8D800F8012B01462A4618462C
:1027200000F01CFEE0B280F3118870BD5F54002001
:102730002DE9F0410646EFF31184202080F3118843
:10274000154D284605E000BF41F0800700F8017BE9
:10275000C9097F29F8D800F8011B04E042F0800184
:1027600000F8011BD2097F2AF8D800F8012B04E0F9
:1027700043F0800100F8011BDB097F2BF8D800F83B
:10278000013B01463246284600F0E8FDE0B280F306
:102790001188BDE8F08100005F5400202DE9F04170
:1027A00017460246EFF31184202080F31188069E1D
:1027B000194D284605E000BF41F0800C00F801CB20
:1027C000C9097F29F8D800F8011B04E047F080010F
:1027D00000F8011BFF097F2FF8D800F8017B04E007
:1027E00043F0800100F8011BDB097F2BF8D800F8CB
:1027F000013B04E046F0800100F8011BF6097F2E42
:10280000F8D800F8016B0146284600F0A7FDE0B2B9
:1028100080F31188BDE8F0815F54002010B50246B6
:10282000EFF31184202080F311880448014600F062
:1028300095FDE0B280F3118810BD00005F540020C8
:1028400070B501461E484468002C38D0002003E0D3
:102850002469002C33D0401C8842F9D3EFF3118651
:10286000202080F31188174D284604E041F08002B3
:1028700000F8012BC9097F29F8D800F8011BA168CD
:1028800005E000BF41F0800200F8012BC9097F2953
:10289000F8D800F8011B8022216800F001FD0146F4
:1028A0001622284600F05AFDF0B280F31188002C61
:1028B00005D0E068002802D0BDE87040004770BD38
:1028C000880000205F540020054810B54468002CA3
:1028D00004D0E06800B180472469F8E710BD00002B
:1028E0008800002010B5EFF31184202080F31188B8
:1028F0000B4A0A480146127805E000BF42F0800307
:1029000001F8013BD2097F2AF8D801F8012B1B22DC
:1029100000F024FDE0B280F3118810BD5F54002068
:102920008800002070B5EFF31185202181F3118814
:10293000074C01468022204600F0B2FC01460E22E0
:10294000204600F00BFDE8B280F3118870BD000056
:102950005F5400202DE9F0410546EFF31186202059
:1029600080F311882C4C2968A4F12F0720463A697E
:10297000891A04E041F0800200F8012BC9097F297F
:10298000F8D800F8011BA96805E000BF41F08002FB
:1029900000F8012BC9097F29F8D800F8011B202273
:1029A000696800F07DFC01460922204600F0D6FC53
:1029B00028683A692146801A05E000BF40F080028D
:1029C00001F8012BC0097F28F8D801F8010BE8684D
:1029D00005E000BF40F0800201F8012BC0097F280C
:1029E000F8D801F8010B286905E000BF40F080022B
:1029F00001F8012BC0097F28F8D801F8010B00204D
:102A000001F8010B1522204600F0A8FCF0B280F37B
:102A10001188BDE8F08100005F5400200448006A7E
:102A2000002803D04068002800D00047704700000D
:102A300030540020014908617047000030540020E4
:102A400001490969401A70473054002070B5294C7B
:102A500001202070EFF31185202686F3118860781D
:102A60000A222549FFF7D6FCE8B280F311880A2034
:102A7000FFF7D4FEEFF3118586F3118804F12F00E0
:102A80000146626805E000BF42F0800301F8013BA7
:102A9000D2097F2AF8D801F8012BA26805E000BF0F
:102AA00042F0800301F8013BD2097F2AF8D801F8EF
:102AB000012B226905E000BF42F0800301F8013BD1
:102AC000D2097F2AF8D801F8012B002201F8012B46
:102AD000182200F043FCE8B280F31188606A00B16C
:102AE0008047FFF7C5FDFFF799FFBDE87040FFF78E
:102AF000F9BE0000305400203151000870B5EFF3EA
:102B00001184202080F311880748A0F12F0529782F
:102B100029B10B22014600F021FC00202870E0B210
:102B200080F3118870BD00005F54002070B5EFF392
:102B30001185202181F311880A4C0146802220460C
:102B400000F0AEFB012100F8011B002100F8011B81
:102B500001461A22204600F001FCE8B280F31188F9
:102B600070BD00005F5400202DE9F8430C46174665
:102B700080461E46052213A12046089DFDF7E9FB6D
:102B800000281CD0114A1068082804D3BDE8F84377
:102B90000F48FFF7CBBF00EB80010E4B401C43F802
:102BA000218003EB81013346C1E90147C1E9036597
:102BB00010603A4621464046009500F00DF8BDE809
:102BC000F883000049646C65000000009800002054
:102BD000845100083C5500202DE9F04186B00D4697
:102BE00004461F46164614216846DDF83080FDF77E
:102BF000A5FB8DE8F0016846FFF7ACFE06B0BDE826
:102C0000F08110B54FF0E020006902F099F801283A
:102C100003D0BDE8104001F085BD10BD30B593B0C4
:102C200030216846FDF78AFB14210CA8FDF786FBCE
:102C300020480025016841F080510160006800F0E3
:102C4000805011901C48016841F4404101600068C7
:102C5000022400F4404011900120009000040190F3
:102C60008001CDE9064006200890B420CDE9090492
:102C700004200B906846FEF799FB08B172B6FEE798
:102C8000FEF750FA08B172B6FEE70CA90F2081E8F2
:102C900031004FF4A0500F904FF480501090052158
:102CA0000CA8FEF777FA002801D072B6FEE713B041
:102CB00030BD00004038024000700040024801680A
:102CC00041F470010160704788ED00E00148FEF7B3
:102CD00094BD00005C020020F0B50268294C2A4D2A
:102CE0002A4E2B4F2B4B4FF0804CA04209D0604511
:102CF00007D0A84205D0B04203D0B84201D09842D4
:102D000004D122F0700E4A6842EA0E02A0421BD0A3
:102D1000604519D0A84217D0B04215D0B84213D0A0
:102D2000984211D01C4DA8420ED01C4DA8420BD089
:102D30001B4DA84208D01B4DA84205D01A4DA842F1
:102D400002D01A4DA84203D122F44075CA682A4322
:102D50004D6922F080022A4302608A68C2620A68D2
:102D60008262A04201D0984201D109690163012128
:102D700041610169C90703D0016921F001010161C5
:102D8000F0BD0000000001400004004000080040C9
:102D9000000C00400004014000400140004401409C
:102DA0000048014000180040001C00400020004086
:102DB00010B5FFF767FB074A0021074800F032FD16
:102DC000064C044A002120602432054800F02AFD08
:102DD000606010BDD8500008A11E0008000000204F
:102DE0006521000810B5806B0021C185C184FEF704
:102DF000E3FD10BD70B5846B2068406994F8411004
:102E0000C0F3C0100025212904D118B1E584204663
:102E100000F08EF82068406994F84210C0F38010EA
:102E2000222904D118B1E585204600F05AF8606CDB
:102E300040F0100060642046FEF7BEFD70BD10B586
:102E40000146806B096809684FF00002C9052ED45D
:102E5000C28501680C3151E8003F23F4807341E8DA
:102E60000034002CF5D10168143151E8003F23F003
:102E7000010341E80034002CF5D10168143151E818
:102E8000003F23F0400341E80034002CF5D120211D
:102E900080F84210016B012909D101680C3151E819
:102EA000003F23F0100341E80034002CF5D14263C9
:102EB000016B012902D0FEF79FFF10BD818DFEF747
:102EC00042FD10BD10B5806B01214163016B0129EA
:102ED00002D0FEF792FF10BD818D4908FEF733FD49
:102EE00010BD01680C3151E8002F22F4907241E8C6
:102EF0000023002BF5D10168143151E8002F22F096
:102F0000010241E80023002BF5D1016B012909D111
:102F100001680C3151E8002F22F0100241E8002333
:102F2000002BF5D1202180F8421000210163704769
:102F300001680C3151E8002F22F0C00241E8002363
:102F4000002BF5D1202180F84110704708B590F88A
:102F50004210222901D0022008BD82684FF480531C
:102F60009A4201D1016921B1816A9A421BD04AB1CA
:102F70000AE00268816A5268C2F308020A80816A24
:102F8000891C08E0026972B10268526802F07F028F
:102F90000A70816A491C8162C18D491E0904090CAD
:102FA000C18503D01BE002685268F1E70168CA6876
:102FB00022F02002CA600168CA6822F48072CA60E6
:102FC00001684A6922F001024A61202180F842101A
:102FD00000214163026B012A03D0FEF70DFF0020A0
:102FE00008BD016301680C3151E8002F22F0100286
:102FF00041E80023002BF5D101680A68D20602D50A
:103000000A6849680091818DFEF79DFCE7E70000A2
:1030100070B5044600680169E26821F4405111432B
:1030200001612169A068E2690843616911430843AD
:103030002168CA6849F20C639A430243CA60206857
:103040004169A26921F4407111434161314920680D
:10305000884202D03049884202D1FEF765F901E08A
:10306000FEF752F9E2690023192164253226B2F5F0
:10307000004F626828D0A0FB0101930F9200FDF77A
:1030800013F90146B0FBF5F06FF01802504301EB65
:10309000800006EB0010B0FBF5F000F0F002B1FB91
:1030A000F5F002EB0012B1FBF5F06FF01803584396
:1030B00001EB800006EB0010B0FBF5F000F00F0014
:1030C00021681044886070BDA0FB010192185B412B
:1030D000FDF7EAF80146B0FBF5F00201B1FBF5F0AF
:1030E0006FF01803584301EB800006EBC000B0FB03
:1030F000F5F000F0F80002EB4002B1FBF5F05843A8
:1031000001EB800006EBC000B0FBF5F000F007001B
:10311000D6E70000001001400014014038B581627C
:1031200004468285002013466064222284F84220EF
:10313000E56B1B4AEA63E56B1A4A2A64E56B1A4A97
:10314000EA64E26B10650A462168E06B091DFDF731
:10315000B9FD2068016840680090206948B1206886
:103160000C3050E8001F41F4807140E80012002A42
:10317000F5D12068143050E8001F41F0010140E80B
:103180000012002AF5D12068143050E8001F41F0E9
:10319000400140E80012002AF5D1002038BD0000AF
:1031A0003F2E0008C52E0008F52D00082DE9F84334
:1031B000984617460D460446089E24E0701C22D00F
:1031C000FDF7E0FEA0EB0800B0421AD8CEB12068AF
:1031D000C168490717D5802D15D0402D13D001683F
:1031E000C94309070FD401680025406800902046B4
:1031F000FFF777FE0820606484F840500120BDE8A6
:10320000F8830320FBE72068006835EA000004D05B
:103210000020B842D2D00020F1E70120F9E70000F9
:1032200010B50448FEF702FDBDE810400148FEF766
:10323000C5BB00006C010020FEE7000010B5134C78
:10324000A8212046FDF77AF803202061606110A0D4
:10325000A06104F1A800E0614FF4806020620020CA
:10326000A0626062E0620AA1216604F59561616670
:103270001021A1662067E06660670849C0F10F026F
:103280008A5C2254401C1028F8D310BD784B0020D3
:103290005465726D696E616C000000002051000879
:1032A00030B50346401C0C46802A04D97F2204E036
:1032B00000F8015B491C521E02D30D78002DF7D196
:1032C000091B197030BD000038B5234C0122694636
:1032D000207EFFF761F800281CD09DF8000005282B
:1032E00025D008DC012816D0022817D0032818D0D2
:1032F000042808D118E006281CD007281DD07F28F4
:1033000008D080281CD0802804D3207E0122694662
:10331000FFF742F838BDFFF799FB38BDFFF7EEFB2A
:1033200038BDFFF7A5F938BDFFF778FB38BDFFF7CB
:10333000BDF838BDFFF7D6FA38BDFFF7C5FA38BD7E
:10334000207E01226946FFF727F80028F7D09DF874
:103350000000FFF775FA38BD305400202DE9F04722
:103360004A4D0746144628780E464FF001090128B9
:1033700008D0002875D0022804D100F08DF82878F4
:1033800001286ED1202C04D2E96909FA04F0014227
:1033900067D1E2B2182C0ED3F01B7F2807D9C109E0
:1033A0007B1E40F08000197007F8020D01E007F85D
:1033B000010D7F2C02D2791E0A7039E0E0B240F094
:1033C0008000B4F5804F04D2E2097B1EB91E1A704A
:1033D0001DE0802343EAD411CAB2B4F5001F06D21F
:1033E000A30B7C1E2370BB1EF91E1A700FE08021F8
:1033F00041EA943101F0FF0CB4F1805F09D2630D12
:103400007C1E2370FB1E07F802CC1A70391F08704F
:103410000EE04FEA147843EA5453BC1E07F8018CBF
:1034200023703B1F394607F803CC1A7001F8050DCD
:1034300017484468E868201A05E000BF40F08002A1
:1034400006F8012BC0097F28F8D806F8010B721A7C
:103450006878FEF7DFFF08B1EC6002E02878401CD6
:103460002870287E00EB40010A4800EBC100C16EC5
:10347000006F814208D0A878002805D185F8029015
:10348000FFF722FF0020A870BDE8F087305400202D
:10349000001000E0784B00203EB50120164C8DF85E
:1034A00000006A46501C616905E000BF41F08003DE
:1034B00000F8013BC9097F29F8D800F8011B0F4922
:1034C0004D68E168691A04E041F0800300F8013BAF
:1034D000C9097F29F8D800F8011B821A607869466B
:1034E000FEF798FF20B1E5602178491E21703EBDAE
:1034F0006169491C61613EBD30540020001000E04C
:103500000FB4054B10B503A9044A029800F080F8E7
:1035100010BC5DF814FB000065370008B000002007
:103520000907090E002804DB00F1E02080F80014F0
:10353000704700F00F0000F1E02080F8141D704784
:1035400002E008C8121F08C1002AFAD1704770476C
:10355000002001E001C1121F002AFBD1704770B5A5
:1035600001F002FC4FF47A730146A1FB030500222F
:10357000144602FB035201FB042170BD10B504A0E8
:10358000FFF7D0F9BDE810400EA0FFF7CBB900005F
:103590004E3D54502D54687265616420456D6265DE
:1035A000646465642053797374656D2C443D436F86
:1035B000727465782D4D342C4F3D54502D546872E3
:1035C00065616400492331353D5379735469636BF8
:1035D00000000000F8B500240B4F11E00B4E04EB87
:1035E000840556F8250000F0E7FD06EB850108612B
:1035F000091D00900EC956F82500FFF7EDFA641C6E
:1036000038688442EAD3F8BD980000203C55002079
:103610002DE9FF4F89B09B460446002506E025288A
:103620000BD05A460B999047641C6D1C20780028DB
:10363000F5D10DB02846BDE8F08F0027B84601222D
:10364000474900E0074314F8013F203B02FA03F02A
:103650000842F7D120782E2819D114F8010F47F02D
:1036600004072A280ED06FF02F022078A0F1300135
:1036700009290CD808EB880102EB410100EB010895
:10368000641CF2E70A98641C50F8048B0A902078B6
:103690000028CED0642808D0692806D075281ED00E
:1036A0005A460B9990476D1C58E00A994FF00A0949
:1036B00001C90A91002802DA40422D2102E03905B1
:1036C00004D52B218DF82010012103E0F90704D047
:1036D0002021F7E78A4608AE0DE00021FAE70A99B3
:1036E0004FF00A0901C90A91F7E74946FCF73EFE87
:1036F000303106F8011D0028F7D1ADEB060000F1CE
:103700002009780701D44FF00108C84502DDA8EB75
:10371000090000E000208046002706E008A85A467D
:10372000C05D0B9990476D1C7F1C5745F6DB04E08C
:1037300030205A460B9990476D1CB8F10001A8F152
:103740000108F5DC05E016F8010B5A460B99904785
:103750006D1CB9F10001A9F10109F4DC641C65E7F5
:103760000928010013B50A23012269460248FEF721
:1037700045FB00981CBD0000B4010020FDF710FCC3
:10378000FFF74CFAFEF738FCFEF720FCFEF798FB3B
:10379000FEF7C8FBFEF7A6FCFEF7F6FBFEF7C4FC3F
:1037A00000F012F8FFF704FB00F020F8FEE710B578
:1037B000EFF3058111B16FF0050403E0002408B1B7
:1037C00000F02AFE204610BDEFF3058010B16FF027
:1037D000050070470448016811B14FF0FF30704791
:1037E00001210160002070470800002010B5EFF3B0
:1037F000058010B16FF0050010BD0848016801296F
:1038000002D04FF0FF3010BD054A002182F8141D90
:103810000221016000F070FE002010BD08000020B1
:103820000BE000E02DE9FF414FEA01034FF00005F6
:10383000EFF30581039549BB40B38027182100248D
:103840004AB3166806B1344696691EB13146761EF3
:10385000382E02D21679F60703D0002004B0BDE856
:10386000F081566906B1B708D2F808C0BCF1000F64
:103870000DD0D5685C2D18D312693AB136B18DE8F8
:1038800006103A46214601F030FA03900DE0D66862
:103890005EB912694AB903AACDE90012BAB221464B
:1038A00001F0F6F9012800D003950398D6E700004F
:1038B0002DE9F041134C0F460546E6682068001DCF
:1038C00000F066FC681C07D137B12168BDE8F04103
:1038D0000D48091D00F0B4BC20683544B542456070
:1038E000216805D2A06BBDE8F041091D00F090BC35
:1038F000606B091D00F08CFCA06A854200D2A562B5
:10390000BDE8F0810C0000200C0E0020F8B5044644
:1039100000F0A2FC354DA868401CA8602868344F10
:1039200010B1686938B32CE02C60A868012828D150
:103930005FF0000606EB860007EB800000F05AFC03
:10394000761C382EF6D32B4800F054FC294814304E
:1039500000F050FC2748283000F04CFC25483C3053
:1039600000F048FC2348503000F044FC21486863D4
:103970001430A86305E02868E16AC06A884200D86C
:103980002C60686A401C6862606464B12046FEF77F
:103990000FFE236B206804F13401C01A009020460A
:1039A000E26AFFF7E1F82046FEF742FEE06A296985
:1039B000884200D9286100EB800007EB8000211DC0
:1039C00000F03EFC00F068FC686900280CD0286814
:1039D000E16AC06A884207D207494FF08050086008
:1039E000BFF34F8FBFF36F8FF8BD00000C000020B6
:1039F0005C090020BC0D002004ED00E038B500F0AB
:103A00002BFC104C2068C8B90F4800F0F3FB0E489F
:103A1000143000F0EFFB0C48E060143020610A4BDA
:103A20000020F03B009003F1500210210A2000F02A
:103A30008FFE206010B105A100F0B0FCBDE8384059
:103A400000F02ABC48000020100F0020546D725175
:103A50000000000030B4026C0B46002A0BD0C16895
:103A60001144C1608468A14201D30168C16030BCC7
:103A70001846FCF74ABC30BC70472DE9F041856B15
:103A8000174604460026026C82B1C7B1E068FCF715
:103A90003CFCE168206C091AE1602268914202D284
:103AA000A168081AE060022F16D017E02068A8B9B4
:103AB000A06801F0C9F906460020A0600EE0606829
:103AC000FCF723FC216C606808446060A1688842B0
:103AD00004D32068606001E005B16D1E6D1CA56314
:103AE0003046BDE8F08110B5044690F8590058B151
:103AF00001280CD002280FD0502080F31188BFF38A
:103B00004F8FBFF36F8FFEE7206B00F0D9FB20468D
:103B1000BDE8104000F0D4BB10BD000010484FF4C9
:103B20007051420706D0C01D0D4920F00700411A10
:103B3000C1F570510B4A00230144C2E90003083962
:103B4000183A21F0070111604B600B600B1AC0E9B5
:103B5000001393604FF000405360506170470000C5
:103B6000780F002080000020144E154CA6F29C47D0
:103B70004FF08058DFF84C9012E000BF00F06CFB73
:103B8000F068C568281D00F003FBA068401EA06017
:103B90006068401E606000F07FFB2846FFF7A3FFCF
:103BA00060680028EAD138680128F9D9C9F800808E
:103BB000BFF34F8FBFF36F8FF2E70000F80D0020C7
:103BC0000C00002004ED00E02DE9F0411F46069CAA
:103BD0000D00064610D02260C4E90F650121204681
:103BE00000F0EAFD84F84C703B462A463146BDE8B9
:103BF000F0417320FEF79CBD2460EDE72DE9F05FF6
:103C00008846DDE90B941546834691009A460A9E44
:103C1000A522206BFCF78BFB6FF00301206B01EBFF
:103C20008501084420F00707780707D0502080F36B
:103C30001188BFF34F8FBFF36F8FFEE70025B8F1F8
:103C4000000F0FD05FF00000221818F8001082F863
:103C5000341018F8001011B1401C1028F4D384F867
:103C6000435001E084F83450382E00D33726E66202
:103C7000C4E91365201D00F0C8FA04F1180000F033
:103C8000C4FA2461C6F138006462A061656584F8F5
:103C9000585052465946384600F064FA2060B9F14F
:103CA000000F01D0C9F80040BDE8F09F30B51149C0
:103CB00000E011460A688242FBD34B685C188442DC
:103CC00003D1406818444860084643681C18944271
:103CD00009D1084C183C2468A24209D052681A4401
:103CE00042600A6812680260814200D0086030BDFC
:103CF0000460F9E78000002070B5002441600B4D9E
:103D00000061914206D8D11A8269914206D2011D02
:103D1000286907E09A4203D2994201D3012403E0C3
:103D2000011DE86800F074FA204670BD48000020CC
:103D300010B5044600F090FAA06B28B15FF00004C3
:103D400000F0AAFA204610BD0124F9E730B589B089
:103D50003C4D6EE00498002806DADDE90601059A7C
:103D600090470498002864DB069C606910B1201D10
:103D700000F00EFA03A800F0D7F8024604980A28CB
:103D800057D2DFE800F00505052D334A05052D3330
:103D900094F8280040F0010084F828000599A069F3
:103DA000059B01442046FFF7A7FF68B3216A204620
:103DB000884794F8280040073BD5002000900598DC
:103DC000A169002342181946204601F051F9D8B9DB
:103DD000502080F31188BFF34F8FBFF36F8FFEE742
:103DE00014F8280F20F00100207022E094F8280039
:103DF00040F0010084F828000598A06128B18118DE
:103E000013462046FFF778FF13E0502080F3118817
:103E1000BFF34F8FBFF36F8FFEE794F82800810741
:103E200003D4204600F04CFA03E020F0010084F8AF
:103E30002800002204A9286800F036FE002889D155
:103E400009B030BD480000202DE9FC410F46054671
:103E500000F0A2FB01A800F067F80446019818B131
:103E600001F072F8BDE8FC81254EAFB13069006801
:103E7000D0B30027291B3A46306800F0ABFA01F0B6
:103E800063F80028EED11F494FF080500860BFF35F
:103E90004F8FBFF36F8FE5E7A542EBD801F054F8E1
:103EA000F0682746C068C468201D00F071F994F8D6
:103EB0002800410719D5A0692B4641193A462046EA
:103EC000FFF71AFFA8B100200346014600902A46DA
:103ED000204601F0CDF860B9502080F31188BFF37F
:103EE0004F8FBFF36F8FFEE707E020F0010084F8EB
:103EF0002800216A20468847B4E70127BAE7000076
:103F00004800002004ED00E00648416B096829B133
:103F1000416BC968C9684968816270474FF0FF31D9
:103F2000FAE700000C00002070B5054600F016FF0F
:103F3000064E0446B068844203D200F009F801201E
:103F400000E0002028602046B46070BD48000020DA
:103F5000F8B5194D20E0C068C4680668201D00F05F
:103F600017F9216A2046884794F82800400713D59E
:103F7000A0693044B04206D924616060211DE86820
:103F800000F046F908E00020034601460090324662
:103F9000204601F06DF838B1E86801680029DAD1EF
:103FA0002969C5E90310F8BD502080F31188BFF3DB
:103FB0004F8FBFF36F8FFEE748000020002101E024
:103FC000401C491C0278A52AFAD0C1F38F00704723
:103FD00008484068401C4FF0500080F3118804D01E
:103FE000BFF34F8FBFF36F8FFEE7BFF34F8FBFF36A
:103FF0006F8FFEE75C000020074CE068016841B16C
:10400000C0680021D0F80000FFF71EFFFFF79EFEFA
:10401000F3E701210020F7E7480000202DE9F041F7
:10402000044600F019F994F9455004F1240609E01A
:10403000606A48B1304600F04DFF08B100F01EFA4A
:104040006D1E6DB2002DF3DC4FF0FF3684F8456035
:1040500000F022F900F000F994F9445004F110073F
:1040600009E0206948B1384600F034FF08B100F09B
:1040700005FA6D1E6DB2002DF3DC84F84460BDE8D6
:10408000F04100F009B900002DE9F0410546002794
:1040900000F082FA324E306808B9FFF73FFD7069D0
:1040A00005424ED1C5B3083568070ED005F00700AC
:1040B000C0F108000544680707D0502080F311883C
:1040C000BFF34F8FBFF36F8FFEE72DB3706885424C
:1040D00037D82348183001460C6801E020460C46CA
:1040E0006168A94202D221680029F7D131688C4267
:1040F00027D007682168016060680837411B1029D4
:104100000FD96019420708D0502080F31188BFF3FF
:104110004F8FBFF36F8FFEE713E041606560FFF7DD
:10412000C5FD61687068401A7060B268904200D244
:10413000B060706901430020C4E90001F068401CD0
:10414000F06000F001FF780707D0502080F311885D
:10415000BFF34F8FBFF36F8FFEE73846BDE8F081A6
:104160006800002010B5031F4FF080741C601B1FF7
:1041700021F001011960191F044B0B6014390A600A
:10418000091F6FF0020244380A6010BDD13F0008D9
:10419000D0E9013201699A60D0E901235A604A6886
:1041A000824201D182684A60002202610868401E92
:1041B000086008687047000008B902480068006B92
:1041C000FFF7FCBE0C000020034B036003F15C0012
:1041D0000860802010607047A4020020044B036038
:1041E00003F15C0008604FF48070106070470000BD
:1041F0000005002000F108014FF0FF32C0E9011274
:10420000C1600161002101607047002101617047B8
:1042100030B50B685A1C02D000F1080202E00269B6
:1042200004E02246546825689D42FAD953684B60E1
:1042300099608A60516008610168491C016030BD65
:1042400042684A6093688B60936859609160086126
:104250000168491C01607047502080F31188BFF34A
:104260004F8FBFF36F8F0A494868401C4860012890
:104270000CD10848006810F0FF0F07D0502080F3E1
:104280001188BFF34F8FBFF36F8FFEE770470000B9
:104290005C00002004ED00E00849486828B1401E99
:1042A000486001D180F311887047502080F3118855
:1042B000BFF34F8FBFF36F8FFEE700005C0000205D
:1042C00070B500282AD0164DA0F10804606869690D
:1042D000084207D1502080F31188BFF34F8FBFF3FE
:1042E0006F8FFEE722683AB1502080F31188BFF348
:1042F0004F8FBFF36F8FFEE78843606000F04CF98B
:1043000060686968084468602046FFF7CFFC286948
:10431000401C2861BDE8704000F016BE70BD000072
:10432000680000204FF0E020002101618161054913
:104330004FF47A720968B1FBF2F1491E416107211D
:1043400001617047A800002010B5FBF797FF1149E5
:1043500010280ED300F1E02090F8F0030A78904284
:1043600007D2502080F31188BFF34F8FBFF36F8FB8
:10437000FEE709480068896800F4E060884207D9D0
:10438000502080F31188BFF34F8FBFF36F8FFEE78C
:1043900010BD00005C0000200CED00E010B50C46E4
:1043A0000B4B002153F831201AB1491C0829F9D3CD
:1043B00010BD43F8314003EBC1014860FEF740FBFC
:1043C00022460146BDE810407120FEF789B9000081
:1043D000380F002070B515460E460446FFF73CFF27
:1043E00094F944100020491C01D184F8440094F948
:1043F0004510491C01D184F84500FFF74DFFA06B23
:1044000028B92A46314604F1240000F055F8204628
:10441000BDE87040FFF702BE10B5040018D0114887
:10442000006B38B1502080F31188BFF34F8FBFF37A
:104430006F8FFEE700F0B0F821462320FEF732F937
:1044400000212046FFF734FA00F07EFD002807D156
:1044500005494FF080500860BFF34F8FBFF36F8F57
:1044600010BD00000C00002004ED00E002490A6AC3
:104470000260C968416070470C00002001490120BA
:10448000C86170470C00002010B50C4650B10949B6
:1044900009681831FFF7BCFE2046BDE81040012135
:1044A000FFF706BA502080F31188BFF34F8FBFF398
:1044B0006F8FFEE70C00002070B514460D4680B1EA
:1044C0000C4909681831FFF7BBFE0CB14FF0FF35FE
:1044D0002420FEF7A3F921462846BDE87040FFF7E7
:1044E000E7B9502080F31188BFF34F8FBFF36F8F70
:1044F000FEE700000C00002030B587B000250395D2
:1045000005AA04A903A80495FFF75EFEDDE90301EF
:104510000095CDE9011000231BA11D48059A00F06C
:10452000E4FB1C4C0028E0622CD000F071FD012857
:1045300009D0401C26D1502080F31188BFF34F8F43
:10454000BFF36F8FFEE7502080F31188BFF34F8FCA
:10455000BFF36F8F4FF0FF30A06201206061E56014
:104560002068052208A13430FBF7F3FE18B120685B
:10457000FEF73EF801E0FEF709F807B0BDE830406D
:1045800000F056B807B030BD49646C65000000000B
:10459000693B00080C0000200248016B491C0163C4
:1045A000704700000C00002010B51D4C206B10B1AE
:1045B0000120E06110BD0020E0612069194901E09F
:1045C00010B3401E00EB800251F82220002AF7D0E1
:1045D00000EB800201EB820101F108034A68526896
:1045E0004A609A4201D152684A60D16821602061D4
:1045F000206805220CA13430FBF7ABFE60B12068C7
:10460000BDE81040FDF7F4BF502080F31188BFF3E0
:104610004F8FBFF36F8FFEE7BDE81040FDF7B6BFC9
:104620000C0000205C09002049646C65000000005B
:104630001CB537480168374A914207D1502080F3B2
:104640001188BFF34F8FBFF36F8FFEE700683149CA
:10465000491E884207D1502080F31188BFF34F8F45
:10466000BFF36F8FFEE72C4908780190FF20087098
:1046700008788DF800009DF800009DF8002000F0FB
:10468000F000904207D0502080F31188BFF34F8F85
:10469000BFF36F8FFEE79DF80000204C00F0500044
:1046A00020700720A06005E09DF8002052008DF8E2
:1046B0000020401E9DF800201206F5D4A0600328BB
:1046C00007D0502080F31188BFF34F8FBFF36F8F57
:1046D000FEE74FF44070A060019808700C4820304D
:1046E000016841F470010160016841F070410160AE
:1046F000FFF718FE00206060FBF788FD084801689E
:1047000041F040410160FBF76DFD00201CBD000041
:1047100000ED00E071C20F4100E400E05C00002009
:1047200034EF00E010B5502080F31188BFF34F8FB5
:10473000BFF36F8F00F020FB18B104494FF0805099
:104740000860002080F3118810BD000004ED00E037
:1047500038B5049D18B153B1CAB181B120E05020E1
:1047600080F31188BFF34F8FBFF36F8FFEE75020A8
:1047700080F31188BFF34F8FBFF36F8FFEE7502098
:1047800080F31188BFF34F8FBFF36F8FFEE739B10E
:10479000502080F31188BFF34F8FBFF36F8FFEE778
:1047A00050241C46012384F846302B460094FFF722
:1047B0000BFA204638BD000070B50D46040025D028
:1047C000FFF74AFDD4E90F20216802FB0011A16028
:1047D0000021A163216861600A46D4E90F01401EEF
:1047E00000FB0121E16021464FF0FF3001F8440F4A
:1047F000487004F110008DB1FFF7FCFC04F12400B7
:10480000FFF7F8FCFFF748FD012070BD502080F352
:104810001188BFF34F8FBFF36F8FFEE72169002927
:10482000F0D000F057FB0028ECD004494FF0805046
:104830000860BFF34F8FBFF36F8FE3E704ED00E035
:104840002DE9FF4784B01D468A464FF0000804005A
:1048500003D0BAF1000F08D011E0502080F3118886
:10486000BFF34F8FBFF36F8FFEE7206C38B150203E
:1048700080F31188BFF34F8FBFF36F8FFEE7022DD8
:104880000AD1E06B012807D0502080F31188BFF3D4
:104890004F8FBFF36F8FFEE700F052FA494F4FF092
:1048A00000094FF0805648B9069838B1502080F37F
:1048B0001188BFF34F8FBFF36F8FFEE7FFF7CCFC7C
:1048C000A06BE16B884207D3022D05D0069820B378
:1048D000B8F1000F24D028E02046FEF7B1F80146D9
:1048E000009552465A20069BFDF758FF2A4651462E
:1048F0002046FFF7C2F8616A19B104F1240000F004
:10490000E9FA20B13E60BFF34F8FBFF36F8FFFF71F
:10491000C3FC012008B0BDE8F087FFF7BDFC22E032
:1049200001A8FFF7A3FD4FF00108FFF7B5FCFFF763
:1049300033FEFFF791FC94F94400401C01D184F848
:10494000449094F94500401C01D184F84590FFF74C
:10495000A3FC06A901A800F061F980B12046FFF789
:104960005DFB00F0F1FA2046FEF76AF8014600957B
:1049700052465A20069BFDF711FF0020CAE7FFF7B9
:104980006BFCA06BE16B884213D1FFF785FC04F14F
:1049900010000699FFF778FD2046FFF73FFB00F077
:1049A000D3FA00288AD13E60BFF34F8FBFF36F8FD9
:1049B00084E7FFF771FC2046FFF730FB00F0C4FAF4
:1049C0007CE7000004ED00E02DE9F0471F4690462B
:1049D0008946040003D0B9F1000F08D011E050203F
:1049E00080F31188BFF34F8FBFF36F8FFEE7206C0A
:1049F00038B1502080F31188BFF34F8FBFF36F8F12
:104A0000FEE7022F0AD1E06B012807D0502080F387
:104A10001188BFF34F8FBFF36F8FFEE7FFF794FC52
:104A20005020EFF3118680F31188BFF34F8FBFF34F
:104A30006F8FA06BE16B88420ED3022F0CD0204603
:104A4000FDF7FEFF014642466020FDF749FE0020CB
:104A500086F31188BDE8F08794F94550A06B204695
:104A6000FDF7EEFF014642466020FDF739FE3A466B
:104A700049462046FFF701F8681C04D06D1C84F8F5
:104A800045500120E4E7606A0028FAD004F12400D0
:104A900000F020FA0028F4D0B8F1000FF1D0012185
:104AA000C8F80010EDE700002DE9F74F002684B0AC
:104AB0008B46040003D0BBF1000F08D011E050205A
:104AC00080F31188BFF34F8FBFF36F8FFEE7206C29
:104AD00038B1502080F31188BFF34F8FBFF36F8F31
:104AE000FEE700F02DF9DFF8309101274FF0000AC2
:104AF0004FF0805848B9069838B1502080F311889B
:104B0000BFF34F8FBFF36F8FFEE7FFF7A5FBA56BDA
:104B100035B359462046FEF79DFF0020FDF790FF74
:104B200006462046FDF78CFF0146009732465C2082
:104B3000069BFDF733FE6D1EA563206950B104F19D
:104B4000100000F0C7F928B1C9F80080BFF34F8FFB
:104B5000BFF36F8FFFF7A0FB012007B0BDE8F08F18
:104B6000069808B11EB106E0FFF796FB27E001A802
:104B7000FFF77CFC0126FFF78FFBFFF70DFDFFF72A
:104B80006BFB94F94400401C01D184F844A094F9D3
:104B90004500401C01D184F845A0FFF77DFB06A924
:104BA00001A800F03BF80028204618D0FFF736FA9D
:104BB00000F0CAF92046FFF7BBF80028A5D0002076
:104BC000FDF73EFF05462046FDF73AFF01460097F8
:104BD0002A465C20069BFDF7E1FD0020BDE7FFF7BC
:104BE000A7F890B104F124000699FFF74DFC204688
:104BF000FFF714FA00F0A8F9002886D1C9F8008060
:104C0000BFF34F8FBFF36F8F7FE72046FFF706FAA2
:104C100000F09AF979E7000004ED00E02DE9F04199
:104C20000C46050011D0C4B1FFF716FB174BDA682C
:104C30006E682068911B471C17D02F681B6A9F4223
:104C400019D0964217D8012410E0502080F3118823
:104C5000BFF34F8FBFF36F8FFEE7502080F31188B3
:104C6000BFF34F8FBFF36F8FFEE70024FFF714FBF6
:104C70002046BDE8F081884205D9401A20602846C8
:104C8000FFF7F4FBF1E700202060DCE70C000020D8
:104C90002DE9FF5F8346DDE90E87994616468A4671
:104CA0009000FFF7F1F905001CD05C20FFF7ECF94C
:104CB000040014D00020256384F85900CDE9024097
:104CC000CDE900874B46324651465846FEF796FFDF
:104CD0002046FEF71BFE012004B0BDE8F09F2846E9
:104CE000FFF7EEFA4FF0FF30F6E7F0B585B0DDE9FB
:104CF0000B640A9DA6B1DCB15C27009726630226EF
:104D000084F85960002604AFCDE90246CDE900578A
:104D1000FEF774FF2046FEF7F9FD049805B0F0BDDC
:104D2000502080F31188BFF34F8FBFF36F8FFEE7E2
:104D3000502080F31188BFF34F8FBFF36F8FFEE7D2
:104D40000548416919B1006B18B100207047012076
:104D500070470220704700000C0000200148C06826
:104D6000704700000C00002010B5FFF7EDFA014875
:104D7000C06810BD0C0000202DE9F041304C002728
:104D8000206B28B1A069401CA0613846BDE8F081C5
:104D9000E668761CE66013D1606B006838B150207D
:104DA00080F31188BFF34F8FBFF36F8FFEE7606B07
:104DB000A16B6163A063206A401C2062FFF7A4F826
:104DC000A06ADFF88080864209D3606B0068A0B1DA
:104DD000606BC068C5686868864211D2A0622068AE
:104DE000C06A00EB800158F82100012800D9012792
:104DF000E0690028C9D00127C7E74FF0FF30EDE791
:104E0000281DFFF7C5F9A86A18B105F11800FFF7CA
:104E1000BFF92846FDF70CFCE86A2169884200D9F1
:104E2000206100EB800108EB8100291DFFF708FAE3
:104E3000E86A2168C96A8842C7D30127C5E700002C
:104E40000C0000205C09002070B504004FF0000148
:104E50003AD01E4D2A68944207D0502080F3118822
:104E6000BFF34F8FBFF36F8FFEE7206D38B1401E49
:104E70002065E36AE26C934226D040B124E05020E2
:104E800080F31188BFF34F8FBFF36F8FFEE7201DB4
:104E9000FFF77EF921464A20FDF704FCE06CE06252
:104EA000C0F13800A0612046FDF7C2FBE06A296925
:104EB000884200D92861064900EB800001EB8000A0
:104EC000211DFFF7BDF90121084670BD0C0000202F
:104ED0005C09002070B5C068C46854B104F11800C2
:104EE0000646FFF755F9154D286B50B13146144869
:104EF00018E0502080F31188BFF34F8FBFF36F8FFE
:104F0000FEE7201DFFF744F92046FDF791FBE06A1C
:104F10002969884200D928610A4900EB800001EB29
:104F20008000211DFFF78CF9E06A2968C96A884270
:104F300002D90120E86170BD002070BD0C00002086
:104F4000E40D00205C0900202DE9F0472D4D0024E0
:104F50002746286B38B1FFF77FF9286B401E28637E
:104F6000286B40B148E0502080F31188BFF34F8F89
:104F7000BFF36F8FFEE7A968234E0120E1B3A6F5CA
:104F8000916980463068F8B1F068C46804F118008F
:104F9000FFF7FEF8201DFFF7FBF82046FDF748FB62
:104FA000E06A2969884200D9286100EB800109EB99
:104FB0008100211DFFF744F9E06A2968C96A884227
:104FC000E0D3C5F81C80DDE70CB1FEF79DFFAC69AE
:104FD00044B14646FFF7D0FE00B1EE61641EF9D140
:104FE0000020A861E86938B108490127380708603E
:104FF000BFF34F8FBFF36F8FFFF74EF93846BDE811
:10500000F08700000C000020E40D002004ED00E01B
:1050100010B586B0FEF7F2FC114C2068B8B1002044
:105020000390049005AA04A903A8FFF7D7F8DDE9C7
:10503000032102208DE8070000230AA10B48059AEE
:10504000FFF753FE606010B106B0012010BD502084
:1050500080F31188BFF34F8FBFF36F8FFEE700001F
:1050600048000020546D722053766300F93F000819
:105070002DE9FF411E46134602000A9D4FF0000035
:1050800016D0144C2768002F0FD0CDE900130292E0
:10509000062917DAFFF754FE02284FF000030FD05D
:1050A000002269462068FFF7CBFB04B0BDE8F08121
:1050B000502080F31188BFF34F8FBFF36F8FFEE74F
:1050C0002A46EEE70023324669463846FFF77CFC65
:1050D000EBE70000480000207C51000800000000C1
:1050E00000000000000000000000000000020000BE
:1050F00018000000000000000000000074510008CB
:10510000000000000000000000000000000000009F
:105110000008000020000000000000000000000067
:1051200000000000000054545220524547474553A8
:105130000000000000000000000000303132333475
:105140003536373839414243444546005F3500081B
:10515000D5350008000610160006101600000000E5
:105160000000000001020304060708090000000017
:10517000010203044D69786572000000496E6465A0
:105180007800000053595354454D564945573A202D
:10519000436F756C64206E6F74207265636F726408
:1051A000207461736B20696E666F726D6174696FD4
:1051B0006E2E204D6178696D756D206E756D62651E
:1051C00072206F66207461736B732072656163680F
:1051D00065642E00F451000800000020B4000000B7
:1051E00040350008A8520008B4000020945900007F
:1051F0005035000800000000000000000000000022
:10520000000000000000000000000000000000009E
:10521000000000000000000000000000000000008E
:10522000000000000000000000000000000000007E
:10523000000000000000000000000000000000006E
:10524000000000000000000000000000000000005E
:1052500000000000AAAAAAAA0000000000000000A6
:10526000000000000000000000000000000000003E
:10527000000000000000000000000000000000002E
:10528000000000000000000000000000000000001E
:105290000100000010000000000000000024F400E5
:0852A000000000000000000006
:04000005080001AD41
:00000001FF
