:020000040800F2
:10000000584F0020193A0008B5380008B7380008E2
:10001000B9380008BB380008BD38000800000000EF
:100020000000000000000000000000007111000846
:10003000BF3800080000000019110008692C0008F2
:10004000393A00083D3A0008413A0008453A0008AC
:10005000493A00084D3A0008513A0008553A00085C
:10006000593A00085D3A0008613A0008653A00080C
:10007000693A00086D3A0008713A0008753A0008BC
:10008000793A00087D3A0008813A0008853A00086C
:10009000893A00088D3A0008913A0008953A00081C
:1000A000993A00089D3A0008A13A0008A53A0008CC
:1000B000A93A0008AD3A0008B13A0008B53A00087C
:1000C000B93A0008BD3A0008C13A0008C53A00082C
:1000D000C93A0008C1380008CD3A0008D13A0008F2
:1000E000D53A0008D93A0008DD3A0008E13A00089C
:1000F000E53A0008E93A0008ED3A0008F13A00084C
:10010000F53A0008F93A0008FD3A0008013B0008FA
:10011000053B0008093B0008C73800080D3B0008F4
:10012000113B0008153B0008CD380008193B0008BA
:100130001D3B0008213B0008253B0008293B000827
:100140002D3B0008313B0008353B0008393B0008D7
:100150003D3B0008413B0008453B0008493B000887
:100160004D3B0008513B0008553B0008593B000837
:100170005D3B0008613B0008653B00080000000093
:10018000693B00086D3B0008713B0008753B0008A7
:10019000793B00087D3B0008813B0008853B000857
:1001A0000000000000000000893B0008F0B585B0A9
:1001B00050260B9D25B986F3118800F047FAFEE71B
:1001C0000C9C24B986F3118800F040FAFEE75C2706
:1001D0000097DDF800E0BEF15C0F04D086F31188D3
:1001E00000F034FAFEE7009E25630027022584F81C
:1001F000595004AE0A9D039702940196009500F0B1
:1002000034F8204600F079F8049805B0F0BD2DE9E7
:10021000F8430646174684B088469946B80000F071
:1002200073FB04001CD05C2000F06EFB050014D0B2
:1002300000212C6385F85910039102950D990C98B3
:10024000019100904B463A464146304600F00DF889
:10025000284600F052F8012004E0204600F0DCFBC4
:100260004FF0FF3005B0BDE8F0832DE9F0470A9E5E
:1002700080460C461546306B9946A522A90000F031
:100280001BFC316B01EB8502101FC0084FEAC00A4E
:100290000AF0070006F1340554B10021625C6A548B
:1002A000605C10B1491C1029F8D30021E97300E00B
:1002B0002870089F372F88BF3727099CF762AF61E6
:1002C0000020E861C7F13807301D00F01FFC06F17F
:1002D000180000F01BFC3661B761766200202862CE
:1002E000002186F858104A464146504600F060FC0E
:1002F000306004B12660BDE8F0872DE9F04100F0E0
:1003000068F8DFF80C55DFF86C85E86C401CE86491
:100310001426A86A28BBAC62E86C012829D1002702
:1003200006FB07F0404400F0E4FB7F1C382FF7D3B6
:1003300005F1740000F0DDFB05F18807384600F098
:10034000D8FB284600F0D5FB05F1140000F0D1FBE6
:1003500005F1380000F0CDFB05F17400E8622F6371
:1003600007E0A86D28B9E06AAA6AD16A884228BF66
:10037000AC62AA6EE06A521C6264696D814238BF49
:100380006865AA664643211D08EB060000F0C1FB24
:1003900000F0A0FCA86D20B100F09EF901D200F0A1
:1003A00050F9BDE8F08180B580B1DFF86424116FA9
:1003B00021B100F02FF900F049F9FEE7136F5B1C43
:1003C000136700F06BFA00F044F808B900F039F94F
:1003D00001BD044600F065BC80B586B000210591E2
:1003E000049103AA04A905A800F0CCFC059A04997D
:1003F00002920020019100900023039A0FF2005115
:100400000FF26930FFF7D2FE98B100F0C5FC502121
:10041000012810D181F3118800F018F9DFF8CC041D
:100420004FF0FF31C166012282650021016500F0B5
:10043000E1FB07B000BD10F1010FFAD181F3118883
:1004400000F004F9FEE7DFF8A414086F401C086709
:10045000704770B5DFF8B863306F0024002520B90D
:1004600000F043F800F0F2F8FEE700F01AFC306FFD
:10047000401E3067306F002836D1F06CD0B933E0C1
:10048000F068C46800F035F800F0C4F9E36A706DF4
:10049000984238BF73651422DFF854045343211D7A
:1004A000184400F036FBE06AB26AD16A884224BF81
:1004B0000122326630680028E2D10CB100F08DF9DB
:1004C000F46D44B100F01DF808B101203066641EDF
:1004D000F8D10020F065306E30B1DFF818044FF02D
:1004E0008051012500F0B1F8CEE1502181F311884F
:1004F000704704F1180000F032BBDFF8F003006D24
:1005000070472DE9F843DFF80863306F00250028B5
:1005100052D1346D641C346510D1F06A006820B18A
:10052000FFF7E3FF00F092F8FEE7F16A306BF0624C
:100530003163706E401C706600F04FF9F06EDFF8AA
:10054000B08384424FF0140927D31FE0F16AC868D2
:10055000C768786884422DD3381D00F000FBB86A64
:1005600018B107F1180000F0FAFAF86A716D8142CB
:1005700038BF706509FB00F0391D404400F0C9FA2E
:10058000F86AB26AD16A884228BF0125F06A006819
:100590000028DBD14FF0FF31F166B06AC06A09FB79
:1005A00000F958F80910022928BF0125306E30B132
:1005B000012504E0F066F0E7F06D401CF065284688
:1005C000BDE8F28310B5DFF84822106F10B10121A9
:1005D000116610BD1066DFF81843506D00E0401E34
:1005E00014234343E15831B90028F8D100F012F840
:1005F00000F02CF8FEE7E1184B685C684C6001F1F4
:1006000008039C4204BF64684C604B68D9689162DF
:10061000506510BD502080F31188704710B50C460E
:1006200020B9FFF7F7FF00F011F8FEE700F028F817
:1006300000F07CFA2046BDE81040FFE7012100F001
:100640002DB9DFF8B0024FF080510160BFF34F8F3A
:10065000BFF36F8F704738B50D46144620B9FFF7CA
:10066000D9FFFFF7F3FFFEE700F00AF800F051FAB8
:100670000CB14FF0FF3521462846BDE834400DE16E
:10068000DFF868329A6A02F11801704738B5C0681D
:10069000C46824B9FFF7BEFFFFF7D8FFFEE7FFF7F6
:1006A00028FFDFF84852286F40B900F0B3F800F097
:1006B00018F838BF6A6500F0EBF802E004F11801A1
:1006C000284600F026FA00F007F803D20121296637
:1006D000012032BD002032BDA96AE26AC86A904298
:1006E0007047E26A686D90427047DFF80022516EF1
:1006F0000160126D42607047F8B504460D46502007
:1007000024B980F31188FFF7A1FFFEE725B980F334
:100710001188FFF79BFFFEE700F0C3FADFF8CC017A
:10072000D0F850C02B68616813F1010FACEB0102E7
:100730000DD0466E2768BE4201D08C450BD29A423E
:1007400007D29A1A2A60416E2160006D6060002411
:1007500002E000202860012400F0BCFA2046F2BD2F
:10076000DFF88801012101667047000070B5414C37
:10077000DFF8785111E000F094FA286AC668301D5D
:1007800000F0EDF9E86C401EE864686B401E686399
:1007900000F0A0FA304600F009F8686B0028EAD1B2
:1007A0002268022AF9D3FFF74CFFF6E710B504469A
:1007B00094F8590040B9206B00F02EF92046BDE8AE
:1007C000104000F029B910BD0128F7D00228FAD056
:1007D000FFF720FFFFF73AFFFEE70D49C86A006800
:1007E00018B94FF0FF32CA667047CA6AD068C2684B
:1007F0005068C8667047DFF8F410886D08B90120AA
:100800007047086F08B90220704700207047000049
:1008100080480020201D00F0A2B938B50446002110
:1008200034B3DFF8C850A86A5022844204D082F35F
:100830001188FFF70BFFFEE7206D20B982F31188C6
:10084000FFF704FFFEE7E36AE26C401E9342206577
:100850000ED068B9FFF7DEFFE26CE262C2F1380148
:10086000A161686D904238BF6A6500F005F801210A
:10087000084632BD3C3C00201420DFF8743042436F
:10088000211D981800F045B900F024FA284670BDE3
:100890001420174B4243211D98187047F8B5134E8A
:1008A000376D0C46B16A0546081D00F058F915F180
:1008B000010F05D124B1B06A011D06F138001BE01B
:1008C000B06AED194560BD42B06A05D2011D306BBA
:1008D000BDE8F44000F02AB9011DF06A00F026F9E5
:1008E000F06E854238BFF566F1BD000080480020FB
:1008F0003C3C002004ED00E0BDE8F44000F009B904
:1009000049444C45000000002DE9F8430446FFF738
:100910009AFD684FB8684FF00008002508BB07F142
:10092000200307F1200013F0070F4FF47052014627
:1009300005D0C11DC908C900C1F57053C2185218AD
:10094000083AD208D20039607D60BA6055601560FF
:10095000501A48600A6048683861F8604FF00040FB
:10096000F8614FF05009F869044245D1002C43D09A
:10097000083414F0070F04D004F1080104F0070054
:100980000C1A002C38D0F868A04235D33E6839469E
:1009900001E0314606467068A04202D23068002865
:1009A000F7D1B868864227D00A683068086002F13B
:1009B00008087268121B112A0CD3311911F00700B4
:1009C00002D000F022F8FEE7301D025174600846A4
:1009D00000F04CF87168F8683B69401AF86098427A
:1009E00088BF18463861F86901437160356008F0C6
:1009F00007057869401C7861FFF72BFD15B100F001
:100A000004F8FEE74046BDE8F28389F31188BFF39E
:100A10004F8FBFF36F8F7047002800D1704738B5F4
:100A2000A0F10804234D6368E96950220B4204D108
:100A300082F31188FFF7EBFFFEE7206820B182F315
:100A40001188FFF7E4FFFEE78B436360FFF7FBFCD1
:100A5000E96860684118E960204600F007F8A86975
:100A6000401CA861BDE83140FFF7F3BC30B5114927
:100A70000A4600E01A4613688342FBD35368D41831
:100A8000844203D14068C318536010464368146819
:100A9000C518A54208D189688C4204D06168CB187A
:100AA0004360246800E00C460460824218BF106076
:100AB00030BD00001C00002062F30F2262F31F42D1
:100AC00000B500BF130096469446103928BFA0E831
:100AD0000C50FAD85FEA417C28BF0CC048BF40F8F0
:100AE000042BC90728BF20F8022B48BF00F8012BB0
:100AF00000BD4FF0FF3200F1080182604160C1602B
:100B000000F10802026100210160704700210161CB
:100B1000704710B542684A6094688C609368596069
:100B2000916008610168491C016010BD30B50D6815
:100B300015F1010F08BF046907D000F1080400E0B7
:100B40001C4663681A689542FAD262684A609160EE
:100B50008C60616008610168491C016030BD10B59E
:100B600042680169836893608268436853604C6897
:100B7000844204BF83684B60002202610868401E03
:100B80000860086810BD0EE002684368024408303F
:100B90005FEAC37C44BF4B445B1E52F804CB43F86E
:100BA00004CB091FF9D150F8041B0029ECD1704780
:100BB000490810B54900A0F120034FF080749961F5
:100BC0001A60DC616FF002020FF20D01596140F80A
:100BD000242D203810BD0000614A5168502011F1C9
:100BE000010F80F31188BFF34F8FBFF36F8F00D0D9
:100BF000FEE7FEE77CB55B4A5B4813685021834201
:100C000002D100F047F8FEE713685848834202D14A
:100C100000F040F8FEE7564B18780190FF251D7054
:100C200007201C788DF800409DF800504C4C05F0D2
:100C30005005257005E09DF800506D00401E8DF8B0
:100C400000509DF800603506F5D4454215F1030FBC
:100C500003D0A06000F01EF8FEE7000200F4E060A0
:100C6000A06001981870116A41F470011162106A55
:100C700040F07040106200F03BFA0020606000F02D
:100C800095FA3C49086840F04040086000F07EFA60
:100C9000002076BD81F31188BFF34F8FBFF36F8FB4
:100CA0007047502080F31188BFF34F8FBFF36F8FD1
:100CB0002B4A5168491C012951600AD12E4B1A68F0
:100CC000110606D080F31188BFF34F8FBFF36F8FEB
:100CD000FEE770472249486838B9502080F31188F0
:100CE000BFF34F8FBFF36F8FFEE7401E486008BF12
:100CF00080F31188704780B5502080F31188BFF3CE
:100D00004F8FBFF36F8FFFF7FCFB18B11A484FF0FE
:100D100080510160002282F3118801BDEFF305824A
:100D20005020102A0E490BD3144B9B5C0A78934237
:100D300006D280F31188BFF34F8FBFF36F8FFEE7AA
:100D400089680F4B1A6802F4E062914206D280F380
:100D50001188BFF34F8FBFF36F8FFEE7704700001E
:100D60000000002000ED00E071C20F4170C20F4191
:100D700000E400E034EF00E004ED00E0F0E300E028
:100D80000CED00E0034B036003F15C000860802180
:100D900011607047F844002010B586B000F074F977
:100DA000DFF83443A068C0B100220592049204A980
:100DB00003AA05A800F008FA059A049902920220F5
:100DC000019100900023039A0FF214310FF2810079
:100DD000FFF7ECF90028E06005D1502181F311887C
:100DE00000F00AF8FEE7012006B010BD2046BDE87D
:100DF000F681502080F31188BFF34F8FBFF36F8FC0
:100E00007047F8B5044684B01E46002014B9FFF7B9
:100E1000F0FFFEE7DFF8C072BD68BDB106290091A2
:100E2000019202940CDAFFF7E6FC022807BF0A9A47
:100E3000002300230022B868694600F053FA05E059
:100E4000002332466946284600F0E3FA05B0F0BDBB
:100E5000F8B586B0DFF880522968086810B9012417
:100E6000002602E0C86806680024FFF7ECFA01A833
:100E700000F0B4F80746019800283FD154BBB742B0
:100E80002DD3FFF7E6FA2968C868C468201DFFF76C
:100E900066FE94F82800410717D5A16933463A4603
:100EA0008919204600F0D6F840B1002000900023B8
:100EB000324600212046FFF7A4FF18B1216A2046E0
:100EC000884725E0FFF795FFFEE700F0FE0084F875
:100ED0002800F3E769680868441EA441E40FA86885
:100EE0002246F11B00F016FCFFF7B3FA80B97B49EC
:100EF0004FF080500860FFF77FFF09E0FFF7A9FA85
:100F000006E094F8280081073BD42046FFF784FDD3
:100F1000A868002202A900F0C5FA00289CD0029817
:100F2000002803D505990498039A90470298002851
:100F3000EED4049C606910B1201DFFF710FE01A8DB
:100F400000F04CF802990929E2D8DFE801F02121EC
:100F5000211A070621211A07DAE7D2E794F8282098
:100F600042F0010284F828200399A16131B10346BF
:100F700002460918204600F06DF8C9E7FFF739FF6F
:100F8000FEE794F8280000F0FE0084F82800BFE790
:100F900094F8281041F0010184F8281002460399C2
:100FA000A0690B464118204600F054F80028AFD045
:100FB000216A2046884794F828004107A8D50020D8
:100FC00000900023039AA069821800212046FFF7B1
:100FD00018FF00289CD1FFF70CFFFEE72DE9FC412C
:100FE00006463D4DFFF789FA296904468C4209D32C
:100FF000002030602C61F9E678603F61391D286877
:10100000FFF794FD29680868F0B1C868D0F800803F
:10101000C768381DFFF7A3FD396A3846884797F837
:1010200028205007EED5B86940448045E4D300201D
:1010300000900023424600213846FFF7E2FE0028D8
:10104000E0D1FFF7D6FEFEE76868696028600121FD
:101050003160CFE738B500248A42416000611E4DFF
:1010600006D38169D21A8A4206D2011D686807E058
:101070009A4203D2994201D3012403E0011D28685A
:10108000FFF754FD204632BD1CB5FFF70AFE124C97
:10109000A068E0B904F11400FFF72BFD04F128006B
:1010A000FFF727FD04F1140204F12801002022605B
:1010B0006160009004F13C0304F18C0210210A20CD
:1010C00000F0C7F8A06010B107A100F00FFBBDE869
:1010D0001340FFF7FFBD00005447002004ED00E07F
:1010E000546D722053766300546D725100000000FD
:1010F0000748084B00220260002181604FF47A719A
:101100001A68B2FBF1F1491E416007220260704784
:1011100010E000E018000020EFF30980BFF36F8FAC
:10112000264B1A681EF0100F08BF20ED108A20E928
:10113000F04F106009B44FF0500080F31188BFF3F6
:101140004F8FBFF36F8FFFF73DFA4FF0000080F332
:10115000118809BC19680868B0E8F04F1EF0100F3C
:1011600008BFB0EC108A80F30988BFF36F8F704717
:10117000124B19680868B0E8F04F80F30988BFF394
:101180006F8F4FF0000080F3118870470C480068A3
:10119000006880F308884FF0000080F3148862B67E
:1011A00061B6BFF34F8FBFF36F8F00DFDFF814001E
:1011B000016841F47001016070470000A8480020F8
:1011C00008ED00E088ED00E0044B036003F15C00F3
:1011D00008604FF480711160704700BF9C40002090
:1011E00070B504000D4602D100F074F8FEE7FFF779
:1011F00058FD206CE16B226800FB01F6491E484354
:1012000016441044A6600023A363E06004F1440187
:1012100062604FF0FF300870487075B92069A0B166
:1012200004F11000FFF732FA78B1DFF8E0044FF074
:101230008051016000F0BAF907E004F11000FFF7F7
:1012400058FC04F12400FFF754FCFFF743FD012094
:1012500070BD7CB51C46502320B983F3118800F083
:10126000A5F9FEE724B983F3118800F09FF9FEE7A2
:101270002AB129B983F3118800F098F9FEE779B90A
:1012800050250095009E502E0FD1009B34B1069B37
:10129000012584F84650009400F00CF8204676BDF5
:1012A00083F3118800F082F9FEE783F3118800F0E0
:1012B0007DF9FEE738B5049C1D4600290CBF24606B
:1012C0002260E063216420460121FFF789FF84F852
:1012D0004C5031BD502080F31188BFF34F8FBFF3C6
:1012E0006F8F70472DE9F64782B004461E4650279F
:1012F00014B900F059F9FEE75FEA010A01D1206C48
:1013000060B9022E02D1E06B01280AD1FFF773FA0F
:1013100050B9039840B100F047F9FEE700F044F9F6
:10132000FEE700F041F9FEE7274600244FF0805821
:10133000DFF8D8932EE0039800284BD014B900F0C2
:1013400041F90124FFF7C6FCFFF77DF8FFF7A9FC80
:1013500007F1440000F039F904BF0021017000F0EA
:1013600039F904BF00214170FFF7B4FC00F04DF8DB
:10137000002844D1FFF795FCB96BF86B814214BF8C
:1013800000250125FFF7A6FC45BB384600F06FF9A4
:10139000FFF75FF8FFF785FCB96BF86B814201D36B
:1013A000022EC8D132465146384600F018F9796A03
:1013B00029B107F12400FFF769F908B904E018B171
:1013C000C9F8008000F0F2F8FFF784FC012004B0B7
:1013D000BDE8F087FFF77EFC0020F8E7039907F1EE
:1013E0001000FFF71BF9384600F041F9FFF731F81C
:1013F0000028CFD1C9F8008000F0D8F8CAE73846F5
:1014000000F035F9FFF725F8E6E703A96846FFF78E
:1014100073B92DE9F8430446884615461E46502701
:1014200014B900F0C1F8FEE7B8F1000F01D1206C4B
:1014300040BB022E02D1E06B012826D1FFF76EFCE3
:10144000EFF3118900F0B0F8A16BE06B814201D39A
:10145000022E22D194F94570A06B324641462046B7
:1014600000F0BDF817F1010F12D1606A98B104F1D4
:101470002400FFF70BF9002818BF002D0BD0012026
:10148000286008E000F090F8FEE700F08DF8FEE735
:101490007F1C84F84570012000E0002089F311884A
:1014A000BDE8F2832DE9F74306460F460024502598
:1014B00026B985F3118800F079F8FEE70FB9306C92
:1014C00048B9FFF798F978B9029868B185F311889F
:1014D00000F06CF8FEE785F3118800F067F8FEE78E
:1014E00000F06EF8FEF7B5FFFFF7DBFBB56BDFF83A
:1014F0001C92002D4FF0805832D10298002845D020
:1015000014B900F05FF80124FFF7E4FBFEF79BFF3E
:10151000FFF7C7FB06F14400425712F1010F04BF69
:101520000021017000F056F804BF00214170FFF760
:10153000D1FB02A9FFF76AFF002830462AD100F04C
:10154000CAF80028CCD000F036F800F039F8FEF7E1
:1015500080FF0028C8D1C9F8008000F027F8C3E751
:101560003946304600F06FF86D1EB563306940B102
:1015700006F11000FFF78AF818B1C9F8008000F0F2
:1015800015F8FFF7A7FB0120BDE8FE83FFF7A2FBDC
:101590000020F9E700F06BF8FEF75BFF304600F043
:1015A0009AF80028A0D0F3E787F31188BFF34F8F94
:1015B000BFF36F8F7047029906F12400FFF72EB832
:1015C000304654E06846FFF790B890F9002012F1D9
:1015D000010F704790F9012012F1010F7047F8B523
:1015E00006461546B46B326C002742B9306830BBF2
:1015F000B068FFF712F900210746B1601FE065B936
:10160000706800F0ABF87168306C0844B1687060C5
:10161000884214D33068706011E0F06800F09EF8E2
:10162000306CF26840420244F26031688A4202D271
:10163000B2681044F060022D01D104B1641E641C34
:10164000B4633846F2BD026C002A0B4600D17047E5
:1016500010B5C46881681444C4608C4224BF046817
:10166000C460C168BDE81040184600F077B8F8B50E
:101670000546FFF716FB05F1440494F9016007E005
:1016800005F12400FFF702F808B1FFF769F8761EAC
:1016900070B2012802DB686A0028F1D14FF0FF36F2
:1016A0006670FFF717FBFFF7FCFA94F9007007E08C
:1016B00005F11000FEF7EAFF08B1FFF751F87F1EB1
:1016C00078B2012802DB28690028F1D12670BDE834
:1016D000F140FFF7FFBA10B50446FFF7E2FAA06B3E
:1016E000441EA441FFF7F6FAE00F10BD10B5002428
:1016F000074B53F834201AB1641C082CF9D310BDE1
:1017000043F8341003EBC401486010BD04ED00E061
:10171000E44A0020F8B504460D461646FFF7C1FA24
:1017200004F1380797F90C1011F1010F04BF0020E4
:10173000387397F90D1011F1010F04BF0020787371
:10174000FFF7C8FA386828B93246294604F1240060
:10175000FEF781FF2046BDE8F24088E74AB100006D
:1017600011F8013B521E00F8013B1CBF11F8013B70
:10177000F8E7704738B5040001D1012032BD04F10B
:101780004005687808B900F009F800F00CF800F09E
:1017900022F8FFE7486100F010F832BD00212970FF
:1017A000204600F0BEBA242068702168C86820F482
:1017B0000050C860204600F01FBA2168C86840F495
:1017C0000050C8606A60202169702020A870002144
:1017D0006163002070472168086920F49040086127
:1017E00000222168486920F02A007047F8B50446B5
:1017F0002268136811460846CD68466913F00F0F3A
:1018000003F0200105F0200007D1002918BF0028AF
:101810005BD02046BDE8F24092E1F70702D415F410
:10182000907F52D0DA0705D5ED0503D5626C42F002
:10183000010262645D0705D5F20703D5656C45F0CA
:10184000020565649A0705D5F50703D5626C42F079
:10185000040262641A0706D508B9F20703D5636C5F
:1018600043F008036364626C002A2DD000291EBF78
:101870000028204600F064F920684069626C110776
:1018800001D440061BD5204600F024F921684869A0
:1018900041060FD500F001F960B10FF29521016505
:1018A000E06B00F08CFB00280ED0E06B016DBDE812
:1018B000F44008472046BDE8F24000F081BC2046D5
:1018C00000F07EFC00206064F1BD206B012804F173
:1018D000410140F08B80D80600D5EE0640F18680AD
:1018E000002300931268009223685A680092009BBC
:1018F0002268506942063DD5E26B1068406880B2AC
:101900000028E1D0A38D9842DEDAE085D069B0F5F9
:10191000807F27D0226802F10C0555E8002F20684F
:1019200000F10C0322F4807200F09FF8F2D100F075
:10193000A0F8520800F11403520000F096F8F6D116
:1019400000F097F800F1140322F0400200F08DF847
:10195000F6D1202048700021216300F091F8E06B5F
:1019600000F0EFFA02206063A18DE08D091A89B2C0
:10197000204637E0A38DE28DE08D9B1A00281CBF26
:1019800098B2002870D02246156805F10C0454E87E
:10199000004F0C3524F4907445E800400028F3D142
:1019A000146804F1140656E8004F1068640800F14A
:1019B0001405640045E800400028F1D1202048705B
:1019C00000211163146804F10C0151E8001F0C346C
:1019D00021F0100144E800100028F3D102205063E8
:1019E00099B21046BDE8F44000F0EBBB1A062BD5C7
:1019F000280629D50978212936D1A068B0F5805F5D
:101A000004BF2069002809D1226A21681088C0F328
:101A100008004860206A811C216205E0216A481C98
:101A20002062226809785160E08C401EE08480B218
:101A3000D0B92068C16821F08001C1602168C86800
:101A400040F04000C860F1BD58060DD56A060BD5C0
:101A50002068C26822F04002C260204620220A703C
:101A6000BDE8F24000F0AEBBF1BD43E80020002825
:101A70007047226802F1140555E8002F206870476E
:101A8000226802F10C0151E8001F0C3221F0100114
:101A900042E800100028F3D17047226802F11403D5
:101AA00053E8001F143221F0400142E800100028E2
:101AB000F3D1E06B704722F0100243E800210029C7
:101AC0007047026802F10C0454E8002F016801F12C
:101AD0000C037047036803F10C0252E8002F0C332B
:101AE00022F4907243E800210029F3D1036803F146
:101AF000140252E8002F52081433520043E8002128
:101B00000029F3D1016B01290BD1036803F10C0209
:101B100052E8002F0C3322F0100243E80021002984
:101B2000F3D1202280F84220002101637047000099
:101B3000806B0022C2850021C18400F041BB0000FF
:101B40001CB590F84210222954D18168826AB1F5FF
:101B5000805F09D1016961B903685968C1F308015F
:101B60001180826A911C0EE0002904BF01690029DE
:101B700002D10368596803E00168496801F07F01F8
:101B80001170826A511C8162C18D491EC18589B262
:101B900071BB0268D16821F02001D1600023026886
:101BA000D16821F48071D160026851694908490007
:101BB0005161202280F842204363016B012915D135
:101BC0000363FFF77EFFFFF776FFFAD101680A682B
:101BD000D30607D5002200920B6800930468626860
:101BE0000092009B818D00F0ECFA01E000F0EBFA2E
:101BF000002016BD022016BD70B506463268116978
:101C0000F06821F4405101431161D3682748B1685D
:101C1000034030690B4371690343F0690B4303438D
:101C2000D3605169B06921F4407101435161204989
:101C30008A421CBF1F48824202D100F053FB01E0E0
:101C400000F048FB72683568F6691921B6F5004F57
:101C5000A1FB00016FF0630412D1D30F520000F01A
:101C600075FB00F029F8E40032346420B4FBF0F096
:101C7000420002F4F87202EB011200F0070010E0DB
:101C8000930F920000F062FB00F016F8240132344A
:101C90006420B4FBF0F000F0F00202EB011200F05F
:101CA0000F008018A86070BD00000000F369FFFFFE
:101CB00000100140001401406421B0FBF1F104FB6D
:101CC0000104704757495848584B4FF4805280B52B
:101CD0004160826000214FF48062C16002610C218A
:101CE0000022036000F014F800B116E001BD4FF4CB
:101CF000E13180B54E484F4B416000220C2103601A
:101D00008260C260026100F003F800B105E001BD2D
:101D100041618261C261FFF72DBDBDE8014000F065
:101D200017BC38B586B004461421002201A800F083
:101D300011FC21683D4A4048914249D1002100915F
:101D400042693E4D42F010024261416901F01001CA
:101D500000910021009B0091C021026842F0020224
:101D600002600222006800F002000090009B3448EC
:101D7000019102920021039103220721059104920F
:101D800001A900F0F1FB4FF0006068604FF4806043
:101D90002C49286129604FF480700022E8614FF4DB
:101DA0004031AA60EA606A61AA6129626A622846D3
:101DB00000F04CF808B100F0CBFBE563AC63002207
:101DC0000521252000F0FBFC252000F017FD27E071
:101DD000184A914224D100210091026942F48022E4
:101DE0000261016901F4802100910021009B0091B2
:101DF0000221026842F0080202604FF4407200685B
:101E000000F008000090009B0F4801920291002210
:101E10000392032104910722059201A900F0A4FB7B
:101E200007B030BDA0860100544A002000100140D8
:101E30009C4A002000480040303802401C490020E5
:101E40000004024040640240000C024070B50446A9
:101E500000F0E8FC06460CB9012070BD04F1340521
:101E6000022068700021297000F065F8226810686F
:101E7000C1070AD500F0D6FC801B0628F6D3202027
:101E8000286203216970032070BD1368DFF8E8023F
:101E900061680340A0680B43E168034320690B437A
:101EA00061690343A0690B43E16903430B43216A62
:101EB000606A1943042803D1E06A0843216B014397
:101EC000116022685369606ADB08042840EAC30392
:101ED0000AD1A66AE06A334330B1A16991B9002EF4
:101EE00018BF022E20D017D35361204600F050F9BE
:101EF000A96A3F228A408260012000222A6268701B
:101F0000002070BDB1F5005F0AD1032EECD8DFE8E8
:101F100006F00D0B0D03E7E7B0F1C07FE4D105E05B
:101F2000022E03D9F61EDFD1C001DDD54021296282
:101F30000120687070BD2168086840084000086092
:101F40007047F8B5044604F134056E6A00F06AFC87
:101F500007466878022805D0802129620020287071
:101F60000120F2BD2168086820F016000860216891
:101F700000F006F904BF6869002804D021680868E9
:101F800020F008000860FFF7D6FF22681168C80734
:101F90000CD500F047FCC01B0628F6D32020286291
:101FA00003216970002028700320F2BDA86A3F2138
:101FB0008140B1600020012169702870F2BD90F865
:101FC0003520022A03D08021416501207047052178
:101FD00080F835100168086840084000086000205B
:101FE00070472DE9FC41064606F134050020634A9E
:101FF00000904FF416506F6A11683C68B1FBF0F81E
:10200000A86A082101FA00F004420ED03068026884
:1020100053070AD5026822F004020260A86A8140D0
:10202000B960296A41F001012962A86A24FA00F224
:10203000D1070BD5326851690A0607D5012101FA8B
:1020400000F0B860286A40F0020028620421A86A03
:1020500081400C4208D033681A68900704D5B960F3
:10206000286A40F0040028621021A86A81400C42CE
:102070001BD033681A68100717D5B960306802683A
:10208000510307D5006801030BD5696969B1304672
:1020900088470AE00168CA0503D4016821F00801F5
:1020A0000160E96809B130468847A86A202181406B
:1020B0000C4241D032681068C3063DD5B960306823
:1020C000697805291ED1026822F016020260316883
:1020D00000F056F804BF6869002804D03068016831
:1020E00021F0080101603F22A86A8240BA60012104
:1020F00069700020E969287000293AD03046BDE8AF
:10210000FC41084701684A0307D5006801030FD462
:10211000296989B1304688470EE00168CA0507D4AD
:10212000016821F01001016001226A70002028700E
:10213000A96809B130468847286AD0B1296AC8071A
:1021400011D5052169703168FFF7F6FE0098401C33
:102150008045009003D332681168C807F6D4012186
:10216000697000202870A96919B13046BDE8FC41AA
:102170000847BDE8F38100003F8010F01800002000
:10218000486920F080004861E86800287047000036
:1021900010B501461822086807A400F0FF03103BA1
:1021A000B3FBF2F2800AA35CCB658002042A28BF4D
:1021B000001D886510BD00000006101600061016F0
:1021C00070477047704770472DE9F04104000F4693
:1021D00054D0574E306800F00F00B84202D200F0E1
:1021E00073F84BD12168534D880712D5490703D5A1
:1021F000A86840F4E050A8602078010703D5A868DB
:1022000040F46040A860A968A06821F0F001014393
:10221000A9602178C80729D56068012802D12968FA
:102220008A0305E0022818BF032803D129688A0120
:1022300003D423E029688A0720D5A968890840EAE1
:102240008100A86000F0EEFA8046A868616800F09E
:102250000C00B0EB810F09D000F0E4FAA0EB08000D
:1022600041F289318842F0D303202BE0306800F03E
:102270000F00874204D200F027F801D0012021E0AE
:102280002078420705D5A968E06821F4E0510143B0
:10229000A96021780A0706D5A868216920F4604062
:1022A00040EAC100A86000F0C3FAAA682249234BA3
:1022B000C2F30312895CC84018602148006800F02E
:1022C000E7FA0020BDE8F0813770316801F00F01B6
:1022D000B942704719481B4B00681A681A49C2F383
:1022E000822206E01548174B00681A681649C2F3A7
:1022F0004232895CC840704710B50F220260114A13
:10230000136803F003034360146804F0F00484606E
:10231000136803F4E053C3601268D20802F4E05279
:102320000261034A106800F00F00086010BD000051
:10233000003C0240003802408839000818000020A4
:102340001400002008380240303A0008D3BBD9B14D
:10235000B2F5803F5BD2022A1ED98C46B1FBF2F166
:1023600002FB11C31B0443EA1043B3FBF2FC02FB64
:102370001C3380B240EA0343B3FBF2F002FB10329D
:1023800040EA0C4000237047022A05D98446B0FB7E
:10239000F2F002FB10C270474AB105D100F0010211
:1023A00049085FEA3000704700220023704700F0C0
:1023B000BFBA0B000200002100207047F7D30022B3
:1023C00000237047904271EB030CF2D370B5B1FA61
:1023D00081F4B3FA83F52C1BA340C4F1200532FA33
:1023E00005F63343A2405FF00046E64002E05B089A
:1023F0005FEA3202841A71EB030524BF20462946A6
:102400007641F4D302000B003000002170BD70B59E
:10241000B1FA81F4B2FA82F5C4F120046419B4F17E
:102420002006DAD3B2405FF00044F440002502E019
:1024300052085FEA3303C61A71EB020E24BF30461E
:10244000714664416D41F3D302000B002000290066
:1024500070BD000080B500F06DFA00F015F800F0D6
:1024600083FA00F005FB00F01DFB00F029FBFFF7ED
:1024700029FCFFF73CFC00F0A3FB00F002FC00F09D
:1024800089FC00F00DFCFEE780B592B030210022FF
:1024900006A800F05FF81421002201A800F05AF805
:1024A0000020009001222748016841F0805101601E
:1024B000006800F0805000900020009900902248B1
:1024C000016841F4404101604FF48031006800F43C
:1024D0004040009006A8009B0692079102224FF40C
:1024E00080010C920D910622B4210E920F910222CE
:1024F00004211092119100F069FC08B100F028F855
:1025000000F0EEFD08B100F023F800210222039153
:1025100002920F204FF4805101904FF4A052059188
:102520000492052101A8FFF74FFE08B100F010F852
:1025300013B000BD01680548814208BF00F00ABE23
:10254000704700004038024000700040001000401A
:1025500072B6FEE74018491C1CBFB1F1010100F83A
:10256000012DF9D1704700002DE9F84F0022DFF866
:10257000EC41DFF8EC814FF00F0901230F68934025
:102580001F409F4240F0D7804FEA420C032505FAD6
:102590000CF56FEA050E4D6805F00306012E1CBF11
:1025A00005F00305022D10D18668CD680EEA0606F7
:1025B00005FA0CF52E438660456825EA03034D684D
:1025C000C5F3001595402B43436093000D7905F04A
:1025D0000305032D1ED0C6688D680EEA060605FAAF
:1025E0000CF52E43C6600E7906F00306022E11D1BB
:1025F000D50800EB850503F01C06D5F820B009FAD4
:1026000006FA2BEA0A0BD1F810A00AFA06F646EAF7
:102610000B062E6205680EEA05060D7905F0030526
:1026200005FA0CF545EA060CC0F800C04D6815F433
:10263000403F00F080804FF0000ECDF800E04FEA00
:10264000920CD8F8005045F48045C8F8005003F0CB
:102650000C03D8F800E0434D0EF4804ECDF800E0B6
:1026600009FA03F6DDF800E055F82C50B5433E4E6C
:10267000B04208BF4FF0000E36D03C4EB04208BF0B
:102680004FF0010E30D03A4EB04208BF4FF0020E6C
:102690002AD0384EB04208BF4FF0030E24D0364E39
:1026A000B04208BF4FF0040E1ED0344EB04208BFF7
:1026B0004FF0050E18D0324EB04208BF4FF0060E54
:1026C00012D0304EB04208BF4FF0070E0CD02E4E45
:1026D000B04208BF4FF0080E06D02C4EB0420CBFDF
:1026E0004FF0090E4FF00A0E0EFA03F3DFF874E014
:1026F0002B434EF82C30FE43A3684D683340ED0267
:1027000048BF3B43A360E3684D683340AD0248BF18
:102710003B43E36063684D683340AD0348BF3B43D0
:102720006360236806EA030C4B68DB0348BF47EA93
:102730000C0CC4F800C0521C0F2A7FF61EAFBDE877
:10274000F18F02B9090481617047436901EA03020C
:10275000994341EA0241816170470000003C014019
:1027600044380240083801400000024000040240A2
:1027700000080240000C0240001002400014024019
:1027800000180240001C02400020024000240240C9
:102790000A01010002D41F4B5A5470471E4801F031
:1027A0000F01014401F8042C70471C490A6860F3CA
:1027B0000A2240F2FA5060F31F420A60704770B577
:1027C000164C2368C3F302230124C3F10705052D2A
:1027D0002FBF0F26C3F1070604FA06F6761E1D1D4D
:1027E000072D34BF0023DB1E3140994004FA03F368
:1027F000BDE870405B1E1A401143C9E7010007D4D1
:10280000012200F01F01064B8A40400943F82020B6
:102810007047000000E400E018ED00E00CED00E07F
:1028200000E100E001484068704700BF0C00002054
:1028300030B5144C606800F00C00042802D0082861
:1028400002D01DE0104830BD2268216800234802F4
:1028500002F03F0204D525680B48C5F3881103E058
:1028600021680A48C1F38811A0FB0101FFF76EFD42
:102870002168C1F30141491C4900B0FBF1F030BDB2
:10288000024830BD04380240001BB7000024F400A9
:1028900078B587B00446002000902048016841F0D8
:1028A0001001016001A9006800F01000009002A86A
:1028B000009AFFF721FD059810B9FFF70BFD02E024
:1028C000FFF708FD40001649164D174B2B60B0FB73
:1028D000F1F1002040F2E732491E2861A860A861AA
:1028E000EA606960284600F03DFC060012D12846E7
:1028F00000F045FC06000DD13620FFF77FFF102CBD
:1029000007D2002221463620FFF759FF074804600E
:1029100000E00126304608B070BD0000403802409B
:1029200040420F000C4A002000100040140000201C
:102930007047000080B50B48016841F400710160E8
:10294000026842F480620260016841F480710160B3
:102950000320FFF72AFF0F20FFF79AFF00F076FD14
:10296000002002BD003C024038B586B01421002290
:1029700001A8FFF7EFFD00213048314D314C0091A7
:10298000026842F001020260016801F0010100F0FA
:1029900069F842F002020260016801F0020100F0F1
:1029A0005BF843F008030360016801F0080100F0E0
:1029B00059F842F080020260016801F0800100F0E5
:1029C0004BF843F020030360016801F020010091FF
:1029D0000021009A00910122036843F01003036074
:1029E0004FF40061006800F0100000900098284645
:1029F000FFF7A7FE01224FF480412046FFF7A1FE1A
:102A00000420002101900291039101A90E48FFF7D3
:102A1000ABFD4FF400600121019000F017F828464B
:102A2000FFF7A2FD4FF480420192012100F00EF861
:102A30002046FFF799FD07B030BD00003038024056
:102A400000100240001402400004024002910022E3
:102A50000392049201A9704700910021009A00910D
:102A60000368704700910021009B00910268704745
:102A700080B50020009000220948016841F48001DF
:102A800001600521006800F4800000903A20009B5E
:102A9000FFF795FEBDE802403A20FFF7AFBE00BF4A
:102AA000303802401FB500F025F84FF480303D4C1F
:102AB0003D4A00F024F808B1FFF74AFD11200CE070
:102AC0001FB500F017F84FF48030384C384A00F04A
:102AD00016F808B1FFF73CFD0E20002100900122FE
:102AE000029101926946204600F087FD08B1FFF788
:102AF0002FFD1FBD102100226846FFF72BBD60602F
:102B000000212C48A06222600120E0616061A16088
:102B10002161217684F82010E162E16084F83010B0
:102B2000204600F0B5BC10B586B004461421002242
:102B300001A8FFF70FFD21681B4A1F4891420BD1E6
:102B400000210091426942F480724261406900F4C0
:102B500080700090009822E0154A91421FD1002118
:102B60000091426942F480624261416901F48061EE
:102B700000910021009A00910322036843F0200392
:102B80000360006800F02000009010200099019080
:102B900000210391029201A90848FFF7E5FC06B065
:102BA00010BD00007C49002000200140C4490020E5
:102BB000002201400100000F3038024000140240A2
:102BC0000022032180B524488260C26041604FF436
:102BD000102202614FF44011204B0360002241613A
:102BE0008261828300F0B6FD18B1BDE80140FFF7B5
:102BF000AFBC01BD10B586B004461421002201A867
:102C0000FFF7A8FC236815498B4223D100200090D0
:102C10001348016941F000710161016901F000711F
:102C200000910021009B0091026842F008020260BE
:102C30000222006800F00800009003200099019033
:102C400000210391049009210591029201A90548F0
:102C5000FFF78AFC06B010BD244B00200064004042
:102C600030380240000C024080B5DFF81C110868C3
:102C7000FDF7C1FD012803D0BDE80140FEF73BB8D8
:102C800001BDEFF3058000B16EE0DFF800110868C8
:102C900010B901220A6070474FF0FF307047000002
:102CA00080B5EFF3058000B10FE0DFF8E0000168C8
:102CB000012909D1DFF8D81000220A70022303602D
:102CC000FDF78AFB002002BD02E06FF0050002BDA7
:102CD0004FF0FF3002BDF8B584B000230393EFF34B
:102CE0000583002B3DD103003BD08025182600240E
:102CF0005AB3136803B11C4693691BB11E0004D07C
:102D0000392E02D21779FB0701D500202AE053693A
:102D100003B19D08D2F80CC0976887B1BCF15C0F75
:102D20001FD31269002A18BF002B1AD001920B463C
:102D3000029700962A462146FDF738FA10E0BCF1CA
:102D4000000F04BF1269002A0BD103AB0193009658
:102D50000B46AAB22146FDF75AFA012801D00020FD
:102D60000390039805B0F0BD6FF00500704710B5F3
:102D7000EFF3058111B16FF0050403E0002408B101
:102D8000FDF711FB204610BD10E000E04C4B002089
:102D90001FED00E080B50A4A0FF20D000021FFF799
:102DA0009AFF0849086001BD80B54FF4804106488C
:102DB000FFF7CBFC4FF47A70FFF7D9FFF5E700007F
:102DC0000C390008504B0020001402402DE9F84354
:102DD000040016D02078DFF8F862C10713D5B06878
:102DE00000F00C00042807D0B06800F00C000828A0
:102DF0003DD1706841023AD53068810303D56068DF
:102E0000002800F05F812078B24F810719D5B068A3
:102E100010F00C0F07D0B06800F00C0008285CD14F
:102E20007068410259D43068810703D5E0680128F1
:102E300040F048813168206921F0F80141EAC00181
:102E400031602178080773D56069A349002862D0F2
:102E500001220A60FFF7E6FC0546706F810767D420
:102E6000FFF7E0FC401B0228F7D903202DE1606842
:102E7000B0F5803F03D1306840F4803012E0B0F507
:102E8000A02F08D1306840F480203060316841F4D0
:102E90008031316007E0326822F48032326030687D
:102EA00020F480203060606858B1FFF7BBFC054615
:102EB00031688803A7D4FFF7B5FC401B6528F7D31A
:102EC000D3E7FFF7AFFC0546316888039BD5FFF7D2
:102ED000A9FC401B6528F7D3C7E7E06868B101216A
:102EE0003960FFF79FFC054630688107A2D4FFF7E1
:102EF00099FC401B0228F7D9B7E700223A60FFF798
:102F000091FC0546316888079BD5FFF78BFC401B79
:102F10000228F7D9A9E70860FFF784FC0546716F1E
:102F2000880705D5FFF77EFC401B0228F7D99CE7F0
:102F30002078410760D5306C0025C1000BD40020FB
:102F400000900125316C41F080513164306C00F00B
:102F5000805000900098DFF88481D8F80000C10507
:102F600013D4D8F8000040F48070C8F80000FFF7D0
:102F700059FC8146D8F80010C80506D4FFF752FC6A
:102F8000A0EB09000228F5D96FE7A068012805D059
:102F90000528306F06D140F004003067306F40F0F4
:102FA000010005E0400840003067306F20F0040069
:102FB000306741F28938A06860B1FFF733FC814681
:102FC000316F880713D4FFF72DFCA0EB09004045B3
:102FD000F6D34AE7FFF726FC8146316F880706D50E
:102FE000FFF720FCA0EB09004045F6D33DE71DB1FB
:102FF000306C20F080503064A069002864D0B16843
:1030000001F00C0108293AD002282AD100203866A4
:10301000FFF708FC05463068810105D5FFF702FC83
:10302000401B0228F7D920E7E269206A616A02435F
:10303000A06A400842EA8112401E42EA0042E06A69
:1030400042EA0062726001213966FFF7EBFB044639
:103050003068810138D4FFF7E5FB001B0228F7D95F
:1030600003E700203866FFF7DDFB04463068810186
:103070002AD5FFF7D7FB001B0228F7D9F5E6012870
:1030800020D07068E16900F480028A4202BF00F03B
:103090003F02216A8A4201BF47F6C0720240616A5C
:1030A000B2EB811F0ED1A16A00F4403202F58032EA
:1030B0004908B2EB014F02BF00F07060E16AB0EB6B
:1030C000016F01D0012000E00020BDE8F28300BFC5
:1030D0000038024000004742800E47420070004026
:1030E000F8B500F020F8012000992060FFF79AFB66
:1030F00007463168C80306D4FFF794FBC01BA842FB
:10310000F7D30320F2BD01206060FFF78BFB04467C
:103110003168880305D4FFF785FB001BA842F7D36D
:10312000EFE70020F2BD0020009040F2E9350748AB
:10313000074C0168044E41F080510160006800F0C6
:1031400080500090704700000470004040380240FA
:1031500040000E42024842680178511841607047B1
:103160000C00002038B5040001D1012032BD00F070
:103170005BF818B900F054F800F079FB3CE090F8E7
:103180003D10012901D001207047022180F83D1037
:103190000268D16841F00101D160DFF89420016834
:1031A000914218BFB1F1804F17D0DFF888309942B3
:1031B0001CBFDFF8842091420FD0DFF880309942A5
:1031C0001CBFDFF87C20914207D0DFF878309942AD
:1031D0001CBFDFF87420914206D1896801F0070115
:1031E000062907D0026800E00A461168104641F03F
:1031F000010101600020704702206870211D2068D5
:1032000000F0BCF80121A9720120A870E9702871B2
:103210006971A871E971287269726870002032BD05
:10322000002129702046704704F13C0568787047FA
:10323000000001400004004000080040000C004075
:1032400000040140004001400018004070B50446F1
:103250002068C5680669B20714D5A90712D56FF0B2
:103260000202026101212177806910F0030F2046DC
:1032700002D000F0FDFA03E000F0FBFA00F07BF86A
:1032800000202077710715D5680713D520686FF0E7
:103290000401016102222277806910F4407F2046F8
:1032A00002D000F0E5FA03E000F0E3FA00F063F882
:1032B00000202077310715D5280713D520686FF037
:1032C0000801016104222277C06910F0030F204633
:1032D00002D000F0CDFA03E000F0CBFA00F04BF89A
:1032E00000202077F10615D5E80613D520686FF089
:1032F0001002026108212177C06910F4407F204646
:1033000002D000F0B5FA03E000F0B3FA00F033F8B1
:103310000020207706F0010205F001010A4206D0E4
:1033200021686FF001020A612046FFF703F93006B9
:1033300008D52A0606D520686FF080010161204675
:1033400000F098FA700608D56A0606D520686FF076
:1033500040010161204600F08EFAB0060AD5AA06A7
:1033600008D521686FF0200008612046BDE8704054
:1033700000F082BA70BD204600F07FBAF0B5036855
:10338000274D284CDFF8A0C0284A294EA84218BF74
:10339000B0F1804F07D0B04218BF904203D06045D3
:1033A00018BFA0420DD123F070074B683B43A842E1
:1033B00018BFB0F1804F17D0B0421CBF904260459B
:1033C00012D0A0421CBF1B4A90420DD01A4EB042F0
:1033D0001CBF1A4A904207D0194EB0421FBF194A6B
:1033E0009042194EB04203D123F44072CB6813438C
:1033F0004A6923F0800313430360A8428B68C362C9
:103400000A68826212BFA042096901630122426117
:103410000169CA0703D50169490849000161F0BD86
:103420000000014000040140000C00400008004082
:1034300000040040004001400044014000480140B9
:1034400000180040001C00400020004082B0002016
:1034500000900E48416841F480414160416801F4A8
:10346000804100910021009B00910F21026842F0F1
:10347000805202600022006800F0805000906FF0DF
:103480000100009B02B0FFF79AB900BF403802402C
:1034900070B5044600260CB9012070BD04F130055A
:1034A000286928B92046FFF73EFB0021696129738E
:1034B0002869C10600F196802869DFF8801220F49F
:1034C000885040F002002861086820F4403008600D
:1034D0000A68606802430A602068416821F48071CC
:1034E000416020684168226941EA02214160216807
:1034F000486820F04070486022685168A068014325
:1035000051602168886820F40060886022689168B2
:10351000E068014391602068A16ADFF824229142AB
:10352000816821F0706181600CD022689168A06A86
:103530000143916000F05BF822689168E06A014302
:10354000916001E000F053F82168886820F00200E3
:10355000886022689068217E40EA4100906021687E
:1035600094F82000002848680FD040F400604860BC
:103570002168486820F46040486022685068616AA9
:10358000491E40EA4130506002E020F4006048608B
:103590002168C86A20F47000C8622068C26AE169C4
:1035A000491E42EA0152C2622068816821F400711A
:1035B000816022689068297840EA41209060206804
:1035C000816821F48061816020688168626941EAD4
:1035D00082218160002068610120296960F3010176
:1035E000296100E0012600202873304670BD216863
:1035F000886820F040508860704778B50246002007
:10360000009092F83C30012B01D1022072BD0120C4
:1036100082F83C0007230D6810680A2D12D30A3D7A
:10362000C46805EB4505AB4024EA0303C360C368E7
:103630000E688C68A6F10A0505EB4505AC402343EE
:10364000C3600FE0046905EB450503FA05F524EABC
:103650000505056103690D688C6805EB4505AC40FF
:10366000234303611F244B68072B0CD25B1E456B61
:1036700000F05EF84463436B4D680C886E1E00F0EA
:1036800052F843631BE00D2B0CD2DB1F056B00F0DF
:103690004FF80463036B4D680C88EE1F00F043F88D
:1036A00003630CE00D3BC56A00F042F8C462C36AD4
:1036B0004D680C88A5F10D0600F035F8C362234C67
:1036C000A0422BD10B681D48122B07D1046824F4AB
:1036D00000040460036843F4800303600C681C4B1F
:1036E0009C4218BF112C19D1056825F4800505608E
:1036F000046844F400040460086898420ED1114C38
:1037000011492368B3FBF1F10A204143009102E023
:103710000098401E009000980028F9D1002182F8FE
:103720003C10002072BD06EB8606B4402343704770
:1037300003EB83039C4025EA040470470423014003
:103740000100000F1800002040420F00002001403F
:103750001200001038B504002BD094F8200010B9E6
:103760002046FFF747FA2068016841F00101016037
:10377000FFF758F8054620684168C80705D4FFF7E9
:1037800051F8401B0B28F6D311E02268106811464F
:1037900020F002000860FFF745F805462068416800
:1037A000880708D5FFF73EF8401B0B28F6D300F03A
:1037B00056F8012032BD2268207E116801280CBF16
:1037C00041F0800121F0800110460160617E206897
:1037D000012901680CBF41F0400121F04001016066
:1037E000A07E2168012808680CBF40F0200020F06E
:1037F00020000860E07E012805D12068016821F0E2
:103800001001016004E02168086840F010000860C1
:10381000207F2168012808680CBF40F0080020F0D4
:10382000080008602168607F012808680CBF40F02C
:10383000040020F004000860A268E06821690243E7
:1038400060690A43616802432068491E0A43C261F5
:1038500000216162012084F82000002032BD616AED
:1038600041F400316162052084F820007047704700
:1038700070477047704770477047704730B40024F6
:1038800012E050F8043BDA0744BF4B445B1E091FAB
:10389000042943F8044BFAD21A468D0744BF1C8012
:1038A000921CCB0748BF147050F8041B0029E8D1C4
:1038B00030BC7047FEE7FEE7FEE7FEE7FEE7704735
:1038C0000448FDF793BF0448FFF7C0BC0348FEF768
:1038D00088BB0000544A00200C4A00201C490020EC
:1038E00010B5034A7A440832024C7C44A41D03E01C
:1038F000640000008400000004E01168101D114401
:1039000088470246A242F8D110BD0000283A0008BC
:1039100000000000000000000000000000000000A7
:10392000000200001800000000000000000000007D
:103930004EF68851CEF20001086840F4700008602D
:10394000BFF34F8FBFF36F8F4FF00170E1EE100A9E
:103950007047000029FFFFFF384B00001C000020CB
:103960000000000023D2FFFF1C00000090000000B8
:1039700000000020000000000249086840F47000C8
:103980000860704788ED00E00000000000000000C3
:10399000010203040607080900F00DF8002801D011
:1039A000FFF79EFFAFF300800020AFF30080FEF72B
:1039B00051FD00F002F80120704700F001B800004E
:1039C0000746384600F002F8FBE7000080B5AFF389
:1039D0000080024A11001820ABBEFBE7260002005F
:1039E0000548014603B4684680F30988AFF30080B8
:1039F000FFF79EFFFFF7D0FFA5EDF5FE00000000EA
:103A0000AAAAAAAA0000000001000000000000000D
:103A1000100000000024F4000148804701480047DE
:103A200079390008E1390008496E646578000000C2
:103A30000000000001020304FFF7FEBFFFF7FEBF16
:103A4000FFF7FEBFFFF7FEBFFFF7FEBFFFF7FEBFAA
:103A5000FFF7FEBFFFF7FEBFFFF7FEBFFFF7FEBF9A
:103A6000FFF7FEBFFFF7FEBFFFF7FEBFFFF7FEBF8A
:103A7000FFF7FEBFFFF7FEBFFFF7FEBFFFF7FEBF7A
:103A8000FFF7FEBFFFF7FEBFFFF7FEBFFFF7FEBF6A
:103A9000FFF7FEBFFFF7FEBFFFF7FEBFFFF7FEBF5A
:103AA000FFF7FEBFFFF7FEBFFFF7FEBFFFF7FEBF4A
:103AB000FFF7FEBFFFF7FEBFFFF7FEBFFFF7FEBF3A
:103AC000FFF7FEBFFFF7FEBFFFF7FEBFFFF7FEBF2A
:103AD000FFF7FEBFFFF7FEBFFFF7FEBFFFF7FEBF1A
:103AE000FFF7FEBFFFF7FEBFFFF7FEBFFFF7FEBF0A
:103AF000FFF7FEBFFFF7FEBFFFF7FEBFFFF7FEBFFA
:103B0000FFF7FEBFFFF7FEBFFFF7FEBFFFF7FEBFE9
:103B1000FFF7FEBFFFF7FEBFFFF7FEBFFFF7FEBFD9
:103B2000FFF7FEBFFFF7FEBFFFF7FEBFFFF7FEBFC9
:103B3000FFF7FEBFFFF7FEBFFFF7FEBFFFF7FEBFB9
:103B4000FFF7FEBFFFF7FEBFFFF7FEBFFFF7FEBFA9
:103B5000FFF7FEBFFFF7FEBFFFF7FEBFFFF7FEBF99
:103B6000FFF7FEBFFFF7FEBFFFF7FEBFFFF7FEBF89
:103B7000FFF7FEBFFFF7FEBFFFF7FEBFFFF7FEBF79
:0C3B8000FFF7FEBFFFF7FEBFFFF7FEBF20
:04000005080039E1D5
:00000001FF
