:020000040800F2
:10000000A0040020A1010008C30F0008FD0E000895
:10001000C10F0008AD0200086512000800000000D2
:10002000000000000000000000000000C70F0008F2
:10003000AF02000800000000C50F0008C90F00084B
:10004000BB010008BB010008BB010008BB010008A0
:10005000BB010008BB010008BB010008BB01000890
:10006000BB010008BB010008BB010008BB01000880
:10007000BB010008BB010008BB010008BB01000870
:10008000BB010008BB010008BB010008BB01000860
:10009000BB010008BB010008BB010008BB01000850
:1000A000BB010008BB010008BB010008BB01000840
:1000B000BB010008BB010008BB010008BB01000830
:1000C000BB010008BB010008BB010008BB01000820
:1000D000BB010008BB010008BB010008BB01000810
:1000E000BB010008BB010008BB010008BB01000800
:1000F000BB010008BB010008BB010008BB010008F0
:10010000BB010008BB010008BB010008BB010008DF
:10011000BB010008BB01000875100008BB01000806
:10012000BB010008BB010008BB010008BB010008BF
:10013000BB010008BB010008BB010008BB010008AF
:10014000BB010008BB010008BB010008BB0100089F
:10015000BB010008BB010008BB010008BB0100088F
:10016000BB010008BB010008BB010008BB0100087F
:10017000BB010008BB010008BB0100080000000033
:10018000BB010008BB010008DFF810D000F07CF8CC
:1001900000480047A5120008AFF30080A00400202B
:1001A0000648804706480047FEE7FEE7FEE7FEE711
:1001B000FEE7FEE7FEE7FEE7FEE7FEE76510000864
:1001C000890100082DE9F05F0546002092469B4614
:1001D00088460646814640241BE02846414647465D
:1001E000224600F041F853465A46C01A914110D3B6
:1001F00011461846224600F028F82D1A67EB010830
:100200004F4622460120002100F01FF817EB00099D
:100210004E41201EA4F10104DFDC484631462A4647
:100220004346BDE8F09FD2B201E000F8012B491E21
:10023000FBD270470022F6E710B513460A46044683
:100240001946FFF7F0FF204610BD202A04DB203AB4
:1002500000FA02F1002070479140C2F1200320FA19
:1002600003F3194390407047202A04DB203A21FA17
:1002700002F00021704721FA02F3D040C2F12002BF
:100280009140084319467047064C074D06E0E06868
:1002900040F0010394E8070098471034AC42F6D3CD
:1002A000FFF776FFE812000808130008FEE7704722
:1002B00072B6FEE770B5044600F014F90546601CFE
:1002C00002D004480078044400F00CF9401BA0421E
:1002D000FAD370BD000000202DE9F84FDFF8BCA173
:1002E0000022012503264FF00F090AF1040BAAF1A1
:1002F000040E00BF0B6805FA02F42340A34270D13C
:100300000F7907F00307012F01D0022F16D187685C
:100310004FEA420806FA08FC27EA0C07D1F80CC09D
:100320000CFA08FC4CEA070CC0F808C04768A74361
:100330000C79C4F3001494403C4344600C79E443CA
:10034000A4070AD0C4684FEA420C06FA0CF7BC4373
:100350008F6807FA0CF72743C7600C7904F0030491
:10036000022C12D1D40800EB840CDCF82040570793
:10037000FF0E09FA07F824EA0804D1F8108008FAF9
:1003800007F848EA0408CCF8208004684FEA420CD9
:1003900006FA0CF7BC430F7907F0030707FA0CF7CE
:1003A000274307604C6814F4403F70D03C4C2768EA
:1003B00047F480472760246822F0030704F4804450
:1003C0000094384C07EB040CDCF8084897074FEA18
:1003D000177809FA08F7BC43334FB84202D1002717
:1003E00024E054E0314FB84201D101271EE0304FE4
:1003F000B84201D1022719E02E4FB84201D103279C
:1004000014E02D4FB84201D104270FE02B4FB84222
:1004100001D105270AE02A4FB84201D1062705E09D
:10042000284FB84201D1072700E0082707FA08F74C
:100430002743CCF80878DAF800405746D1F804C0D2
:100440009C435FEACC2C00D51C433C60DBF80040A9
:100450005F46D1F804C09C435FEA8C2C00D51C4356
:100460003C60DEF800407746D1F804C09C435FEA68
:100470008C3C00D51C433C60084F083F3C68D1F8D9
:1004800004C09C435FEACC3C00D51C433C60521C3A
:10049000102AFFF42FAFBDE8F88F0000083C0140A0
:1004A0004438024000300140000002400004024095
:1004B00000080240000C02400010024000140240FC
:1004C00000180240001C0240426921EA02030A406F
:1004D00043EA0241816170470AB1816170470904B2
:1004E000FBE7000001488068704700000000002022
:1004F0000248816802781144816070470000002042
:100500000B4810B5016841F400710160016841F4C5
:1005100080610160016841F480710160032000F096
:100520009BF80F2000F006F800F050F8002010BDF6
:10053000003C024030B505461F4887B000240168E2
:1005400041F010010160006806A900F01000009061
:1005500001A800F02DF90498A8B100F049F9400075
:100560001649174AB0FBF1F11648491E026040F2E5
:10057000E732C0E90324C0E90114846100F042FBC2
:10058000040003D015E000F033F9E9E70D4800F06E
:1005900067FB04000DD1362000F030F8102D07D293
:1005A00000222946362000F037F80748056000E0B1
:1005B000012407B0204630BD4038024040420F00C1
:1005C0000010004058000020040000200A4808B530
:1005D000016841F480410160006800F480400090AF
:1005E0000548001F016841F080510160006800F07B
:1005F0008050009008BD000044380240002809DB0C
:1006000000F01F02012191404009800000F1E0202C
:10061000C0F8001170470000F0B40E4B1B680C4688
:10062000C3F30223C3F10705042D00D90425191DC6
:10063000072901D2002300E0DB1E012606FA05F19E
:10064000491E214099409E40761E16403143F0BC21
:1006500000F009BE0CED00E0064900F00702086852
:100660004FF6FF03184040EA0220034A1043086097
:10067000704700000CED00E00000FA052DE9F0479E
:100680000E46050065D0DFF81481D8F80000F7B2F7
:1006900000F00700B04207D288F80070D8F80000D8
:1006A00000F00700B04254D128683D4C810712D5B4
:1006B000400703D5206840F4E05020602878000708
:1006C00003D5206840F4604020602068A96820F0CD
:1006D000F000084320602878C0072DD030496868B2
:1006E0000839012812D0022813D0032811D0096834
:1006F000890700292DDA216821F0030101432160D7
:10070000FFF7F0FE814641F2883A0EE0096889035E
:10071000EFE709688901ECE7FFF7E4FEA0EB0901C8
:10072000514502D90320BDE8F0872068696800F0D0
:100730000C00B0EB810FEFD1D8F80010404601F06B
:100740000701B14207D90770006800F00700B04206
:1007500001D00120E7E72878400705D52068E9683F
:1007600020F4E050084320602878000706D5206870
:10077000296920F4604040EAC100206000F058F888
:100780002168084AC1F30311515CC840064908605A
:1007900006480068FFF7CEFE0020C4E7003C024098
:1007A00008380240D01200080C000020040000208D
:1007B0000F2202600C4A136803F0030343601368BE
:1007C00003F0F0038360136803F4E053C36012681E
:1007D0004FF4E05303EAD20202610448006800F0DB
:1007E000070008607047000008380240003C0240E3
:1007F0000448054900680968044AC1F38221515C34
:10080000C84070470C00002008380240E012000881
:100810000448054900680968044AC1F34231515C43
:10082000C84070470C00002008380240E012000861
:10083000154810B5006810F00C02144813D0144984
:10084000042A0FD0082A0ED10F4C241F22682368D7
:1008500002F03F025B0207D52068C0F38810A0FBBE
:10086000010106E0084610BD2168C1F38811A1FB13
:1008700000010023FFF7A6FC2168C1F30141491CD8
:100880004900B0FBF1F010BD083802400024F4002C
:1008900040787D012DE9F84F04006ED02078DFF814
:1008A0004C93C007A9F104054AD009F1040001687E
:1008B000C1F38101012908D00068C0F3810002283A
:1008C0000AD1D9F80000400206D52868800337D540
:1008D00060680028E1D033E06068B0F5803F10D058
:1008E000B0F5A02F286810D020F480302860286848
:1008F00020F4802028606068A8B1FFF7F3FD064669
:100900000DE0286840F48030F4E740F4802028604F
:10091000F7E700BFFFF7E6FD801B642873D828685F
:100920008003F7D50CE0FFF7DDFD064605E000BFCC
:10093000FFF7D8FD801B6428F0D828688003F7D41F
:100940002078DFF8AC8280074FF0000A3ED5A74838
:10095000001D016811F00C0F08D00068C0F3810081
:1009600002280BD1D9F80000400207D4286880077C
:1009700016D5E068012800D112E033E1E068B8B193
:100980000120C8F80000FFF7ADFD064605E000BFF6
:10099000FFF7A8FD801B0228C0D828688007F7D57C
:1009A0002868216920F0F80040EAC10028600DE0C5
:1009B000C8F800A0FFF796FD064604E0FFF792FD99
:1009C000801B02281FD828688007F7D420780007EA
:1009D00022D5864F87486169703771B10121016066
:1009E000FFF780FD064604E0FFF77CFD801B022830
:1009F00009D838688007F7D50EE0C0F800A0FFF7E7
:100A000071FD064605E082E0FFF76CFD801B0228C1
:100A10007DD838688007F7D42078400768D5DFF89C
:100A2000CCB100270BF13C0BDBF80000C0000BD46D
:100A3000DBF8001041F08051CBF80010DBF800002B
:100A4000012700F0805000906B4E3068C00510D434
:100A5000306840F480703060FFF744FD009005E09E
:100A6000FFF740FD0099401A022850D83068C005B1
:100A7000F6D55E4EA0686C3601280FD00528306888
:100A800010D020F001003060306820F004003060A9
:100A9000A068B8B1FFF726FD00900FE0306840F085
:100AA0000100F4E740F004003060F7E7FFF71AFDBB
:100AB0000099411A41F28830814266D83068800737
:100AC000F4D50EE0FFF70EFD009007E0FFF70AFDFA
:100AD0000099411A41F28830814256D83068800727
:100AE000F4D42FB1DBF8001021F08051CBF80010C6
:100AF000A069C8B33D49091D0968C1F381010229F4
:100B00004AD00228504607D0C8F8600000E03CE018
:100B1000FFF7E8FC04463BE04746C8F86000FFF7F3
:100B2000E1FC064605E000BFFFF7DCFC801B022865
:100B30002BD828688001F7D4D4E907010843A16ABB
:100B40002E4A490802EB0141626A41EA82110843D8
:100B500094F82C1040EA0161C9F8001001203866B1
:100B6000FFF7C0FC044606E03EE000BFFFF7BAFC1A
:100B7000001B022809D828688001F7D534E000BF9F
:100B8000FFF7B0FC001B022802D90320BDE8F88F54
:100B900028688001F4D427E00128F7D0D9F80000B4
:100BA000E26900F4800191421CD1226A00F03F0109
:100BB000914217D147F6C071626A0140B1EB821FC2
:100BC00010D1A26A4FF0FF3300F4403103EB520220
:100BD000B1EB024F06D194F82C1000F07060B0EB2E
:100BE000016F01D00120D1E70020CFE70438024097
:100BF00000004742800E4742007000400000FFFFA7
:100C00007047704710B5040003D094F83D0010B150
:100C100007E0012010BD002084F83C00204600F0D1
:100C20001EF8022084F83D00211D206800F028FAFB
:100C3000012084F8460084F83E0084F83F0084F8E0
:100C4000400084F8410084F8420084F8430084F8AE
:100C5000440084F8450084F83D00002010BD704732
:100C600090F83D10012901D001207047022180F841
:100C70003D100168CA6842F00102CA60006811496B
:100C8000884214D0B0F1804F11D00F4988420ED065
:100C90000E4988420BD00E49884208D00D4988423F
:100CA00005D00D49884202D00C49884204D18168A0
:100CB00001F00701062903D0016841F0010101603C
:100CC0000020704700000140000400400008004080
:100CD000000C0040000401400040014000180040AA
:100CE00070472DE9F04104460068C66805694FF079
:100CF0000007A90713D5B10711D5F91E016101201D
:100D00002077206880698007204602D0FFF7E8FF3F
:100D100004E000F07EF8204600F07CF827776807B2
:100D200016D5700714D521686FF004000861022001
:100D300020772068806910F4407F204602D0FFF7BA
:100D4000CFFF04E000F065F8204600F063F8277755
:100D5000280715D5300713D521686FF00800086102
:100D6000042020772068C0698007204602D0FFF762
:100D7000B7FF04E000F04DF8204600F04BF827776D
:100D8000E80616D5F00614D521686FF0100008614A
:100D9000082020772068C06910F4407F204602D0E8
:100DA000FFF79EFF04E000F034F8204600F032F830
:100DB0002777E80708D0F00706D021686FF0010018
:100DC0000861204600F028F8280608D5300606D528
:100DD00021686FF0800008612046FFF711FF680668
:100DE00008D5700606D521686FF0400008612046DE
:100DF00000F01CF8A8060AD5B00608D521686FF0E7
:100E0000200008612046BDE8F041FFF7FABEBDE8CA
:100E1000F08170477047000000680349884201D1A3
:100E2000FFF766BB7047000000100040704770B5C8
:100E3000040004D094F84100002510B106E0012020
:100E400070BD84F84050204600F024F8242084F837
:100E500041002068C16821F40051C160204600F0C3
:100E60007BF92068016921F49041016120684169A2
:100E700021F02A0141612068C16841F40051C1603C
:100E80006564202084F8410084F8420065630020F6
:100E900070BD000010B586B0044614216846FFF707
:100EA000C9F913492068884220D1124800210268FC
:100EB00042F020020260006800F0200005900D481A
:100EC0001438026842F004020260006800F0040076
:100ED0000590C02000900220CDE90101032003907D
:100EE0000820049069460448FFF7F6F906B010BDE3
:100EF000001401404438024000080240FEE70000B0
:100F000030B587B014216846FFF794F919480024DA
:100F1000016841F080010160016801F080010591E4
:100F2000016841F004010160016801F004010591CC
:100F3000016841F001010160016801F001010591C2
:100F4000016841F00201016000680B4D00F00200F1
:100F50000590002210212846FFF7BEFA10200090CD
:100F60000120CDE90104694628460394FFF7B4F94E
:100F700007B030BD30380240000402400E4810B5C2
:100F80000C4901600D4941604FF48051816000219E
:100F90004FF48062C0E903120C22C0E90521C1614F
:100FA000FFF745FF002803D0BDE81040FFF780B9E8
:100FB00010BD00000014014010000020A0860100B8
:100FC000FEE7FEE7704770477047000030B593B00A
:100FD00030216846FFF72EF914210CA8FFF72AF9F3
:100FE0001E480025016841F080510160006800F052
:100FF000805011901A48016841F4804101600068F6
:10100000022400F48040119001200090000401901F
:101010008001CDE90640192008904FF4A870CDE971
:10102000090404200B906846FFF734FC08B172B63F
:10103000FEE70CA90F2081E831004FF4A0500F907B
:101040004FF48050109005210CA8FFF717FB0028E3
:1010500001D072B6FEE713B030BD00004038024048
:10106000007000400248016841F47001016070475F
:1010700088ED00E00148FFF734BE00005800002072
:10108000F0B50268294C2A4D2A4E2B4F2B4B4FF0BE
:10109000804CA04209D0604507D0A84205D0B0429C
:1010A00003D0B84201D0984204D122F0700E4A68B1
:1010B00042EA0E02A0421BD0604519D0A84217D0C8
:1010C000B04215D0B84213D0984211D01C4DA8425E
:1010D0000ED01C4DA8420BD01B4DA84208D01B4D72
:1010E000A84205D01A4DA84202D01A4DA84203D1F9
:1010F00022F44075CA682A434D6922F080022A43CF
:1011000002608A68C2620A688262A04201D0984284
:1011100001D109690163012141610169C90703D056
:10112000016921F001010161F0BD000000000140F2
:101130000004004000080040000C00400004014092
:1011400000400140004401400048014000180040B8
:10115000001C00400020004070B504460068016992
:10116000E26821F44051114301612169A068E269FC
:1011700008436169114308432168CA6849F20C6356
:101180009A430243CA6020684169A26921F4407110
:101190001143416131492068884202D03049884278
:1011A00002D1FFF735FB01E0FFF722FBE2690023E4
:1011B000192164253226B2F5004F626828D0A0FBC1
:1011C0000101930F9200FEF7FDFF0146B0FBF5F021
:1011D0006FF01802504301EB800006EB0010B0FBEB
:1011E000F5F000F0F002B1FBF5F002EB0012B1FBFC
:1011F000F5F06FF01803584301EB800006EB001088
:10120000B0FBF5F000F00F0021681044886070BD5D
:10121000A0FB010192185B41FEF7D4FF0146B0FB31
:10122000F5F00201B1FBF5F06FF01803584301EB44
:10123000800006EBC000B0FBF5F000F0F80002EB18
:101240004002B1FBF5F0584301EB800006EBC00013
:10125000B0FBF5F000F00700D6E7000000100140F9
:1012600000140140FEE70907090E002804DB00F125
:10127000E02080F80014704700F00F0000F1E0203B
:1012800080F8141D704702E008C8121F08C1002A28
:10129000FAD170477047002001E001C1121F002AF7
:1012A000FBD17047FFF72CF9FFF790FEFFF728FE00
:1012B000FFF764FE054C4FF47A7510212046FFF7C6
:1012C00003F92846FEF7F6FFF7E7000000040240A6
:1012D00000000000000000000102030406070809E6
:1012E00000000000010203040813000800000020B1
:1012F00010000000861200081813000810000020DB
:101300009004000096120008010000001000000088
:08131000000000000024F400BD
:040000050800018965
:00000001FF
