:020000040800F2
:10000000207C0020610200081356000813450008F8
:100010001156000845130008B589000800000000CB
:10002000000000000000000000000000A101000826
:100030006D14000800000000FD010008A366000820
:100040007B0200087B0200087B0200087B0200089C
:100050007B0200087B0200087B0200087B0200088C
:100060007B0200086F1400087B0200087B02000876
:10007000BD1300087B0200087B0200087B02000819
:100080007B0200087B0200087B0200087B0200085C
:100090007B0200087B0200087B0200087514000840
:1000A0007B0200087B0200087B0200087B0200083C
:1000B0007B0200087B0200087B0200087B0200082C
:1000C0007B0200087B0200087B0200087B0200081C
:1000D0007B0200087B0200087B020008C16E00085A
:1000E0007B0200087B0200087B0200087B020008FC
:1000F0007B0200087B0200087B0200087B020008EC
:100100007B0200087B0200087B0200087B020008DB
:100110007B0200087B020008616700087B02000880
:100120007B0200087B0200087B0200087B020008BB
:100130007B0200087B0200087B0200087B020008AB
:100140007B0200087B0200087B02000815560008AD
:100150007B0200087B0200087B0200087B0200088B
:100160007B0200087B0200087B0200087B0200087B
:100170007B0200087B0200087B02000800000000F0
:100180007B0200087B020008DFF810D000F000FCC2
:1001900000480047399B0008AFF30080207C002016
:1001A0002C4B19680868B0E8F04F80F30988BFF35A
:1001B0006F8F4FF0000080F311887047000000003F
:1001C00008480068006880F308884FF0000080F35A
:1001D000148862B661B6BFF34F8FBFF36F8F00DF35
:1001E00000BF00BF08ED00E0DFF80C00016841F43B
:1001F00070010160704700BF88ED00E0EFF30980F7
:10020000BFF36F8F134B1A681EF0100F08BF20ED5D
:10021000108A20E9F04F106009B44FF0500080F3CD
:100220001188BFF34F8FBFF36F8F0AF0F1FC4FF0CF
:10023000000080F3118809BC19680868B0E8F04F25
:100240001EF0100F08BFB0EC108A80F30988BFF3CE
:100250006F8F7047C4010020EFF3058070470000E6
:100260000648804706480047FEE7FEE7FEE7FEE750
:10027000FEE7FEE7FEE7FEE7FEE7FEE75167000860
:10028000890100082DE9F05F0546002092469B4653
:1002900088460646814640241BE02846414647469C
:1002A000224600F0CFF953465A46C01A914110D366
:1002B00011461846224600F0B6F92D1A67EB0108E0
:1002C0004F4622460120002100F0ADF917EB00094E
:1002D0004E41201EA4F10104DFDC484631462A4687
:1002E0004346BDE8F09F40EA01039B0703D009E0C5
:1002F00008C9121F08C0042AFAD203E011F8013B12
:1003000000F8013B521EF9D27047D2B201E000F86A
:10031000012B491EFBD270470022F6E710B51346A9
:100320000A4604461946FFF7F0FF204610BD30B5D7
:1003300004460020034600E05B1C934203D2E05CCD
:10034000CD5C401BF8D030BD2DE9FE4F804681EAE0
:100350000300C00F0C46009021F0004123F000453F
:10036000B8EB0200A94105D24046214690461C4602
:100370000B46024623F00040104347D0270DC7F339
:100380000A00C3F30A510290401A019040286BDA28
:10039000C3F3130040F4801B0098924620B1002361
:1003A000D2EB030A63EB0B0B01985946C0F14002F4
:1003B000504600F038F906460D4650465946019A17
:1003C00000F050F910EB08006141002487EA115257
:1003D00084EAE7731A4340D0009A62B3019A012A73
:1003E0004FEA075215DC001B61EB02014FF000429F
:1003F00002EA0752CDE90042001C41F58011324665
:100400002B4600F087F903B0BDE8F08F4046214647
:10041000F9E7001B61EB0201001C41F58013001895
:100420005B412018A2F5001747EB030140EAD570A5
:10043000B6196D4111E06D084FEA360645EAC07500
:100440004FEA0752001B61EB0201001C41F58011CD
:1004500049084FEA30000019514132462B4603B09B
:10046000BDE8F04F00F047B900980122400000239A
:10047000D0EB020263EBE073009821464FEAE07490
:10048000B8EB000061EB0401E9E783F000435BE7B0
:1004900081F0004158E72DE9FE4F81EA030404F0A2
:1004A000004421F0004100944FF0000B23F0004382
:1004B00050EA01045ED052EA03045BD0C3F30A544D
:1004C000C1F30A552C44A4F2F3340194A0FB025466
:1004D000C1F3130141F48011C3F3130343F48013F8
:1004E00001FB024400FB034E840A970A44EA81544C
:1004F00047EA8357A4FB076802958D0A05FB078529
:100500004FEA932C04FB0C542705029D4FEA065832
:1005100047EA1637B5EB08056EEB070C870E920E0F
:1005200047EA811742EA8312A7FB0201B6EB0B01EF
:1005300064EB00042B0D43EA0C335E1844EB1C50B3
:10054000DA465146E7FB0201C5F313044FEA0B33C9
:1005500043EA14534FEA0432019C43EA0603A4F130
:100560000C040294009CCDE900B400F0D3F803B071
:10057000BDE8F08F00200146F9E70EB5C10F80EA13
:10058000E0700844CA07002140F233438DE80E00B2
:100590000A460B4600F0BEF803B000BD00F0004272
:1005A00030F000400AD0C10D01F56071C0F31600B3
:1005B00042EA0151C208400711437047002001463A
:1005C000704701F0004330B421F0004150EA0102CD
:1005D00006D00A0DA2F56072C1F31301002A02DCF5
:1005E00030BC00207047440F44EAC104C100E01849
:1005F00030BC00EBC25000F047B830B50B460146A6
:1006000000202022012409E021FA02F59D4205D3B1
:1006100003FA02F5491B04FA02F52844151EA2F15B
:100620000102F1DC30BD202A04DB203A00FA02F19D
:10063000002070479140C2F1200320FA03F31943D0
:1006400090407047202A04DB203A21FA02F0002172
:10065000704721FA02F3D040C2F1200291400843D2
:1006600019467047202A06DBCB17203A41FA02F0E0
:1006700043EAE07306E041FA02F3D040C2F12002FF
:1006800091400843194670470029A8BF7047401C95
:10069000490008BF20F00100704710B4B0FA80FC98
:1006A00000FA0CF050EA010404BF10BC704749B1D5
:1006B000CCF1200421FA04F411FA0CF118BF012145
:1006C00021430843A3EB0C01CB1D4FEA00614FEA25
:1006D000102042BF002010BC704700EBC3501044F4
:1006E0000029A4BF10BC7047401C490008BF20F07F
:1006F000010010BC704710B5141E73F1000408DA35
:10070000401C41F1000192185B411A4301D120F0D5
:10071000010010BD2DE9F04D92469B4611B1B1FA92
:1007200081F202E0B0FA80F220329046FFF77BFFC0
:1007300004460F4640EA0A0041EA0B0153465A4676
:10074000084313D0114653EA010019D0C8F1400202
:100750005046FFF777FF05460E465046594642463B
:10076000FFF761FF084305D0012004E02046394629
:10077000BDE8F08D0020054346EAE0762C43374380
:100780000A986305E40AA0EB08000022FD0A44EA87
:1007900047540A3002D500200146E9E70105101947
:1007A0006941DDE9084500196941BDE8F04DA2E75E
:1007B0002DE9F04D81EA030404F0004B21F00045DF
:1007C00014464FF0000A23F0004150EA050220D001
:1007D00054EA01021DD0C5F30A570246C5F31303BC
:1007E000C1F31300C1F30A5640F4801543F480139B
:1007F000A7EB0608101BD64608F2FD3873EB050080
:1008000002D308F1010801E092185B41B8F1000F32
:1008100003DA00200146BDE8F08D00204FF480117E
:10082000064684460EE0171B73EB050705D3121B23
:1008300063EB050306434CEA010C49084FEA30001C
:1008400092185B4150EA0107EDD152EA030012D041
:1008500082EA040083EA0501084305D0101BAB417E
:1008600006D20122002306E000224FF0004302E0FE
:100870006FF0010253101AEB06004CEB085110EB1D
:100880000A0041EB0B01BDE8F04DFFF734BF2DE945
:10089000F04D00231A461B1A8A4103DB0020014653
:1008A000BDE8F08DC1F30A52C1F3130141F4801584
:1008B0004FF0000BD10702D100186D41521E0027E6
:1008C000044640F2FF11384601EB620A3E4680467C
:1008D000024600204FF48011FFF7B4FEC2197141A7
:1008E000BB1846EB0100B4EB030C75EB000C04D312
:1008F000E41A65EB000517460E46241908F10100BD
:100900006D4180463428E3DDF91946EB0600091BEA
:10091000A84103D24FF0FF32134601E000221346F4
:100920001BEB070046EB0A51BDE8F04DFFF7E3BEB5
:10093000C1F30A52C1F3130140F2FF3341F48011B5
:100940009A4202DA00200146704740F233439A424D
:10095000A2F2334202DC5242FFF774BEFFF763BEDD
:1009600030B5041E71F1000404DB4FF00044404236
:1009700064EB0101141E73F1000405DB1C464FF00B
:100980000043524263EB0403994208BF904230BDDA
:10099000064C074D06E0E06840F0010394E80700CC
:1009A00098471034AC42F6D3FFF7F2FBB8BA000810
:1009B000D8BA000870B58C1810F8015B15F0070361
:1009C00001D110F8013B2A1106D110F8012B03E0E8
:1009D00010F8016B01F8016B5B1EF9D12B0705D4F0
:1009E0000023521E0DD401F8013BFAE710F8013B39
:1009F000CB1A921C03E013F8015B01F8015B521E55
:100A0000F9D5A142D8D3002070BD000010B511491E
:100A1000114804F00FFF0F490F4814313C3004F027
:100A200009FF0C490C482831783004F003FF0949CC
:100A300009483C31B43004F0FDFE06490648503107
:100A4000F03004F0F7FE0349BDE81040643103487C
:100A500004F0F0BE40000020500700207C08002079
:100A6000464910B54A6822F440324A604A684368F1
:100A70001A434A6001684A6822F480724A60016839
:100A80004A68036942EA03224A6001684A6822F020
:100A900040724A6001684A6883681A434A60016884
:100AA0008A6822F400628A6001688A68C3681A430F
:100AB0008A60816A6FF07062D14201688A6822F0B0
:100AC00070628A6001688A680CD0836A1A438A60FF
:100AD00001688A6822F040528A6001688A68C36AA5
:100AE0001A4301E022F040528A6001688A6822F0CD
:100AF00002028A6001688A68037E42EA43028A60D1
:100B000090F82010002901684A680FD042F4006272
:100B10004A6001684A6822F460424A6001684A6893
:100B2000174C436A04EB43331A4301E022F400629A
:100B30004A600168CA6A22F47002CA620168CA6A1D
:100B4000838B104C04EB03531A43CA6201688A6812
:100B500022F400728A6001688A6890F8303042EAB4
:100B600043228A6001688A6822F480628A60016890
:100B70008A68406942EA8020886010BD00230140F5
:100B800000E0FFFF0000F0FF70B5724800F12402A2
:100B900090ED000A00F1600182ED010A90ED010A7A
:100BA00081ED010A90ED020A9C3080ED010A843843
:100BB00000F1C00490ED000A00F1FC0584ED010A8B
:100BC00090ED010A00F59C7685ED010A90ED020A90
:100BD0000C3886ED010A90ED000A82ED000A90EDD6
:100BE000010A183081ED000A04F0D1FD84ED000AFD
:100BF000A4F1780004F0CBFD574C85ED000A208F5E
:100C0000A0F57A70FFF7B9FC9FED541B53EC112B44
:100C1000FFF741FCFFF7D5FC3060E08EA0F5967041
:100C2000FFF7ABFC9FED4F1B53EC112BFFF733FC91
:100C30009FED4E1B53EC112BFFF786FBFFF7C1FC1A
:100C40004C4C2060A5F13C0004F0A1FD84ED010AAC
:100C5000284604F09CFD84ED020A304604F097FD1E
:100C600084ED030A94ED002AD4ED011AD4ED020AB2
:100C7000414C32EE611A72EE211A4FF4FA6671EEAF
:100C8000202A31EEE02A71EEA01A71EE600A72EEAF
:100C9000802A32EE002A71EEC01A30EEC00AFCEE55
:100CA000E22ABCEEC22AFCEEE11A12EE900ABCEE79
:100CB000C00A81B212EE100A218083B211EE900AAE
:100CC000638082B210EE100AA28085B27010E580B7
:100CD000B14201D9314602E0814200D20146218071
:100CE000B34201D9334602E0834200D20346638017
:100CF000B24201D9324602E0824200D20246A280CC
:100D0000B54201D9304602E0854200D32846E08052
:100D100081420DD9002007F04FFE6188042007F0C2
:100D20004BFEA188082007F047FEE1880C200DE06B
:100D300001460C2007F040FEA188082007F03CFE89
:100D40006188042007F038FE21880020BDE870404B
:100D500007F032BE2C070020DA0600209A999999F4
:100D60009999B93F000000000000E03F000000003A
:100D700000408F40B8080020BA0000202DE9F0475D
:100D80003D4D3E4CDFF8F8903E4E0F462DED048B66
:100D9000B7EE008AF0EE008A95ED000AD5ED000A64
:100DA00094ED001AD6ED001A20EE200AD4ED000AC8
:100DB000804600EE810AF0EE480A95ED001A40EEFA
:100DC000680A99ED000A20EE010A94ED001A01EE7E
:100DD000210A20EE280A08F02DF89FED2B9A20EE2C
:100DE000090A88ED000A99ED000AD4ED000A96ED93
:100DF000001A20EE200AD5ED000A00EEC10A20EE0E
:100E0000280A07F081FF20EE090A88ED010A94ED17
:100E1000000AD4ED000A96ED001AD4ED001A20EE77
:100E2000200AD6ED000A00EE810AF0EE480A96ED9F
:100E3000001A40EE680A99ED000A20EE010A95EDCD
:100E4000001A01EE210A20EE280A07F0F3FF20EE37
:100E5000090A0E4888ED020A90ED050A87ED000A9E
:100E600090ED060A87ED010A90ED070A87ED020A68
:100E7000BDEC048BBDE8F087280000202C0000208A
:100E80002400002030000020333365423C0600205F
:100E900001490968C86370471C04002070B56C4C98
:100EA00000221021204600F0C5FF802005F03AFB0B
:100EB000FF2005F037FBFF2005F034FB0122102155
:100EC000204600F0B7FF012000F078FE002210213C
:100ED000204600F0AFFF802005F024FBFF2005F046
:100EE00021FBFF2005F01EFB01221021204600F00F
:100EF000A1FF012000F062FE00221021204600F038
:100F000099FF7E2005F00EFBB62005F00BFB0122B9
:100F10001021204600F08EFF502000F04FFE0022EE
:100F20001021204600F086FF802005F0FBFAFF200C
:100F300005F0F8FAFF2005F0F5FA0122102120460D
:100F400000F078FF012000F039FE00221021204639
:100F500000F070FF802005F0E5FAFF2005F0E2FACE
:100F6000FF2005F0DFFA054601221021204600F09F
:100F700061FF1E2D05D0294636A007F091FE012005
:100F800070BD00221021204600F054FF7D2005F0A6
:100F9000C9FA042005F0C6FA01221021204600F00B
:100FA00049FF4FF4E17000F01BFE002210212046A3
:100FB00000F040FF7C2005F0B5FA002005F0B2FA01
:100FC00001221021204600F035FF0022102120468A
:100FD00000F030FF402005F0A5FAAB2005F0A2FAA2
:100FE00001221021204600F025FF0022102120467A
:100FF00000F020FF412005F095FA002005F092FA5C
:1010000001221021204600F015FF00221021204669
:1010100000F010FF532005F085FA082005F082FA51
:1010200001221021204600F005FF00221021204659
:1010300000F000FF582005F075FA042005F072FA60
:1010400001221021204600F0F5FE002070BD0000B6
:1010500000000240424D493038385F4143435F430E
:101060004849505F49445F56414C55453A202564F4
:101070000A0000002DE9F041104F14460D460646C7
:1010800000221021384600F0D5FE46F0800005F021
:1010900049FAFF2005F046FA06E0FF2005F042FA83
:1010A000641E05F8010BE4B2002CF6D13846BDE809
:1010B000F0410122102100F0BDBE000000000240FE
:1010C00070B51E2000F07AFD354C0022012120462B
:1010D00000F0B0FE802005F025FAFF2005F022FA8E
:1010E000054601221146204600F0A4FE0F2D05D032
:1010F00029462CA007F0D4FD012070BD002201215B
:10110000204600F097FE0F2005F00CFA002005F0B5
:1011100009FA01221146204600F08CFE002201212E
:10112000204600F087FE102005F0FCF9822005F033
:10113000F9F901221146204600F07CFE002201212F
:10114000204600F077FE152005F0ECF9802005F030
:10115000E9F901221146204600F06CFE002201212F
:10116000204600F067FE162005F0DCF9002005F0AF
:10117000D9F901221146204600F05CFE002201212F
:10118000204600F057FE182005F0CCF9012005F0AC
:10119000C9F901221146204600F04CFE002070BD26
:1011A00000040240424D493038385F4759524F5F82
:1011B000434849505F49445F56414C55453A2025C4
:1011C000640A00002DE9F0410E4F14460D46064614
:1011D00000220121384600F02DFE46F0800005F087
:1011E000A1F906E0FF2005F09DF9641E05F8010B4A
:1011F000E4B2002CF6D13846BDE8F0410122114698
:1012000000F018BE0004024010B5FFF747FEBDE82D
:101210001040FFF755BF00002DE9FC4105460020B6
:1012200016460F4600900190062269461220FFF7ED
:1012300021FF9DF801009DF80010000200B2084354
:1012400000EE100A3E4C0222B8EEC00AD4ED000AAD
:1012500020EE200A87ED000A9DF803009DF8021099
:10126000000200B2084300EE100AD4ED000AB8EE06
:10127000C00A20EE200A87ED010A9DF805009DF8BE
:101280000410000200B2084300EE100A6946222052
:10129000B8EEC00A20EE200A87ED020AFFF7EAFE48
:1012A0009DF800009DF80110C00040EA5111B1F511
:1012B000806F01DBA1F5006100EE101AB4EE001A98
:1012C0000622F8EEC00AB3EE070A6946022000EED5
:1012D000810A86ED000AFFF775FF9DF801009DF871
:1012E0000010000200B2084300EE100AD4ED010A1B
:1012F000B8EEC00A20EE200A85ED000A9DF8030032
:101300009DF80210000200B2084300EE100AD4ED6E
:10131000010AB8EEC00A20EE200A85ED010A9DF808
:1013200005009DF80410000200B2084300EE100A08
:10133000B8EEC00A20EE200A85ED020ABDE8FC8165
:1013400014000020FEE700207047002070470000D6
:1013500010B500220449054805F098FF04490348E8
:1013600005F087FF002010BDE015002004090020D3
:10137000E00D002010B50146034805F07AFF024851
:1013800005F050FF002010BD040900200020704728
:10139000094A10B5D2F8BC22D2F814220AB10120B1
:1013A00010BD0A460146044805F070FFBDE8104034
:1013B000014805F0E5BF000004090020014800F0E5
:1013C0008BBA00008405002001681823CAB2103AC5
:1013D000B2FBF3F2054B6FF30901032A9B5CC36573
:1013E00000D9091D816508467047000028BA000829
:1013F00010B5014600208B698A6A4FF0C07453B162
:10140000B3F5005F15D072B1012A0CD0022A0AD0C0
:10141000032A09D104E01AB1012A06D0022A03D115
:10142000C96AC90100D5012010BDC96AA142FAD01C
:1014300010BD002AF7D0012AF2D0022AF3D0032AE5
:10144000F3D010BD30B50468256825F480252560EB
:10145000046863608368402B036803D09960006868
:10146000C26030BD9A600068C16030BD704708201E
:1014700000F0D4BB202000F0D1BB72B6FEE7000024
:1014800078B50024009490F83C20012A19D001225C
:1014900080F83C200A6807230568092A13D9EE68FA
:1014A0000A3A02EB420293409E43EE600B788A6850
:1014B0000A3B03EB43039A400368DD682A43DA6082
:1014C00010E0022078BD2E6902EB420293409E4359
:1014D0002E610B788A6803EB43039A4003681D6909
:1014E0002A431A614A681F23072A13D205686E6BC4
:1014F000521E02EB820293409E436E630B790A8870
:101500005B1E92B203EB83039A4003685D6B2A4330
:101510005A6327E005680D2A12D22E6BD21F02EB08
:10152000820293409E432E630B790A88DB1F92B29E
:1015300003EB83039A4003681D6B2A431A6311E08F
:10154000EE6A0D3A02EB820293409E43EE620B7903
:101550000A880D3B92B203EB83039A400368DD6A6D
:101560002A43DA62164B0568144A9D4206D10D687B
:10157000122D03D1556845F48005556005689D42DC
:1015800018D10B68102B01D0112B13D1536843F4E1
:1015900000035360096810290CD10A490A4A0968F6
:1015A000B1FBF2F101EB8101490000E0491E00911D
:1015B0000029FBD180F83C40002078BD0023014089
:1015C000002001406402002040420F0070B504007A
:1015D0004FF0000503D0206C002610B107E0012079
:1015E00070BD204600F01CF8666484F83C60206CF6
:1015F000C00610D4206C20F4885040F00200206413
:101600002046FFF72DFA6664206C20F0020040F0BF
:101610000100206400E0012584F83C60284670BD8C
:1016200010B586B0044614216846FEF775FE174BC8
:101630002268002116489A4209D1016841F480715C
:101640000160006800F48070059006B010BD114B79
:101650009A42FAD1026842F480620260006800F4A3
:10166000806005900A481438026842F02002026047
:10167000006800F020000590181500900320CDE9C7
:1016800001016946044800F0D5FADEE70020014078
:1016900044380240002201400014024070B50400AA
:1016A00003D094F8200010B104E0012070BD204662
:1016B00000F082F82068016841F00101016000F04B
:1016C000BFFB0546052604E000F0BAFB401B0A28D4
:1016D00011D820684068C007F6D02068016821F062
:1016E0000201016000F0ACFB05460BE000F0A8FB36
:1016F000401B0A2806D9606A40F40030606284F812
:101700002060D2E7206840688007EFD4207E01285F
:10171000206801683DD021F080010160607E0128D1
:101720002068016838D021F040010160A07E0128C6
:101730002068016833D021F020010160E07E01289B
:10174000206801682ED041F010010160207F01283F
:101750002068016829D021F008010160607F01281C
:101760002068016824D021F004010160D4E902015D
:101770000843D4E90412114308436168491E084331
:101780002168C86100206062012084F820000020E8
:1017900070BD41F08001C0E741F04001C5E741F074
:1017A0002001CAE721F01001CFE741F00801D4E79A
:1017B00041F00401D9E7000010B586B004461421B9
:1017C0006846FEF7A9FD1349206888421FD11248D8
:1017D0000021026842F000720260006800F00070B0
:1017E00005900D481038026842F008020260006857
:1017F000022200F0080005900320CDE90210CDE997
:101800000002092004906946044800F013FA06B06B
:1018100010BD00000064004040380240000C02404F
:101820002DE9F0410446876D00F00AFB064694F866
:1018300035000025022806D08020606584F83450E9
:101840000120BDE8F0812068016821F016010160E7
:101850002068416921F080014161206C08B9A06CC9
:1018600020B12068016821F008010160206801684A
:1018700021F0010101600CE000F0E2FA801B052874
:1018800007D920206065032084F8350084F834509F
:10189000D7E720680068C007EED194F85C103F20BD
:1018A0008840B860012084F8350084F83450002066
:1018B000C7E790F83510022903D080214165012047
:1018C0007047052180F835100068016821F001019A
:1018D00001600020704700002DE9F84304464FF0F6
:1018E0000009CDF8009063484FF41651A56D0068CB
:1018F000B0FBF1F72E6894F85C10082000FA01F1B3
:1019000031420FD021680A6852070BD50A6822F0CD
:1019100004020A6094F85C108840A860606D40F092
:101920000100606594F85C104FF0010808FA01F0BE
:10193000304208D021684969090604D5A860606D65
:1019400040F00200606594F85C100420884030424A
:1019500008D021680968890704D5A860606D40F047
:101960000400606594F85C1010208840304218D064
:1019700021680968090714D5A8602068016849032F
:1019800004D50068000308D5A16C07E00168C9050B
:1019900003D4016821F008010160216C09B12046DF
:1019A000884794F85C1020208840304231D021686C
:1019B0000968C9062DD5A86094F835000528206867
:1019C000016806D0490347D5006800031DD4616C47
:1019D0001CE021F0160101602068416921F08001BE
:1019E0004161206C08B9A06C20B12068016821F029
:1019F0000801016094F85C103F208840A86084F8DA
:101A0000358084F83490216D1FE0E16B09B12046E8
:101A10008847606D00282BD0606DC00714D005206A
:101A200084F835002068016821F001010160009808
:101A3000401C0090B84203D820680068C007F6D167
:101A400084F8358084F83490E16C002910D001B01E
:101A50002046BDE8F04308470168C905D5D40168B0
:101A600021F01001016084F8358084F83490CCE7CF
:101A7000BDE8F883640200202DE9F041044600F03F
:101A8000DFF906465CB1022084F83500002584F8B1
:101A900034502068016821F0010101600DE001204F
:101AA000BDE8F08100F0CCF9801B052805D9202085
:101AB0006065032084F83500F2E720680068C007FD
:101AC000F0D12268116820480140D4E9010318438D
:101AD000D4E903363343184363691843A3691843B1
:101AE000E3691843236A18430843616A042903D150
:101AF000D4E90B1319430843106020684069666AF3
:101B000020F0070130460E43012704280CD1A06ABB
:101B10000643E06A40B12046FFF76AFC20B140204E
:101B2000606584F83570BAE7206846612046FFF7A3
:101B30004BFC94F85C203F2191408160656584F8FE
:101B400035700020ACE700003F8010F02DE9F04137
:101B50000446866D90F83400002501280DD0012040
:101B600084F8340094F835700020012F07D084F8F1
:101B7000340002252846BDE8F0810220FBE7022759
:101B800084F8357060652046FFF75CFC94F85C10C3
:101B90003F208840B0602068016841F01601016074
:101BA000206C20B12068016841F0080101602068C4
:101BB000016841F001010160DCE7000070B50446F6
:101BC00000F03EF90546601C02D004480078044449
:101BD00000F036F9401BA042FAD370BD5802002035
:101BE000A821484310B54FF0E0214C698B698A6900
:101BF0009A42FCD002D2A3EB020202E0A4EB020262
:101C00001A448242F3D310BD202804D10248012196
:101C1000006807F0D9BF704710000020044910B5D4
:101C20000A68024202D00860FFF7EEFF10BD000014
:101C3000143C01402DE9F84FDFF8BCA1002201253A
:101C400003264FF00F090AF1040BAAF1040E00BF9E
:101C50000B6805FA02F42340A34270D10F7907F014
:101C60000307012F01D0022F16D187684FEA4208DF
:101C700006FA08FC27EA0C07D1F80CC00CFA08FC9D
:101C80004CEA070CC0F808C04768A7430C79C4F3B6
:101C9000001494403C4344600C79E443A4070AD008
:101CA000C4684FEA420C06FA0CF7BC438F6807FA87
:101CB0000CF72743C7600C7904F00304022C12D1FF
:101CC000D40800EB840CDCF820405707FF0E09FA1B
:101CD00007F824EA0804D1F8108008FA07F848EA5F
:101CE0000408CCF8208004684FEA420C06FA0CF78E
:101CF000BC430F7907F0030707FA0CF72743076087
:101D00004C6814F4403F70D03C4C276847F480473F
:101D10002760246822F0030704F480440094384CC0
:101D200007EB040CDCF8084897074FEA177809FA24
:101D300008F7BC43334FB84202D1002724E054E0F7
:101D4000314FB84201D101271EE0304FB84201D1D6
:101D5000022719E02E4FB84201D1032714E02D4F7E
:101D6000B84201D104270FE02B4FB84201D105271B
:101D70000AE02A4FB84201D1062705E0284FB842B1
:101D800001D1072700E0082707FA08F72743CCF816
:101D90000878DAF800405746D1F804C09C435FEA5F
:101DA000CC2C00D51C433C60DBF800405F46D1F8EA
:101DB00004C09C435FEA8C2C00D51C433C60DEF8D9
:101DC00000407746D1F804C09C435FEA8C3C00D5C4
:101DD0001C433C60084F083F3C68D1F804C09C435A
:101DE0005FEACC3C00D51C433C60521C102AFFF437
:101DF0002FAFBDE8F88F0000083C01404438024096
:101E0000003001400000024000040240000802408F
:101E1000000C024000100240001402400018024072
:101E2000001C0240426921EA02030A4043EA0241DF
:101E3000816170470AB1816170470904FBE70000C6
:101E400001488068704700005802002070B5040007
:101E500025D094F83D00002520B984F83C50204658
:101E600000F052FA242084F83D002068016821F037
:101E7000010101602068016841F4004101602068AF
:101E8000016821F40041016001F034F94D4A6168B4
:101E9000914201D84C4900E04C49884201D20120CE
:101EA00070BD4B492368B0FBF1F15E6826F03F0638
:101EB0000E435E606368934206D94FF496735943AC
:101EC0004FF47A73B1FBF3F12368491C1E6A26F0C4
:101ED0003F06314319626168914210D84900401EA3
:101EE000B0FBF1F2521CC2F30B02042A01D204200F
:101EF00022E0B0FBF1F0401CC0F30B001CE0A26834
:101F0000F2B301EBC10303EB0116431EB3FBF6F37F
:101F10005B1C43F480431B0549D092B301EBC10223
:101F200002EB0111401EB0FBF1F0401CC0F30B00AE
:101F300040F4804040F400402168CA694CF6FF73C9
:101F40009A431043C861D4E907100143206802682E
:101F500022F0C00211430160D4E90301014320686B
:101F6000826848F2FF339A4311438160D4E9050146
:101F700008432168CA6822F0FF021043C86001E0EC
:101F80000EE016E02068016841F00101016025645F
:101F9000202084F83D00256384F83E50002070BD69
:101FA00001EB4106431EB3FBF6F35B1CB3E70120D4
:101FB000C2E701EB4101401EB0FBF1F0401CC0F351
:101FC0000B00B7E7A086010080841E0000093D00D9
:101FD00040420F002DE9FF4F83B09A46DDE911879B
:101FE00093460446DDF84090FFF72AFF054694F833
:101FF0003D00202870D11923012274492046009504
:1020000002F09EFB0028F5D194F83C00012863D033
:10201000012084F83C0020680168C90703D10168E9
:1020200041F0010101602068016821F40061016054
:10203000222084F83D00402084F83E0000262664DB
:10204000C4F82490A4F82A80608D20856048E0625E
:10205000CDE9007553465A462046049902F072FABB
:10206000002879D1208DD0B1012821D00228206804
:1020700024D0416980690090208D032866D801280A
:102080002BD0544902283B464FF00002009557D010
:102090008846204602F054FB00285DD13AE02068D3
:1020A000416981690091016841F4007101607DE03E
:1020B0002068016821F480610160F0E7016821F483
:1020C000806101602068016841F40061016020685E
:1020D00041698069009069E075E02A4639462046EA
:1020E00002F0D4FB88BB54E02068016841F4007121
:1020F000016020680069616A0870606A401C606263
:10210000218D491E2185618D491E618521680969DE
:10211000017042E02068016821F48061016020685C
:102120000069616A0870606A401C6062208D401E10
:102130002085608D401E60853B460022414600950B
:10214000204602F0FDFA00B9CEE705E02A463946FE
:10215000204602F09BFB18B1012007B0BDE8F08FCC
:1021600020680069616A0870606A401C6062208DA6
:10217000401E81B22185608D401E608520684269C5
:10218000D243520712D4032903D1016821F480619C
:10219000016020680069616A0870606A401C6062C2
:1021A000208D401E2085608D401E6085208D00287A
:1021B0007FF462AF202084F83D0084F83E6084F80C
:1021C0003C600020C9E70220C7E7000002001000C1
:1021D0000000FFFF040001002DE9FF4F83B09A4685
:1021E000DDE9119793460446DDF84080FFF728FEAD
:1021F000054694F83D0020287FD11923012240494B
:102200002046009502F09CFA002876D194F83C0014
:10221000012872D0012084F83C0020680168C907B9
:1022200003D1016841F0010101602068016821F4D7
:1022300000610160212084F83D00402084F83E00C8
:1022400000262664C4F82480A4F82A90608D208596
:102250002C48E062CDE9007553465A462046049961
:1022600002F0EEF970B930E02A463946204602F015
:1022700045FB58B1206C042804D12068016841F462
:1022800000710160012007B0BDE8F08F606A21682D
:1022900000780861606A401C6062218D491E89B225
:1022A0002185628D521E628522685369DB435B077C
:1022B0000BD469B100781061606A401C6062208DA7
:1022C000401E2085608D401E6085208D0028CBD16A
:1022D0002A463946204602F007FA0028CAD154F8A7
:1022E0003D0B016841F400710160202004F81E09D3
:1022F000E67766770020C6E7FFE70220C3E7000025
:10230000020010000000FFFFF0B587B00446142162
:102310006846FEF701F81A49206888422DD119480D
:10232000016841F004010160016801F004010591B8
:10233000016841F0010101600068122400F0010011
:1023400005904FF400700125032604278DE8F10065
:1023500069460D48FFF76EFC28028DE8F1006946DA
:102360000A48FFF767FC07481030016841F4000194
:102370000160006800F40000059007B0F0BD0000A7
:10238000005C00403038024000080240000002407B
:102390000248816802781144816070475802002029
:1023A0000B4810B5016841F400710160016841F407
:1023B00080610160016841F480710160032000F0D8
:1023C0009FF80F2000F006F800F050F8002010BD34
:1023D000003C024030B505461F4887B00024016824
:1023E00041F010010160006806A900F010000090A3
:1023F00001A800F059FE0498A8B100F07BFE40004F
:102400001649174AB0FBF1F11648491E026040F226
:10241000E732C0E90324C0E90114846101F084FAC1
:10242000040003D015E000F065FEE9E70D4801F077
:10243000D9FA04000DD1362000F034F8102D07D25F
:1024400000222946362000F03BF80748056000E0EE
:10245000012407B0204630BD4038024040420F0002
:1024600000100040E40500205C0200200C4882B00F
:10247000016841F480410160006800F480400090F0
:102480000748001F016841F0805101600068002288
:1024900000F0805000900F21901E02B000F010B8A4
:1024A00044380240002809DB00F01F02012191405E
:1024B0004009800000F1E020C0F8001170470000E2
:1024C000F0B40E4B1B680C46C3F30223C3F107059F
:1024D000042D00D90425191D072901D2002300E08D
:1024E000DB1E012606FA05F1491E214099409E4057
:1024F000761E16403143F0BC06F0F5BB0CED00E053
:10250000064900F0070208684FF6FF03184040EA4A
:102510000220034A10430860704700000CED00E001
:102520000000FA0570470068416200207047F0B56E
:102530000368586A39B19C6A4FF4827600EB144400
:1025400000204D1E0AE040EA024098620FE006EBD0
:102550008007DF59401C04EB1744C0B2A842F6D3F1
:1025600044EA02404FF4807202EB8101585000208F
:10257000F0BDD0F8E00405F081B901EBC10200EB39
:102580008202D0F8E004126A05F0D6B801EBC1026D
:1025900000EB8202D0F8E004D2F8602205F027B9FF
:1025A000D0F8E00405F06CB90A0601F00F0101EB68
:1025B000C10100EB810101D5143101E001F5157174
:1025C000006806F045B870B504460B0601F00F0030
:1025D00000EBC00104EB81014FF001024FF0000558
:1025E00002D54A75143103E081F8555201F5157191
:1025F000087094F89404012808D084F89424206882
:1026000005F044FD84F89454002070BD022070BD94
:1026100070B5044601F00F002279904201D90120E3
:1026200070BD0B0601F00F0101EBC10104EB81014C
:102630004FF001024FF0000502D54A75143103E056
:1026400081F8555201F515718D70087094F8940455
:10265000012808D084F89424206805F089FE84F8C5
:102660009454002070BD022070BD01F00F0101EBF9
:10267000C10100EB8100D0F8680270472DE9F041FC
:1026800004460F0601F00F0000EBC00104EB8101CE
:102690004FF001064FF0000502D54E75143103E0EE
:1026A00081F8555201F5157108708A600B714A78EE
:1026B00002B14883022B00D14D7194F89404012893
:1026C00009D084F89464206805F032FC284684F828
:1026D0009454BDE8F0810220FBE710B501F00F042F
:1026E00004EBC40100EB8101C1E998230023C1F888
:1026F000683281F8553281F85442837901F51571B9
:10270000012B00D1CA618279006805F089FE0020A2
:1027100010BD70B504460D4601F00F0021798842C6
:1027200001D9012070BD29064FF000064FF00102CB
:1027300006D500EBC00104EB81014A75143107E0B6
:1027400005EBC50104EB810181F8556201F51571B6
:102750008A70087094F89404012807D084F89424AF
:10276000206805F031FE280702D007E0022070BD86
:10277000A17904F29C42206805F0CEFD84F89464AF
:10278000002070BD10B501F00F0404EBC40100EB94
:102790008101C1E9082300238B6201234B7501F8F5
:1027A000144F8379012B00D1CA618279006805F04A
:1027B00037FE002010BD00002DE9FC5F05680446CF
:1027C000284605F0E1FF00287DD1206806F008F8D2
:1027D000002878D0D5F80808C0F30D20C4F8D40438
:1027E000206805F0FDFF800704D52068416901F0ED
:1027F00002014161206805F0F3FFC10604F29C402C
:10280000009034D52068816921F0100181612F6A20
:1028100007F00F0000EBC00004EB8006C7F3434055
:1028200006F51576022802D0062811D01AE047F6E0
:10283000F070074216D0C7F30A1217462846F1680F
:1028400005F0D2FFF0683844F0607069384408E061
:1028500008222846009905F0C7FF7069C7F30A11DE
:10286000084470612068816941F01001816120682D
:1028700005F0B6FF00034FF0080B4FF0000A4FF0D1
:1028800001097CD50026206805F089FF074674E021
:10289000F80770D0F1B2206805F09AFF8046C007B3
:1028A00007D005EB4611C1F8089B3146204602F0DF
:1028B000B7FE5FEA087024D505EB4611C1F808BBE6
:1028C0002068016C00E023E200EB46100191D0F893
:1028D000082BFB4B994205D9110403D54FF4004155
:1028E000C0F8081B204600F004FBF5490198884217
:1028F00007D9A079012804D120680121009A05F0A8
:102900000BFD5FEAC86004D505EB46111020C1F845
:10291000080B5FEA88701DD56869000605D5D5F8F3
:10292000040840F48061C5F8041806EBC60004EB07
:10293000800090F8571200F51570012905D180F834
:1029400003A0F1B2204600F0E9F905EB46110220A0
:10295000C1F8080B5FEA886004D505EB461020211A
:10296000C0F8081B5FEA884005D505EB46104FF418
:102970000051C0F8081B7F08761C002F88D1206802
:1029800005F02EFF40036ED5206805F001FF0746D5
:10299000002666E0F80762D0F1B2206805F006FF75
:1029A0008046C00723D006F00F01D5F8342809FA75
:1029B00001F18A43C5F8342805EB4611C1F808999E
:1029C000A07901280FD106EBC60004EB8000D0E906
:1029D00007211144016236B9606A20B920680121DB
:1029E000009A05F099FCF1B22046FFF7C6FD5FEAB8
:1029F000087003D505EB4611C1F808B95FEAC86055
:102A000004D505EB46111020C1F808095FEA4860BB
:102A100004D505EB46104021C0F808195FEA88701C
:102A200016D53146284605F084FE06EBC60004EBB9
:102A30008000C17D1430012905D180F803A0F1B2D6
:102A4000204600F067F905EB46110220C1F808099D
:102A50005FEA086003D53146204602F047FE7F0852
:102A6000761C002F96D1206805F0BAFE002811DAF6
:102A7000D5F8040820F00101C5F8041894F8CC0436
:102A800001282BD0204600F019FA2068416901F096
:102A900000414161206805F0A3FE00050BD5D5F883
:102AA0000808C00702D0204600F04CFA20684169AF
:102AB00001F400614161206805F092FEC00467D511
:102AC000D5F8040820F00100C5F80408102120689A
:102AD00005F02FFE00214FF67F3220E084F8CCA4D1
:102AE00000212046FFF71EFDCFE700BF05EB411098
:102AF000C0F80829D0F8003923F40013C0F80039D1
:102B0000C0F8082BD0F8003B23F40013C0F8003BBA
:102B1000D0F8003B43F00063C0F8003B491C20792B
:102B20008842E3D8D5F81C0840F00111C5F81C18FC
:102B3000E07B002828460DD0D0F8840840F00B0137
:102B4000C5F88418D5F8440840F00B012846C5F8AC
:102B500044180DE0D0F8140842F22B010843C5F8E0
:102B60001408D5F8100840F00B012846C5F81018D5
:102B7000D0F8000820F4FE61C5F80018A17920689B
:102B8000009A05F0C9FB2068416901F48051416158
:102B9000206805F025FE800415D5206805F008FAA8
:102BA000206805F0E4FDE07100F09EFA0146E2794C
:102BB000206805F077FE204600F06AF92068416938
:102BC00001F400514161206805F00AFE000707D5B5
:102BD000204600F077F92068416901F00801416161
:102BE000206805F0FDFD000616D5A86920F08001DB
:102BF000A96101260DE000BF06EBC60004EB8000D2
:102C000090F85702012803D1F1B22046FFF7CCFC1F
:102C1000761C2079B042EFD8206805F0E1FDC002B3
:102C20001FD501264F4614E005EB4610D0F80019D9
:102C300006EBC60004EB8002107E012808D10029B3
:102C400006DAF0B240F08001D7752046FFF7ACFC01
:102C5000761C2079B042E7D82068416901F48011E0
:102C60004161206805F0BCFD800234D501204A4650
:102C700029E000BF05EB4011D1F8001B00EBC003B9
:102C800004EB830393F85862012E1BD1002919DA53
:102C900094F8D46401F4803106F00106B14211D1F8
:102CA00083F85722A96941F08003AB61696909067D
:102CB00008D4D5F8040840F40070C5F8040805E00D
:102CC0000A30544F401C21798142D3D82068416991
:102CD00001F400114161206805F082FD400007D534
:102CE0002046FFF746FC2068416901F080414161C0
:102CF000206805F075FD40070AD52068456868071B
:102D000002D52046FFF74CFC20684168294341600A
:102D1000BDE8FC9FD0F8E00404F005BED0F8E00464
:102D200004F015BEF8B5040005D094F895042668A3
:102D3000002510B106E00120F8BD84F89454204627
:102D400000F056F8032084F89504B6F1A04F00D1A6
:102D5000A571206805F0DAFA207C8DF8000094E86F
:102D60000F0005F033F90226B8BB0021206805F0FA
:102D70005AFD90BB002001270DE000BF00EBC00111
:102D800004EB81014F750875C8850D76CD610D6224
:102D9000401CC0B24D6221798142EFD8002011E081
:102DA00000EBC00104EB810181F8555281F8540217
:102DB00081F85852C1F85C52C1F86052401CC0B250
:102DC000C1F8645221798142EAD8207C8DF8000054
:102DD00094E80F0005F0DCF910B184F89564AAE7D7
:102DE000657484F89574206805F0C4F90020F8BD76
:102DF0002DE9F04186B0044614216846FDF78CFAAF
:102E00002068B0F1A04F3BD11F484FF00008016887
:102E100041F0010101600068022400F0010005900A
:102E20004FF48050CDE9000402AA012003250A26B0
:102E300082E86100154F69463846FEF7FBFEA002A6
:102E40008DE81101CDE9035669463846FEF7F2FEDA
:102E50000D48001D016841F0800101600A481430EE
:102E6000016841F4804101600068002200F4804064
:102E7000059005214320FFF723FB4320FFF712FBBA
:102E800006B0BDE8F081000030380240000002408A
:102E900070B50446C079012570B1022801D0FEF753
:102EA000ECFA2946D4F8E00404F0BFFDD4F8E004BD
:102EB000BDE8704004F074BD0025F2E7D0F8E004EE
:102EC00004F09CBDD0F8E00404F0A2BD10B50446A7
:102ED00090F8940401280AD0012084F894046174C5
:102EE000206805F0CEFC002084F8940410BD022078
:102EF00010BDD0F8E02400F29C41104604F0A1BDC2
:102F000010B50446006894F89414012909D00121F1
:102F100084F89414C168490609D5617B012902D05F
:102F200005E0022010BD816B41F48031816320688F
:102F300005F0DDFB206805F00FF9002084F894040B
:102F400010BD000010B50446D0F8E00404F0BBFD4D
:102F50002068D0F8001E41F00101C0F8001EE07AA0
:102F6000002804D00248016841F00601016010BD4C
:102F700010ED00E02DE9F0470E46050065D0DFF8C2
:102F80001481D8F80000F7B200F00700B04207D271
:102F900088F80070D8F8000000F00700B04254D163
:102FA00028683D4C810712D5400703D5206840F4BE
:102FB000E05020602878000703D5206840F4604086
:102FC00020602068A96820F0F0000843206028787D
:102FD000C0072DD0304968680839012812D002286E
:102FE00013D0032811D00968890700292DDA216838
:102FF00021F0030101432160FEF722FF814641F2E7
:10300000883A0EE009688903EFE709688901ECE76F
:10301000FEF716FFA0EB0901514502D90320BDE8D8
:10302000F0872068696800F00C00B0EB810FEFD1E9
:10303000D8F80010404601F00701B14207D90770E7
:10304000006800F00700B04201D00120E7E72878CF
:10305000400705D52068E96820F4E0500843206067
:103060002878000706D52068296920F4604040EAE6
:10307000C100206000F05EF82168084AC1F3031126
:10308000515CC8400649086006480068FFF7A2F98D
:103090000020C4E7003C02400838024030BA000873
:1030A000640200205C0200200F2202600C4A1368B8
:1030B00003F003034360136803F0F00383601368B5
:1030C00003F4E053C36012684FF4E05303EAD20202
:1030D00002610448006800F00700086070470000C3
:1030E00008380240003C0240014800687047000078
:1030F000640200200448054900680968044AC1F3D5
:103100008221515CC84070476402002008380240A8
:1031100040BA00080448054900680968044AC1F338
:103120004231515CC84070476402002008380240B8
:1031300040BA0008154810B5006810F00C02144899
:1031400013D01449042A0FD0082A0ED10F4C241F83
:103150002268236802F03F025B0207D52068C0F3B3
:103160008810A0FB010106E0084610BD2168C1F3EC
:103170008811A1FB00010023FDF784F82168C1F349
:103180000141491C4900B0FBF1F010BD0838024074
:103190000024F400001BB7002DE9F84F04006ED0A6
:1031A0002078DFF84C93C007A9F104054AD009F153
:1031B00004000168C1F38101012908D00068C0F34F
:1031C000810002280AD1D9F80000400206D52868FB
:1031D000800337D560680028E1D033E06068B0F53F
:1031E000803F10D0B0F5A02F286810D020F4803098
:1031F0002860286820F4802028606068A8B1FEF765
:103200001FFE06460DE0286840F48030F4E740F4E5
:1032100080202860F7E700BFFEF712FE801B6428BD
:1032200073D828688003F7D50CE0FEF709FE064640
:1032300005E000BFFEF704FE801B6428F0D8286874
:103240008003F7D42078DFF8AC8280074FF0000AC3
:103250003ED5A748001D016811F00C0F08D000688A
:10326000C0F3810002280BD1D9F80000400207D436
:103270002868800716D5E068012800D112E033E104
:10328000E068B8B10120C8F80000FEF7D9FD064695
:1032900005E000BFFEF7D4FD801B0228C0D82868D7
:1032A0008007F7D52868216920F0F80040EAC100BE
:1032B00028600DE0C8F800A0FEF7C2FD064604E055
:1032C000FEF7BEFD801B02281FD828688007F7D4B0
:1032D0002078000722D5864F87486169703771B121
:1032E00001210160FEF7ACFD064604E0FEF7A8FDF3
:1032F000801B022809D838688007F7D50EE0C0F88F
:1033000000A0FEF79DFD064605E082E0FEF798FD71
:10331000801B02287DD838688007F7D420784007C2
:1033200068D5DFF8CCB100270BF13C0BDBF80000CF
:10333000C0000BD4DBF8001041F08051CBF8001036
:10334000DBF80000012700F0805000906B4E3068E1
:10335000C00510D4306840F480703060FEF770FD16
:10336000009005E0FEF76CFD0099401A022850D845
:103370003068C005F6D55E4EA0686C3601280FD0C7
:103380000528306810D020F001003060306820F04F
:1033900004003060A068B8B1FEF752FD00900FE065
:1033A000306840F00100F4E740F004003060F7E7D7
:1033B000FEF746FD0099411A41F28830814266D8F5
:1033C00030688007F4D50EE0FEF73AFD009007E084
:1033D000FEF736FD0099411A41F28830814256D8F5
:1033E00030688007F4D42FB1DBF8001021F0805151
:1033F000CBF80010A069C8B33D49091D0968C1F3A5
:10340000810102294AD00228504607D0C8F860003E
:1034100000E03CE0FEF714FD04463BE04746C8F8F8
:103420006000FEF70DFD064605E000BFFEF708FD53
:10343000801B02282BD828688001F7D4D4E9070123
:103440000843A16A2E4A490802EB0141626A41EA37
:103450008211084394F82C1040EA0161C9F8001069
:1034600001203866FEF7ECFC044606E03EE000BFB3
:10347000FEF7E6FC001B022809D828688001F7D572
:1034800034E000BFFEF7DCFC001B022802D9032059
:10349000BDE8F88F28688001F4D427E00128F7D030
:1034A000D9F80000E26900F4800191421CD1226A3F
:1034B00000F03F01914217D147F6C071626A0140A6
:1034C000B1EB821F10D1A26A4FF0FF3300F44031FC
:1034D00003EB5202B1EB024F06D194F82C1000F02E
:1034E0007060B0EB016F01D00120D1E70020CFE781
:1034F0000438024000004742800E474200700040FE
:103500000000FFFF70B5040009D0606A002540B1DB
:1035100025616561A56294F8510040B10CE001207D
:1035200070BD6068B0F5827FF4D0E561F2E784F8A1
:103530005050204600F044F8022084F851002068E2
:10354000016821F040010160A088218900F48270A7
:1035500001F404410843A18901F400610843217C7E
:1035600001F002010843217D01F001010843218B94
:1035700001F400710843217F01F03801084394F8F9
:10358000201001F080010843218D01F4005108430F
:1035900021680860A069042101EA104094F8241011
:1035A00001F010010843216848602068C16921F4D6
:1035B0000061C1616565012084F85100002070BD83
:1035C000F0B587B0044614216846FCF7A5FE1C49F7
:1035D0002068884232D11B480024016841F48051A0
:1035E0000160006800F480500590164814380168A6
:1035F00041F002010160016801F0020105910168DA
:1036000041F0010101600068022500F00100059011
:103610001820CDE9000502AA0326052782E8D0007C
:1036200069460948FEF706FB8020CDE9000502AA9D
:10363000694682E8D0000548FEF7FCFA07B0F0BD05
:1036400000300140443802400004024000000240C3
:103650002DE9FF4F81B0044690F8500000260E9FE0
:103660001D4693464FF0010901280FD04FF0010A83
:1036700084F850A0FEF7E4FB804694F8510061689E
:1036800001280DD0B1F5827F08D103E0022005B0FA
:10369000BDE8F08FA16809B9042801D00226C9E06D
:1036A0000298002865D0BBF1000FFBD0002DF9D0A7
:1036B00094F85100042802D0052084F8510000201D
:1036C0006065C4F838B0E587A58702992163E5866F
:1036D000A5862064606420680168490603D40168F7
:1036E00041F040010160E068B0F5006F606803D010
:1036F000F0B3012D47D081E008B1012D3CD1206B02
:1037000021680088C860206B801C2063E08E401E0A
:10371000E08631E02068816889070FD5E18E69B1C4
:10372000B9F1010F0AD1216B0988C160206B801C9F
:103730002063E08E401EE0864FF00009206881681B
:10374000C9070CD0E18F51B1C068A16B0880A06B94
:10375000801CA063E08F401EE0874FF00109FEF758
:103760006FFBA0EB0800B84206D3781C04D001E040
:1037700009E05BE003265BE0E08E0028CAD1E08F21
:103780000028C7D140E0206B216800780873206BC7
:10379000401C2063E08E401EE0862FE02068816898
:1037A00089070FD5E18E69B1B9F1010F0AD1216BFB
:1037B00009780173206B401C2063E08E401EE08678
:1037C0004FF0000920688168C9070CD0E18F51B122
:1037D000C068A16B0870A06B401CA063E08F401E06
:1037E000E0874FF00109FEF72BFBA0EB0800B84281
:1037F00002D3781C02D0BAE7002FB8D0E08E0028A0
:10380000CCD1E08F0028C9D142463946204602F08B
:1038100053FE18B10126202060650BE0A06818B99E
:103820002068C16880680090606D08B1012601E0E1
:1038300084F851A0002084F85000304627E77047F4
:10384000704710B590F83C20012A22D0012280F860
:103850003C20CA688C6822F4407222434C6822F4EF
:10386000806222430C6822F4006222430C6922F435
:10387000805222434C6922F400522243C96900233A
:1038800022F480420A4301684A6480F83C300020F8
:1038900010BD022010BD000070B590F83C20012A38
:1038A00032D0012480F83C40022280F83D20036899
:1038B0005A689D6822F070060A6832435A60134BBA
:1038C00002689A4214D0B2F1804F11D0104B9A4244
:1038D0000ED0104B9A420BD00F4B9A4208D00F4B90
:1038E0009A4205D00E4B9A4202D00E4B9A4204D116
:1038F000496825F080031943916080F83D4000211C
:1039000080F83C10084670BD022070BD00000140E8
:103910000004004000080040000C0040000401408A
:10392000004001400018004010B5040003D094F896
:103930003D0010B107E0012010BD002084F83C00DC
:10394000204600F01FF8022084F83D00211D206869
:1039500002F00CFF012084F8460084F83E0084F851
:103960003F0084F8400084F8410084F8420084F865
:10397000430084F8440084F8450084F83D000020AA
:1039800010BD000008B5134A01681348914207D1E1
:10399000016841F001010160006800F001000BE0E6
:1039A0000E4A91420AD10C48001F016841F00401FF
:1039B0000160006800F00400009008BD084A9142D0
:1039C000FBD1016841F400310160006800F400306F
:1039D000F2E70000000001404438024000080040C7
:1039E0000044014090F83D10012901D001207047AA
:1039F000022180F83D100168CA6842F00102CA60E5
:103A000000681149884214D0B0F1804F11D00F499D
:103A100088420ED00E4988420BD00E49884208D009
:103A20000D49884205D00D49884202D00C49884290
:103A300004D1816801F00701062903D0016841F033
:103A400001010160002070470000014000040040B7
:103A500000080040000C004000040140004001400C
:103A60000018004070B5044690F83C00002501287D
:103A700017D0012684F83C60022084F83D002068BD
:103A8000826822F0770222F47F4282600868502820
:103A900038D00DDC20284FD005DC90B3102811D190
:103AA0004AE0022070BD302846D040280AD13BE0D1
:103AB00060282FD070280DD0B0F5805F03D0B0F50E
:103AC000005F12D0012584F83D60002084F83C009E
:103AD000284670BDCB68D1E90121206802F0BFFE05
:103AE0002068816841F0770109E0CB68D1E90121C4
:103AF000206802F0B4FE2068816841F48041816052
:103B0000E1E719E0CA684968206802F099FF50218E
:103B1000206806E0CA684968206802F0A2FF6021B8
:103B2000206802F0A6FECEE7CA684968206802F065
:103B300087FF40212068F4E7226801461046F0E73D
:103B400070472DE9F04104460068C66805694FF0EA
:103B50000007A90713D5B10711D5F91E016101208E
:103B60002077206880698007204602D0FFF7E8FFB1
:103B700004E000F0DBF8204600F06DF927776807D5
:103B800016D5700714D521686FF004000861022073
:103B900020772068806910F4407F204602D0FFF72C
:103BA000CFFF04E000F0C2F8204600F054F9277778
:103BB000280715D5300713D521686FF00800086174
:103BC000042020772068C0698007204602D0FFF7D4
:103BD000B7FF04E000F0AAF8204600F03CF9277790
:103BE000E80616D5F00614D521686FF010000861BC
:103BF000082020772068C06910F4407F204602D05A
:103C0000FFF79EFF04E000F091F8204600F023F952
:103C10002777E80708D0F00706D021686FF0010089
:103C20000861204600F07CF9280608D5300606D544
:103C300021686FF0800008612046FFF700FE6806EB
:103C400008D5700606D521686FF04000086120464F
:103C500000F070F9A8060AD5B00608D521686FF003
:103C6000200008612046BDE8F041FFF7E9BDBDE84E
:103C7000F081000070B586B0044614216846FCF758
:103C80004BFB234E236800212248022203240125F6
:103C9000B34211D1036843F010030360006802AB24
:103CA00000F01000059083E832004FF4D440CDE9D5
:103CB00000026946184812E0184EB34213D1036857
:103CC00043F008030360006800F00800059030141A
:103CD0000090CDE90121CDE9031269461048FDF7B6
:103CE000A9FF06B070BD0F498B42FAD1016841F0BF
:103CF000200101600068CDE9025400F02000059029
:103D00004020CDE90002694604940748E7E7000037
:103D1000000001403038024000100240000800401E
:103D2000000C02400044014000140240704770B58E
:103D3000044690F83C0000260D4601280FD00120D3
:103D400084F83C006AB1042A1DD0082A2FD00C2A1E
:103D50003FD00126002084F83C00304670BD022090
:103D600070BD206802F0AAFD2068816941F0080159
:103D700081612068816921F0040181612068816985
:103D80002A69114311E0206802F0C8FD20688169AA
:103D900041F4006181612068816921F48061816161
:103DA000206881692A6941EA02218161D2E720689D
:103DB00002F0EAFD2068C16941F00801C161206894
:103DC000C16921F00401C1612068C1692A691143F8
:103DD00011E0206802F00CFE2068C16941F4006126
:103DE000C1612068C16921F48061C1612068C16935
:103DF0002A6941EA0221C161ACE710B5040003D091
:103E000094F83D0010B107E0012010BD002084F8B7
:103E10003C00204600F01EF8022084F83D00211DE1
:103E2000206802F0A3FC012084F8460084F83E00DC
:103E300084F83F0084F8400084F8410084F8420090
:103E400084F8430084F8440084F8450084F83D0079
:103E5000002010BD7047704710B50446022249B1DA
:103E600004290ED0082913D094F84100012816D057
:103E7000012010BD94F83E000128F9D184F83E20BD
:103E80000FE094F83F000128F2D184F83F2008E0C9
:103E900094F840000128EBD184F8402001E084F838
:103EA00041200122206802F0CDFC16492068164A04
:103EB000884201D0904203D1436C43F400434364F1
:103EC0002068884213D0B0F1804F10D00F4988424B
:103ED0000DD00F4988420AD00E49884207D090423F
:103EE00005D00D49884202D00C49884204D181682E
:103EF00001F00701062903D0016841F001010160CA
:103F0000002010BD000001400004014000040040FA
:103F100000080040000C0040004001400018004034
:103F200000680349884201D1FEF732BA70470000A9
:103F300000100040704738B5044690F84200202831
:103F400001D0022038BD61B15AB1012020630020A8
:103F50006063204602F032FF0028F3D1216B012973
:103F600001D0012038BD21680A68496800912168A4
:103F70000C3151E8002F42F0100241E80023002BE1
:103F8000F5D138BD10B509490068096888420CD1DF
:103F9000064800F00FF8064801F0B0FDBDE81040FB
:103FA000322203490148FFF7C6BF10BDF4040020C8
:103FB000C006002010B504460068406994F841101E
:103FC000C0F3C010212911D180B12068143050E80D
:103FD000001F21F0800140E80012002AF5D1A06BFB
:103FE00008B1FDF71DFC204602F0F3FD2068406992
:103FF00094F84210C0F38010222911D180B12068BA
:10400000143050E8001F21F0400140E80012002A5F
:10401000F5D1E06B08B1FDF703FC204602F0B2FDDC
:10402000002010BD70470000F8B50168044608681C
:10403000CA684B6910F00F0F4FF0000559D003F01C
:10404000010602F49077374365D0C10705D0D1054A
:1040500003D5616C41F001016164410705D5D907C1
:1040600003D0616C41F002016164810705D5D90775
:1040700003D0616C41F004016164010707D502F0CF
:104080002001314303D0616C41F008016164616C2F
:1040900000293AD0800604D5900602D5204602F0C9
:1040A000A6FD20684069616CC0F38010090700D448
:1040B00060B3204602F066FD20684069400621D5C5
:1040C0002068143050E8001F21F0400140E8001241
:1040D000002AF5D1E06BA8B16E490165E06BFDF7F0
:1040E000E8FB002811D0E06B016D01B0BDE8F040A5
:1040F000084783060FD593060DD52046BDE8F84046
:1041000002F075BD2046FFF78DFFF8BD2046FFF792
:1041100089FF6564F8BD266B2023012E7DD1C6067C
:104120007BD5D60679D508684868009048694FF075
:104130000206400641D5E16B086840680004000CA7
:10414000E8D0A28D8242E5D9E085C869B0F5807FCC
:104150002DD020680C3050E8001F21F4807140E819
:104160000012002AF5D12068143050E8001F21F019
:10417000010140E80012002AF5D12068143050E80F
:10418000001F21F0400140E80012002AF5D184F818
:104190004230256320680C3050E8001F21F01001E8
:1041A00040E80012002AF5D1E06BFDF739FB6663A9
:1041B000A08DE18D401A81B22AE0A08DE18D401AD8
:1041C00081B2E08D0028A5D00029A3D022680C324E
:1041D00052E8000F20F4907042E80007002FF5D15C
:1041E0002068143050E8002F22F0010240E8002738
:1041F000002FF5D184F84230256320680C3050E858
:10420000002F22F0100240E80023002BF5D1666356
:104210002046FFF7B7FEF8BDFFE705062BD51506CC
:1042200029D594F841002128F5D1A068B0F5805F28
:1042300001D12069B0B1206A411C21622168007857
:104240004860E08C401E0004000CE084E3D120684C
:10425000C16821F08001C1602068C16841F040015F
:10426000C160D8E7206A0088C0F308004860206A6F
:10427000801C2062E5E74006CDD55006CBD5CA6844
:10428000204622F04002CA6084F8413000F040F934
:10429000C1E70000876A000870B5040004D094F8F4
:1042A0004100002510B106E0012070BD84F84050A7
:1042B000204600F023F8242084F841002068C168DB
:1042C00021F40051C160204602F0F2FC206801692F
:1042D00021F4904101612068416921F02A01416186
:1042E0002068C16841F40051C1606564202084F8F1
:1042F000410084F842006563002070BDF0B587B0CE
:10430000074614216846FCF707F84F49DFF834C127
:104310003B6800244C4A14390225032607206345D4
:104320002BD1136843F010031360126802F01002DF
:1043300005920A6842F002020A600A6802F002026C
:1043400005920A6842F001020A600968074601F016
:10435000010105918021CDE9001502AB694683E892
:10436000D0003A48FDF766FC2802CDE9000502AB13
:10437000694683E8D000364861E0DFF8D8C063457D
:1043800040D1314A121F136843F48023136012682E
:1043900002F4802205920A6842F004020A60096869
:1043A000029401F0040105914FF44061CDE900153C
:1043B000CDE9036069462848FDF73CFC284D2748B5
:1043C00028604FF00060C5E901044014C5E90340CE
:1043D00080106C61C5E906404FF44030C5E908041F
:1043E0002846FDF749FB08B1FDF747F8FD630022B9
:1043F00005212720AF63FEF763F82720FEF752F868
:1044000007B0F0BD17488342FAD1106840F0200091
:104410001060106800F020000590086840F040002F
:1044200008600868029400F0400005904FF4844052
:10443000CDE900050820CDE9036069460A48FDF78B
:10444000F9FBDDE70010014044380240000402405F
:10445000000002400048004000080240286002407E
:104460008405002000140140001802407047704786
:104470002DE9F843044690F84100984616460D464B
:10448000202802D00220BDE8F88385B17EB100204B
:104490006064212084F84100FDF7D2FCA6848146A7
:1044A000E684A0682027B0F5805F02D003E00120F9
:1044B000E9E7206910B12E4600250EE000260CE049
:1044C0008021204602F0C2FCA8B9C6B116F8010B43
:1044D00021684860E08C401EE084E08C4B464FF041
:1044E0000002CDF800800028EAD14FF040012046BC
:1044F00002F0ACFC40B184F841700320C3E735F80A
:10450000020BC0F30800E3E784F841700020BAE72B
:104510007047FEE701684A69D24352050FD46FF431
:1045200080624A61002140F8301F2022427381736B
:10453000026942F004020261017301207047002009
:10454000704700002DE9F84F0446006889460B9D2E
:1045500001689846174641F480610160206801684F
:1045600041F48071016000954FF0011B0022594613
:1045700020460A9B00F0E4F84FF4007A40B120682E
:104580000068C00501D5C4F840A00320BDE8F88F3D
:10459000216809F0FE0008612B46284920460A9A46
:1045A00000F016F9F0BB20684169806900902A4646
:1045B00020460A9900F0A2F940B1206C04283AD1B3
:1045C0002068016841F40071016034E0FEB2B8F186
:1045D000010F09D02168380A08612A4620460A9945
:1045E00000F08CF90028E8D1206806612A462046B0
:1045F0000A9900F083F90028DFD12068016841F4AE
:104600008071016000950022594620460A9B00F007
:1046100097F80028B3D1216809F0FF0040F00100AD
:10462000086100E007E02B46044920460A9A00F0A2
:10463000CFF80028AAD00120A8E70000020001005E
:104640002DE9F843044600680D46DDE90897016846
:104650009846164641F4807101604B4600224FF0A7
:1046600001112046009700F06BF848B120680068FF
:10467000C00502D54FF4007020640320BDE8F88324
:10468000216805F0FE0008613B464A461549204670
:1046900000F09EF888B920684169806900903A4628
:1046A0004946204600F02AF948B1206C042804D17C
:1046B0002068016841F4007101600120DEE7F5B275
:1046C000B8F1010F09D02168300A08613A4649461D
:1046D000204600F013F90028E7D12068056100208A
:1046E000CCE700000200010070B516460D460446F6
:1046F0001EE02046FFF70EFF08B1012070BD681CC8
:1047000016D0FDF79DFB801BA84200D885B9206814
:104710004069C04340070BD5002044F8300F2021EA
:104720006173A073216941F0200121612073E4E7E6
:1047300020684069C0434007DBD4002070BD000002
:104740002DE9F047984617460D460446C1F3074643
:10475000DDF820902AE000BFB8F1FF3F26D0FDF73A
:104760006FFBA0EB0901414502D8B8F1000F1DD144
:104770002068012E16D0806925EA00000004000C94
:1047800012D00020B84211D1002044F8300F20216F
:104790006173A073216941F0200121612073012020
:1047A000BDE8F0874069E7E70120EBE72068012ECC
:1047B0000AD0806925EA00000004000C06D0002021
:1047C000B842C9D00020EBE74069F3E70120F7E7E2
:1047D0002DE9F047984616460D4604464FF000096D
:1047E0004FF0200AC1F3074723E020684069C04327
:1047F000400515D42068016841F40071016021680A
:104800006FF480604861C4F8309084F83DA084F86B
:104810003E90216C41F00401216484F83C9021E039
:10482000701C06D0FDF70CFBA0EB0800B04203D8CB
:1048300016B1012F1FD021E02068012F15D080690B
:1048400025EA00000004000C18D000BF44F8309F97
:1048500084F80DA084F80E90216941F020012161B7
:1048600084F80C900120BDE8F087406925EA00003B
:104870000004000CEAD12068406901E020688069EA
:1048800025EA00000004000CAFD1ECE72DE9F0416F
:10489000002590460E460446202728E04069C04384
:1048A000C0060CD454F8301B6FF01000486144F877
:1048B00010596777A577206A2062257714E0FDF705
:1048C000BFFAA0EB0800B04200D886B92068406962
:1048D000C04340060BD544F8305F6773A573206969
:1048E00040F02000206125730120BDE8F0812068A0
:1048F0004169C9434906D1D40020F6E770B5164690
:104900000D4604461EE02046FFF704FE08B10120D4
:1049100070BD681C16D0FDF793FA801BA84200D822
:1049200085B920684069C04300060BD5002044F8D3
:10493000300F20216173A073216941F020012161B2
:104940002073E4E720684069C0430006DBD4002000
:1049500070BD000010B5134C002240212046FDF729
:1049600069FA3220FDF72AF9012240212046FDF79D
:1049700061FA3220FDF722F9002000F03FF81028FC
:1049800001D0012010BD0B210A2000F05BF80821A6
:104990000B2000F057F80921412000F053F80020C7
:1049A00010BD0000001802401CB5044606226946EE
:1049B000032000F039F8BDF9000000EE100AF8EE0F
:1049C000C00A9FED0D0A60EE800AC4ED000ABDF931
:1049D000020000EE900AF8EEE00A60EE800AC4EDF4
:1049E000010ABDF9040000EE900AF8EEE00A20EE9C
:1049F000800A84ED020A1CBD9A99993E1FB50021D8
:104A00008DF80C100A23012203A98DE80E0013462D
:104A100002461C210348FDF7DDFA9DF80C0004B0A6
:104A200010BD0000280300200EB50A238DE80E00FB
:104A3000024601231C210248FDF7CCFA0EBD0000FE
:104A40002803002003B583B00A23012204A98DE8BE
:104A50000E00134602461C210248FDF7BDFB05B0BF
:104A600000BD000028030020FCF7CEFBFFF772FF1B
:104A70001C491D4800F0DEFE00211C48FFF7ECF940
:104A80001B4E0221306805F09FF81A4C164F1A4D44
:104A90004FF0FF3A04F1100904F1140853460122C3
:104AA0000321306805F0BAF84A46211D4046FCF75C
:104AB000B3FB281DFFF778FF2A1D211D404600F09B
:104AC000E3FE0E490E48FCF759F994ED040A064836
:104AD00087ED010A00F016F80221306805F074F83D
:104AE000DCE70000C4000020C808002064040020A7
:104AF000100000203C0600202C0600204407002067
:104B00002C07002010B59FED0E0A80ED000A0D481D
:104B100000F03DFE0B4890ED0C0AB5EEC00AF1EE38
:104B200010FA03D29FED080A80ED0C0ABCEEC00A11
:104B3000064910EE100A096880B2486310BD0000F3
:104B400000002042C808002000000000640400208B
:104B5000094D0A4C95ED010AA088BDEEC00A10EE81
:104B6000101A00EE100A2088B8EE400A05F076FD13
:104B7000642005F006F8EDE7B8080020BA00002030
:104B8000F0B500230A24302537261F4611E000BF68
:104B9000B4EB107F02D905EB107C01E006EB107C32
:104BA00001F813C001EB430C00015B1C8CF8017091
:104BB000DBB29342ECD3F0BD00F038FB064D4FF46E
:104BC00080544FF4FA7621462846FDF72BF93046FB
:104BD00004F0D7FFF7E70000001C02407FB5002477
:104BE00015480094019402941249039401604FF413
:104BF0008031C0E901140461047680F820400F4937
:104C0000C0E90A140125C561C46080F830404561DF
:104C1000FCF7DCFC08B1FCF730FC1120CDE9000505
:104C2000694602940448FCF72BFC002801D0FCF7ED
:104C300024FC7FBD00200140700200200100000F15
:104C40007FB50024154800940194029412490394FE
:104C500001604FF48031C0E901140461047680F8EA
:104C600020400F49C0E90A140125C561C46080F8DD
:104C700030404561FCF7AAFC08B1FCF7FEFB0820B8
:104C8000CDE90005694602940448FCF7F9FB0028C9
:104C900001D0FCF7F2FB7FBD00220140B8020020EA
:104CA0000100000F0F4810B50D490160032141605C
:104CB00000214FF410228160C0E903124FF400126A
:104CC0004261017641768176C17601774177FCF7C2
:104CD000E5FC002803D0BDE81040FCF7CEBB10BDBA
:104CE0000064004000030020094808B5016841F451
:104CF000001101600068002200F4001000900521FE
:104D00000C20FDF7DDFBBDE808400C20FDF7CABB19
:104D10003038024010B501F05DF8114A0021114809
:104D200004F0DCFF104C0E4A0021206024320F48B2
:104D300004F0D4FF0A4A6060483200210C4804F0B5
:104D4000CDFF074AA0606C3200210A4804F0C6FF7C
:104D5000E0600348903004F021FF206110BD0000A6
:104D600054B90008B94B000800000020514B00085E
:104D700099580008694A00082DE9F04786B01421C7
:104D80006846FBF7C9FA57480025016841F0400121
:104D90000160016801F040010591016841F00201E4
:104DA0000160016801F002010591016841F0010113
:104DB0000160016801F001010591016841F00801FD
:104DC0000160016801F008010591016841F00401EA
:104DD0000160016801F004010591016841F0800162
:104DE0000160016801F080010591016841F0200136
:104DF0000160016801F020010591016841F0100196
:104E000001600068DFF8E08000F0100005900122EA
:104E100040214046FDF70EF8344F4FF4E056002293
:104E200031463846FDF706F8DFF8C490012210211C
:104E30004846FCF7FFFFDFF8BCA0012211465046B0
:104E4000FCF7F8FF01244020CDE900046946404604
:104E5000CDE90245FCF7EEFE0096CDE90145694635
:104E600038460395FCF7E6FE08204FF40416CDE91A
:104E70000006694602944046FCF7DCFECDE9004599
:104E8000694648460295FCF7D5FE1020CDE900049E
:104E9000022569464846CDE90245FCF7CBFE3020A5
:104EA000CDE90006694602941348FCF7C3FE00945E
:104EB000694650460194CDE90245FCF7BBFE00224D
:104EC00005210920FDF7FCFA0920FDF7EBFA002285
:104ED00005211720FDF7F4FA1720FDF7E3FA06B0D5
:104EE000BDE8F0873038024000180240001C024044
:104EF0000000024000040240000802400D4810B5C6
:104F00000B4901600C49416000214FF480428160EF
:104F1000C0E9031241618161C1610162FCF796FF42
:104F2000002803D0BDE81040FCF7A7BA10BD000070
:104F3000005C004028030020801A0600104810B5CD
:104F40000E4901604FF482714160002102228160AC
:104F5000C0E9031201224261520282611822C0E9B3
:104F60000721416281620A21C162FEF7CBFA002863
:104F700003D0BDE81040FCF780BA10BD00300140FE
:104F80007C03002010B588B01C216846FBF7C4F9EB
:104F9000144813490024C0E9001441F28731C0E9E4
:104FA000024104618461FEF7BFFC08B1FCF765FAB9
:104FB0000C48FEF722FF08B1FCF75FFA6020CDE94C
:104FC000000402940022694606480494FEF7AFFEEE
:104FD00008B1FCF752FA0348FEF74CFE08B010BDCA
:104FE000004401406404002010B596B000240F94E2
:104FF00010941194129413941C2168461494FBF796
:105000008BF9202107A8FBF787F934483249016062
:10501000A721C0E9011444F61F61C0E903144461EB
:105020008461FEF781FC08B1FCF727FA4FF4805049
:105030000F900FA92948FEF715FD08B1FCF71DFADE
:105040002648FEF7DAFE08B1FCF717FA139413A905
:1050500022481494FEF720FC08B1FCF70EFA6020F9
:10506000CDE9000402940394049405940022694657
:105070001A480694FEF75BFE08B1FCF7FEF904221D
:1050800069461648FEF753FE08B1FCF7F6F9082208
:1050900069461248FEF74BFE08B1FCF7EEF90C2208
:1050A00069460E48FEF743FE08B1FCF7E6F907949F
:1050B000089409944FF400500A94CDE90B4007A9D5
:1050C00006480E94FEF7BDFB08B1FCF7D6F903487D
:1050D000FEF7D0FD16B010BD00000140D403002043
:1050E00010B58EB000240794089409940A940B9488
:1050F0001C2168460C94FBF70FF91E481C49C0E9B7
:10510000001445F20721C0E9024104618461FEF701
:105110000BFC08B1FCF7B1F94FF48050079007A9D8
:105120001448FEF79FFC08B1FCF7A7F91148FEF7F9
:1051300064FE08B1FCF7A1F90B940BA90D480C947F
:10514000FEF7AAFB08B1FCF798F96020CDE900044E
:1051500002940822694607480494FEF7E8FD08B166
:10516000FCF78BF90348FEF785FD0EB010BD00007B
:10517000000800401C0400200C4810B50A490160DA
:105180004FF4E1314160002181600C22C160C0E92F
:1051900004128161C161FFF77FF8002803D0BDE8E8
:1051A0001040FCF76AB910BD00100140AC040020AB
:1051B0000E4810B50C4901600D4941604FF4805113
:1051C000816000214FF48062C0E903120C22C0E923
:1051D0000521C161FFF760F8002803D0BDE8104049
:1051E000FCF74BB910BD000000480040F40400205B
:1051F000A08601000C4810B50A4901604FF4E13166
:105200004160002181600C22C160C0E9041281610B
:10521000C161FFF741F8002803D0BDE81040FCF75A
:105220002CB910BD001401403C05002010B500222F
:105230000F49104802F05BFA08B1FCF71EF90E495D
:105240000C4802F06CFC08B1FCF717F90B4909484F
:1052500002F004F808B1FCF710F9064802F0E2FC8D
:10526000002803D0BDE81040FCF707B910BD0000CE
:10527000D0000020040900208C0100202001002023
:1052800010B5F5EEC01A2DED108BF0EE419AB0EE90
:1052900060AAF0EE40AAF1EE10FA84B0D84C09D121
:1052A000B5EEC02AF1EE10FA04D1F5EEC02AF1EE07
:1052B00010FA7CD021EEA10A02EE020A02EEA20A46
:1052C00004F024FC21EE80FA62EE00EA22EE80EA8D
:1052D00023EE030A03EEA30A04EE040A04F016FC0C
:1052E00023EE009A63EE808A24EE008A94ED020A8F
:1052F000D4ED020AF6EE00FA60EE200ACDED030AC4
:1053000094ED020AD4ED030A94ED041A94ED052AF3
:1053100020EE20DA94ED020AD4ED040A60EE20CAF1
:1053200094ED020AD4ED050A60EE201A94ED030A0A
:10533000D4ED030A60EE200A94ED030A20EE011A70
:1053400094ED030A20EE02CA94ED040A94ED042AB7
:1053500060EE02DA94ED040A94ED052A60EE02BADA
:1053600094ED050A94ED052A20EE02BA3FEEED0A0F
:1053700030EE4B2A8DED022A22EE090A31EE612A27
:1053800031EE211A8DED012A08EE820A3CEE2C2A1C
:1053900061EE091A3FEEE01A08EE020AB0EE002AAA
:1053A0008DED001A71EE4B0A20EE020A00E0ADE02E
:1053B00048EEA01A7BEECD0A20EE000A48EE201A35
:1053C000F0EE000A61EEA00A00EEA00A10EE100A4C
:1053D000FBF7E4F841EC100B03F082FE51EC100BEC
:1053E000FBF7EFF83CEE6C0A3BEE8D1A00EE900AEC
:1053F0009DED022A60EE091A7CEE8C2A48EE811A95
:105400009DED001A62EEA02A71EE6D3AB0EE001A20
:1054100048EE231A21EE813A62EE201A9DED012A10
:105420003DEE2B1A43EE232A22EE202ADDED030A5D
:1054300043EE001A70EE8B0A03EE012A68EEA23AE0
:1054400070EEEF0A48EE423A2EEEA03A0EEE413AE6
:105450002FEE011A0EEEC01A33EE233A6EEE003A2A
:1054600029EE020A4FEE603A68EE210A08EEE10AE0
:1054700049EE620A31EE000A94ED011A73EEA00AB9
:10548000B5EEC01AF1EE10FA2CDD94ED011AD4ED50
:10549000061A21EE032A9FED5B1A42EE011AC4EDB3
:1054A000061AD4ED011A21EEA02AD4ED071A42EE15
:1054B000011AC4ED071AD4ED011A21EE802AD4EDA9
:1054C000081A42EE011AC4ED081A94ED061A7AEE93
:1054D00081AA94ED071A3AEE01AA94ED081A79EE22
:1054E000819A07E09FED481A84ED061A84ED071AA9
:1054F00084ED081A94ED001A41EE03AA94ED001A07
:1055000001EE20AAD4ED000A40EE809A9FED3F1AEA
:1055100094ED033AD4ED041A2AEE810A6AEE010AE8
:1055200029EE811AD4ED053A23EE402AD4ED022A61
:1055300001EEE02A03EEC12AD4ED023A32EE232A2C
:1055400084ED022A22EE802AD4ED053A01EE812A6A
:1055500003EEE02AD4ED033A32EE232A84ED032A47
:1055600022EEA02AD4ED053A03EE412A22EE811A5A
:1055700003EE201A03EE802AD4ED043A01EEC01A9D
:1055800032EE232A84ED042A94ED050A31EE000A56
:1055900084ED050A94ED020AD4ED020A94ED031A93
:1055A00020EE200AD4ED030A00EE810AD4ED040AAD
:1055B00094ED041A00EE810AD4ED050A94ED051A63
:1055C00000EE810A04F0A2FAD4ED020A60EE800A2D
:1055D000C4ED020AD4ED030A60EE800AC4ED030AAA
:1055E000D4ED040A60EE800AC4ED040AD4ED050A85
:1055F00020EE800A84ED050A04B0BDEC108B10BDCE
:105600001C0000206F12833A000000006F12033A62
:10561000FEE7FEE70148FDF7CFB8000000200020BC
:105620002DE9F04103680D4604461E6C03EB45115D
:10563000D1F8080B94F806E04FF400474FF0200C27
:1056400004F29C42BEF1010F09D0DFF898E07645E4
:1056500039D1020432D500BFC1F8087B3FE0224BAC
:105660005FEA007E04D59E4239D90004F4D436E0C6
:105670005FEA806E02D5C1F808CB30E010F0280F49
:105680002DD19E4201D90004E6D405EBC50004EB00
:105690008000D1F8101BD0F87432C1F31201591AEE
:1056A000C0F8681200F51570ADB903691BB1C26886
:1056B0001144C1600FE0012120680AE080060AD58C
:1056C000C1F808CB07E035B9D4F8640218B9002155
:1056D000184602F021FEE9B22046FCF757FF0020F1
:1056E000BDE8F0810A31544F0A30544F2DE9F84F8C
:1056F0000E4601EBC60100EB810481460568D4E942
:1057000009101434884202D90120BDE8F88F081A24
:10571000A168814200D20846C01C870805EB4618E4
:105720001BE000BFA0EB010AA068504500D28246F2
:105730000AF10300870899F8060000901FFA8AF31F
:10574000F2B22846E16803F021F9E16801EB0A00B2
:10575000E060616901EB0A006061D8F8180980B265
:10576000B84205D3D4E90401814201D20028D9D13D
:10577000D4E90401884208D806F00F0101208840CE
:10578000D5F834188143C5F834180020BDE790EDF2
:10579000020A80ED030AD0EC020A70EEC10AC0EDE5
:1057A000020A90ED041A70EEC01A31EE201A80ED54
:1057B000041AC0ED051A90ED060A20EE201A80EDBD
:1057C000091A90ED0A0A90ED072A02EE200A80EDF0
:1057D0000A0AD0ED080A60EEA11AC0ED0B1AD0ED4E
:1057E0000D0AB4EEE00AF1EE10FA06DCB1EE602A22
:1057F000B4EEC20AF1EE10FA01D2B0EE600A80ED0A
:105800000A0A31EE000A30EE210A80ED0C0AD0EDD2
:105810000E0AB4EEE00AF1EE10FA06DCB1EE601A00
:10582000B4EEC10AF1EE10FA01D2B0EE600A80EDDA
:105830000C0A70479FED130A80ED020A80ED030AFF
:1058400080ED040A80ED050AD1ED000AC0ED060ADC
:10585000D1ED010AC0ED070AD1ED020AC0ED080A38
:10586000D1ED030AC0ED0D0AD1ED040AC0ED0E0A18
:1058700080ED0B0A80ED0A0A80ED090A80ED0C0A22
:10588000704700000000000092EC033AD1EC031ACC
:1058900090EC030AFFF7F4BC00F01CF900F0F2FFF3
:1058A000FBF7B4F800F004F80A2004F06AF9F9E70D
:1058B0002DE9F05F714C704F4FF47A702DED028B33
:1058C0004FF001083B78228FE18E44F6206B40F2C6
:1058D000DC5546105BB14FF000094FF4FA6A012B1A
:1058E0002ED0022B68D0032B7ED065A0BAE0B14247
:1058F00011D2AA420FD9814604F043F9E08EB0429A
:1059000073D2208FA84270D987F800805846FBF7E1
:10591000BFFA484626E0A94267D9AA4265D9064699
:1059200004F02FF9E08EA8425FD9208FA8425CD9FD
:105930000220387042F21070FBF7AAFA304611E0EC
:10594000B14218D2B24216D204F01BF9E08EB04236
:105950004BD2208FB04248D287F800905846FBF7D0
:1059600097FA504604F00DF9BDEC028B0020BDE81B
:10597000F05FFBF78DBA608EA0F57A70FAF7FDFD47
:105980009FED458B53EC182BFAF785FDFAF719FEBE
:10599000434D2860A08EA0F57A70FAF7EEFD53EC27
:1059A000182BFAF778FDFAF70CFE6860BDEC028B55
:1059B000BDE8F05FFBF7E8B8B14203D2AA429AD83B
:1059C000B242C1D3A1F5967100EE101ADFED360A8E
:1059D000DFED341AB8EEC01AB0EE600A334C01EEB7
:1059E000210A84ED000A01E03BE041E010EE100ADC
:1059F0002F49884202DD9FED2F0A06E010EE100AC3
:105A00002D49884201DAB0EE600A84ED000ABCEE4E
:105A1000C00A10EE100A81B2002002F0CDFF94ED12
:105A2000000ABCEEC00A10EE100A81B2042002F097
:105A3000C3FF94ED000ABCEEC00A10EE100A81B25A
:105A4000082002F0B9FF94ED000ABDEC028BBCEE19
:105A5000C00ABDE8F05F10EE100A81B20C2002F01F
:105A6000ABBF16A0BDEC028BBDE8F05F03F018B928
:105A7000BDEC028BBDE8F09FB8000020DA060020E4
:105A8000466C69676874204D6F64653A20554E4BCB
:105A90004E4F574E0A0000009A9999999999A93F3B
:105AA000380700205DDC363F00007A44B80800204B
:105AB0000000FA440000FA4400007A44466C69672A
:105AC0006874204D6F64653A2053544142494C49F3
:105AD0005A450A0010B5322206490748FEF72BFA4C
