:020000040800F2
:10000000801E002065020008D53E0008953E0008CD
:100010009D3E0008DD190008994600080000000018
:10002000000000000000000000000000770200084F
:10003000691A0008000000008D030008430300084F
:100040007F0200087F0200087F0200087F0200088C
:100050007F0200087F0200087F0200087F0200087C
:100060007F0200087F0200087F0200087F0200086C
:100070005D1A00087F0200087F0200087F02000866
:100080007F0200087F0200087F0200087F0200084C
:100090007F0200087F0200087F0200087F0200083C
:1000A0007F0200087F0200087F0200087F0200082C
:1000B0007F0200087F0200087F0200087F0200081C
:1000C0007F0200087F0200087F0200087F0200080C
:1000D0007F0200087F0200087F0200088D460008AA
:1000E0007F0200087F0200087F0200087F020008EC
:1000F0007F0200087F0200087F0200087F020008DC
:100100007F0200087F0200087F0200087F020008CB
:100110007F0200087F020008B93F00087F02000844
:100120007F0200087F0200087F0200087F020008AB
:100130007F0200087F0200087F0200087F0200089B
:100140007F0200087F0200087F0200087F0200088B
:100150007F0200087F0200087F0200087F0200087B
:100160007F0200087F0200087F0200087F0200086B
:100170007F0200087F0200087F02000800000000E4
:100180007F0200087F02000800F002F800F05AF831
:100190000AA090E8000C82448344AAF10107DA45E2
:1001A00001D100F04FF8AFF2090EBAE80F0013F0DA
:1001B000010F18BFFB1A43F00103184754730000E6
:1001C00074730000103A24BF78C878C1FAD8520777
:1001D00024BF30C830C144BF04680C6070470000C1
:1001E0000023002400250026103A28BF78C1FBD840
:1001F000520728BF30C148BF0B607047662907F01F
:10020000FD80642900F06C82782900F0A5827329B2
:1002100000F01586002070471FB507F0E2F89DE852
:10022000030001F0ABF900F043FE040000200021C0
:1002300007F04AF8E06000F053FF1FBD10B500F072
:10024000B8FF10BD00F0ECFF1146FFF7E5FF06F028
:10025000CBFA01F0F3F803B4FFF7F0FF03BC01F0B1
:10026000FFFA00000948804709480047FEE7FEE71B
:10027000FEE7FEE7FEE7FEE7FEE7FEE7FEE7FEE756
:1002800004480549054A064B70470000A53F000891
:100290008901000880180020801E0020801A00209C
:1002A000801A002000000000000000000000000094
:1002B000B00C0020801E002000000008340D00203B
:1002C00000000008001000E03F9002000000FF4026
:1002D00072B65FF824005FF8241001F10401016098
:1002E0004FF0E0205FF83010C0F8081D5FF83400D0
:1002F0005FF83410096801605FF83800016841F068
:10030000010101604FF0E0205FF8441041614FF0BF
:10031000070101614FF00001C0F8181D4FF07F4147
:10032000C0F81C1D5FF85C10C0F8201D7047FFF777
:10033000FEBFFFF7FEBFFFF7FEBF01B5BDE80140FE
:10034000704701B500F094F8BDE801407047FFF731
:10035000FEBFFFF7FEBF000000000000000000002D
:100360004FF000002A4A1060EFF3148020F00400E0
:1003700080F3148862B64FF080504FF0E021C1F84E
:10038000040DBFF34F8FBFF36F8FFEE72148224A62
:100390004FF00003016891B10360EFF3098C2CE981
:1003A000F00F1EF0100F01D12CED108A1B4C4CF8F1
:1003B00004ED2568C1F808C00DB18D61236072B6E7
:1003C0001168B1B1016062B64F68154C8D6907F1D3
:1003D00001074F602560D1F808C05CF804EB1EF0FF
:1003E000100F01D1BCEC108ABCE8F00F8CF3098827
:1003F000704772B61168016009B962B6F9E74FF04B
:1004000000674FF0E028C8F8047D62B6DCE770476B
:10041000A0020020880200208C020020B4020020EC
:10042000B4020020000000000000000000000000F6
:10043000026922F00702A2F144026FF00203136086
:100440004FF0000353609360D36013615361936175
:10045000D361136253629362D362136353634FF0A9
:10046000FF339363D1634FF08073136482607047EE
:100470002249086800F101000860214B1A683AB16E
:10048000A2F101021A601AB91E4B4FF00100186068
:100490001D490868026822B11C4B4FF001021A6026
:1004A00008E000F104001A4B1A68904201D1194B80
:1004B00018680860184B1A6812B918490868D0B152
:1004C0002DE901401649086808B105F0F1F9154B0E
:1004D0001A6872B105F0B6F81348016849B91348B3
:1004E0000168134A136813484FF08052994200D0B4
:1004F0000260BDE80140BFF34F8F7047B00200209B
:10050000B4020020B8020020C8020020BC02002073
:10051000CC020020C4020020B8020020BC0200204F
:10052000BC020020B8020020A002002088020020A7
:100530008C02002004ED00E053EA020C00F0698018
:100540002DE9F04B4FF00006002B1FBFB3FA83F5E7
:1005500003FA05F424FA05F65E4012BF1643B2FA18
:1005600082F502FA05F4C5F120051EBF22FA05FC4A
:1005700044EA0C04203556EA044C4FEA144418BFF0
:10058000641C4FF000084FF00009904271EB030C1F
:1005900039D3002919BFB1FA81F701FA07F6B0FA89
:1005A00080F700FA07F6C7F120071EBF20FA07FC04
:1005B00046EA0C062037B6FBF4FCA7EB0507103F14
:1005C00007F01F0BCBF120062CFA06F60CFA0BFBFA
:1005D00044BFB3460026202FA4BF5E464FF0000B59
:1005E0005BEA060C08BF4FF0010B19EB0B0948EB57
:1005F0000608ABFB027C06FB02CC0BFB03CCC01B4A
:1006000071EB0C01C1E70B46024641464846BDE886
:10061000F08B13B5084318BF4FF0FF300146AFF31E
:100620000080BDE81C4070470FB4044910B503AA10
:10063000029800F009FC10BC5DF814FB8400002057
:1006400070B5044685690068C10601D5302600E012
:100650002026C00707D070BDD4E90121304690475D
:10066000206A401C20626D1EF6D570BD70B5044630
:1006700085690078C00707D170BDD4E90121202029
:100680009047206A401C20626D1EF6D570BD70B583
:100690000C460546012A05D02878800600D5EA696F
:1006A000002302E0012305E05B1C934202D2E05CE0
:1006B0000028F9D1A869E618C01AA861286A184468
:1006C00028622846FFF7BCFF04E0D5E9012114F8B1
:1006D000010B9047B442F8D32846FFF7C7FF70BD1F
:1006E0002DE9F0410646002410687529314616A50B
:1006F00010D0AFF30080002802DA404213A507E0D3
:1007000031688A0701D512A502E0490704D511A571
:10071000012401E0AFF3008000210A2206F1240742
:1007200009E0B0FBF2FCB0FBF2F302FB1C0030303E
:1007300078541846491C0028F3D123462A463046EF
:10074000BDE8F04100F002B9000000002D000000FB
:100750002B0000002000000070B504460D46214625
:100760001068AFF300802188090502D50F4A7A444A
:1007700002E00E4A7A440E32002104F1240305E01F
:1007800000F00F060009965D5E54491C0028F7D161
:1007900020780023000704D5702D02D009B1022370
:1007A00011322046BDE8704000F0D0B88E6C0000D9
:1007B0002DE9F05F894604464FF0000ADFF824B1C6
:1007C000FB44C0F820A02046E168884700287DD07F
:1007D000252806D0D4E901219047206A401C2062D8
:1007E000F1E700255F462046E16888472028064655
:1007F00007DB312E05D2B81910F8200C08B10543DB
:10080000F1E7A80701D525F00405C4F81CA00027CE
:10081000C4F818A02A2E09D0304606F04DFD38B392
:1008200004EB8708303EC8F8186019E059F8041B3B
:10083000204604EB87029161E1688847012F064654
:1008400018D1E069002820DA25F020051DE0D8F84D
:10085000180000EB800006EB40003038C8F81800A4
:100860002046E1688847064606F026FD0028EED1BE
:10087000012F0AD02E2E08D12046E16888477F1C20
:100880000646022F45F02005C4DBA069002803DAE4
:10089000404245F00105A061E80701D025F01005B0
:1008A000A6B1A6F14100192802D8203645F400650A
:1008B0004A463146204625604D46FFF79FFC60B111
:1008C000012807D0ED1D25F0070000E007E000F14A
:1008D000080978E705F1040975E730467AE7206AE8
:1008E000BDE8F09F646C000002F0FF0343EA0322BE
:1008F00042EA024200F0BCBA4FF0000200B51346D3
:1009000094469646203922BFA0E80C50A0E80C502F
:10091000B1F12001BFF4F7AF090728BFA0E80C50E0
:1009200048BF0CC05DF804EB890028BF40F8042BD9
:1009300008BF704748BF20F8022B11F0804F18BF46
:1009400000F8012B70477047704770472DE9F0475A
:100950000D4699469246044600F12408016888062F
:1009600004D5E06921F01001216000E00120A842D7
:1009700001DD471B00E00027A1697A1902EB09009D
:10098000081AA0612078C00602D42046FFF758FE5E
:10099000002608E0D4E901211AF806009047206AF1
:1009A000401C761C20624E45F4DB2078C0060AD538
:1009B0002046FFF745FE06E0D4E9012130209047AC
:1009C000206A401C2062381EA7F10107F4DC07E012
:1009D000D4E9012118F805009047206A401C2062E4
:1009E000281EA5F10105F3DC2046FFF73FFE207825
:1009F000000602D50220BDE8F0870120FBE72DE9C3
:100A0000FF4F0C461E464FF0FF378BB0D2E9000176
:100A1000DDF860800A908A46C1F30A5505B93D4663
:100A2000002108464FF00000BAF1000F00F440002A
:100A300005DA00EB80004FF4400101EA50004FEA74
:100A40009059B9F1010F00DDB9460A9850EA4A0001
:100A50000ED044F61050A5F2FF3545432F14B8F1DF
:100A6000000F1ED07542291E1EDDC9F100021CE0D8
:100A7000B8F1010F4FF0000001D0302103E0F24344
:100A800005E02154401CB042FBDB3046002200212F
:100A900021540B99C1F80880C1E900200FB0BDE8CE
:100AA000F08FBD1B6D1CDEE74A4600DA694206A8DE
:100AB00000F0A0FA06AB93E8070003AB83E8070059
:100AC00050460A9906F018F88DE80700A0F5005086
:100AD0001F3800900398002D0ADD42F21F014A469C
:100AE0000844002303A90390684606F081FA09E050
:100AF000A0F500504A461F38002303A9039068461A
:100B000006F08BFA8DE807000004000C03D04FF0CC
:100B1000FF30410800E01046B8F1000F03D000227A
:100B2000009215461EE0751E05D400F0C5F930325E
:100B300062556D1EF9D5B3460122084302D000224A
:100B40007F1C04E02078302801D100227F1E002A7B
:100B5000099784D01DE0112D07DA00F0ADF930328D
:100B600062556D1C50EA0102F5D1084302D000988D
:100B7000C8B10EE00021681E05E0235C625C63548E
:100B80002254401E491C8142F7DBAB46A81B401E85
:100B90000990002004F80B000B98099AC0F808800F
:100BA000C0E9002B7AE711264FF0000857E72DE93E
:100BB000F04F88460446D21D22F0070191B0D1E9DA
:100BC0000001CDE90A0106F05FFB02460B98C00F59
:100BD00001D02D2007E02068810701D52B2002E0FD
:100BE000202101EAC000032A099001D0072A05DB71
:100BF00003464146204600F0BDF90BE1207880060F
:100C000001D5E06900E00620B8F1650F814606D005
:100C1000B8F1660F18D0B8F1670F70D131E000203D
:100C2000B9F1110F009001DB112301E009F101037B
:100C30000AAA01A90CA8FFF7E2FEDDE90C70002664
:100C400009F10105834647E001204B4600904FF033
:100C500000470AAA01A90CA8FFF7D1FEDDE90DB0F3
:100C60000C995D46002610B909F101000D18B9EB89
:100C7000050003D4C0F1FF3609F10105A5EB090019
:100C80002BE0B9F1010F01DA4FF001090020B9F1B1
:100C9000110F0090484601DD112300E003460AAA27
:100CA00001A90CA8FFF7ABFEDDE90C704D4600264C
:100CB0008346207800070AD4AB4500DA5D4601A8D8
:100CC000012D04DD411911F8011C302907D04F45D1
:100CD00002DA17F1040F04DA012082460FE06D1EDC
:100CE000EEE7002F02DCED1B3E4403E0781CA84237
:100CF00000DD7D1CB81B00F1010A4FF00047207891
:100D0000000703D4AA4501DB4FF0FF3A0021B7F1F9
:100D1000004F0DF143088DF8431024D002202B23FF
:100D2000002F01DA7F422D230A21021EA0F10100CB
:100D300000DC5FB197FBF1FC97FBF1F201FB1C7C3F
:100D400017460CF1300C08F801CDEEE7A8F10100D0
:100D500003702188090501D5452100E06521A0F136
:100D6000010800F8011C09980FA9A1EB0807FF1D55
:100D700000B10120411901EBEA70A1693844081A59
:100D8000401EA0612078C00602D42046FFF758FC20
:100D9000099828B1D4E901219047206A401C2062BB
:100DA0002078C00622D52046FFF74AFC1EE0002E20
:100DB00004DBB34502DD01A8805D00E03020D4E90A
:100DC00001219047206A401C2062761CAAF1010094
:100DD0005FEA000A0AD100F06BF8C0680168405C65
:100DE000D4E901219047206A401C2062281EA5F109
:100DF0000105DCDC07E0D4E9012118F8010B90477C
:100E0000206A401C2062381EA7F10107F3DC20464F
:100E1000FFF72CFC032011B041E610B5436913B174
:100E2000AFF3008001E0FFF732FC012010BD127823
:100E300000F124010A7000224A700122EDE71168D6
:100E40004FF0FF32E9E70000074B70B50D467B44D9
:100E500000F07DF80446284600F03EF910B14FF04E
:100E6000FF3070BD204670BD775900004FF0000282
:100E70000429C0F0128010F0030C3FF43FADCCF118
:100E8000040CBCF1020F18BF00F8012BA8BF20F81A
:100E9000022BA1EB0C01FFF731BD5FEAC17C24BF3F
:100EA00000F8012B00F8012B48BF00F8012B704718
:100EB000004870474C01002030B5B0F10A0271F1D2
:100EC00000034FEA900E4EEA817EB0EB0E0061EB1C
:100ED00091014FEA101E4EEA017E10EB0E0041EB2D
:100EE00011114FEA102E4EEA016E10EB0E0041EB8D
:100EF00011214FEA104E4EEA014E10EB0E0041EB6D
:100F00001141401841F100014FEAD00040EA417020
:100F10004FEAD1014FEA810444EA907410EB800556
:100F200044EB01046D1944EB0404521BA3414FF040
:100F3000000348BF0A3200D530BD401C41F100011A
:100F400030BD000001694A1C02610878704700B595
:100F50008FB0CDE901310021059105497944CDE9F2
:100F6000031011466846FFF723FC0FB000BD0000D8
:100F7000E5FFFFFF2DE9F0411F4604460326016807
:100F8000072A01F4006004DB08B116A505E016A5E8
:100F900003E008B115A500E015A521F010002060C0
:100FA000A069C01EA0610FB1401EA0612046FFF7DE
:100FB00047FB4FB1D4E9012138469047206A401CD5
:100FC0002062C01C206206E0206AFAE7D4E9012111
:100FD00015F8010B9047761EF8D22046FFF746FB26
:100FE000BDE8F0814E414E006E616E00494E4600F4
:100FF000696E66002DE9F047814616468AB035488D
:1010000078440DC88DE80D0032487844801C03AC4C
:101010000DC884E80D0041F69B300844372190FB51
:10102000F1F290FBF1F5A5F1800501FB12041B3CE8
:1010300002D56442012000E00020DFF898A080463D
:101040000027FA44AAF1BE0A0EE0E0070AD03246B1
:10105000684607EB470101230AEB810105F0DDFF3C
:101060008DE8070064107F1C002CEED1194F7F44DF
:10107000AE3F19E0E80715D007EB04100DF1180A90
:1010800090E80E008AE80E00C068F04201D198197D
:1010900008903246012306A903A805F0BEFF03AB62
:1010A00083E807006D10641C002DE3D14FF00103AD
:1010B00032466946B8F1000F03A802D005F098FF48
:1010C00001E005F0AAFFC9E90001C9F808200AB04B
:1010D000BDE8F087B4640000007B00F0800070473A
:1010E00010B542485421FFF707FC41485421FFF74F
:1010F00003FC40485421FFF7FFFB3F493B483C4A73
:101100003F4B08603D490A603A491960531C03652A
:10111000481C1065012008653B48344A39A17844D1
:1011200000F0EEF820B9384878440A3800F08FF91A
:1011300037482F4A35A1784400F0E2F820B9344806
:1011400078440A3800F083F932482A4A2FA17844BB
:1011500000F0D6F820B92F4878440A3800F077F923
:1011600040232248DC000021224600F0A5F820B1EF
:1011700025487844543800F06AF91D482246402337
:10118000002100F099F820B121487844543800F04B
:101190005EF9184822461023002100F08DF800283F
:1011A00006D01C487844BDE81040563800F04FB9CE
:1011B00010BD104870B5006D20F001040B4800F020
:1011C00017F90B4800F014F90A4800F011F909E08A
:1011D000206D20F00105204600F00AF9204600F0BD
:1011E00044F82C46002CF3D170BD000030000020E4
:1011F00084000020D800002000000020040000200F
:101200000800002072000000AE63000077000000BC
:101210009A63000086630000004870472C0100209C
:101220007546FFF7F9FFAE4605006946534620F0C4
:101230000700854618B020B5FFF722F8BDE820402A
:101240004FF000064FF000074FF000084FF0000B82
:10125000AC46ACE8C009ACE8C009ACE8C009ACE8F1
:10126000C00921F007018D46704770B50446051F7F
:1012700000F068F90068002C14BF446870BD002CB1
:1012800018BFAC423CBF20466468F8D301680A1816
:10129000AA4218BF456003D12A680546114401607F
:1012A00028684119A1421CBF6C6070BD616869600B
:1012B00021680844286070BD70B5C468A50713D0C4
:1012C000650211D4B2F5807F09D0B2F5007F06D057
:1012D000B2F5806F08D1012300F1240106E05D1E04
:1012E0006FF07F46B54201D3012070BD0161C3613B
:1012F000416024F470611143C160002070BD0000A2
:101300002DE9F0410C461646070047D0104600F084
:101310006FF82078611C61280AD0722802D07728E3
:101320003CD102E00125002405E00225042402E06E
:10133000082448F2020511F8010B2B2806D0622878
:1013400009D011F8010C74280AD00BE045F0030510
:1013500044F00204EFE745F0040544F00104EAE735
:1013600044F010043846214600F0B8F8411C15D06E
:101370000021316171604FF40071F560F1617061BD
:10138000200704D530460222002100F055F9306DC7
:1013900040F0010030653046BDE8F0810020FBE7F9
:1013A0002DE9F0410D460646104C206DC10704D0D2
:1013B000410804D020F00104F7E722460EE0542053
:1013C00000F00BF907000ED0206D47F00101084333
:1013D000542120653846FFF78FFA3A4629463046B1
:1013E000BDE8F0418CE70020D6E700003000002087
:1013F0002DE9F04704464FF000094FF0FF37C5686C
:10140000D4E90486A80707D0204600F0C5F9304685
:1014100000F06EF8002802DA3846BDE8F0872805AB
:1014200002D54046FFF721FF4C212046FFF764FA22
:10143000206D20F0010020654846EEE710B5044617
:10144000AFF300802046BDE81040FEF704BF10B5A2
:1014500000F0ECF9BDE8104000F0E2B90000000037
:1014600030B44FF0013C50F8042B51F8043BCCFA57
:1014700052F4D51A20D1FCB950F8042B51F8043B92
:10148000CCFA52F4D51A17D1B4B950F8042B51F84C
:10149000043BCCFA52F4D51A0ED16CB950F8042B97
:1014A00051F8043BCCFA52F4D51A05D1002CDAD00D
:1014B00030BC4FF00000704729BAB1FA81F111F049
:1014C0001801D1F120008440F2D1CA40CB4012F083
:1014D000FF0213F0FF0330BCD01A70470EB5CDE900
:1014E000000100F026FA029069460120ABBE0EBD55
:1014F00008B5694600900220ABBE08BD1FB58DE857
:10150000070069460520ABBE04B010BD1FB58DE8CD
:101510000F0069460620ABBEF6E708B569460090A5
:101520000920ABBE08BD1CB5CDE9000169460A2003
:10153000ABBE1CBD704708B5694600900C20ABBE21
:1015400008BD000000487047340100207047704714
:101550007047704738B504460A4600206946AFF325
:101560000080002808BF38BD02460099204600F0E0
:1015700085F9012038BD012000F0D4B9F8B5AFF3EA
:101580000080054600200C46102000BF0646A81922
:10159000A0420DD9324669460020AFF30080070013
:1015A00008BF00F0BFF90098A04218BF0546C41953
:1015B000FFF7C8FF05600746F01D20F00700461939
:1015C000284600F054F9B44208BFF8BDA21B3146CA
:1015D0003868BDE8F84000F051B970B50646FFF72D
:1015E000B1FF056806F10B0020F00704B4429CBF70
:1015F000002070BD2B466A68BAB11068A04210D3B3
:1016000004F1080188423CBF5068586007D3516814
:10161000101941601168091B016058601460101DA9
:1016200070BD13465268002AE7D121462846FFF7CD
:1016300091FF0028DED170BD2DE9F0410446164629
:101640000D464769007B80072ED03846FFF765FFBF
:1016500050BB3EB3012E02D0022E25D104E020461D
:1016600000F026F905441DE03846FFF764FFE16805
:10167000002841F01001E16005DA204600F058F83A
:101680000120BDE8F081C9030BD56268E16A91428F
:1016900000D81146A26911442269891A814200DDED
:1016A00008460544002D01DA0220EAE7E16A606895
:1016B000E268814206D29103E06203D522F4003150
:1016C00041F01002A6690027AE4213DCE16A8142B4
:1016D00001D90B4600E0034603EB060C2369ACEB93
:1016E000030CAC4506DD814201D98C4600E08446FE
:1016F0009C4505D1A760276042F02000A5620DE05F
:10170000AD1BE669AE1B8142A66000D90846C01A2F
:10171000281A20605819606022F020000349084010
:10172000E060002084F84870ABE70000BFCFD7FF2F
:10173000C16821F4001141F08001C1600021816085
:10174000016070472DE9F047814614460E464FF080
:10175000FF383248D5685769054209D03846A16933
:10176000FFF7E1FE002811DB2C48C0430540E5608F
:101770002B46324649463846FFF7C0FEA16920F0A5
:101780000042B21A11440028A16103D02046FFF79D
:10179000CFFF4046BDE8F08770B504460569C06AD2
:1017A0006168884200D80846E16821F42011E160B0
:1017B000C90312D5A84208D02246411B2846FFF78C
:1017C000C1FF10B14FF0FF3070BD0020E562C4E9E9
:1017D0000150E06820F48030E060002070BD10B55A
:1017E0000446C06820F02000E060A16AA069884239
:1017F0000DD02046FFF7D0FFE06820F4405040F0C5
:101800001000E060A06AA0612069E062606044F2BC
:101810004001E0688843E06010BD00001000020055
:10182000002801D000F01CB87047000010B5014638
:1018300002A000F05EF8012010BD0000534947529D
:10184000545245443A2052656469726563743A2083
:1018500063616E2774206F70656E3A20000000008F
:1018600001491820ABBEFEE72600020070470021A8
:101870000160C0E9011070471020704703464068BE
:101880008C46002818BF88423CBF03464068F8D306
:1018900018681844884207D00CF1030020F00700B4
:1018A000001D411A521A0146081D0A60FFF7DDBCEF
:1018B00010B50146C268900703D0900607D5886A24
:1018C0000AE000F05DF801210160881E10BD8B69FF
:1018D000486818440B69C01A91F848301BB191F858
:1018E0004910401A10BD1103FCD50028FADD401E36
:1018F00010BD70B505460C460A2000E06D1C00F0D6
:1019000037F835B128780028F8D102E0641C00F0DF
:101910002FF814B120780028F8D1BDE870400A20D3
:1019200000F026B810B500F02FF8BDE81040FFF722
:1019300077BF10B5431C02E010F8011B71B181079D
:10194000FAD14FF0013202C88C1A8C4314EAC2114A
:10195000F9D0C01A0A0603D0C01E10BDC01A10BDAF
:101960000A0401D0801E10BD0902FCD0401E10BD2B
:1019700008B569468DF800000320ABBE08BD000025
:10198000004870472C01002010B5012805D0002127
:1019900003A0FFF7AEFF012010BD09A1F8E700008A
:1019A00053494752544D454D3A204F7574206F6648
:1019B0002068656170206D656D6F727900000000B0
:1019C0003A2048656170206D656D6F727920636F94
:1019D000727275707465640000207047FEE7000045
:1019E00010B58AB0002040F28C140690CDE90400B6
:1019F000CDE90200CDE900000120C2F20004CDE9EA
:101A000007006946204600F051FB204600F080FCAC
:101A10000AB010BD70B540F21825C2F20005144698
:101A20000646E96000200821C5E90500E96185F85E
:101A3000200000BF304600F0A9FB0028FAD005F1D5
:101A40000C01304622462B4600F0DEFA002808BF83
:101A500070BDBDE8704000F009B8000041F2C4203C
:101A6000C2F2000000F0DEBC7047000072B600BF9A
:101A7000FEE7000070B581B00022009290F83C2093
:101A8000012A03D10221084601B070BDD1F800E05F
:101A90000122BEF10A0F80F83C200BD31FFA8EF210
:101AA0005200066812FA8EF2A2F11E0306F10C0231
:101AB00005E000BF06680EEB4E0306F110024FF082
:101AC000070C15680CFA03F4A54315608D681468BB
:101AD00005FA03F3234313604968062906D801EB8E
:101AE0008101053906F134020AE000BF0C2901EB3F
:101AF000810187BF413906F12C02233906F13002FA
:101B00001F2314688B4024EA030342F2043C136051
:101B1000C4F2010C1FFA8EF3146803FA01F1ACF55C
:101B2000417321439E4211603ED1BEF1120F07D195
:101B3000DCF8001041F48001CCF8001034E000BF64
:101B40002EF0010110292FD1DCF80010BEF1100F8A
:101B500041F40001CCF8001026D140F21401C2F289
:101B6000000109684DF68362C4F21B32A1FB021228
:101B7000910C01EB8101490000910099A1B10099FC
:101B800001390091009979B10099013900910099CA
:101B900051B1009901390091009929B10099013999
:101BA000009100990029EAD1002180F83C100846F4
:101BB00001B070BD0068C06C70470000002804BF11
:101BC0000120704710B50446006C00283ED0206C00
:101BD000C00645D4206C41F202118843023042F223
:101BE00004312064C4F20101086820F44030086028
:101BF0000A6894E809101A43D4F810E00A604168B2
:101C0000012321F4807141604168C0F6007341EA0C
:101C10000E214160416821F040714160416841EA14
:101C20000C014160816821F400618160E168826893
:101C300011438160A16A8268994222F070628260D9
:101C4000826813D122F0405119E000BF204600F015
:101C500065F80020606484F83C00206CC006B9D5AB
:101C60000120002184F83C1010BD00BF11438160A9
:101C7000816821F040518160E16A8268114381608E
:101C8000816821F0020181608168227E94F8203011
:101C900041EA42018160416883B141F400614160E1
:101CA00041684EF2000221F460414160616ACFF662
:101CB000FF72436802EB4131194301E021F40061F6
:101CC0004160C16A40F2000C21F47001C162E26916
:101CD0006169CFF6F07CC36A0CEB02521A43C26210
:101CE000826822F40072826094F83020836843EAAC
:101CF00042228260826822F480628260826842EAC4
:101D00008121816000206064216C012262F3010165
:101D10002164002184F83C1010BD000080B586B01D
:101D2000006842F20022C4F20102002190420591B3
:101D3000049117D042F20001C4F20101884239D166
:101D40000020009043F64400C4F20200016841F410
:101D500080710160006800F480700090009806B007
:101D600080BD00BF43F644000091C4F20200026847
:101D700042F480620260026802F480620092009A7B
:101D8000009150F8142C42F0200240F8142C50F826
:101D9000140C00F02000009000984FF48060019037
:101DA0000320CDE9020141F20040C4F2020001A982
:101DB00000F01AFD06B080BD70B5044600680D46FF
:101DC0008268520544BF80685FEAC05038D400F092
:101DD000EFFD21680A68920749D40646681C3CD08A
:101DE000DDB90868800721D5086880073FD40868F6
:101DF00080071BD50868800739D40868800715D587
:101E00000868800733D4086880070FD50868800702
:101E1000E7D52CE00868800729D400F0C9FD801BB5
:101E20002168A842F6D908688007F3D4206C40F0F6
:101E300004002064002084F83C00032070BD00BF33
:101E4000206C40F020002064002084F83C00012039
:101E500070BD00BF0868800709D40868800706D4F1
:101E6000086880075CBF08685FEA8070F2D56FF091
:101E700012000860206C40F400702064886810F044
:101E8000405F1CBF002070BD207E08B1002070BDE7
:101E9000C86A10F4700F02D088684005F6D4206C30
:101EA00020F480702064206CC004EFD4206C40F0DB
:101EB00001002064002070BD81B00021009190F8E5
:101EC0003C10012902BF022001B0704701220168C5
:101ED00080F83C208A68D20729D18A684DF683634E
:101EE00042F001028A6040F21402C2F2000212685B
:101EF000C4F21B33A2FB03239A0C02EB42020092B2
:101F0000009AA2B1009A013A0092009A7AB1009A1E
:101F1000013A0092009A52B1009A013A0092009A56
:101F20002AB1009A013A0092009A002AEAD18B68FD
:101F3000026CDB070AD142F010010164416C41F0F0
:101F400001014164002001B0704700BF40F20173FD
:101F50009A4302F5807202644A68520504D5026C05
:101F6000012363F30D320264026C0023D2044FF0AC
:101F7000000244BF426C22F0060242F2043C42647A
:101F800080F83C306FF02200C4F2010C0860DCF8ED
:101F90000000C0060ED0ACF541708142D2D14FF6A0
:101FA0000450CFF6FF705CF8000010F0405FC9D11C
:101FB00022E000BF42F20000C4F20100814217D0CB
:101FC00042F20020C4F2010081420DD042F2001022
:101FD000C4F201008142B5D1DCF80000C00607D090
:101FE000ACF582708142ADD1DCF80000C006A9D406
:101FF000886810F0405FA5D1886840F08040886014
:10200000002001B07047000010B590F820E0D0F833
:1020100000C0AEF1010EBEF1010FDCF808E00FD8F0
:102020001EF0E05F16D0CEF3016E012000FA0EF034
:1020300018608B68C3B1486843EAC00316E000BF6C
:1020400000F1240101204FF480220B681A430A603A
:1020500010BD00BF00F1240101204FF400120B68F5
:102060001A430A6010BD00BF08684305D1E90304A4
:1020700003430CEB0E10C0F88031C0F88441097D99
:10208000012905D100F5C2710B6843F480730B6020
:102090005168C0F88C11126800F5C071C0F8882131
:1020A000002001220B681A430A6010BDB0B590F8F9
:1020B0002020013A012A2FD846F20060C4F2000025
:1020C000026842F001020260026822F47C5202605F
:1020D000D1F814E0CC694A6A0368012C43EA022271
:1020E00002600EF01F024FF0010303FA02F2C3690F
:1020F0006FEA020C23EA0203C36113D02CBBC3684E
:1021000003EA0C03C360CB688C8844EA034300EB0A
:10211000CE0423640B4611E0416A41F48021416200
:102120000120B0BDC3681343C3600B688C8844EAC8
:10213000034300EBCE04236401F10C038C681B887D
:1021400043EA044300EBCE04636443688D6943EAC9
:102150000204D1F810E0096A002D08BF03EA0C045C
:1021600044604369BEF1000F43EA020408BF03EA7A
:102170000C040129446102D1C1691143C1610168A4
:1021800021F0010101600020B0BD000090F8201096
:102190000139012984BF0020704700688168826886
:1021A0008068C1F38061C2F3C0621144C0F3007063
:1021B00008447047B0B5C8B1044690F8200010B983
:1021C000204600F071F82068016841F001010160CB
:1021D00000F0EEFB054600BF20684168C90707D143
:1021E00000F0E6FB401B0B28F6D312E00120B0BD47
:1021F000016821F00201016000F0DAFB054600BF32
:102200002068416889070DD500F0D2FB401B0B28E0
:10221000F6D3606A052140F400306062012084F842
:102220002010B0BD217E0268012922F0800208BF83
:1022300080320260617E0268012922F0400208BFFC
:1022400040320260A17E0268012922F0200208BF0C
:1022500020320260E17E0268012922F0100218BFDC
:1022600010320260217F0268012922F0080208BFB3
:1022700008320260617F0268012922F0040208BF6F
:1022800004320260D4E901C2D4E9033561691A431A
:102290002A431143ACF101021143C1610020012125
:1022A000606284F82010B0BD80B586B0016846F247
:1022B0000040C4F20000814202D006B080BD00BFE1
:1022C000002143F630020191C4F20202136900F5C5
:1022D000D43043F000731361136903F0007301936A
:1022E000019B0191136843F00803136012680223F5
:1022F00002F008020192019ACDE90231092103227C
:10230000059101A90192049200F06EFA06B080BD19
:10231000B0B5044690F8200001281DD1022084F8B1
:1023200020002068016821F00101016000F040FBFD
:10233000054600BF20684068C00713D000F038FB96
:10234000401B0B28F6D3606A40F400306062052021
:1023500084F820000120B0BD606A40F40020606273
:102360000120B0BD00206062B0BD000070B5866D78
:10237000044600F01DFB94F8351002292ED10546C5
:102380002068216C026822F016020260426922F085
:102390008002426109B9A16C19B1016821F00801FC
:1023A0000160016821F0010101600068C00708D0E8
:1023B00000F0FEFA401B052818D820680068C00706
:1023C000F6D1E06D3F2101FA00F0B060012084F801
:1023D00035000020002184F8341070BD8020606535
:1023E0000120002184F8341070BD00BF20206065FA
:1023F000032084F83500002184F8341070BD0000FB
:1024000090F83510022909D1052180F835100068AF
:10241000016821F0010101600020704780214165C1
:1024200001207047F0B581B004460020009040F2D2
:102430001400C2F200000268D4E9166048F2B51335
:1024400037680821C1F64E3381403942A2FB03258B
:102450000CD0226813685B0708D5136823F00403C7
:102460001360B160616D41F001016165012181403E
:10247000394208D022685269120604D5B160616DF4
:1024800041F00201616504218140394208D022688F
:102490001268920704D5B160616D41F00401616575
:1024A00010218140394217D020680268120713D5E5
:1024B000B16002680168520308D4C90508D40168F4
:1024C00021F008010160216C21B905E0080343D423
:1024D000216C09B120468847E16D202000FA01F205
:1024E0003A4245D020680368DB0641D5B26094F8D3
:1024F00035300268052B1FD122F0160202604269B6
:1025000022F080024261226C0AB9A26C1AB1026800
:1025100022F0080202603F208840B060012084F869
:102520003500216D0020002984F8340058D0204661
:10253000884701B0F0BD00BF0168520310D4C9053F
:1025400012D4016821F010010160012084F83500E7
:10255000002084F8340007E0A16C0029BAD1BBE761
:10256000080301D4616C00E0E16B09B120468847A3
:10257000606DA8B3606DC0072ED0052084F83500CB
:102580002068A90A026822F001020260009A013262
:102590008A4200921AD80268D20717D0009A0132F4
:1025A0008A42009212D80268D2070FD0009A0132F4
:1025B0008A4200920AD80268D20707D0009A0132F4
:1025C0008A42009202D80268D207DFD1012084F843
:1025D0003500002084F83400E16C09B120468847BA
:1025E00001B0F0BD2DE9F041044600F0E1F9002C06
:1025F0004ED00546022084F835000020216884F87A
:102600003400086820F0010008600868C00708D09E
:1026100000F0CEF9401B05286CD821680868C00777
:10262000F6D1086848F23F02CFF21002D4E9013532
:10263000024004F10C0E9EE8C1511A432A43104394
:102640003043384340EA0800626A40EA0C00042A3A
:1026500040EA0E0320D1D4E90A5E206B4EEA030261
:10266000104308604869BEF1000F20F0030040EA03
:10267000050040F0040C15D0B8F5005F42D0B8F169
:10268000000F51D1022D52D0012D47D055B94EE047
:102690000120BDE8F08100BF0B60486920F0070011
:1026A00040EA020C6FF00F004AF6AB2250FA81F0BC
:1026B000CAF6AA22A0FB02231A0947F2F443C0F685
:1026C00000039A5C40F2FF335F284FF03F00C1F8EF
:1026D00014C021EA030100FA02F088BF0431C4E902
:1026E00016128860002301220020636584F83520DB
:1026F000BDE8F081032220230320636584F83520A0
:10270000BDE8F081032DCDD8012240230120DFE870
:1027100005F0030E030500BFE7E700BFAEF1C07090
:10272000B0FA80F0400904E0032D04D3BAD1CEF30F
:1027300000600028B6D0012240230120636584F8A0
:102740003520BDE8F081000070B590F834C0BCF1D0
:10275000010F46D04FF0010C80F834C0D0F858E09B
:1027600090F835C0BCF1010F38D14FF0020C80F861
:1027700035C04FF0000CC0F854C0D0F800C08468D9
:10278000056CC06DDCF80060402C26F48026CCF887
:102790000060CCF804300B4604BF13460A463F21C4
:1027A00001FA00F0CCF80830CCF80C20CEF8080084
:1027B000DCF8000040F01600CCF800002DB1DCF889
:1027C000000040F00800CCF80000DCF8000040F009
:1027D0000100CCF80000002070BD00BF002180F88F
:1027E0003410022070BD00002DE9F04F82B000F1DE
:1027F0003E4241F6004502F1FF77C4F2020508228D
:102800004FEAB726A84208BF0722072E38BF4FEA73
:10281000B7224FF0010A002400274FF00008009271
:1028200008E000BF023708F10108202F04F104047A
:1028300000F0B4800E680AFA08F916EA090FF1D020
:10284000D1F804A00AF0030BABF10106012E17D852
:102850000322866802FA07FECA6826EA0E06BA4014
:10286000324382604268CAF3001522EA090205FA7F
:1028700008F54FEA480C6FEA0E062A4342600BE067
:102880000322BA40D643BBF1030FBC4604D1BC4679
:102890004FF0030B22E000BFC2688D68324005FA9A
:1028A0000CF52A43BBF1020FC26017D16FF003028F
:1028B00002EA5802024404F01C030F25D2F820E07B
:1028C00005FA03FA0D692EEA0A0E05FA03F343EA44
:1028D0000E031362D1F804A00AF0030B02680BFA8E
:1028E0000CF332401A431AF4403F4FF0010A0260E1
:1028F00098D0002243F644030192C4F202031A68FE
:1029000043F6004E42F480421A601A68C4F2010E87
:1029100002F480420192019A28F003024FF6084C1B
:102920007244CFF6FF7C52F80C3004F00C060F25F1
:10293000B540AB43009D05FA06F6334342F80C3030
:10294000DEF808204B6842EA090643F60C4CDD022B
:1029500058BF22EA0906CEF80860C4F2010CDCF880
:1029600000209D0242EA090658BF22EA0906CCF877
:102970000060DEF804209D0342EA090658BF22EAFF
:102980000906CEF80460DEF80020DB0342EA0906FF
:1029900058BF22EA0906CEF8006043E702B0BDE85E
:1029A000F08F0000002A08BF090481617047000011
:1029B00041F67800C2F200000068704740F20C0057
:1029C00041F67801C2F20000C2F2000100780A6804
:1029D000104408607047000080B543F60040C4F220
:1029E0000200016841F400710160016841F48061F6
:1029F0000160016841F480710160032000F0BEF8BD
:102A00000F2000F005F800F061F8002080BD000004
:102A100070B586B0002543F640010195C4F202016D
:102A20000A68044642F010020A60096801A801F031
:102A3000100101910199694600F060F9049E002E91
:102A400018BF012600F07AF94DF68361B040C4F258
:102A50001B31A0FB01014FF0FF3000EB914141F22F
:102A6000243041F20002C2F20000C4F2000240F23F
:102A7000E733C0E90021C0E902530561856100F038
:102A80007BFB054610B1284606B070BD41F22430EC
:102A9000C2F2000000F0A0FB05460028F3D136206A
:102AA00000F030F80F2C0DD83620214600220025EA
:102AB00000F038F840F21000C2F20000046028462E
:102AC00006B070BD0125284606B070BD82B000205A
:102AD00043F640010190C4F202014A6842F4804288
:102AE0004A604A6802F480420192019A00900868A4
:102AF00040F080500860086800F080500090009816
:102B000002B07047002848BF704700F01F01012243
:102B100002FA01F14EF200124009CEF2000242F830
:102B20002010704710B54EF60C5CCEF2000CDCF8AD
:102B30000030C3F3022E8EF00704042C28BF0424B7
:102B4000BEF103034FF0FF3E0EFA04F438BF00233A
:102B5000A14399400EFA03F39A4300F00F03043B9C
:102B60001143634409010C3300F16042B0F1FF3FAF
:102B7000C8BF02F56443197010BD00004EF60C5139
:102B8000CEF200010A684FF6FF031A4060F30A22F2
:102B900042F0806040F0FD70086070472DE9F04120
:102BA000002800F08B8043F60808C4F202080446AF
:102BB000D8F8F8030D4600F00700884207D288F8DD
:102BC000F853D8F8F80300F00700A84276D120683F
:102BD000810717D5410705D5D8F8001041F4E05119
:102BE000C8F80010010705D5D8F8001041F460417D
:102BF000C8F80010D8F80010A26821F0F0011143C5
:102C0000C8F80010C0073FD1D8F8F80300F007005B
:102C1000A84207D988F8F853D8F8F80300F007005D
:102C2000A8424BD12068410707D5D8F80010E268C8
:102C300021F4E0511143C8F80010000708D5D8F876
:102C40000000216920F4604040EAC100C8F800009B
:102C500000F09CF8D8F8001047F2DC42C1F30311F1
:102C6000C0F60002515C40F2140220FA01F140F279
:102C70001000C2F200000068C2F200021160FFF70B
:102C8000C7FE0020BDE8F0816068811E022907D2DE
:102C900058F8081C89015CBF0120BDE8F08111E0F3
:102CA000012807D158F8081C89035CBF0120BDE842
:102CB000F08107E058F8081C890703D40120BDE81B
:102CC000F08100BFD8F8001021F003010843C8F8D4
:102CD0000000FFF76DFE064641F28837D8F8000085
:102CE000616800F00C00B0EB810F8DD0FFF760FE43
:102CF000801BB842F2D90320BDE8F0810F220260A8
:102D000043F60802C4F20202136803F003034360AF
:102D1000136803F0F0038360136803F4E053C360A7
:102D2000D2F800C04FF4E05303EADC030361D2F8A9
:102D3000F80300F0070008607047000040F214003C
:102D400043F60801C2F20000C4F2020100680968FB
:102D500047F2EC42C1F38221C0F60002515CC84048
:102D60007047000040F2140043F60801C2F2000070
:102D7000C4F202010068096847F2EC42C1F3423133
:102D8000C0F60002515CC8407047000010B543F621
:102D90000404C4F20204606800F00C0008280BD0A0
:102DA000042819BF42F20040C0F2F40041F600309E
:102DB000C0F2B70010BD00BF206821682368490237
:102DC00041F60031C0F2B70100F03F02C3F38810B2
:102DD0005CBF42F20041C0F2F401A1FB00010023FC
:102DE000FDF7AAFB21680222C1F3014102EB410178
:102DF000B0FBF1F010BD00002DE9F04182B00028D9
:102E00006AD00446007843F60006C007C4F2020602
:102E10000BD0B06800F00C00042840F0A1803068AE
:102E2000800302D56068002856D0207880071AD524
:102E3000B06810F00C0F09D0B06800F00C00082842
:102E400040F0A8807068400200F1A48030688007DC
:102E500002D5E06801283FD13068216920F0F800F0
:102E600040EAC10030602078000739D4207840075C
:102E70004ED4A5695DB3B06800F00C00082840F09E
:102E8000BD80012D28D07068E16900F480028A427B
:102E900022D1216A00F03F028A421DD147F6C0715B
:102EA000626A0140B1EB821F16D1A26A0023CFF6FD
:102EB000FF7303EBC23200F440316FF30F02914213
:102EC0000AD1E16A00F07060B0EB016F04D100201C
:102ED00002B0BDE8F08100BF012002B0BDE8F08182
:102EE0006069002840F20000C4F2472076D001213A
:102EF000C0F8801EFFF75CFD054600BF706F8007BD
:102F0000B4D4FFF755FD401B0228F7D9DDE000BF20
:102F1000306C10F080580AD100200190306C40F0E5
:102F200080503064306C00F080500190019847F27E
:102F30000007C4F200073868C00541D4386840F47F
:102F400080703860FFF734FD054600BF3868C00563
:102F500036D4FFF72DFD401B0228F7D9B5E000BF9E
:102F6000B06800F00C00082803D1706840023FF5FB
:102F700056AF6068B0F5803F07D0B0F5A02F40F0A5
:102F80008D80306840F480203060306840F48030BC
:102F900030608DE0E068002852D00020C4F2472065
:102FA00001210160FFF704FD054600BF306880077E
:102FB0003FF552AFFFF7FCFC401B0228F6D984E036
:102FC000A068012805D005284ED1306F40F00400DC
:102FD0003067306F40F0010030674FE00021C0F8EB
:102FE000801EFFF7E5FC0546706F80077FF53EAF5A
:102FF000FFF7DEFC401B0228F6D966E00027C4F28A
:10300000472700203866FFF7D3FC022D05460BD179
:10301000306880015ED5FFF7CBFC401B02284FF0E3
:103020000300F5D954E700BF306880017FF54FAF4A
:10303000FFF7BEFC401B02284FF00300F4D947E71E
:103040000020C4F2472000210160FFF7B1FC0546D3
:10305000306880077FF507AFFFF7AAFC401B022806
:103060004FF00300F4D933E7316F002821F001015C
:103070003167316F21F0040131674DD0FFF798FCC3
:10308000054641F2883700BF306F800756D4FFF7FE
:103090008FFC401BB842F7D917E000BF3168002809
:1030A00021F480313160316821F4802131604FD0CA
:1030B000FFF77EFC054600BF306880033FF5B5AEE4
:1030C000FFF776FC401B6428F6D9032002B0BDE868
:1030D000F08100BF04F11C052FCD08430021CFF67D
:1030E000FF7140EA821001EBC3316FF30F0140EA38
:1030F00005600843706001203866FFF759FC0446FC
:10310000306880013FF5E3AEFFF752FC001B022858
:103110004FF00300F4D9DBE6FFF74AFC054641F225
:10312000883700BF306F800708D5FFF741FC401B90
:10313000B8424FF00300F5D9CAE600BFB8F1000F5E
:103140007FF497AE306C20F08050306491E600BF81
:10315000FFF72EFC054600BF306880037FF565AEA3
:10316000FFF726FC401B64284FF00300F4D9AFE6BC
:103170007047000070470000002804BF012070471E
:1031800010B5044690F83D0028B9002084F83C00B2
:10319000204600F01FF8022084F83D002068211D21
:1031A00000F010FF012084F8460084F83E0084F807
:1031B0003F0084F8400084F8410084F8420084F81D
:1031C000430084F8440084F8450084F83D00002062
:1031D00010BD00007047000090F83D1001291CBF91
:1031E00001207047022180F83D10006841F2FF7213
:1031F000C168C4F20002904241F00101C1600DDCDF
:1032000040F2FF71C4F20001884215DCB0F1804F3A
:103210002AD040F20041C4F2000123E040F2FF3125
:10322000C4F20101884213DC41F60001C4F200013E
:10323000884219D0002113E040F60001C4F20001D9
:10324000884211D040F60041C4F200010AE000BFFC
:1032500044F20001C4F20101884205D040F200416D
:10326000C4F20101884206D1816801F007010629F4
:1032700004BF00207047016841F001010160002097
:103280007047000070470000B0B504460068C16890
:10329000026902EA0105A90720D4680734D4280787
:1032A0004AD4E80660D4E80777D1280600F17F8089
:1032B000680606D520686FF040010161204600F0E5
:1032C0008FF8A80658BFB0BD21686FF020022046D5
:1032D0000A61BDE8B040FFF74DBF00BF6FF00201CB
:1032E0000161012121778069800703D02046FFF723
:1032F000C9FF05E0204600F065F8204600F064F8BC
:10330000002020776807CAD520686FF004010161AA
:1033100002212177806910F4407F03D02046FFF717
:10332000B1FF05E0204600F04DF8204600F04CF8D3
:10333000002020772807B4D520686FF008010161CC
:1033400004212177C069800704D02046FFF79AFF47
:1033500006E000BF204600F035F8204600F034F8C3
:1033600000202077E8069ED520686FF010010161EB
:1033700008212177C06910F4407F03D02046FFF771
:1033800081FF05E0204600F01DF8204600F01CF803
:1033900000202077E8073FF488AF20686FF0010134
:1033A0000161204600F012F828067FF581AF206801
:1033B0006FF0800101612046FFF7DAFE68067FF5B5
:1033C00080AF77E77047000070470000006841F267
:1033D0000001C4F20001884208BFFFF7EFBA70474E
:1033E000704700007047000070470000B0B582B021
:1033F000056804462968EA68686901F02F03202BF4
:1034000002F0200306D12BB1204602B0BDE8B04047
:1034100001F048B85FEA017C1EBF00F0010E02F423
:10342000907010EB0E002FD1236B02EA0100C10651
:1034300018D5012B16D100200190286801906868EA
:10344000019001986869400628D4A08DE18DE28D35
:10345000002A1CBF411A5FEA014040F0D78102B048
:10346000B0BD00BF010600F1D3804006F7D5E86883
:10347000202120F04000E860204684F8411002B08E
:10348000BDE8B04000F004BDC80718BF12F480705A
:1034900040F0D280480700F1D580DAE0E06B0168A7
:1034A0004A6893B2002BDAD0A18D8B42D7D2E28545
:1034B000C069B0F5807F00F0A08055E8030F216857
:1034C00020F4807041E80302F2B1206850E8030F55
:1034D000216820F4807041E80302AAB1206850E816
:1034E000030F216820F4807041E8030262B1206874
:1034F00050E8030F216820F4807041E803021AB1FC
:10350000206850E8030FDAE7206850E8050F2168CB
:1035100020F0010041E80502BAB3206850E8050F29
:10352000216820F0010041E8050272B3206850E8EC
:10353000050F216820F0010041E805022AB3206848
:1035400050E8050F216820F0010041E80502002A3B
:10355000DAD11AE0206850E8050F216820F0400019
:1035600041E80502DAB1206850E8050F216820F033
:10357000400041E8050292B1206850E8050F21683B
:1035800020F0400041E805024AB1206850E8050FEC
:10359000216820F0400041E80502002ADAD120200D
:1035A00084F8420000202063206850E8030F21685F
:1035B00020F0100041E80302DAB1206850E8030F60
:1035C000216820F0100041E8030292B1206850E821
:1035D000030F216820F0100041E803024AB120687F
:1035E00050E8030F216820F0100041E80302002A90
:1035F000DAD1E06BFEF7BAFEA18D02206063E08DA8
:10360000081A81B2204602B0BDE8B040FFF7EABE1A
:1036100094F8410021287FF422AFA068B0F5805FC4
:1036200003D12069002800F08981206A411C2162B1
:103630000078686089E100BF606C40F00100606460
:10364000480706D5BEF1000F03D0606C40F00200C1
:103650006064880706D5BEF1000F03D0606C40F0AF
:1036600004006064BCF1000F06D55EEA030003D0DD
:10367000606C40F008006064606C00283FF4EFAEBE
:1036800002EA0100800603D5204600F00BFF256802
:103690006869616C00F0400001F00801401800F01A
:1036A000AD8055E8030F00BF216820F4907041E819
:1036B0000302D2B3206850E8030F216820F4907011
:1036C00041E803028AB3206850E8030F216820F420
:1036D000907041E8030242B3206850E8030F21686C
:1036E00020F4907041E80302FAB1206850E8030F1B
:1036F000DAE700BF206850E8050F216820F00100DC
:1037000041E80502DAB1206850E8050F216820F091
:10371000010041E8050292B1206850E8050F2168D8
:1037200020F0010041E805024AB1206850E8050F89
:10373000216820F0010041E80502002ADAD1206B5F
:10374000012824D1206850E8030F216820F01000E0
:1037500041E80302DAB1206850E8030F216820F045
:10376000100041E8030292B1206850E8030F21687D
:1037700020F0100041E803024AB1206850E8030F2E
:10378000216820F0100041E80302002ADAD120204D
:1037900084F842000020206320684169490640F116
:1037A000C78050E8050F216820F0400041E805027D
:1037B000002A00F0AB80206850E8050F216820F057
:1037C000400041E80502002A00F0A080206850E88F
:1037D000050F216820F0400041E80502002A00F0B2
:1037E0009580206850E8050F216820F0400041E8EE
:1037F0000502002A00F08A802068D2E72046FFF701
:10380000F3FD0020606402B0B0BD00BF55E8030FB7
:10381000226820F4907042E80303D3B3206850E894
:10382000030F226820F4907042E803038BB32068F2
:1038300050E8030F226820F4907042E8030343B37A
:10384000206850E8030F226820F4907042E80303D8
:10385000FBB1206850E8030FDAE700BF206850E8AA
:10386000050F226820F0010042E80503DBB1206863
:1038700050E8050F226820F0010042E8050393B1EB
:10388000206850E8050F226820F0010042E8050397
:103890004BB1206850E8050F226820F0010042E893
:1038A0000503002BDAD1202084F842000020206399
:1038B000206850E8030F226820F0100042E803035C
:1038C000DBB1206850E8030F226820F0100042E8C6
:1038D000030393B1206850E8030F226820F0100022
:1038E00042E803034BB1206850E8030F226820F040
:1038F000100042E80303002BDAD1022289B22046ED
:10390000626302B0BDE8B040FFF76CBDE06B78B118
:1039100044F2A511C0F600010165FEF771FD002813
:103920003FF49DADE06B016D02B0BDE8B0400847CB
:10393000204602B0BDE8B040FFF756BD206A30F81F
:10394000021B6FF35F2169602062E08C0138010483
:10395000E0847FF484ADE86820F08000E860E868E7
:1039600040F04000E86002B0B0BD0000002804BF95
:103970000120704710B5044690F8410028B9002096
:1039800084F84000204600F021F8242084F841000B
:103990002068C16821F40051C160204600F004FE97
:1039A0002068016921F490410161416921F02A01F7
:1039B0004161C16841F40051C16000202021606470
:1039C00084F8411084F84210606310BD2DE9F04383
:1039D00087B00446006844F60001C4F200010026E6
:1039E0008842CDE90566CDE90366029654D041F2DE
:1039F0000041C4F20101884200F0A68041F20001BA
:103A0000C4F20101884240F0CA80002643F630002B
:103A10000196C4F202004169002441F010014161A5
:103A20004169C4F2020401F010010191019901966B
:103A3000016802AD41F00201016001684FF0020827
:103A400001F0020101910199019601684FF003090B
:103A500041F0010101600068072700F001000190BA
:103A600001988020029004F580602946CDE9038604
:103A7000CDF814900697FEF7B7FE4FF40070CDE92D
:103A8000020820462946CDE904690697FEF7ACFEF8
:103A900007B0BDE8F08300BF43F630000196C4F2E2
:103AA0000200016941F480210161016901F4802172
:103AB000019101990196016841F0040101600068DB
:103AC00002A900F00400019001984FF440600290B8
:103AD0000220CDE903060320059007200690002070
:103AE000C4F2020000F50060FEF77EFE41F2C4253C
:103AF00046F22800C2F20005C4F202004FF0006155
:103B000085E843004FF440304FF480624FF48073F7
:103B1000C5E908062846C5E90362C5E90566EB6103
:103B2000FEF760FD002818BFFDF7A0FF2720002149
:103B30000022E563AC63FEF7F5FF2720FEF7E2FF06
:103B400007B0BDE8F08300BF002043F630010190CC
:103B5000C4F202014A6942F020024A614A6902F055
:103B600020020192019A01900A6842F040020A6024
:103B7000096801F04001019101994FF484410291DB
:103B80000221CDE9031003200590082006900020B3
:103B9000C4F2020000F5C05002A9FEF725FE07B0EE
:103BA000BDE8F08370B582B0044690F8420020284A
:103BB0000AD113460A4600294FF0010018BF002B16
:103BC00006D102B070BD00BF022002B070BD00BFC0
:103BD000002622202663A262A385666484F8420040
:103BE0002168E06B44F22D3C44F28D4E44F2B11555
:103BF000C0F6000CC0F6000EC0F600050431C0E9A6
:103C00000FCEC0E91356FEF79FFD019620680168AC
:103C10000191416801910199216929B350E8030F8D
:103C2000216840F4807041E80302EAB1206850E85E
:103C3000030F216840F4807041E80302A2B12068BC
:103C400050E8030F216840F4807041E803025AB144
:103C5000206850E8030F216840F4807041E80302B7
:103C600012B12068DAE700BF206850E8050F21682C
:103C700040F0010041E80502BAB3206850E8050FA2
:103C8000216840F0010041E8050272B3206850E865
:103C9000050F216840F0010041E805022AB32068C1
:103CA00050E8050F216840F0010041E80502002AB4
:103CB000DAD11AE0206850E8050F216840F0400092
:103CC00041E80502DAB1206850E8050F216840F0AC
:103CD000400041E8050292B1206850E8050F2168D4
:103CE00040F0400041E805024AB1206850E8050F65
:103CF000216840F0400041E80502002ADAD10020A6
:103D000002B070BD70470000704700002DE9F0411F
:103D1000044690F8410020281CBF0220BDE8F08135
:103D20000F4600294FF0010000F0B0801646002A2F
:103D300008BFBDE8F0814FF0000821201D46C4F8FF
:103D4000448084F84100FEF733FEA684E684A1682F
:103D50000646B1F5805F05D12069002814BF3846BA
:103D6000B8460746E08CC8B1681C19D0002D5FD159
:103D700020680AE038F8021B00276FF35F214160DA
:103D8000E18C0139E184E18C51B3016809066FD5FA
:103D9000002FEFD017F8011BF1E700BF20681FE0EC
:103DA000206802E00168090609D4016809065FBFBE
:103DB00001685FEA016101685FEA0161F2D51FB144
:103DC00017F8011B05E000BF38F8021B00276FF34E
:103DD0005F214160E18C0139E184E18C0029E4D16B
:103DE0000168490611D4002D4AD0691C19D100BFC1
:103DF000016849065FBF01685FEA416101685FEAE7
:103E0000416102D401684906F2D5202084F84100BE
:103E10000020BDE8F08100BF2068C168006840064E
:103E2000F3D4FEF7C5FD801BA842F5D92AE000BFF8
:103E3000206800BF0168090608D4FEF7B9FD801BA1
:103E4000A84217D82068C168F4E700BF17B117F877
:103E5000011B04E038F8021B00276FF35F2141606B
:103E6000E18C0139E184E18C0029E3D1B8E700BF9E
:103E7000FEF79EFD202084F841000320BDE8F0817C
:103E8000FEF796FD202084F841000320BDE8F08174
:103E900070470000FEE7000000F030BDFEE70000C4
:103EA0000B46014640F21C0240F28C10C2F20002A6
:103EB000C2F200005360FDF7ADBD0000014640F2C4
:103EC0008C1040F22402C2F20000C2F20002FDF7A0
:103ED000A1BD0000FEE7000041F2B430C2F20000D4
:103EE00003683222D96841F0100C40F2FC11C2F292
:103EF00000010131C3F80CC0FFF754BEB0B592B059
:103F0000002443F64000CDE90A44CDE90844059475
:103F1000CDE90344CDE901440094C4F202000168F4
:103F2000022541F080510160006800F0805000904F
:103F3000009847F200000094C4F20000016841F4C8
:103F400080410160006800F48040009000980120EA
:103F500006904FF4803007904FF480000D900620BB
:103F60000E90A820CDE90F050420119006A80C950D
:103F7000FEF742FF10B172B6FEE700BF0F20CDE999
:103F800001054FF4A05004904FF48050059001A813
:103F900005210394FEF702FE10B172B6FEE700BFE2
:103FA00012B0B0BD4EF68850CEF20000016841F468
:103FB000700101607047000041F22430C2F200003D
:103FC000FFF762B910B540F6FF3E0368C4F2000E79
:103FD00040F2004C7045C4F2010C27DCB0F1804F78
:103FE00031D040F20042C4F2000290422BD040F6A1
:103FF0000002C4F20002904225D041F6FF72C4F2E2
:104000000002904229DC70453CDCB0F1804F5FD06B
:1040100040F20042C4F20002904259D040F6000241
:10402000C4F20002904253D056E000BF40F6004276
:10403000C4F20002904206D0604504D00022C4F2CF
:1040400001029042D9D14A6823F07003134341F62C
:10405000FF72C4F200029042D5DD43F6FF72C4F253
:104060000102904222DC42F20002C4F200029042BD
:104070002ED00022C4F20102904229D0604527D000
:104080002AE000BF40F60042C4F2000290421FD076
:1040900041F60002C4F20002904219D041F60042FB
:1040A000C4F20002904213D016E000BF44F20002B6
:1040B000C4F2010290420BD044F60002C4F20102A5
:1040C000904205D044F20042C4F20102904203D172
:1040D000CA6823F44073134323F080024B69D1F87C
:1040E00000E08C681A430260C46240F48062C0F849
:1040F00028E0624504BF096901630121416101694A
:10410000C90708BF10BD016921F00101016110BD9F
:10411000F0B587B040F2FE50C2F200004FF480616B
:104120001E2201F021FD40F2FC204FF40077C2F284
:104130000000CDE9000740F2FC4046F2D562B02411
:1041400001250026C2F2000012A1C0F600020023E1
:10415000CDE90255CDE90465069402F0F5F9042095
:1041600040F6FE11C2F20001CDE9020040F6004027
:1041700046F6BD22CDE90017C2F2000007A1C0F645
:1041800000020023CDE90465069402F0DDF907B0D2
:10419000F0BD00BF4368617373697300566F6C7440
:1041A00061676500806B0021C185C184FFF71CB980
:1041B000806B01684A6990F84130212B2ED112F0B2
:1041C00080022BD00022C28451E8031F026821F034
:1041D000C00142E80313EBB1016851E8031F026814
:1041E00021F0C00142E80313A3B1016851E8031FA5
:1041F000026821F0C00142E803135BB1016851E895
:10420000031F026821F0C00142E8031313B10168E3
:10421000DAE700BF202180F8411001684A6990F870
:104220004230222B7CD112F0400279D00022C2858C
:1042300051E8031F026821F4907142E80313C3B3ED
:10424000016851E8031F026821F4907142E80313EA
:104250007BB3016851E8031F026821F4907142E8C2
:10426000031333B3016851E8031F026821F490710E
:1042700042E80313EBB10168DAE700BF016851E8D7
:10428000051F026821F0010142E80513DBB1016856
:1042900051E8051F026821F0010142E8051393B1BE
:1042A000016851E8051F026821F0010142E8051389
:1042B0004BB1016851E8051F026821F0010142E895
:1042C0000513002BDAD1016B012924D1016851E8D3
:1042D000031F026821F0100142E80313DBB10168FB
:1042E00051E8031F026821F0100142E8031393B163
:1042F000016851E8031F026821F0100142E803132E
:104300004BB1016851E8031F026821F0100142E837
:104310000313002BDAD1202180F842100021016321
:10432000416C41F010014164FFF75EB80168806B99
:104330000968C90500F19F800021C185016851E825
:10434000031F026821F4807142E80313E3B101689E
:1043500051E8031F026821F4807142E803139BB106
:10436000016851E8031F026821F4807142E80313D9
:1043700053B1016851E8031F026821F4807142E8DB
:104380000313002BDAD100BF016851E8051F026852
:1043900021F0010142E80513BBB3016851E8051F94
:1043A000026821F0010142E8051373B3016851E886
:1043B000051F026821F0010142E805132BB30168D3
:1043C00051E8051F026821F0010142E80513002BA6
:1043D000DAD11AE0016851E8051F026821F04001B6
:1043E00042E80513DBB1016851E8051F026821F0BE
:1043F000400142E8051393B1016851E8051F0268C6
:1044000021F0400142E805134BB1016851E8051F56
:10441000026821F0400142E80513002BDAD1202187
:1044200080F84210016B012925D100BF016851E8D5
:10443000031F026821F0100142E80313DBB1016899
:1044400051E8031F026821F0100142E8031393B101
:10445000016851E8031F026821F0100142E80313CC
:104460004BB1016851E8031F026821F0100142E8D6
:104470000313002BDAD100214163016B012918BF1E
:10448000FFF740BC818DFEF7ADBF0000806B0121BE
:104490004163016B012918BFFFF736BC818D4908C4
:1044A000FEF7A0BF81B090F84210222920D1836886
:1044B000B3F5805F08D10169002957D000F12801C8
:1044C0000A6803685B680AE0014651F8282F13B9AF
:1044D0000369002BF5D003685B6803F07F0313705A
:1044E0000A6801320A60C18D01390A04C18501D010
:1044F00001B070470168CA6822F02002CA60CA6829
:1045000022F48072CA604A6922F001024A612022C4
:1045100080F8422000224263036B012B30D10263FA
:1045200051E8031F026821F0100142E803135BB356
:10453000016851E8031F026821F0100142E80313EB
:1045400013B3016851E8031F026821F0100142E82B
:104550000313CBB1016851E8031F026821F0100179
:1045600042E8031383B10168DAE700BF0168826A99
:1045700049686FF35F2122F8021B8262B3E700BF34
:1045800001B0FFF7BFBB00BF01680A68D20606D5BD
:10459000002200920A680092496800910099818D7A
:1045A00001B0FEF71FBF000010B504460068D4E953
:1045B00002C22369016921F440511143016162691A
:1045C00043EA0C01E3691143C268194349F20C63E1
:1045D0009A431143C1604169A26921F4407141F2DB
:1045E0000043114340F48062C4F201039A424161E6
:1045F00002D1FEF7B7FB01E0FEF7A0FBE1696368BB
:104600001922B1F5004FA0FB02011FD15A00DB0FA8
:10461000FBF792FF48F21F51C5F2EB11A0FB0123FB
:104620005A096FF0630302FB0300322303EBC0005F
:10463000A0FB01014FF4F87000EA111000EB02102A
:10464000C1F3421122680843906010BD9A009B0F8D
:10465000FBF772FF48F21F51C5F2EB11A0FB0123DB
:104660005A096FF0630302FB0300322303EB0010CF
:10467000A0FB0101F02000EA511000EB0210C1F391
:10468000431122680843906010BD000041F2B4302D
:10469000C2F20000FEF7AABEFEE7000010B541F22C
:1046A0007C24C2F200042046FDF706FC20460A21C5
:1046B000FDF782FB2046FDF77DFA80B200EE100A7E
:1046C00041F67C00C2F2000090ED001AB8EEC00A7C
:1046D0009FED032A21EE000A20EE020A10BD00BF62
:1046E000BC742141B0B52DED028B9FED168A40F2CE
:1046F000B4140025C2F200042046FDF7DDFB20467D
:104700000A21FDF759FB2046FDF754FA80B200EE6E
:10471000100AB8EE400A38EE000ABCEEC00AC72DF7
:1047200005F10105B8EE408AE6D39FED070A41F690
:104730007C0080EE080AC2F2000080ED000ABDECA9
:10474000028BB0BD00000000010070432DE9F04174
:1047500082B00F4634211E4614460546FCF7CCF8BD
:1047600026F00306A6F10800A8600220E860A01960
:104770006F60C5E90646C5E9044440F8084D456048
:1047800020604EF6EE60CFF6FF70214641F8040F30
:1047900045F245404FF0000CC4F2592040F27C2E07
:1047A0000191C5F820C0EFF3108872B62860C2F2FC
:1047B000000EDEF8001040F27822C2F2000229B1A9
:1047C0001368186B1D6300F12C0201E02B4628468C
:1047D0001560C5E90B30481CCEF8000008202946BA
:1047E0003A463346CDF800C001F052FC40F2F820C2
:1047F000C2F200000168002945D041F26C22C2F2E9
:104800000002127852073ED540F21802C2F20002AE
:104810001268EFF30583134340F28822C2F20002CC
:1048200012680BD01B09B3F10F3F39BF13464FF08D
:10483000FF324FF0F032002306E000BFD36AD76B9F
:1048400043EA074343F00043C1E9002315228A608D
:1048500041F20402CEF20002126801ABC1E9032565
:1048600040F2F422C2F20002176801F12002BA42BB
:10487000C1E90546CB610DD240F2E421C2F200014C
:10488000096802600A6288F31088002002B0BDE85F
:10489000F08100BF40F2F021C2F200010A6841F24B
:1048A0007021026040F2E420C2F20001C2F2000076
:1048B0000968006800290262E5D0884788F31088FB
:1048C000002002B0BDE8F08180B501F0D5FB00F01A
:1048D00055F900F0FFFF40F25820C2F2000000211D
:1048E000C0E90011C0E90211C0E90411C0E90611D4
:1048F000C0E90811C0E90A1180BD000010B540F2FE
:104900001804C2F20004206810F10F3F0DD04FF0E0
:10491000F0302060FBF7DCFCFFF7D6FF40F2A02070
:10492000C2F200000168013101604FF0F0302060F8
:1049300040F6B040C2F20000006802F093F8002098
:104940002060BDE81040FBF70BBD00002DE9F04FE3
:1049500081B0DDE90A5716468846DDF838B00446CE
:1049600028463946EF229A46FBF7BEFF381F20F053
:104970000307E81C20F003092046B021A94518BF11
:10498000043FFBF7B9FF07EB090101390C9DC4E9AE
:1049900003910D9920208D422946C4F82880C4E94E
:1049A000116AE562C4E9057BC4F81CB018BF002198
:1049B000C4F89C000320206345F67900E163C4E954
:1049C0002551C0F6000044F6B931C4E91504C0F61B
:1049D00000012046FBF72CFDA06840F29822C4F8A5
:1049E000A80045F24420C5F24840EFF3108B72B6A0
:1049F000206040F29C20C2F200000168C2F2000276
:104A000041B11368D3F88C60C3F88C4006F188027A
:104A100002E000BF234626460131DDF83CA01460C9
:104A2000C4E9223601600120214642464B460097E8
:104A300001F02EFB40F2F820C2F2000001680029CC
:104A400059D041F26C22C2F200025278D20752D001
:104A500040F21802C2F200021268EFF3058313431A
:104A600040F28822C2F2000212680BD01B09B3F197
:104A70000F3F39BF13464FF0FF324FF0F0320023A3
:104A800006E000BFD36AD66B43EA064343F0004317
:104A9000C1E9002364228A6041F20402CEF20002DE
:104AA000126801F10C0383E8340240F2F422C2F2EE
:104AB0000002136801F120029A42CF6108D240F24D
:104AC000E421C2F20001096802600A6213E000BF3B
:104AD00040F2F021C2F200010A6841F27021026046
:104AE00040F2E420C2F20001C2F20000096800684E
:104AF000026201B1884740F2A020C2F200000168C2
:104B0000BAF1010F01F10101016019D140F2180061
:104B1000C2F200000068EFF305810843B0F1F03FF6
:104B20004FF000061CD340F28C20C2F20000006857
:104B30000027B0B1C16AC66B0746C16311E000BF70
:104B40008BF31088EFF3108172B60268013A0260AD
:104B500081F3108800F09EF9002001B0BDE8F08FCD
:104B600000278BF31088204600F0F4F9002F18BFBF
:104B7000FE63002001B0BDE8F08F0000B0B540F248
:104B80008824C2F2000400252020C4E9025040F627
:104B9000B440C2F200008021C4E90055FBF7ACFE2E
:104BA000C4E90455A561606AE56140F08D7040F488
:104BB000807025626062B0BD10B540F28820C2F2FC
:104BC00000000468D4E91110884740F2A420C2F222
:104BD0000000016809B1204688470121EFF31080E9
:104BE00072B62163A1630021E16440F2A021C2F208
:104BF00000010A6801320A6080F31088EFF3148024
:104C000020F0040080F314882046BDE8104000F036
:104C10005FBB0000F0B581B040F28822EFF3108650
:104C200072B6C2F20002146874B140F21803C2F204
:104C3000000305461868EFF3058108430AD086F3A0
:104C40001088132001B0F0BD86F31088132001B046
:104C5000F0BD00BF40F6B850C2F2000084420BD055
:104C600085B140F2A027C2F20007386880B186F310
:104C70001088132001B0F0BD86F31088132001B016
:104C8000F0BD00BF86F31088002001B0F0BD00BF6A
:104C900040F2F82CC2F2000CDCF80010002955D0CC
:104CA00041F26C20C2F200004078C0074ED0186874
:104CB000EFF30583126803430AD01809B0F10F3FE0
:104CC00039BF13464FF0FF324FF0F032002305E0BA
:104CD000D06AD36B40EA034040F000437020886004
:104CE00041F20400C1E90023CEF20000006801F1A6
:104CF0002002C860206BC1E904506846886140F218
:104D0000F420C2F20000006882424FF00000C86147
:104D100008D240F2E420C2F200000068CCF8002083
:104D2000026213E040F2F020C2F2000041F2702172
:104D3000026840F2E420C2F20001C2F200000968F9
:104D40000068CCF80020026201B18847042020638B
:104D50000120A0630020C4F88400E56438680130B5
:104D6000386086F31088204600F0B2FAD4F8840048
:104D700001B0F0BDB0B5EFF3108E72B6002875D05B
:104D8000016845F2442CC5F2484C61456ED1C368B8
:104D9000002B6BD0D0F8A810002967D08EF31088B4
:104DA0006FF0030ECA1A95100EEA62029C581A445C
:104DB000B4F1EF340CBF13461146032D26D9CA1A9D
:104DC00095100EEA62029C581A44B4F1EF340CBFFD
:104DD00013461146042D19D3CA1A95100EEA620221
:104DE0009C581A44B4F1EF340CBF13461146042DFD
:104DF0000CD3CA1A95100EEA62029C581A44B4F1F8
:104E0000EF340CBF13461146032DCBD8B4FA84F10E
:104E10004909C1B1083200BF52F8041CB1F1EF3F9B
:104E20000ED11168B1F1EF3F0DD15168B1F1EF3FF3
:104E300008D191681032B1F1EF3FEDD0083A02E0AD
:104E4000043A00E00432EFF3108E72B60168614557
:104E50000CD1C1688A4209D9D0F8A8108A4205D27B
:104E60001168B1F1EF3F18BFC0F8A8208EF3108889
:104E7000B0BD000010B540F2A821EFF3108472B667
:104E8000C2F200010968002918BF884784F310881E
:104E900010BD000010B540F2A020C2F20000006872
:104EA00000B110BD40F2882040F28C21C2F2000017
:104EB000C2F2000100680C68A042F2D0EFF310804B
:104EC00072B694B3216845F24422C5F24842914239
:104ED0002BD1A268D4F8A810914284BFC4F8A820AE
:104EE0001146E2681368B3F1EF3F07D12369D3F8A5
:104EF0000130B3F1EF3F01D1914209D280F3108824
:104F00002046FFF7B7FFEFF3108072B6D4F8A81071
:104F100051F8041CB1F1EF3F07D080F31088204610
:104F2000FFF728FFEFF3108072B680F310884EF67B
:104F30000450CEF200004FF080510160EFF3058085
:104F4000002818BF10BDEFF3108062B680F3108800
:104F500010BD00002DE9F04F81B0044645F2442811
:104F6000EFF3108072B6C5F2484874B3216841452A
:104F70002BD1A268D4F8A810914284BFC4F8A8200D
:104F80001146E2681368B3F1EF3F07D12369D3F804
:104F90000130B3F1EF3F01D1914209D280F3108883
:104FA0002046FFF767FFEFF3108072B6D4F8A81021
:104FB00051F8041CB1F1EF3F07D080F31088204670
:104FC000FFF7D8FEEFF3108072B680F31088EFF38E
:104FD000108772B6606E002804F14C0002D000F019
:104FE00005FD01E00021016040F2F820C2F200005E
:104FF000056840F2882A40F28C29C2F2000AC2F207
:105000000009EDB141F26C21C2F200010978C90733
:1050100051D040F21801C2F200010968EFF3058295
:105020000A43DAF800100DD01209B2F10F3F39BF70
:105030000A464FF0FF314FF0F031002208E000BF88
:10504000002039E0CA6ACB6B42EA034242F00042D8
:10505000C5E900120121A96041F20401CEF200016C
:105060000968D9F80020E960216BC5E90441694667
:10507000C5E9061240F2F421C2F20001096805F107
:1050800020028A4240F2E421C2F2000104D20968FF
:1050900002600A620FE000BF40F2F022C2F200029A
:1050A0001368036041F27020C2F2000002680868D1
:1050B000036202B19047E86840F2A026C2F20006FF
:1050C000316801393160A26B216B4AB10139022983
:1050D0000ED3616B41B90021A163216308E000BFD9
:1050E00031B1616B002961D0002103222263616329
:1050F0002DB1E968884204BFD9F80000E861DAF808
:10510000000087F31088D9F80040A04236D0EFF3B2
:10511000108072B674B3216841452BD1A268D4F8CF
:10512000A810914284BFC4F8A8201146E268136811
:10513000B3F1EF3F07D12369D3F80130B3F1EF3F6B
:1051400001D1914209D280F310882046FFF792FEE8
:10515000EFF3108072B6D4F8A81051F8041CB1F126
:10516000EF3F07D080F310882046FFF703FEEFF3F0
:10517000108072B680F31088306818B101B0BDE8B5
:10518000F08F00BF4EF60450CEF200004FF0805179
:105190000160EFF305800028F0D1EFF3108062B6D4
:1051A00080F3108801B0BDE8F08F00BFE16A40F6DF
:1051B000B44CC2F2000C5CF82120002323632AB116
:1051C000516A54620C62C4E9082191E74CF821400D
:1051D00040F2902E40F2942C0122C2F2000EC2F254
:1051E000000C02FA01FBDEF80020DCF8003042EA95
:1051F0000B029942C4E90844CEF80020BFF478AF0E
:10520000D9F80030CCF80010002B00935CD0DA6B9A
:105210009142BFF46DAFC9F800401DB1E968884202
:1052200008BFEC6187F31088D9F80040EFF31080D5
:1052300072B674B3216841452BD1A268D4F8A81086
:10524000914284BFC4F8A8201146E2681368B3F104
:10525000EF3F07D12369D3F80130B3F1EF3F01D11C
:10526000914209D280F310882046FFF703FEEFF346
:10527000108072B6D4F8A81051F8041CB1F1EF3FB9
:1052800007D080F310882046FFF774FDEFF31080FD
:1052900072B680F31088306800287FF46FAF4EF646
:1052A0000450CEF200004FF080510160EFF3058012
:1052B00000287FF463AFEFF3108062B680F31088AC
:1052C00001B0BDE8F08F00BFC9F8004010E7000052
:1052D0002DE9F04F81B040F2882AC2F2000A04465C
:1052E000DAF80060EFF3108072B694B3216845F2EB
:1052F0004422C5F2484291422BD1A268D4F8A810AA
:10530000914284BFC4F8A8201146E2681368B3F143
:10531000EF3F07D12369D3F80130B3F1EF3F01D15B
:10532000914209D280F310882046FFF7A3FDEFF3E6
:10533000108072B6D4F8A81051F8041CB1F1EF3FF8
:1053400007D080F310882046FFF714FDEFF310809C
:1053500072B680F31088EFF3108772B6A6420DD1B3
:10536000204650F84C1F0131022928BF00F010FBE5
:10537000E06940F2B421C2F20001086040F2A028C6
:10538000C2F20008D8F8000040F28C290138C8F8B1
:105390000000A06BC2F20009012840F0818040F2B9
:1053A000F820C2F2000005684FF0000BE5B141F2B1
:1053B0006C21C2F200010978C90752D040F21801ED
:1053C000C2F200010968EFF305820A43DAF800101F
:1053D0000ED01209B2F10F3F39BF0A464FF0FF312C
:1053E0004FF0F031002209E04FF0000C3BE000BF2D
:1053F000CA6ACB6B42EA034242F00042C5E900129E
:105400000221A96041F20401CEF200010968D9F835
:105410000020E960216BC5E904416946C5E906122F
:1054200040F2F421C2F20001096805F120028A422B
:1054300040F2E421C2F2000104D2096802600A626B
:105440000FE000BF40F2F022C2F2000213680360D6
:1054500041F27020C2F2000002680868036202B1E3
:105460009047D5F80CC0226AE16AA242C4F838B06D
:1054700000915BD0636A53621A6240F6B443C2F291
:10548000000353F82100A04208BF43F82120D9F8B7
:105490000010A1426CD01DB1E868844508BFE961E5
:1054A00087F31088D9F80040A6423CD0EFF3108073
:1054B00072B694B3216845F24422C5F24842914243
:1054C0002BD1A268D4F8A810914284BFC4F8A820B8
:1054D0001146E2681368B3F1EF3F07D12369D3F8AF
:1054E0000130B3F1EF3F01D1914209D280F310882E
:1054F0002046FFF7BFFCEFF3108072B6D4F8A81077
:1055000051F8041CB1F1EF3F07D080F3108820461A
:10551000FFF730FCEFF3108072B680F31088D8F8F4
:105520000000002850D001B0BDE8F08F40F6B44034
:1055300040F29023C2F200004FF0000EC2F20003CE
:1055400040F821E001201A68884022EA0001002981
:1055500019604DD091FAA1F040F29421C2F20001FD
:10556000B0FA80F00860D9F80010A1427FF493AF40
:1055700040F29420C2F20000006840F6B441C2F24A
:10558000000151F82010C9F800101DB1E8688445E9
:1055900008BFE96187F31088D8F800000028C2D15D
:1055A0004EF60450CEF200004FF080510160EFF350
:1055B00005800028B7D1EFF3108062B680F3108821
:1055C00001B0BDE8F08F00BF4EF60450CEF20000EF
:1055D0004FF080510160EFF305800028A3D1EFF375
:1055E000108062B680F3108801B0BDE8F08F00BF74
:1055F00040F29420C2F2000020210160C9F800E0CE
:1056000025B1E868844504BF0020E86187F310886D
:10561000D8F8000000287FF486AF4EF60450CEF292
:1056200000004FF080510160EFF3058000287FF407
:105630007AAFEFF3108062B680F3108801B0BDE856
:10564000F08F00002DE9F04782B040F28829C2F2C5
:105650000009D9F8005045F244280195EFF3108075
:1056600072B6C5F2484875B3296841452BD1AA687E
:10567000D5F8A810914284BFC5F8A8201146EA6861
:105680001368B3F1EF3F07D12B69D3F80130B3F1C1
:10569000EF3F01D1914209D280F310882846FFF7ED
:1056A000E9FBEFF3108072B6D5F8A81051F8041C8E
:1056B000B1F1EF3F07D080F310882846FFF75AFB7F
:1056C000EFF3108072B680F3108840F2B820EFF349
:1056D000108A72B6C2F200000024046015B1286B73
:1056E00070B3002440F2180740F2A020C2F2000775
:1056F000C2F200003B68EFF30585026840F2F82033
:10570000C2F20000016800297BD041F26C26C2F28F
:1057100000063678F60774D03F68EFF305863E43FF
:10572000D9F8007043EA05032CD03609B6F10F3FD3
:1057300039BF3D464FF0FF374FF0F037002527E0E7
:10574000D5E9071040F2B422C2F20002A842A961D2
:105750001160C6D0E96AEA6B9142C2D140F294234B
:1057600040F6B442C2F20003C2F200021B6842F8E3
:10577000210052F8234040F28C20C2F20000046065
:10578000B0E700BFFE6AFD6B46EA054646F00045FD
:10579000C1E9007505278F6041F2040740F28C26AD
:1057A000CEF20007C2F200063F683668C1E9053252
:1057B00040F2F422C2F20002C1E90376176801F157
:1057C000200201ABBA42CB6108D240F2E421C2F21E
:1057D0000001096802600A6213E000BF40F2F02194
:1057E000C2F200010A6841F27021026040F2E42036
:1057F000C2F20001C2F2000009680068026201B151
:1058000088478AF31088002C33D0EFF3108072B6EB
:10581000216841452BD1A268D4F8A810914284BFD9
:10582000C4F8A8201146E2681368B3F1EF3F07D12E
:105830002369D3F80130B3F1EF3F01D1914209D28E
:1058400080F310882046FFF715FBEFF3108072B647
:10585000D4F8A81051F8041CB1F1EF3F07D080F341
:1058600010882046FFF786FAEFF3108072B680F3B7
:10587000108802B0BDE8F087EFF3108272B6016BBA
:1058800004290BD140F2A021C2F200010B680133C0
:105890000B6082F31088FFF75DBB00BF836ED0F80A
:1058A000AC1082F31088002B08BF70471847000027
:1058B00040F2A021EFF3108072B6C2F200010A6834
:1058C00001320A6080F3108840F6B850C2F200003E
:1058D000FFF740BB2DE9F04387B040F6385640F261
:1058E000B024C2F2000644F64D18C2F200040025AE
:1058F00030468021C4F254182560C4E90155C4E93A
:105900000355FAF7F9FF40F6686106F18000C2F22C
:1059100000014FF4806204F11C0327C38DE82600C8
:1059200040F6B85047F2FC4145F62922C2F2000089
:10593000C0F60001C0F600024346C4E90566CDE9A1
:1059400003550595FFF702F8E0B140F6B85947F264
:10595000FC4645F62927C2F20009C0F60006C0F64B
:10596000000700BF04F1200207CACDE903258DE836
:105970000700484631463A4643460595FEF7E6FF9E
:105980000028EFD1C4E90B5507B0BDE8F083000053
:1059900001684A1C022A27D38269002A18BF70476F
:1059A0004A1E202940F2C821C2F20001096888BFBE
:1059B0001F2201EB820140F2CC22C2F200021268E7
:1059C00040F2C423C2F200038A1A1B6828BF991848
:1059D0000A682AB1536950611861C0E9042302E0E2
:1059E000C0E90400086081617047000081690029F6
:1059F00008BF70470269824208D0436953611A6147
:105A00000B6883420AD00021816170470A68824294
:105A1000F9D100220A6000218161704791610A601A
:105A200000218161704700002DE9F04F83B044F6FA
:105A30004D11C4F2541188421CBF03B0BDE8F08F71
:105A400040F2C82640F2BC2440F2C02BC2F200064D
:105A50000027C2F200040DF10409C2F2000B0DF19F
:105A6000080804E0206800286AD081F31088EFF36A
:105A7000108072B631680A68002A029218BFC2F814
:105A800018800F6040F2CC223168C2F20002126826
:105A900004319142316005D140F2C421C2F20001CB
:105AA00009683160276080F31088EFF3108172B6C7
:105AB00005E000BF8AF31088EFF3108172B6029DF3
:105AC000002DCFD0286900228542019214D06A6946
:105AD000C0F81880426110612A680290212A10D310
