:020000040800F2
:10000000D01F00209D01000805300008A12E000827
:10001000D92E0008D90900080138000800000000A6
:10002000000000000000000000000000AF01000818
:10003000650A0008000000009D0200085302000845
:10004000B7010008B7010008B7010008B7010008B0
:10005000B7010008B7010008B7010008B7010008A0
:10006000B7010008B7010008B7010008B701000890
:10007000590A0008B7010008B7010008B7010008D5
:10008000B7010008B7010008B7010008B701000870
:10009000B7010008B7010008B7010008B701000860
:1000A000B7010008B7010008B7010008B701000850
:1000B000B7010008B7010008B7010008B701000840
:1000C000B7010008B7010008B7010008B701000830
:1000D000B7010008B7010008B7010008F5370008AC
:1000E000B7010008B7010008B7010008B701000810
:1000F000B7010008B7010008B7010008B701000800
:10010000B7010008B7010008B7010008B7010008EF
:10011000B7010008B7010008E9300008B70100087E
:10012000B7010008B7010008B7010008B7010008CF
:10013000B7010008B7010008B7010008B7010008BF
:10014000B7010008B7010008B7010008B7010008AF
:10015000B7010008B7010008B7010008B70100089F
:10016000B7010008B7010008B7010008B70100088F
:10017000B7010008B7010008B7010008000000003F
:10018000B7010008B7010008DFF80CD000F0A0FBB1
:100190000048004799580008D01F002006488047B3
:1001A00006480047FEE7FEE7FEE7FEE7FEE7FEE75C
:1001B000FEE7FEE7FEE7FEE7D5300008890100080C
:1001C000FC0F0020D01F002000000008801000203D
:1001D00000000008001000E03F9002000000FF4017
:1001E00072B65FF824005FF8241001F10401016089
:1001F0004FF0E0205FF83010C0F8081D5FF83400C1
:100200005FF83410096801605FF83800016841F058
:10021000010101604FF0E0205FF8441041614FF0B0
:10022000070101614FF00001C0F8181D4FF07F4138
:10023000C0F81C1D5FF85C10C0F8201D7047FFF768
:10024000FEBFFFF7FEBFFFF7FEBF01B5BDE80140EF
:10025000704701B500F094F8BDE801407047FFF722
:10026000FEBFFFF7FEBF000000000000000000001E
:100270004FF000002A4A1060EFF3148020F00400D1
:1002800080F3148862B64FF080504FF0E021C1F83F
:10029000040DBFF34F8FBFF36F8FFEE72148224A53
:1002A0004FF00003016891B10360EFF3098C2CE972
:1002B000F00F1EF0100F01D12CED108A1B4C4CF8E2
:1002C00004ED2568C1F808C00DB18D61236072B6D8
:1002D0001168B1B1016062B64F68154C8D6907F1C4
:1002E00001074F602560D1F808C05CF804EB1EF0F0
:1002F000100F01D1BCEC108ABCE8F00F8CF3098818
:10030000704772B61168016009B962B6F9E74FF03B
:1003100000674FF0E028C8F8047D62B6DCE770475C
:100320003C01002024010020280100205001002071
:10033000500100200000000000000000000000004C
:10034000026922F00702A2F144026FF00203136077
:100350004FF0000353609360D36013615361936166
:10036000D361136253629362D362136353634FF09A
:10037000FF339363D1634FF08073136482607047DF
:100380002249086800F101000860214B1A683AB15F
:10039000A2F101021A601AB91E4B4FF00100186059
:1003A0001D490868026822B11C4B4FF001021A6017
:1003B00008E000F104001A4B1A68904201D1194B71
:1003C00018680860184B1A6812B918490868D0B143
:1003D0002DE901401649086808B104F03BFB154BB4
:1003E0001A6872B104F000FA1348016849B9134859
:1003F0000168134A136813484FF08052994200D0A5
:100400000260BDE80140BFF34F8F70474C010020F0
:1004100050010020540100206401002058010020F8
:1004200068010020600100205401002058010020D4
:1004300058010020540100203C010020240100202C
:100440002801002004ED00E02DE9F05F05460020C2
:1004500092469B4688460646814640241BE0284635
:1004600041464746224600F06AF853465A46C01AAB
:10047000914110D311461846224600F051F82D1A2A
:1004800067EB01084F4622460120002100F048F8A2
:1004900017EB00094E41201EA4F10104DFDC4846A1
:1004A00031462A464346BDE8F09FD2B201E000F84B
:1004B000012B491EFBD270470022F6E710B5134608
:1004C0000A4604461946FFF7F0FF204610BD00F02B
:1004D000004230F000400AD0C10D01F56071C0F358
:1004E000160042EA0151C20840071143704700203C
:1004F0000146704730B50B460146002020220124FA
:1005000009E021FA02F59D4205D303FA02F5491BE1
:1005100004FA02F52844151EA2F10102F1DC30BDF7
:10052000202A04DB203A00FA02F1002070479140B3
:10053000C2F1200320FA03F3194390407047202AA8
:1005400004DB203A21FA02F00021704721FA02F37D
:10055000D040C2F1200291400843194670472DE96E
:10056000FE4F804681EA0300C00F0C46009021F048
:10057000004123F00045B8EB0200A94105D24046F6
:10058000214690461C460B46024623F0004010438D
:1005900047D0270DC7F30A00C3F30A510290401A4F
:1005A000019040286BDAC3F3130040F4801B0098DD
:1005B000924620B10023D2EB030A63EB0B0B0198A8
:1005C0005946C0F140025046FFF7AAFF06460D46C5
:1005D00050465946019A00F08DF910EB0800614130
:1005E000002487EA115284EAE7731A4340D0009A44
:1005F00062B3019A012A4FEA075215DC001B61EB36
:1006000002014FF0004202EA0752CDE90042001C0D
:1006100041F5801132462B4600F08DF903B0BDE85C
:10062000F08F40462146F9E7001B61EB0201001CF8
:1006300041F5801300185B412018A2F5001747EB25
:10064000030140EAD570B6196D4111E06D084FEA1B
:10065000360645EAC0754FEA0752001B61EB0201FE
:10066000001C41F5801149084FEA30000019514142
:1006700032462B4603B0BDE8F04F00F04DB900986C
:10068000012240000023D0EB020263EBE0730098EC
:1006900021464FEAE074B8EB000061EB0401E9E7A2
:1006A00083F000435BE781F0004158E72DE9FE4FFE
:1006B00081EA030404F0004421F0004100944FF06B
:1006C000000B23F0004350EA01045ED052EA030419
:1006D0005BD0C3F30A54C1F30A552C44A4F2F3349B
:1006E0000194A0FB0254C1F3130141F48011C3F340
:1006F000130343F4801301FB024400FB034E840AFE
:10070000970A44EA815447EA8357A4FB0768029595
:100710008D0A05FB07854FEA932C04FB0C54270533
:10072000029D4FEA065847EA1637B5EB08056EEB0F
:10073000070C870E920E47EA811742EA8312A7FB45
:100740000201B6EB0B0164EB00042B0D43EA0C3302
:100750005E1844EB1C50DA465146E7FB0201C5F334
:1007600013044FEA0B3343EA14534FEA0432019C5B
:1007700043EA0603A4F10C040294009CCDE900B402
:1007800000F0D9F803B0BDE8F08F00200146F9E78A
:100790002DE9F04D81EA030404F0004B21F00045FF
:1007A00014464FF0000A23F0004150EA050220D021
:1007B00054EA01021DD0C5F30A570246C5F31303DC
:1007C000C1F31300C1F30A5640F4801543F48013BB
:1007D000A7EB0608101BD64608F2FD3873EB0500A0
:1007E00002D308F1010801E092185B41B8F1000F53
:1007F00003DA00200146BDE8F08D00204FF480119F
:10080000064684460EE0171B73EB050705D3121B43
:1008100063EB050306434CEA010C49084FEA30003C
:1008200092185B4150EA0107EDD152EA030012D061
:1008300082EA040083EA0501084305D0101BAB419E
:1008400006D20122002306E000224FF0004302E01E
:100850006FF0010253101AEB06004CEB085110EB3D
:100860000A0041EB0B01BDE8F04D00F055B8C1F3B3
:100870000A52C1F3130140F2FF3341F480119A424E
:1008800002DA00200146704740F233439A42A2F256
:10089000334202DC5242FFF752BEFFF741BE000076
:1008A00030B5041E71F1000404DB4FF000444042F7
:1008B00064EB0101141E73F1000405DB1C464FF0CC
:1008C0000043524263EB0403994208BF904230BD9B
:1008D000064C074D06E0E06840F0010394E807008D
:1008E00098471034AC42F6D3FFF752FCB8640008C6
:1008F000D8640008202A06DBCB17203A41FA02F020
:1009000043EAE07306E041FA02F3D040C2F120026C
:10091000914008431946704710B5141E73F1000446
:1009200008DA401C41F1000192185B411A4301D1E1
:1009300020F0010010BD2DE9F04D92469B4611B10B
:10094000B1FA81F202E0B0FA80F220329046FFF76D
:10095000E7FD04460F4640EA0A0041EA0B01534610
:100960005A46084313D0114653EA010019D0C8F182
:1009700040025046FFF7E3FD05460E4650465946F5
:100980004246FFF7CDFD084305D0012004E0204694
:100990003946BDE8F08D0020054346EAE0762C4359
:1009A00037430A986305E40AA0EB08000022FD0A19
:1009B00044EA47540A3002D500200146E9E7010520
:1009C00010196941DDE9084500196941BDE8F04D9C
:1009D000A2E7000000207047FEE7000010B58AB0D3
:1009E000002040F228040690CDE90400CDE9020081
:1009F000CDE900000120C2F20004CDE907006946FC
:100A0000204600F051FB204600F080FC0AB010BDEB
:100A100070B540F2B405C2F2000514460646E9601E
:100A200000200821C5E90500E96185F8200000BF24
:100A3000304600F0A9FB0028FAD005F10C01304641
:100A400022462B4600F0DEFA002808BF70BDBDE844
:100A5000704000F009B8000041F21060C2F20000DE
:100A600000F0DEBC7047000072B600BFFEE7000079
:100A700070B581B00022009290F83C20012A03D189
:100A80000221084601B070BDD1F800E00122BEF19C
:100A90000A0F80F83C200BD31FFA8EF25200066832
:100AA00012FA8EF2A2F11E0306F10C0205E000BF5D
:100AB00006680EEB4E0306F110024FF0070C1568A6
:100AC0000CFA03F4A54315608D68146805FA03F366
:100AD000234313604968062906D801EB81010539D3
:100AE00006F134020AE000BF0C2901EB810187BF47
:100AF000413906F12C02233906F130021F23146814
:100B00008B4024EA030342F2043C1360C4F2010C5C
:100B10001FFA8EF3146803FA01F1ACF54173214317
:100B20009E4211603ED1BEF1120F07D1DCF80010D9
:100B300041F48001CCF8001034E000BF2EF0010138
:100B400010292FD1DCF80010BEF1100F41F4000184
:100B5000CCF8001026D140F20C01C2F20001096865
:100B60004DF68362C4F21B32A1FB0212910C01EB21
:100B70008101490000910099A1B1009901390091CA
:100B8000009979B1009901390091009951B100990A
:100B900001390091009929B100990139009100991A
:100BA0000029EAD1002180F83C10084601B070BD50
:100BB0000068C06C70470000002804BF0120704727
:100BC00010B50446006C00283ED0206CC00645D409
:100BD000206C41F202118843023042F20431206459
:100BE000C4F20101086820F4403008600A6894E803
:100BF00009101A43D4F810E00A604168012321F477
:100C0000807141604168C0F6007341EA0E21416085
:100C1000416821F040714160416841EA0C01416046
:100C2000816821F400618160E1688268114381601C
:100C3000A16A8268994222F070628260826813D150
:100C400022F0405119E000BF204600F065F8002076
:100C5000606484F83C00206CC006B9D501200021F6
:100C600084F83C1010BD00BF11438160816821F001
:100C700040518160E16A826811438160816821F09E
:100C8000020181608168227E94F8203041EA4201AD
:100C90008160416883B141F40061416041684EF276
:100CA000000221F460414160616ACFF6FF7243683F
:100CB00002EB4131194301E021F400614160C16A56
:100CC00040F2000C21F47001C162E2696169CFF663
:100CD000F07CC36A0CEB02521A43C262826822F4AF
:100CE0000072826094F83020836843EA4222826076
:100CF000826822F480628260826842EA8121816097
:100D000000206064216C012262F301012164002152
:100D100084F83C1010BD000080B586B0006842F237
:100D20000022C4F20102002190420591049117D0E3
:100D300042F20001C4F20101884239D10020009042
:100D400043F64400C4F20200016841F4807101607E
:100D5000006800F480700090009806B080BD00BF6D
:100D600043F644000091C4F20200026842F480623B
:100D70000260026802F480620092009A009150F8CA
:100D8000142C42F0200240F8142C50F8140C00F0FF
:100D90002000009000984FF4806001900320CDE97E
:100DA000020141F20040C4F2020001A900F01AFD64
:100DB00006B080BD70B5044600680D4682685205D5
:100DC00044BF80685FEAC05038D400F0F7FD216866
:100DD0000A68920749D40646681C3CD0DDB9086809
:100DE000800721D5086880073FD4086880071BD595
:100DF0000868800739D40868800715D50868800717
:100E000033D4086880070FD508688007E7D52CE041
:100E10000868800729D400F0D1FD801B2168A84212
:100E2000F6D908688007F3D4206C40F004002064F1
:100E3000002084F83C00032070BD00BF206C40F00F
:100E400020002064002084F83C00012070BD00BF19
:100E50000868800709D40868800706D408688007F6
:100E60005CBF08685FEA8070F2D56FF0120008601E
:100E7000206C40F400702064886810F0405F1CBF54
:100E8000002070BD207E08B1002070BDC86A10F43B
:100E9000700F02D088684005F6D4206C20F4807072
:100EA0002064206CC004EFD4206C40F0010020646A
:100EB000002070BD81B00021009190F83C10012904
:100EC00002BF022001B070470122016880F83C2077
:100ED0008A68D20729D18A684DF6836342F00102FD
:100EE0008A6040F20C02C2F200021268C4F21B33A4
:100EF000A2FB03239A0C02EB42020092009AA2B1D9
:100F0000009A013A0092009A7AB1009A013A00924E
:100F1000009A52B1009A013A0092009A2AB1009ABE
:100F2000013A0092009A002AEAD18B68026CDB0732
:100F30000AD142F010010164416C41F001014164A9
:100F4000002001B0704700BF40F201739A4302F5E0
:100F5000807202644A68520504D5026C012363F36F
:100F60000D320264026C0023D2044FF0000244BF31
:100F7000426C22F0060242F2043C426480F83C30AB
:100F80006FF02200C4F2010C0860DCF80000C0061B
:100F90000ED0ACF541708142D2D14FF60450CFF65D
:100FA000FF705CF8000010F0405FC9D122E000BF84
:100FB00042F20000C4F20100814217D042F2002048
:100FC000C4F2010081420DD042F20010C4F20100CF
:100FD0008142B5D1DCF80000C00607D0ACF58270C4
:100FE0008142ADD1DCF80000C006A9D4886810F0B9
:100FF000405FA5D1886840F080408860002001B043
:101000007047000010B590F820E0D0F800C0AEF1B5
:10101000010EBEF1010FDCF808E00FD81EF0E05F12
:1010200016D0CEF3016E012000FA0EF018608B6826
:10103000C3B1486843EAC00316E000BF00F12401D1
:1010400001204FF480220B681A430A6010BD00BFD4
:1010500000F1240101204FF400120B681A430A60CA
:1010600010BD00BF08684305D1E9030403430CEB3E
:101070000E10C0F88031C0F88441097D012905D1E6
:1010800000F5C2710B6843F480730B605168C0F8BF
:101090008C11126800F5C071C0F88821002001226F
:1010A0000B681A430A6010BDB0B590F82020013AD1
:1010B000012A2FD846F20060C4F20000026842F014
:1010C00001020260026822F47C520260D1F814E04E
:1010D000CC694A6A0368012C43EA022202600EF0DE
:1010E0001F024FF0010303FA02F2C3696FEA020C18
:1010F00023EA0203C36113D02CBBC36803EA0C03C9
:10110000C360CB688C8844EA034300EBCE042364BD
:101110000B4611E0416A41F4802141620120B0BDDB
:10112000C3681343C3600B688C8844EA034300EB35
:10113000CE04236401F10C038C681B8843EA04434A
:1011400000EBCE04636443688D6943EA0204D1F87E
:1011500010E0096A002D08BF03EA0C0444604369EB
:10116000BEF1000F43EA020408BF03EA0C040129A0
:10117000446102D1C1691143C161016821F00101DB
:1011800001600020B0BD000090F820100139012955
:1011900084BF002070470068816882688068C1F35E
:1011A0008061C2F3C0621144C0F30070084470470C
:1011B000B0B5C8B1044690F8200010B9204600F040
:1011C00071F82068016841F00101016000F0F6FB50
:1011D000054600BF20684168C90707D100F0EEFB53
:1011E000401B0B28F6D312E00120B0BD016821F0AE
:1011F0000201016000F0E2FB054600BF2068416883
:1012000089070DD500F0DAFB401B0B28F6D3606A86
:10121000052140F400306062012084F82010B0BD48
:10122000217E0268012922F0800208BF803202601C
:10123000617E0268012922F0400208BF403202604C
:10124000A17E0268012922F0200208BF203202603C
:10125000E17E0268012922F0100218BF10320260FC
:10126000217F0268012922F0080208BF08320260CB
:10127000617F0268012922F0040208BF0432026083
:10128000D4E901C2D4E9033561691A432A43114301
:10129000ACF101021143C16100200121606284F8B8
:1012A0002010B0BD80B586B0016846F20040C4F29F
:1012B0000000814202D006B080BD00BF002143F68D
:1012C00030020191C4F20202136900F5D43043F0F8
:1012D00000731361136903F000730193019B019183
:1012E000136843F0080313601268022302F0080237
:1012F0000192019ACDE9023109210322059101A948
:101300000192049200F06EFA06B080BDB0B50446BA
:1013100090F8200001281DD1022084F820002068C8
:10132000016821F00101016000F048FB054600BFA3
:1013300020684068C00713D000F040FB401B0B281A
:10134000F6D3606A40F400306062052084F8200023
:101350000120B0BD606A40F4002060620120B0BD91
:1013600000206062B0BD000070B5866D044600F0DC
:1013700025FB94F8351002292ED105462068216CF2
:10138000026822F016020260426922F08002426185
:1013900009B9A16C19B1016821F008010160016867
:1013A00021F0010101600068C00708D000F006FBD1
:1013B000401B052818D820680068C007F6D1E06DEA
:1013C0003F2101FA00F0B060012084F835000020D0
:1013D000002184F8341070BD802060650120002158
:1013E00084F8341070BD00BF20206065032084F8AD
:1013F0003500002184F8341070BD000090F83510DD
:10140000022909D1052180F835100068016821F012
:101410000101016000207047802141650120704773
:10142000F0B581B004460020009040F20C00C2F2FA
:1014300000000268D4E9166048F2B5133768082145
:10144000C1F64E3381403942A2FB03250CD02268FD
:1014500013685B0708D5136823F004031360B160B9
:10146000616D41F00101616501218140394208D07F
:1014700022685269120604D5B160616D41F0020123
:10148000616504218140394208D0226812689207C0
:1014900004D5B160616D41F00401616510218140A6
:1014A000394217D020680268120713D5B16002686C
:1014B0000168520308D4C90508D4016821F0080165
:1014C0000160216C21B905E0080343D4216C09B106
:1014D00020468847E16D202000FA01F23A4245D0CB
:1014E00020680368DB0641D5B26094F835300268A5
:1014F000052B1FD122F016020260426922F0800201
:101500004261226C0AB9A26C1AB1026822F0080288
:1015100002603F208840B060012084F83500216DD2
:101520000020002984F8340058D02046884701B0B4
:10153000F0BD00BF0168520310D4C90512D4016880
:1015400021F010010160012084F83500002084F8AA
:10155000340007E0A16C0029BAD1BBE7080301D42D
:10156000616C00E0E16B09B120468847606DA8B36B
:10157000606DC0072ED0052084F835002068A90AC8
:10158000026822F001020260009A01328A4200924F
:101590001AD80268D20717D0009A01328A42009204
:1015A00012D80268D2070FD0009A01328A42009204
:1015B0000AD80268D20707D0009A01328A42009204
:1015C00002D80268D207DFD1012084F8350000205C
:1015D00084F83400E16C09B12046884701B0F0BDC1
:1015E0002DE9F041044600F0E9F9002C4ED0054603
:1015F000022084F835000020216884F8340008684F
:1016000020F0010008600868C00708D000F0D6F993
:10161000401B05286CD821680868C007F6D1086807
:1016200048F23F02CFF21002D4E90135024004F142
:101630000C0E9EE8C1511A432A43104330433843ED
:1016400040EA0800626A40EA0C00042A40EA0E03FD
:1016500020D1D4E90A5E206B4EEA030210430860F1
:101660004869BEF1000F20F0030040EA050040F099
:10167000040C15D0B8F5005F42D0B8F1000F51D17D
:10168000022D52D0012D47D055B94EE00120BDE8C2
:10169000F08100BF0B60486920F0070040EA020CAF
:1016A0006FF00F004AF6AB2250FA81F0CAF6AA2278
:1016B000A0FB02231A0946F29C43C0F600039A5C81
:1016C00040F2FF335F284FF03F00C1F814C021EA19
:1016D000030100FA02F088BF0431C4E916128860E1
:1016E000002301220020636584F83520BDE8F081E5
:1016F000032220230320636584F83520BDE8F081B0
:10170000032DCDD8012240230120DFE805F0030E90
:10171000030500BFE7E700BFAEF1C070B0FA80F08C
:10172000400904E0032D04D3BAD1CEF300600028B1
:10173000B6D0012240230120636584F83520BDE83E
:10174000F081000070B590F834C0BCF1010F46D0B4
:101750004FF0010C80F834C0D0F858E090F835C054
:10176000BCF1010F38D14FF0020C80F835C04FF0BA
:10177000000CC0F854C0D0F800C08468056CC06D7F
:10178000DCF80060402C26F48026CCF80060CCF811
:1017900004300B4604BF13460A463F2101FA00F00D
:1017A000CCF80830CCF80C20CEF80800DCF80000AB
:1017B00040F01600CCF800002DB1DCF8000040F03D
:1017C0000800CCF80000DCF8000040F00100CCF884
:1017D0000000002070BD00BF002180F834100220FE
:1017E00070BD00002DE9F04F82B000F13E4241F69D
:1017F000004502F1FF77C4F2020508224FEAB7263E
:10180000A84208BF0722072E38BF4FEAB7224FF081
:10181000010A002400274FF00008009208E000BFF2
:10182000023708F10108202F04F1040400F0B4800D
:101830000E680AFA08F916EA090FF1D0D1F804A0E7
:101840000AF0030BABF10106012E17D803228668BC
:1018500002FA07FECA6826EA0E06BA4032438260E0
:101860004268CAF3001522EA090205FA08F54FEAB0
:10187000480C6FEA0E062A4342600BE00322BA408E
:10188000D643BBF1030FBC4604D1BC464FF0030B5B
:1018900022E000BFC2688D68324005FA0CF52A4389
:1018A000BBF1020FC26017D16FF0030202EA5802C7
:1018B000024404F01C030F25D2F820E005FA03FAD5
:1018C0000D692EEA0A0E05FA03F343EA0E031362CA
:1018D000D1F804A00AF0030B02680BFA0CF33240B3
:1018E0001A431AF4403F4FF0010A026098D00022D8
:1018F00043F644030192C4F202031A6843F6004E11
:1019000042F480421A601A68C4F2010E02F4804266
:101910000192019A28F003024FF6084C7244CFF668
:10192000FF7C52F80C3004F00C060F25B540AB4399
:10193000009D05FA06F6334342F80C30DEF8082025
:101940004B6842EA090643F60C4CDD0258BF22EA16
:101950000906CEF80860C4F2010CDCF800209D02F4
:1019600042EA090658BF22EA0906CCF80060DEF810
:1019700004209D0342EA090658BF22EA0906CEF870
:101980000460DEF80020DB0342EA090658BF22EAC1
:101990000906CEF8006043E702B0BDE8F08F000012
:1019A000426902EA0103914341EA034181617047C0
:1019B000002A08BF090481617047000041F6C43065
:1019C000C2F200000068704740F2040041F6C431E2
:1019D000C2F20000C2F2000100780A6810440860F8
:1019E0007047000080B543F60040C4F20200016871
:1019F00041F400710160016841F480610160016897
:101A000041F480710160032000F0BEF80F2000F067
:101A100005F800F061F8002080BD000070B586B0C8
:101A2000002543F640010195C4F202010A6804460C
:101A300042F010020A60096801A801F0100101914A
:101A40000199694600F060F9049E002E18BF012636
:101A500000F07AF94DF68361B040C4F21B31A0FB6F
:101A600001014FF0FF3000EB914141F2706041F213
:101A70000002C2F20000C4F2000240F2E733C0E903
:101A80000021C0E902530561856100F07BFB05463A
:101A900010B1284606B070BD41F27060C2F200007D
:101AA00000F0A0FB05460028F3D1362000F030F806
:101AB0000F2C0DD8362021460022002500F038F8E2
:101AC00040F20800C2F200000460284606B070BD73
:101AD0000125284606B070BD82B0002043F64001C3
:101AE0000190C4F202014A6842F480424A604A68A6
:101AF00002F480420192019A0090086840F0805000
:101B00000860086800F080500090009802B07047AC
:101B1000002848BF704700F01F01012202FA01F1BE
:101B20004EF200124009CEF2000242F82010704737
:101B300010B54EF60C5CCEF2000CDCF80030C3F3AE
:101B4000022E8EF00704042C28BF0424BEF10303E8
:101B50004FF0FF3E0EFA04F438BF0023A143994032
:101B60000EFA03F39A4300F00F03043B114363445E
:101B700009010C3300F16042B0F1FF3FC8BF02F52C
:101B80006443197010BD00004EF60C51CEF20001F6
:101B90000A684FF6FF031A4060F30A2242F08060A1
:101BA00040F0FD70086070472DE9F041002800F01A
:101BB0008B8043F60808C4F202080446D8F8F803FC
:101BC0000D4600F00700884207D288F8F853D8F88D
:101BD000F80300F00700A84276D12068810717D5E6
:101BE000410705D5D8F8001041F4E051C8F80010BD
:101BF000010705D5D8F8001041F46041C8F800107D
:101C0000D8F80010A26821F0F0011143C8F80010C4
:101C1000C0073FD1D8F8F80300F00700A84207D961
:101C200088F8F853D8F8F80300F00700A8424BD121
:101C30002068410707D5D8F80010E26821F4E05188
:101C40001143C8F80010000708D5D8F80000216932
:101C500020F4604040EAC100C8F8000000F09CF8A1
:101C6000D8F8001046F28442C1F30311C0F6000216
:101C7000515C40F20C0220FA01F140F20800C2F27D
:101C800000000068C2F200021160FFF7C7FE0020EA
:101C9000BDE8F0816068811E022907D258F8081C4F
:101CA00089015CBF0120BDE8F08111E0012807D166
:101CB00058F8081C89035CBF0120BDE8F08107E0EB
:101CC00058F8081C890703D40120BDE8F08100BF43
:101CD000D8F8001021F003010843C8F80000FFF70E
:101CE0006DFE064641F28837D8F80000616800F0C2
:101CF0000C00B0EB810F8DD0FFF760FE801BB84267
:101D0000F2D90320BDE8F0810F22026043F60802F9
:101D1000C4F20202136803F003034360136803F084
:101D2000F0038360136803F4E053C360D2F800C08B
:101D30004FF4E05303EADC030361D2F8F80300F048
:101D4000070008607047000040F20C0043F60801ED
:101D5000C2F20000C4F202010068096846F294422F
:101D6000C1F38221C0F60002515CC84070470000F8
:101D700040F20C0043F60801C2F20000C4F2020176
:101D80000068096846F29442C1F34231C0F600028D
:101D9000515CC8407047000010B543F60404C4F21B
:101DA0000204606800F00C0008280BD0042819BF5A
:101DB00042F20040C0F2F40041F60030C0F2B70039
:101DC00010BD00BF206821682368490241F6003138
:101DD000C0F2B70100F03F02C3F388105CBF42F2CB
:101DE0000041C0F2F401A1FB00010023FEF72CFB2F
:101DF00021680222C1F3014102EB4101B0FBF1F085
:101E000010BD00002DE9F04182B000286AD00446E0
:101E1000007843F60006C007C4F202060BD0B06893
:101E200000F00C00042840F0A1803068800302D547
:101E30006068002856D0207880071AD5B06810F066
:101E40000C0F09D0B06800F00C00082840F0A88002
:101E50007068400200F1A4803068800702D5E06815
:101E600001283FD13068216920F0F80040EAC10024
:101E700030602078000739D4207840074ED4A56917
:101E80005DB3B06800F00C00082840F0BD80012D63
:101E900028D07068E16900F480028A4222D1216A68
:101EA00000F03F028A421DD147F6C071626A0140CC
:101EB000B1EB821F16D1A26A0023CFF6FF7303EBAA
:101EC000C23200F440316FF30F0291420AD1E16A4D
:101ED00000F07060B0EB016F04D1002002B0BDE8EB
:101EE000F08100BF012002B0BDE8F08160690028E8
:101EF00040F20000C4F2472076D00121C0F8801ED5
:101F0000FFF75CFD054600BF706F8007B4D4FFF794
:101F100055FD401B0228F7D9DDE000BF306C10F002
:101F200080580AD100200190306C40F0805030641D
:101F3000306C00F080500190019847F20007C4F225
:101F400000073868C00541D4386840F480703860B4
:101F5000FFF734FD054600BF3868C00536D4FFF7EB
:101F60002DFD401B0228F7D9B5E000BFB06800F096
:101F70000C00082803D1706840023FF556AF606836
:101F8000B0F5803F07D0B0F5A02F40F08D803068CD
:101F900040F480203060306840F4803030608DE064
:101FA000E068002852D00020C4F2472001210160DF
:101FB000FFF704FD054600BF306880073FF552AFCC
:101FC000FFF7FCFC401B0228F6D984E0A06801283A
:101FD00005D005284ED1306F40F004003067306FD7
:101FE00040F0010030674FE00021C0F8801EFFF78D
:101FF000E5FC0546706F80077FF53EAFFFF7DEFC1E
:10200000401B0228F6D966E00027C4F247270020CB
:102010003866FFF7D3FC022D05460BD130688001EE
:102020005ED5FFF7CBFC401B02284FF00300F5D92B
:1020300054E700BF306880017FF54FAFFFF7BEFC6B
:10204000401B02284FF00300F4D947E70020C4F2F8
:10205000472000210160FFF7B1FC0546306880078A
:102060007FF507AFFFF7AAFC401B02284FF00300E3
:10207000F4D933E7316F002821F001013167316F66
:1020800021F0040131674DD0FFF798FC054641F27D
:10209000883700BF306F800756D4FFF78FFC401B96
:1020A000B842F7D917E000BF3168002821F4803129
:1020B0003160316821F4802131604FD0FFF77EFC20
:1020C000054600BF306880033FF5B5AEFFF776FCEC
:1020D000401B6428F6D9032002B0BDE8F08100BFA0
:1020E00004F11C052FCD08430021CFF6FF7140EA13
:1020F000821001EBC3316FF30F0140EA0560084322
:10210000706001203866FFF759FC04463068800192
:102110003FF5E3AEFFF752FC001B02284FF003002F
:10212000F4D9DBE6FFF74AFC054641F2883700BFE9
:10213000306F800708D5FFF741FC401BB8424FF0D5
:102140000300F5D9CAE600BFB8F1000F7FF497AEDF
:10215000306C20F08050306491E600BFFFF72EFC19
:10216000054600BF306880037FF565AEFFF726FCAB
:10217000401B64284FF00300F4D9AFE6704700001D
:1021800070470000002804BF0120704710B50446C6
:1021900090F83D0028B9002084F83C00204600F06B
:1021A0001FF8022084F83D002068211D00F0A2FFE6
:1021B000012084F8460084F83E0084F83F0084F84B
:1021C000400084F8410084F8420084F8430084F819
:1021D000440084F8450084F83D00002010BD000054
:1021E0007047000090F83D1001291CBF0120704786
:1021F000022180F83D10006841F2FF72C168C4F20C
:102200000002904241F00101C1600DDC40F2FF711B
:10221000C4F20001884215DCB0F1804F2AD040F2B0
:102220000041C4F2000123E040F2FF31C4F2010199
:10223000884213DC41F60001C4F20001884219D043
:10224000002113E040F60001C4F20001884211D0E1
:1022500040F60041C4F200010AE000BF44F2000170
:10226000C4F20101884205D040F20041C4F20101EC
:10227000884206D1816801F00701062904BF0020C9
:102280007047016841F001010160002070470000C3
:1022900070470000B0B504460068C168026902EAF0
:1022A0000105A90720D4680734D428074AD4E806D2
:1022B00060D4E80777D1280600F17F80680606D54C
:1022C00020686FF040010161204600F08FF8A806F9
:1022D00058BFB0BD21686FF0200220460A61BDE8FA
:1022E000B040FFF74DBF00BF6FF002010161012157
:1022F00021778069800703D02046FFF7C9FF05E0FA
:10230000204600F065F8204600F064F800202077B1
:102310006807CAD520686FF00401016102212177A6
:10232000806910F4407F03D02046FFF7B1FF05E03D
:10233000204600F04DF8204600F04CF800202077B1
:102340002807B4D520686FF00801016104212177C6
:10235000C069800704D02046FFF79AFF06E000BF5F
:10236000204600F035F8204600F034F800202077B1
:10237000E8069ED520686FF01001016108212177E1
:10238000C06910F4407F03D02046FFF781FF05E0CD
:10239000204600F01DF8204600F01CF800202077B1
:1023A000E8073FF488AF20686FF001010161204623
:1023B00000F012F828067FF581AF20686FF08001E9
:1023C00001612046FFF7DAFE68067FF580AF77E708
:1023D0007047000070470000006841F20001C4F23D
:1023E0000001884208BFFFF7EFBA7047704700004E
:1023F0007047000070470000B0B582B00568044621
:102400002968EA68686901F02F03202B02F0200395
:1024100006D12BB1204602B0BDE8B04001F0F6B8BD
:102420005FEA017C1EBF00F0010E02F4907010EB19
:102430000E002FD1236B02EA0100C10618D5012B33
:1024400016D10020019028680190686801900198D9
:102450006869400628D4A08DE18DE28D002A1CBF5A
:10246000411A5FEA014040F0D78102B0B0BD00BF21
:10247000010600F1D3804006F7D5E868202120F05E
:102480004000E860204684F8411002B0BDE8B0404A
:1024900000F004BDC80718BF12F4807040F0D2806D
:1024A000480700F1D580DAE0E06B01684A6893B232
:1024B000002BDAD0A18D8B42D7D2E285C069B0F56E
:1024C000807F00F0A08055E8030F216820F4807021
:1024D00041E80302F2B1206850E8030F216820F4BC
:1024E000807041E80302AAB1206850E8030F216818
:1024F00020F4807041E8030262B1206850E8030FC5
:10250000216820F4807041E803021AB1206850E885
:10251000030FDAE7206850E8050F216820F001007A
:1025200041E80502BAB3206850E8050F216820F0A1
:10253000010041E8050272B3206850E8050F2168E8
:1025400020F0010041E805022AB3206850E8050F99
:10255000216820F0010041E80502002ADAD11AE0E2
:10256000206850E8050F216820F0400041E805028E
:10257000DAB1206850E8050F216820F0400041E8FA
:10258000050292B1206850E8050F216820F0400054
:1025900041E805024AB1206850E8050F216820F0A3
:1025A000400041E80502002ADAD1202084F84200E8
:1025B00000202063206850E8030F216820F01000FD
:1025C00041E80302DAB1206850E8030F216820F0E7
:1025D000100041E8030292B1206850E8030F21681F
:1025E00020F0100041E803024AB1206850E8030FD0
:1025F000216820F0100041E80302002ADAD1E06BE4
:10260000FEF7B2FEA18D02206063E08D081A81B250
:10261000204602B0BDE8B040FFF7EABE94F84100A2
:1026200021287FF422AFA068B0F5805F03D1206934
:10263000002800F08981206A411C216200786860CE
:1026400089E100BF606C40F001006064480706D576
:10265000BEF1000F03D0606C40F002006064880798
:1026600006D5BEF1000F03D0606C40F0040060643A
:10267000BCF1000F06D55EEA030003D0606C40F0A9
:1026800008006064606C00283FF4EFAE02EA0100CD
:10269000800603D5204600F0B9FF25686869616CA3
:1026A00000F0400001F00801401800F0AD8055E84E
:1026B000030F00BF216820F4907041E80302D2B3F9
:1026C000206850E8030F216820F4907041E803026D
:1026D0008AB3206850E8030F216820F4907041E825
:1026E000030242B3206850E8030F216820F4907081
:1026F00041E80302FAB1206850E8030FDAE700BFAF
:10270000206850E8050F216820F0010041E805022B
:10271000DAB1206850E8050F216820F0010041E897
:10272000050292B1206850E8050F216820F00100F1
:1027300041E805024AB1206850E8050F216820F001
:10274000010041E80502002ADAD1206B012824D1DA
:10275000206850E8030F216820F0100041E80302D0
:10276000DAB1206850E8030F216820F0100041E83A
:10277000030292B1206850E8030F216820F0100096
:1027800041E803024AB1206850E8030F216820F0B5
:10279000100041E80302002ADAD1202084F8420028
:1027A0000020206320684169490640F1C78050E855
:1027B000050F216820F0400041E80502002A00F0E2
:1027C000AB80206850E8050F216820F0400041E808
:1027D0000502002A00F0A080206850E8050F21685B
:1027E00020F0400041E80502002A00F095802068B2
:1027F00050E8050F216820F0400041E80502002A5A
:1028000000F08A802068D2E72046FFF7F3FD002021
:10281000606402B0B0BD00BF55E8030F226820F429
:10282000907042E80303D3B3206850E8030F226896
:1028300020F4907042E803038BB3206850E8030F44
:10284000226820F4907042E8030343B3206850E804
:10285000030F226820F4907042E80303FBB1206864
:1028600050E8030FDAE700BF206850E8050F226840
:1028700020F0010042E80503DBB1206850E8050FB5
:10288000226820F0010042E8050393B1206850E877
:10289000050F226820F0010042E805034BB12068D3
:1028A00050E8050F226820F0010042E80503002BE4
:1028B000DAD1202084F8420000202063206850E80C
:1028C000030F226820F0100042E80303DBB1206808
:1028D00050E8030F226820F0100042E8030393B190
:1028E000206850E8030F226820F0100042E803033C
:1028F0004BB1206850E8030F226820F0100042E836
:102900000303002BDAD1022289B22046626302B0AF
:10291000BDE8B040FFF76CBDE06B78B143F20D311C
:10292000C0F600010165FEF769FD00283FF49DAD8A
:10293000E06B016D02B0BDE8B0400847204602B030
:10294000BDE8B040FFF756BD206A30F8021B6FF3B8
:102950005F2169602062E08C01380104E0847FF42B
:1029600084ADE86820F08000E860E86840F040004E
:10297000E86002B0B0BD0000002804BF012070472D
:1029800010B5044690F8410028B9002084F84000B2
:10299000204600F021F8242084F841002068C16816
:1029A00021F40051C160204600F0B2FE20680169A8
:1029B00021F490410161416921F02A014161C1681E
:1029C00041F40051C16000202021606484F841106E
:1029D00084F84210606310BD2DE9F04387B00446CF
:1029E000006844F60001C4F2000100268842CDE9E7
:1029F0000566CDE90366029654D041F20041C4F267
:102A00000101884200F0A68041F20001C4F20101F8
:102A1000884240F0CA80002643F630000196C4F296
:102A200002004169002441F0100141614169C4F292
:102A3000020401F01001019101990196016802ADB3
:102A400041F00201016001684FF0020801F002014B
:102A500001910199019601684FF0030941F00101CC
:102A600001600068072700F00100019001988020B4
:102A7000029004F580602946CDE90386CDF81490D4
:102A80000697FEF7AFFE4FF40070CDE9020820462E
:102A90002946CDE904690697FEF7A4FE07B0BDE814
:102AA000F08300BF43F630000196C4F202000169D2
:102AB00041F480210161016901F4802101910199B2
:102AC0000196016841F004010160006802A900F06C
:102AD0000400019001984FF4406002900220CDE97B
:102AE000030603200590072006900020C4F2020090
:102AF00000F50060FEF776FE41F2106546F2280010
:102B0000C2F20005C4F202004FF0006185E8430004
:102B10004FF440304FF480624FF48073C5E90806EB
:102B20002846C5E90362C5E90566EB61FEF758FD75
:102B3000002818BFFDF798FF272000210022E56339
:102B4000AC63FEF7F5FF2720FEF7E2FF07B0BDE814
:102B5000F08300BF002043F630010190C4F202016F
:102B60004A6942F020024A614A6902F02002019259
:102B7000019A01900A6842F040020A60096801F077
:102B80004001019101994FF4844102910221CDE964
:102B9000031003200590082006900020C4F20200D4
:102BA00000F5C05002A9FEF71DFE07B0BDE8F08396
:102BB00070B582B0044690F8420020280AD113462E
:102BC0000A4600294FF0010018BF002B06D102B0C1
:102BD00070BD00BF022002B070BD00BF00262220E1
:102BE0002663A262A385666484F842002168E06BD4
:102BF00043F2954C43F2F55E43F21935C0F6000CF2
:102C0000C0F6000EC0F600050431C0E90FCEC0E9E1
:102C10001356FEF797FD01962068016801914168FF
:102C200001910199216929B350E8030F216840F40B
:102C3000807041E80302EAB1206850E8030F216880
:102C400040F4807041E80302A2B1206850E8030F0D
:102C5000216840F4807041E803025AB1206850E8CE
:102C6000030F216840F4807041E8030212B120682C
:102C7000DAE700BF206850E8050F216840F0010046
:102C800041E80502BAB3206850E8050F216840F01A
:102C9000010041E8050272B3206850E8050F216881
:102CA00040F0010041E805022AB3206850E8050F12
:102CB000216840F0010041E80502002ADAD11AE05B
:102CC000206850E8050F216840F0400041E8050207
:102CD000DAB1206850E8050F216840F0400041E873
:102CE000050292B1206850E8050F216840F04000CD
:102CF00041E805024AB1206850E8050F216840F01C
:102D0000400041E80502002ADAD1002002B070BD7F
:102D100070470000704700002DE9F041044690F82C
:102D2000410020281CBF0220BDE8F0810F46002989
:102D30004FF0010000F0B0801646002A08BFBDE841
:102D4000F0814FF0000821201D46C4F8448084F82B
:102D50004100FEF733FEA684E684A1680646B1F57D
:102D6000805F05D12069002814BF3846B846074661
:102D7000E08CC8B1681C19D0002D5FD120680AE032
:102D800038F8021B00276FF35F214160E18C0139A5
:102D9000E184E18C51B3016809066FD5002FEFD0B3
:102DA00017F8011BF1E700BF20681FE0206802E070
:102DB0000168090609D4016809065FBF01685FEA76
:102DC000016101685FEA0161F2D51FB117F8011BCB
:102DD00005E000BF38F8021B00276FF35F21416058
:102DE000E18C0139E184E18C0029E4D101684906D4
:102DF00011D4002D4AD0691C19D100BF01684906C1
:102E00005FBF01685FEA416101685FEA416102D426
:102E100001684906F2D5202084F841000020BDE871
:102E2000F08100BF2068C16800684006F3D4FEF757
:102E3000C5FD801BA842F5D92AE000BF206800BF6D
:102E40000168090608D4FEF7B9FD801BA84217D80F
:102E50002068C168F4E700BF17B117F8011B04E050
:102E600038F8021B00276FF35F214160E18C0139C4
:102E7000E184E18C0029E3D1B8E700BFFEF79EFDB5
:102E8000202084F841000320BDE8F081FEF796FD84
:102E9000202084F841000320BDE8F0817047000045
:102EA000FEE7000041F60044C4F2020407A500BF9B
:102EB00020464FF40061FEF773FD284603F0D0FA78
:102EC0004FF47A7000F078FFF2E700BF496E646556
:102ED0007800000000F0E4BDFEE700004BF640285B
:102EE000CFF6FB7800F090F8FDF778FD40F2F86738
:102EF00049F2A02AC2F2000740F2DD5640F25629FC
:102F0000CFF6FF7A4FF48C7B0BE000BF40F241100C
:102F100000F06CF84FF4A17000F068F80A2000F09F
:102F20004BFFB88FB042F1D3F98E788EA1F2B73251
:102F3000622A0DD8A0F2B732622A09D840F24110B5
:102F400000F054F84FF4A17000F050F834E000BFE6
:102F5000A1F2BD224A45A0F2BD220FD84A4517D89A
:102F6000A1F57A71A0F57A70421A0844C2EBC20248
:102F7000C0EBC000940085001EE000BF4A4511D898
:102F8000C0EBC00001FB0B810AEB800006E000BF34
:102F9000C1EBC10100FB0B800AEB8101441A45180B
:102FA0000AE000BFA1F57A71A0F57A70421A0844D0
:102FB00002FB0BF400FB0BF540F24110214600F040
:102FC00007F84FF4A170294600F002F8A6E70000C8
:102FD0000B46014640F2140240F22800C2F2000201
:102FE000C2F200005360FDF713BD0000014640F23D
:102FF000280040F21C02C2F20000C2F20002FDF7FB
:1030000007BD0000FEE7000041F20070C2F20000C0
:1030100003683222D96841F0100C40F29801C2F2E4
:1030200000010131C3F80CC0FFF7C2BDB0B592B0CA
:10303000002443F64000CDE90A44CDE90844059454
:10304000CDE90344CDE901440094C4F202000168D3
:10305000022541F080510160006800F0805000902E
:10306000009847F200000094C4F20000016841F4A7
:1030700080410160006800F48040009000980120C9
:1030800006904FF4803007904FF480000D9006209A
:103090000E90A820CDE90F050420119006A80C95EC
:1030A000FEF7B0FE10B172B6FEE700BF0F20CDE90B
:1030B00001054FF4A05004904FF48050059001A8F2
:1030C00005210394FEF770FD10B172B6FEE700BF54
:1030D00012B0B0BD4EF68850CEF20000016841F447
:1030E000700101607047000041F27060C2F20000A0
:1030F000FFF7D0B810B540F6FF3E0368C4F2000EEB
:1031000040F2004C7045C4F2010C27DCB0F1804F56
:1031100031D040F20042C4F2000290422BD040F67F
:103120000002C4F20002904225D041F6FF72C4F2C0
:103130000002904229DC70453CDCB0F1804F5FD04A
:1031400040F20042C4F20002904259D040F6000220
:10315000C4F20002904253D056E000BF40F6004255
:10316000C4F20002904206D0604504D00022C4F2AE
:1031700001029042D9D14A6823F07003134341F60B
:10318000FF72C4F200029042D5DD43F6FF72C4F232
:103190000102904222DC42F20002C4F2000290429C
:1031A0002ED00022C4F20102904229D0604527D0DF
:1031B0002AE000BF40F60042C4F2000290421FD055
:1031C00041F60002C4F20002904219D041F60042DA
:1031D000C4F20002904213D016E000BF44F2000295
:1031E000C4F2010290420BD044F60002C4F2010284
:1031F000904205D044F20042C4F20102904203D151
:10320000CA6823F44073134323F080024B69D1F85A
:1032100000E08C681A430260C46240F48062C0F827
:1032200028E0624504BF0969016301214161016928
:10323000C90708BF10BD016921F00101016110BD7E
:103240002DE9F04188B040F24A70C2F200004FF41C
:1032500080611E224FF4806801F058FD40F2981002
:10326000C2F2000001264FF400758DE8610040F2C3
:10327000983042F6A562B0240027C2F200001DA1DA
:10328000C0F600020023CDE903670596069402F01C
:103290002DFA40F24840C2F200008DE8610040F291
:1032A000486042F6DD62C2F2000014A1C0F60002DE
:1032B0000023CDE903670596069402F017FA04206F
:1032C00040F64A31C2F20001CDE9020040F64C70EE
:1032D00043F6B502CDE90018C2F2000009A1C0F61C
:1032E00000020023CDE90476069402F0FFF908B04D
:1032F000BDE8F081496E6465780000004D6978652D
:1033000072000000566F6C7461676500806B00216D
:10331000C185C184FFF76EB8806B01684A6990F877
:103320004130212B2ED112F080022BD00022C284FA
:1033300051E8031F026821F0C00142E80313EBB11A
:10334000016851E8031F026821F0C00142E803133D
:10335000A3B1016851E8031F026821F0C00142E8EF
:1033600003135BB1016851E8031F026821F0C0013B
:1033700042E8031313B10168DAE700BF202180F8A7
:10338000411001684A6990F84230222B7CD112F03A
:10339000400279D00022C28551E8031F026821F45F
:1033A000907142E80313C3B3016851E8031F026838
:1033B00021F4907142E803137BB3016851E8031FC5
:1033C000026821F4907142E8031333B3016851E8B5
:1033D000031F026821F4907142E80313EBB1016806
:1033E000DAE700BF016851E8051F026821F001011A
:1033F00042E80513DBB1016851E8051F026821F0BE
:10340000010142E8051393B1016851E8051F026804
:1034100021F0010142E805134BB1016851E8051F95
:10342000026821F0010142E80513002BDAD1016B9B
:10343000012924D1016851E8031F026821F010011D
:1034400042E80313DBB1016851E8031F026821F071
:10345000100142E8031393B1016851E8031F0268A9
:1034600021F0100142E803134BB1016851E8031F3A
:10347000026821F0100142E80313002BDAD1202169
:1034800080F8421000210163416C41F01001416459
:10349000FEF7B0BF0168806B0968C90500F19F8025
:1034A0000021C185016851E8031F026821F4807181
:1034B00042E80313E3B1016851E8031F026821F4F5
:1034C000807142E803139BB1016851E8031F026851
:1034D00021F4807142E8031353B1016851E8031FDE
:1034E000026821F4807142E80313002BDAD100BF97
:1034F000016851E8051F026821F0010142E8051347
:10350000BBB3016851E8051F026821F0010142E8E0
:10351000051373B3016851E8051F026821F001012A
:1035200042E805132BB3016851E8051F026821F03A
:10353000010142E80513002BDAD11AE0016851E8D5
:10354000051F026821F0400142E80513DBB1016864
:1035500051E8051F026821F0400142E8051393B1CC
:10356000016851E8051F026821F0400142E8051397
:103570004BB1016851E8051F026821F0400142E8A3
:103580000513002BDAD1202180F84210016B0129AC
:1035900025D100BF016851E8031F026821F0100126
:1035A00042E80313DBB1016851E8031F026821F010
:1035B000100142E8031393B1016851E8031F026848
:1035C00021F0100142E803134BB1016851E8031FD9
:1035D000026821F0100142E80313002BDAD1002128
:1035E0004163016B012918BFFFF792BB818DFEF784
:1035F000FFBE0000806B01214163016B012918BFF0
:10360000FFF788BB818D4908FEF7F2BE81B090F8C4
:103610004210222920D18368B3F5805F08D1016967
:10362000002957D000F128010A6803685B680AE0A6
:10363000014651F8282F13B90369002BF5D0036810
:103640005B6803F07F0313700A6801320A60C18D62
:1036500001390A04C18501D001B070470168CA6808
:1036600022F02002CA60CA6822F48072CA604A69E5
:1036700022F001024A61202280F8422000224263A7
:10368000036B012B30D1026351E8031F026821F064
:10369000100142E803135BB3016851E8031F02689D
:1036A00021F0100142E8031313B3016851E8031F2E
:1036B000026821F0100142E80313CBB1016851E820
:1036C000031F026821F0100142E8031383B101686F
:1036D000DAE700BF0168826A49686FF35F2122F868
:1036E000021B8262B3E700BF01B0FFF711BB00BF4E
:1036F00001680A68D20606D5002200920A68009284
:10370000496800910099818D01B0FEF771BE0000FB
:1037100010B504460068D4E902C22369016921F4A6
:10372000405111430161626943EA0C01E3691143AD
:10373000C268194349F20C639A431143C16041695D
:10374000A26921F4407141F20043114340F48062C8
:10375000C4F201039A42416102D1FEF709FB01E084
:10376000FEF7F2FAE16963681922B1F5004FA0FB98
:1037700002011FD15A00DB0FFCF766FE48F21F5111
:10378000C5F2EB11A0FB01235A096FF0630302FBA2
:103790000300322303EBC000A0FB01014FF4F870DB
:1037A00000EA111000EB0210C1F342112268084335
:1037B000906010BD9A009B0FFCF746FE48F21F5127
:1037C000C5F2EB11A0FB01235A096FF0630302FB62
:1037D0000300322303EB0010A0FB0101F02000EAFC
:1037E000511000EB0210C1F34311226808439060AE
:1037F00010BD000041F20070C2F20000FEF7FCBDF7
:10380000FEE7000010B541F2C854C2F200042046A1
:10381000FDF750FB20460A21FDF7CCFA2046FDF7C4
:10382000C7F980B200EE100A41F6C830C2F20000BB
:1038300090ED001AB8EEC00A9FED032A21EE000AAF
:1038400020EE020A10BD00BFBC742141B0B52DEDC1
:10385000028B9FED168A40F250040025C2F200044C
:103860002046FDF727FB20460A21FDF7A3FA204654
:10387000FDF79EF980B200EE100AB8EE400A38EE6D
:10388000000ABCEEC00AC72D05F10105B8EE408A5A
:10389000E6D39FED070A41F6C83080EE080AC2F26F
:1038A000000080ED000ABDEC028BB0BD00000000FE
:1038B00001007043FFF7CAFF08A400BFFFF7A2FF93
:1038C00010EE100AFCF703FE024620460B4602F0FB
:1038D0004DF942F2107000F06FFAEFE7566F6C741A
:1038E0006167653A20252D332E31660A00000000FD
:1038F0002DE9F04182B00F4634211E46144605469C
:10390000FCF7DAFD26F00306A6F10800A860022005
:10391000E860A0196F60C5E90646C5E9044440F8AF
:10392000084D456020604EF6EE60CFF6FF702146F0
:1039300041F8040F45F245404FF0000CC4F2592005
:1039400040F2181E0191C5F820C0EFF3108872B63E
:103950002860C2F2000EDEF8001040F21412C2F22B
:10396000000229B11368186B1D6300F12C0201E0FD
:103970002B4628461560C5E90B30481CCEF80000E0
:10398000082029463A463346CDF800C001F052FCE3
:1039900040F29410C2F200000168002945D041F2C3
:1039A000B852C2F20002127852073ED540F210021D
:1039B000C2F200021268EFF30583134340F22412AF
:1039C000C2F2000212680BD01B09B3F10F3F39BFDE
:1039D00013464FF0FF324FF0F032002306E000BFF5
:1039E000D36AD76B43EA074343F00043C1E900239E
:1039F00015228A6041F20402CEF20002126801AB85
:103A0000C1E9032540F29012C2F20002176801F1E9
:103A10002002BA42C1E90546CB610DD240F28011C5
:103A2000C2F20001096802600A6288F3108800206F
:103A300002B0BDE8F08100BF40F28C11C2F200017B
:103A40000A6841F2BC51026040F28010C2F20001EB
:103A5000C2F200000968006800290262E5D08847C8
:103A600088F31088002002B0BDE8F08180B501F035
:103A7000D5FB00F055F900F0FFFF40F2F400C2F270
:103A800000000021C0E90011C0E90211C0E90411E1
:103A9000C0E90611C0E90811C0E90A1180BD0000A3
:103AA00010B540F21004C2F20004206810F10F3F7C
:103AB0000DD04FF0F0302060FCF792FBFFF7D6FFFF
:103AC00040F23C10C2F200000168013101604FF089
:103AD000F030206040F6FC70C2F20000006802F096
:103AE00019F800202060BDE81040FCF7C1BB0000C1
:103AF0002DE9F04F81B0DDE90A5716468846DDF81A
:103B000038B0044628463946EF229A46FCF7CDFCE9
:103B1000381F20F00307E81C20F003092046B021DD
:103B2000A94518BF043FFCF7C7FC07EB09010139A1
:103B30000C9DC4E903910D9920208D422946C4F8BB
:103B40002880C4E9116AE562C4E9057BC4F81CB0A9
:103B500018BF0021C4F89C000320206344F61D20F8
:103B6000E163C4E92551C0F6000043F65D51C4E9A4
:103B70001504C0F600012046FCF7E2FBA06840F205
:103B80003412C4F8A80045F24420C5F24840EFF3CF
:103B9000108B72B6206040F23810C2F2000001684B
:103BA000C2F2000241B11368D3F88C60C3F88C40B4
:103BB00006F1880202E000BF234626460131DDF807
:103BC0003CA01460C4E9223601600120214642462F
:103BD0004B46009701F02EFB40F29410C2F2000019
:103BE0000168002959D041F2B852C2F2000252785D
:103BF000D20752D040F21002C2F200021268EFF374
:103C00000583134340F22412C2F2000212680BD063
:103C10001B09B3F10F3F39BF13464FF0FF324FF08E
:103C2000F032002306E000BFD36AD66B43EA0643B6
:103C300043F00043C1E9002364228A6041F2040298
:103C4000CEF20002126801F10C0383E8340240F264
:103C50009012C2F20002136801F120029A42CF6171
:103C600008D240F28011C2F20001096802600A62C3
:103C700013E000BF40F28C11C2F200010A6841F269
:103C8000BC51026040F28010C2F20001C2F200009A
:103C900009680068026201B1884740F23C10C2F234
:103CA00000000168BAF1010F01F10101016019D1B1
:103CB00040F21000C2F200000068EFF305810843F3
:103CC000B0F1F03F4FF000061CD340F22810C2F2D2
:103CD000000000680027B0B1C16AC66B0746C16327
:103CE00011E000BF8BF31088EFF3108172B6026809
:103CF000013A026081F3108800F09EF9002001B0C3
:103D0000BDE8F08F00278BF31088204600F0F4F90F
:103D1000002F18BFFE63002001B0BDE8F08F000047
:103D2000B0B540F22414C2F2000400252020C4E9FA
:103D3000025041F20000C2F200008021C4E90055A7
:103D4000FCF7BAFBC4E90455A561606AE56140F07F
:103D50008D7040F4807025626062B0BD10B540F295
:103D60002410C2F200000468D4E91110884740F220
:103D70004010C2F20000016809B1204688470121C5
:103D8000EFF3108072B62163A1630021E16440F279
:103D90003C11C2F200010A6801320A6080F3108807
:103DA000EFF3148020F0040080F314882046BDE86F
:103DB000104000F05FBB0000F0B581B040F224126B
:103DC000EFF3108672B6C2F20002146874B140F2CA
:103DD0001003C2F2000305461868EFF3058108439B
:103DE0000AD086F31088132001B0F0BD86F3108846
:103DF000132001B0F0BD00BF41F20410C2F2000078
:103E000084420BD085B140F23C17C2F200073868FB
:103E100080B186F31088132001B0F0BD86F31088BE
:103E2000132001B0F0BD00BF86F31088002001B060
:103E3000F0BD00BF40F2941CC2F2000CDCF8001090
:103E4000002955D041F2B850C2F200004078C007B6
:103E50004ED01868EFF30583126803430AD018099F
:103E6000B0F10F3F39BF13464FF0FF324FF0F03241
:103E7000002305E0D06AD36B40EA034040F00043E2
:103E80007020886041F20400C1E90023CEF20000F6
:103E9000006801F12002C860206BC1E90450684647
:103EA000886140F29010C2F20000006882424FF038
:103EB0000000C86108D240F28010C2F20000006821
:103EC000CCF80020026213E040F28C10C2F2000035
:103ED00041F2BC51026840F28010C2F20001C2F20D
:103EE000000009680068CCF80020026201B1884730
:103EF000042020630120A0630020C4F88400E5644E
:103F000038680130386086F31088204600F0B2FA35
:103F1000D4F8840001B0F0BDB0B5EFF3108E72B6E6
:103F2000002875D0016845F2442CC5F2484C614523
:103F30006ED1C368002B6BD0D0F8A810002967D0D1
:103F40008EF310886FF0030ECA1A95100EEA620203
:103F50009C581A44B4F1EF340CBF13461146032D9C
:103F600026D9CA1A95100EEA62029C581A44B4F176
:103F7000EF340CBF13461146042D19D3CA1A9510FD
:103F80000EEA62029C581A44B4F1EF340CBF134697
:103F90001146042D0CD3CA1A95100EEA62029C58E1
:103FA0001A44B4F1EF340CBF13461146032DCBD89D
:103FB000B4FA84F14909C1B1083200BF52F8041CB7
:103FC000B1F1EF3F0ED11168B1F1EF3F0DD1516862
:103FD000B1F1EF3F08D191681032B1F1EF3FEDD070
:103FE000083A02E0043A00E00432EFF3108E72B6B1
:103FF000016861450CD1C1688A4209D9D0F8A8107E
:104000008A4205D21168B1F1EF3F18BFC0F8A8206D
:104010008EF31088B0BD000010B540F24411EFF3EC
:10402000108472B6C2F200010968002918BF8847DF
:1040300084F3108810BD000010B540F23C10C2F2AD
:104040000000006800B110BD40F2241040F22811B9
:10405000C2F20000C2F2000100680C68A042F2D077
:10406000EFF3108072B694B3216845F24422C5F292
:10407000484291422BD1A268D4F8A810914284BF43
:10408000C4F8A8201146E2681368B3F1EF3F07D1E6
:104090002369D3F80130B3F1EF3F01D1914209D246
:1040A00080F310882046FFF7B7FFEFF3108072B659
:1040B000D4F8A81051F8041CB1F1EF3F07D080F3F9
:1040C00010882046FFF728FFEFF3108072B680F3C8
:1040D00010884EF60450CEF200004FF0805101607F
:1040E000EFF30580002818BF10BDEFF3108062B613
:1040F00080F3108810BD00002DE9F04F81B0044618
:1041000045F24428EFF3108072B6C5F2484874B304
:10411000216841452BD1A268D4F8A810914284BFF0
:10412000C4F8A8201146E2681368B3F1EF3F07D145
:104130002369D3F80130B3F1EF3F01D1914209D2A5
:1041400080F310882046FFF767FFEFF3108072B608
:10415000D4F8A81051F8041CB1F1EF3F07D080F358
:1041600010882046FFF7D8FEEFF3108072B680F378
:104170001088EFF3108772B6606E002804F14C00CF
:1041800002D000F005FD01E00021016040F2941032
:10419000C2F20000056840F2241A40F22819C2F267
:1041A000000AC2F20009EDB141F2B851C2F20001B9
:1041B0000978C90751D040F21001C2F20001096824
:1041C000EFF305820A43DAF800100DD01209B2F1BC
:1041D0000F3F39BF0A464FF0FF314FF0F031002258
:1041E00008E000BF002039E0CA6ACB6B42EA034214
:1041F00042F00042C5E900120121A96041F2040128
:10420000CEF200010968D9F80020E960216BC5E908
:1042100004416946C5E9061240F29011C2F200015C
:10422000096805F120028A4240F28011C2F20001C1
:1042300004D2096802600A620FE000BF40F28C12EB
:10424000C2F200021368036041F2BC50C2F20000E7
:1042500002680868036202B19047E86840F23C16C1
:10426000C2F20006316801393160A26B216B4AB19C
:10427000013902290ED3616B41B90021A163216389
:1042800008E000BF31B1616B002961D00021032239
:10429000226361632DB1E968884204BFD9F8000048
:1042A000E861DAF8000087F31088D9F80040A042EE
:1042B00036D0EFF3108072B674B3216841452BD12C
:1042C000A268D4F8A810914284BFC4F8A82011466F
:1042D000E2681368B3F1EF3F07D12369D3F80130E7
:1042E000B3F1EF3F01D1914209D280F3108820460B
:1042F000FFF792FEEFF3108072B6D4F8A81051F8D1
:10430000041CB1F1EF3F07D080F310882046FFF77F
:1043100003FEEFF3108072B680F31088306818B196
:1043200001B0BDE8F08F00BF4EF60450CEF20000A1
:104330004FF080510160EFF305800028F0D1EFF3DA
:10434000108062B680F3108801B0BDE8F08F00BF26
:10435000E16A41F2000CC2F2000C5CF8212000235B
:1043600023632AB1516A54620C62C4E9082191E7BF
:104370004CF8214040F22C1E40F2301C0122C2F2C7
:10438000000EC2F2000C02FA01FBDEF80020DCF89D
:10439000003042EA0B029942C4E90844CEF80020FA
:1043A000BFF478AFD9F80030CCF80010002B0093A0
:1043B0005CD0DA6B9142BFF46DAFC9F800401DB11B
:1043C000E968884208BFEC6187F31088D9F800409B
:1043D000EFF3108072B674B3216841452BD1A26807
:1043E000D4F8A810914284BFC4F8A8201146E2680E
:1043F0001368B3F1EF3F07D12369D3F80130B3F16C
:10440000EF3F01D1914209D280F310882046FFF797
:1044100003FEEFF3108072B6D4F8A81051F8041C14
:10442000B1F1EF3F07D080F310882046FFF774FD0D
:10443000EFF3108072B680F31088306800287FF4A4
:104440006FAF4EF60450CEF200004FF08051016085
:10445000EFF3058000287FF463AFEFF3108062B6BE
:1044600080F3108801B0BDE8F08F00BFC9F80040AC
:1044700010E700002DE9F04F81B040F2241AC2F29B
:10448000000A0446DAF80060EFF3108072B694B3C5
:10449000216845F24422C5F2484291422BD1A268DC
:1044A000D4F8A810914284BFC4F8A8201146E2684D
:1044B0001368B3F1EF3F07D12369D3F80130B3F1AB
:1044C000EF3F01D1914209D280F310882046FFF7D7
:1044D000A3FDEFF3108072B6D4F8A81051F8041CB5
:1044E000B1F1EF3F07D080F310882046FFF714FDAD
:1044F000EFF3108072B680F31088EFF3108772B676
:10450000A6420DD1204650F84C1F0131022928BF88
:1045100000F010FBE06940F25011C2F200010860A7
:1045200040F23C18C2F20008D8F8000040F2281906
:104530000138C8F80000A06BC2F20009012840F061
:10454000818040F29410C2F2000005684FF0000B29
:10455000E5B141F2B851C2F200010978C90752D061
:1045600040F21001C2F200010968EFF305820A432C
:10457000DAF800100ED01209B2F10F3F39BF0A4627
:104580004FF0FF314FF0F031002209E04FF0000C06
:104590003BE000BFCA6ACB6B42EA034242F00042F2
:1045A000C5E900120221A96041F20401CEF2000126
:1045B0000968D9F80020E960216BC5E90441694622
:1045C000C5E9061240F29011C2F20001096805F136
:1045D00020028A4240F28011C2F2000104D209682E
:1045E00002600A620FE000BF40F28C12C2F20002C9
:1045F0001368036041F2BC50C2F200000268086810
:10460000036202B19047D5F80CC0226AE16AA24267
:10461000C4F838B000915BD0636A53621A6241F209
:104620000003C2F2000353F82100A04208BF43F880
:104630002120D9F80010A1426CD01DB1E868844552
:1046400008BFE96187F31088D9F80040A6423CD042
:10465000EFF3108072B694B3216845F24422C5F29C
:10466000484291422BD1A268D4F8A810914284BF4D
:10467000C4F8A8201146E2681368B3F1EF3F07D1F0
:104680002369D3F80130B3F1EF3F01D1914209D250
:1046900080F310882046FFF7BFFCEFF3108072B65E
:1046A000D4F8A81051F8041CB1F1EF3F07D080F303
:1046B00010882046FFF730FCEFF3108072B680F3CD
:1046C0001088D8F80000002850D001B0BDE8F08F65
:1046D00041F2000040F22C13C2F200004FF0000E35
:1046E000C2F2000340F821E001201A68884022EA63
:1046F0000001002919604DD091FAA1F040F230116B
:10470000C2F20001B0FA80F00860D9F80010A142AE
:104710007FF493AF40F23010C2F20000006841F223
:104720000001C2F2000151F82010C9F800101DB1BB
:10473000E868844508BFE96187F31088D8F800006D
:104740000028C2D14EF60450CEF200004FF0805146
:104750000160EFF305800028B7D1EFF3108062B657
:1047600080F3108801B0BDE8F08F00BF4EF6045012
:10477000CEF200004FF080510160EFF30580002879
:10478000A3D1EFF3108062B680F3108801B0BDE8CA
:10479000F08F00BF40F23010C2F200002021016013
:1047A000C9F800E025B1E868844504BF0020E8614D
:1047B00087F31088D8F8000000287FF486AF4EF603
:1047C0000450CEF200004FF080510160EFF30580FD
:1047D00000287FF47AAFEFF3108062B680F3108880
:1047E00001B0BDE8F08F00002DE9F04782B040F243
:1047F0002419C2F20009D9F8005045F24428019565
:10480000EFF3108072B6C5F2484875B32968414588
:104810002BD1AA68D5F8A810914284BFC5F8A8206A
:104820001146EA681368B3F1EF3F07D12B69D3F85B
:104830000130B3F1EF3F01D1914209D280F31088EA
:104840002846FFF7E9FBEFF3108072B6D5F8A81001
:1048500051F8041CB1F1EF3F07D080F310882846CF
:10486000FFF75AFBEFF3108072B680F3108840F226
:104870005410EFF3108A72B6C2F2000000240460F4
:1048800015B1286B70B3002440F2100740F23C10C1
:10489000C2F20007C2F200003B68EFF30585026830
:1048A00040F29410C2F20000016800297BD041F26E
:1048B000B856C2F200063678F60774D03F68EFF3B8
:1048C00005863E43D9F8007043EA05032CD036092B
:1048D000B6F10F3F39BF3D464FF0FF374FF0F0378D
:1048E000002527E0D5E9071040F25012C2F200027D
:1048F000A842A9611160C6D0E96AEA6B9142C2D1AF
:1049000040F2301341F20002C2F20003C2F2000290
:104910001B6842F8210052F8234040F22810C2F2EE
:1049200000000460B0E700BFFE6AFD6B46EA054682
:1049300046F00045C1E9007505278F6041F2040784
:1049400040F22816CEF20007C2F200063F68366831
:10495000C1E9053240F29012C2F20002C1E90376C9
:10496000176801F1200201ABBA42CB6108D240F2D4
:104970008011C2F20001096802600A6213E000BF00
:1049800040F28C11C2F200010A6841F2BC5102608F
:1049900040F28010C2F20001C2F200000968006813
:1049A000026201B188478AF31088002C33D0EFF3FC
:1049B000108072B6216841452BD1A268D4F8A810A6
:1049C000914284BFC4F8A8201146E2681368B3F18D
:1049D000EF3F07D12369D3F80130B3F1EF3F01D1A5
:1049E000914209D280F310882046FFF715FBEFF3C0
:1049F000108072B6D4F8A81051F8041CB1F1EF3F42
:104A000007D080F310882046FFF786FAEFF3108076
:104A100072B680F3108802B0BDE8F087EFF3108221
:104A200072B6016B04290BD140F23C11C2F20001B5
:104A30000B6801330B6082F31088FFF75DBB00BF8A
:104A4000836ED0F8AC1082F31088002B08BF70473B
:104A50001847000040F23C11EFF3108072B6C2F22A
:104A600000010A6801320A6080F3108841F20410E4
:104A7000C2F20000FFF740BB2DE9F04387B041F2DE
:104A8000840640F24C14C2F2000644F64D18C2F2FD
:104A90000004002530468021C4F254182560C4E982
:104AA0000155C4E90355FBF707FD41F2B41106F1C6
:104AB0008000C2F200014FF4806204F11C0327C39E
:104AC0008DE8260041F2041046F2A44144F6CD32AE
:104AD000C2F20000C0F60001C0F600024346C4E97D
:104AE0000566CDE903550595FFF702F8E0B141F2FF
:104AF000041946F2A44644F6CD37C2F20009C0F6C6
:104B00000006C0F6000700BF04F1200207CACDE985
:104B100003258DE80700484631463A464346059549
:104B2000FEF7E6FF0028EFD1C4E90B5507B0BDE85A
:104B3000F083000001684A1C022A27D38269002AF8
:104B400018BF70474A1E202940F26411C2F20001CA
:104B5000096888BF1F2201EB820140F26812C2F28D
:104B60000002126840F26013C2F200038A1A1B6846
:104B700028BF99180A682AB1536950611861C0E9C1
:104B8000042302E0C0E9040008608161704700006E
:104B90008169002908BF70470269824208D04369D1
:104BA00053611A610B6883420AD00021816170470A
:104BB0000A688242F9D100220A60002181617047AF
:104BC00091610A6000218161704700002DE9F04F7A
:104BD00083B044F64D11C4F2541188421CBF03B097
:104BE000BDE8F08F40F2641640F2581440F25C1BAE
:104BF000C2F200060027C2F200040DF10409C2F25D
:104C0000000B0DF1080804E0206800286AD081F349
:104C10001088EFF3108072B631680A68002A029299
:104C200018BFC2F818800F6040F268123168C2F2F3
:104C30000002126804319142316005D140F26011E6
:104C4000C2F2000109683160276080F31088EFF339
:104C5000108172B605E000BF8AF31088EFF310816F
:104C600072B6029D002DCFD02869002285420192A4
:104C700014D06A69C0F81880426110612A680290F5
:104C8000212A10D3A2F120002860C5F818902D61C8
:104C90000195CBF8005081F3108816E000202A68B7
:104CA0000290212AEED2D5E90132E868002B2B6070
:104CB0000FBF00232D6101954B46AB61CBF800502F
:104CC00081F31088002A18BF9047EFF3108A72B65C
:104CD0000198CBF80070A842BED12846AF61FFF71B
:104CE00029FFB9E741F20410C2F200000322026377
:104CF000012240F23C138263C2F200031A680132BF
:104D00001A6081F31088FFF7B5FB82E72DE9F04FB9
:104D100081B002EB4203502707EB03178F4203D900
:104D2000052001B0BDE8F08F40F2941BC2F2000BE9
:104D3000DBF8007027B1202001B0BDE8F08F00BF84
:104D400041F2B8574FEA031EC2F200074FF0FF339B
:104D50003B6040F28013C2F20003186040F28413FB
:104D600000F13008C2F20003C3F8008040F288135B
:104D700008EB0E0AC2F20003002AC3F800A04AD0D2
:104D8000531E02F0030C0025032B4FF0000621D325
:104D900022F0030400F1C10701230026043607F8BE
:104DA000913C47F8905C47F88D5C07F8613C47F808
:104DB000605C47F85D5C07F8313C47F8305C47F8C9
:104DC0002D5C07F8013C3D60C7F80350B44207F181
:104DD000C007E3D1BCF1000F1DD006EB46031C0158
:104DE000012508EB031308F804500024BCF1010F5F
:104DF000C3F801405C600ED0BCF1020F83F8305064
:104E0000C3F831405C6306D0012783F86070002747
:104E1000C3F861705F6641F2C453C2F200031A60C6
:104E200041F2B453C2F200031A6041F2C052C2F21E
:104E300000020023A1EB0E011360A1F1300240F249
:104E40008C1922F01F0140F29017C2F20009514460
:104E5000C2F20007B3EB521FC9F800A0396029D095
:104E600053095F1E03F003020024032F4FF00005D7
:104E700012D30EEB000723F003039037002500BF89
:104E8000043547F8604C47F8404C47F8204C3C60EC
:104E9000AB4207F18007F3D162B16F010023012A11
:104EA0004AF8073006D00AEB4517022A3B621CBFBE
:104EB00000223A6445F24242C5F258424FF0FF33B5
:104EC0004FF40017C0E90023C0E9047AC0E906A145
:104ED0004FF0AA314FF0BB324FF0CC3340F23C17C9
:104EE000C0E90208C0E908A1C0E90A23EFF3108075
:104EF00072B6C2F2000739680131396080F3108858
:104F000040F23810C2F2000005688DB140F2341052
:104F1000C2F2000004680120E3686669A26A2146C3
:104F2000013D009600F086F9002D04F18800F1D1D2
:104F300040F27C10C2F2000005688DB140F278109A
:104F4000C2F20000046802206268E668214600237D
:104F5000013D009600F06EF9002D04F12400F1D11E
:104F600040F20810C2F20000056895B140F204104A
:104F7000C2F20000002600BF0468062062682146D5
:104F80000023013D009600F055F9002D04F11800B2
:104F9000F2D140F20010C2F20000056895B140F273
:104FA000FC00C2F2000000260468013DE06862686F
:104FB000830003202146009600F03CF9002D04F107
:104FC0003000F1D140F2F800C2F20000056895B15E
:104FD00040F2F400C2F20000002600BF0468042082
:104FE000626821460023013D009600F023F9002D60
:104FF00004F11400F2D140F22010C2F20000056862
:105000008DB140F21C10C2F2000000260468052099
:10501000626823692146013D009600F00BF9002DDE
:1050200004F12000F2D140F21010C2F20000056835
:105030008DB140F20C10C2F2000000260468072077
:105040006268A3692146013D009600F0F3F8002D47
:1050500004F12800F2D140F21810C2F200000568F5
:105060008DB140F21410C2F200000026046808203E
:105070006268E3692146013D009600F0DBF8002DEF
:1050800004F12C00F2D1EFF3108472B6386841F2CB
:10509000B85501383860D9F80010C2F2000500296F
:1050A000CBF8001000F0B1802878C00757D040F24C
:1050B0001000C2F200000068EFF30582024340F2E4
:1050C0002410C2F2000000680AD01209B2F10F3FAA
:1050D00039BF02464FF0FF304FF0F030002205E0BC
:1050E000C26AC36B42EA034242F00042C1E90002D5
:1050F0000620886041F20400CEF200000068C8601B
:1051000040F29010C2F20000026801F120009042CB
:105110004FF00002C1E90422C1E906220AD240F29E
:105120008011C2F200010968CBF800000862014654
:1051300015E000BF41F2BC50C2F20000026840F22C
:105140008010C2F20000D9F800100068CBF80010FF
:10515000016212B19047DBF80010002955D0287881
:10516000C00752D040F21000C2F200000068EFF316
:105170000582024340F22410C2F2000000680BD006
:105180001209B2F10F3F39BF02464FF0FF304FF026
:10519000F030002206E000BFC26AC36B42EA03425D
:1051A00042F00042C1E900020620886041F204009A
:1051B000CEF2000040F290130068C2F200031B68B8
:1051C000C86001F1200000229842C1E904228A61EE
:1051D000CA6109D240F28011C2F200010968CBF81D
:1051E0000000086211E000BF41F2BC50C2F20000B2
:1051F000016840F28010C2F20000D9F80020006877
:10520000CBF80020026201B1884784F31088FEF7D2
:1052100013FF002001B0BDE8F08F000040F28010C5
:10522000C2F200000021C0E90011C0E90211C0E98A
:10523000041170472DE9F04F81B040F28417C2F29B
:105240000007D7F800B0BBF1000F00F0A28141F2D7
:10525000B45EC2F2000EDEF80090B9F1000F00F06B
:105260009881009041F2C450C2F20000D0F8008052
:1052700041F2C050C2F2000006680BF1010A444638
:10528000374605E00137474528BF0027B74224D0FD
:1052900007EB47050BEB051CDCF80450B5FA85F06D
:1052A0006D1AB5FA85F540096D092843254618BFE2
:1052B0003D4611D19CF800000128E3D145453C460C
:1052C000E0D005EB450000011AF80000002818BFE7
:1052D0003D462C46D6E700BF3C46009D444580F045
:1052E0005881A9F10100CEF80000601C41F2C057BE
:1052F0004FF0000E404528BF7046C2F200073860EC
:1053000004EB44000BEB001C00010BF800E00A98D2
:105310008CF80150CCE90113CCF80C0010786346EE
:1053200003F8100F1078002800F0CC8050788CF82B
:1053300011005078002800F0C78090788CF8120097
:105340009078002800F0C280D0788CF81300D078D4
:10535000002800F0BD8010798CF814001079002826
:1053600000F0B88050798CF815005079002800F0D2
:10537000B38090798CF816009079002800F0AE8008
:10538000D0798CF81700D079002800F0A980107A25
:105390008CF81800107A002800F0A480507A8CF85D
:1053A0001900507A002800F09F80907A8CF81A003B
:1053B000907A002800F09A80D07A8CF81B00D07A7E
:1053C000002800F09580107B8CF81C00107B0028D2
:1053D00000F09080507B8CF81D00507B002800F07E
:1053E0008B80907B8CF81E00907B002800F08680DC
:1053F000D07B8CF81F00D07B002800F08180107CCF
:105400008CF82000107C002800F07C80507C8CF808
:105410002100507C002800F07780907C8CF82200DE
:10542000907C002800F07480D07C8CF82300D07C25
:10543000002800F07180107D8CF82400107D002879
:1054400000F06E80507D8CF82500507D00286BD0D8
:10545000907D8CF82600907D002869D0D07D8CF856
:105460002700D07D002867D0107E8CF82800107EA1
:10547000002865D0507E8CF82900507E002863D02B
:10548000907E8CF82A00907E002861D0D07E8CF827
:105490002B00D07E00285FD0107F8CF82C00107F6E
:1054A00000285DD0507F8CF82D00507F00285BD005
:1054B000907F8CF82E00907F1F22002808BF1E22AC
:1054C000009D53E0002251E001224FE002224DE016
:1054D00003224BE0042249E0052247E0062245E092
:1054E000072243E0082241E009223FE00A223DE092
:1054F0000B223BE00C2239E00D2237E00E2235E092
:105500000F2233E0102231E0009D11222EE000BF77
:10551000009D12222AE000BF009D132226E000BF5A
:10552000009D142222E000BF009D15221EE000BF56
:10553000009D16221AE000BF009D172216E000BF52
:10554000009D182212E000BF009D19220EE000BF4E
:10555000009D1A220AE000BF009D1B2206E000BF4A
:10556000009D1C2202E000BF009D1D22012D03F8BA
:1055700002E00BD1C86A802141EA10218CF80210A8
:105580008CF8030001B0BDE8F08F00BF0020ACF83C
:10559000020001B0BDE8F08F2DE9F04381B007466D
:1055A00000284FF0020000F09E80884608993429B8
:1055B00040F0998040F23C10EFF3108172B6C2F2D5
:1055C00000001546026899460132026081F3108896
:1055D00040F21411C2F200010B68D91BB1FA81F13B
:1055E0004FEA51162FD040F21811C2F2000109689B
:1055F00049B30222DB6ADE1BB6FA86F64FEA56167C
:1056000021D0541E8C421ED2DB6ADE1BB6FA86F60F
:105610004FEA561617D08A4215D2DB6ADE1BB6FA5D
:1056200086F64FEA56160ED0541C8C420BD2DB6A1B
:10563000DE1BB6FA86F64FEA561604D0941C8C424E
:1056400002F10402D6D3EFF3108172B60268013A78
:10565000026081F31088FEF7EFFC1EB1022001B05A
:10566000BDE8F08335B1B9F1640F07D2052001B070
:10567000BDE8F083032001B0BDE8F08340F22410C0
:10568000C2F20000016840F21000C2F2000002689D
:10569000EFF305831A4315D041F204130068C2F2F8
:1056A0000003EFF3058202430020994208BF132054
:1056B000B2F1F03F38BF1320994214D0B2F1F03F5D
:1056C00006D210E041F20410C2F20000814209D07B
:1056D000384641462A464B4601B0BDE8F043FEF746
:1056E00007B900BF132001B0BDE8F0832DE9F04FEA
:1056F00087B0074600284FF00E0054D08A4616990E
:10570000B02950D140F23C10EFF3108172B6C2F2D2
:10571000000093460268DDF844800132026081F3A4
:10572000108840F2381140F23412C2F20001C2F285
:1057300000020968109C1668994609B308EB040238
:10574000013A0023012B18BFBE4219D0F568AC42C4
:1057500004D20023AA420AD20EE000BF33699C4261
:105760004FF000033CBF01230024AA4204D3356953
:10577000AA423CBF00240123D6F888600139E1D158
:10578000EFF3108172B60268013A026081F310886B
:10579000FEF752FCBE4209D0BBF1000F4FF00300F0
:1057A00018BF002C06D107B0BDE8F08F0E2007B05F
:1057B000BDE8F08FB8F1C80F04D2052007B0BDE8EE
:1057C000F08F00BF12991F2904D90F2007B0BDE840
:1057D000F08F00BF139A8A4204D9182007B0BDE8A1
:1057E000F08F00BFDDF854C0BCF1010F04D91020C8
:1057F00007B0BDE8F08F00BF40F22410C2F20000F5
:10580000036840F21000C2F200000568EFF305865D
:105810002E4315D041F204160068C2F20006EFF3E1
:10582000058505430020B34208BF1320B5F1F03FC2
:1058300038BF1320B342B6D0B5F1F03F06D2B2E77D
:1058400041F20410C2F20000834211D01498CDE955
:1058500002120490384651465A464B46CDE900485C
:10586000CDF814C0FEF744F907B0BDE8F08F00BFD3
:10587000132007B0BDE8F08F80B582B0019041F2EF
:10588000B860C2F2000001A901220A23FDF744FA20
:10589000019802B080BD000086B041F60049C4F214
:1058A0000209FCF79FF8FDF7C1FB002643F630071D
:1058B00005960096C4F2020738684FF4E05140F0B4
:1058C000400038603868002200F0400000900098E6
:1058D000009638684FF4E05540F0010038603868B1
:1058E00000F00100009000980096386840F0020037
:1058F0003860386800F00200009000980096386820
:1059000040F008003860386800F008000090009807
:105910000096386840F004003860386800F00400F1
:10592000009000980096386840F080003860386831
:1059300000F08000009000980096386840F0200049
:105940003860386800F02000009000984846FCF766
:105950002FF8019501AD012448462946CDE90246BC
:105960000496FBF73FFFA9F5E0502946CDE9014633
:105970000396FBF737FF01963868002140F40010CA
:1059800038603868002200F40010019001980C2063
:105990000C25FCF7CDF80C20FCF7BAF841F2B86002
:1059A000A9F58631C2F200004FF4E137C0E90017D3
:1059B000C0E90266C0E90465C0E90666FCF7DCFFE1
:1059C00010B172B6FEE700BF41F24870A9F584310C
:1059D000C2F20000C0E90017C0E90266C0E9046530
:1059E000C0E90666FCF7C8FF10B172B6FEE700BF5B
:1059F00040F22805A9F5DC30C2F20005032100269B
:105A00004FF410224FF4001385E843002846C5E9FF
:105A10000362C5E90536AE83FBF7CAFB10B172B667
:105A2000FEE700BF41F20070A9F5EA31C2F20000C2
:105A300048F2A0620C24C0F201024FF480534FF4EC
:105A4000806780E8CE00C0E90546C661FCF794FF98
:105A500010B172B6FEE700BF40F20108A9F57C4123
:105A60002846C0F60078002740F8281F4FF4803100
:105A700001260497077680F82070C0E90A87C6617E
:105A800080F83070C0E90117C0E903774661FBF781
:105A900093F818B172B600BFFEE700BF112001A94C
:105AA000C1C105F1280001A9FAF7E2FF10B172B6F1
:105AB000FEE700BF41F2C8500025A9F57A41C2F2C5
:105AC0000000012404954FF48032057680F82050C0
:105AD000C0E90A85C46180F8305080E82600C0E93A
